{
	"contracts/AddressBookFactory.sol": {
		"AddressBookFactory": {
			"abi": [
				{
					"anonymous": false,
					"inputs": [
						{
							"indexed": false,
							"internalType": "address",
							"name": "addr",
							"type": "address"
						},
						{
							"indexed": false,
							"internalType": "address",
							"name": "owner",
							"type": "address"
						}
					],
					"name": "AddressBookDeployed",
					"type": "event"
				},
				{
					"inputs": [],
					"name": "deploy",
					"outputs": [
						{
							"internalType": "address",
							"name": "",
							"type": "address"
						}
					],
					"stateMutability": "nonpayable",
					"type": "function"
				}
			],
			"devdoc": {
				"kind": "dev",
				"methods": {},
				"version": 1
			},
			"evm": {
				"assembly": "    /* \"contracts/AddressBookFactory.sol\":87:392  contract AddressBookFactory {... */\n  mstore(0x40, 0x80)\n  callvalue\n  dup1\n  iszero\n  tag_1\n  jumpi\n  revert(0x00, 0x00)\ntag_1:\n  pop\n  dataSize(sub_0)\n  dup1\n  dataOffset(sub_0)\n  0x00\n  codecopy\n  0x00\n  return\nstop\n\nsub_0: assembly {\n        /* \"contracts/AddressBookFactory.sol\":87:392  contract AddressBookFactory {... */\n      mstore(0x40, 0x80)\n      callvalue\n      dup1\n      iszero\n      tag_1\n      jumpi\n      revert(0x00, 0x00)\n    tag_1:\n      pop\n      jumpi(tag_2, lt(calldatasize, 0x04))\n      shr(0xe0, calldataload(0x00))\n      dup1\n      0x775c300c\n      eq\n      tag_3\n      jumpi\n    tag_2:\n      revert(0x00, 0x00)\n        /* \"contracts/AddressBookFactory.sol\":182:390  function deploy() external returns (address) {... */\n    tag_3:\n      tag_4\n      tag_5\n      jump\t// in\n    tag_4:\n      mload(0x40)\n      tag_6\n      swap2\n      swap1\n      tag_7\n      jump\t// in\n    tag_6:\n      mload(0x40)\n      dup1\n      swap2\n      sub\n      swap1\n      return\n    tag_5:\n        /* \"contracts/AddressBookFactory.sol\":218:225  address */\n      0x00\n        /* \"contracts/AddressBookFactory.sol\":237:256  AddressBook newBook */\n      0x00\n        /* \"contracts/AddressBookFactory.sol\":275:285  msg.sender */\n      caller\n        /* \"contracts/AddressBookFactory.sol\":259:286  new AddressBook(msg.sender) */\n      mload(0x40)\n      tag_9\n      swap1\n      tag_10\n      jump\t// in\n    tag_9:\n      tag_11\n      swap2\n      swap1\n      tag_7\n      jump\t// in\n    tag_11:\n      mload(0x40)\n      dup1\n      swap2\n      sub\n      swap1\n      0x00\n      create\n      dup1\n      iszero\n      dup1\n      iszero\n      tag_12\n      jumpi\n      returndatacopy(0x00, 0x00, returndatasize)\n      revert(0x00, returndatasize)\n    tag_12:\n      pop\n        /* \"contracts/AddressBookFactory.sol\":237:286  AddressBook newBook = new AddressBook(msg.sender) */\n      swap1\n      pop\n        /* \"contracts/AddressBookFactory.sol\":301:350  AddressBookDeployed(address(newBook), msg.sender) */\n      0xda9578afd0a05de40ee1e98caa6df8585a3d1ad17fed1bbf4de60789a3d5827d\n        /* \"contracts/AddressBookFactory.sol\":329:336  newBook */\n      dup2\n        /* \"contracts/AddressBookFactory.sol\":339:349  msg.sender */\n      caller\n        /* \"contracts/AddressBookFactory.sol\":301:350  AddressBookDeployed(address(newBook), msg.sender) */\n      mload(0x40)\n      tag_13\n      swap3\n      swap2\n      swap1\n      tag_14\n      jump\t// in\n    tag_13:\n      mload(0x40)\n      dup1\n      swap2\n      sub\n      swap1\n      log1\n        /* \"contracts/AddressBookFactory.sol\":375:382  newBook */\n      dup1\n        /* \"contracts/AddressBookFactory.sol\":360:383  return address(newBook) */\n      swap2\n      pop\n      pop\n        /* \"contracts/AddressBookFactory.sol\":182:390  function deploy() external returns (address) {... */\n      swap1\n      jump\t// out\n    tag_10:\n      dataSize(sub_0)\n      dup1\n      dataOffset(sub_0)\n      dup4\n      codecopy\n      add\n      swap1\n      jump\t// out\n        /* \"#utility.yul\":7:133   */\n    tag_15:\n        /* \"#utility.yul\":44:51   */\n      0x00\n        /* \"#utility.yul\":84:126   */\n      0xffffffffffffffffffffffffffffffffffffffff\n        /* \"#utility.yul\":77:82   */\n      dup3\n        /* \"#utility.yul\":73:127   */\n      and\n        /* \"#utility.yul\":62:127   */\n      swap1\n      pop\n        /* \"#utility.yul\":7:133   */\n      swap2\n      swap1\n      pop\n      jump\t// out\n        /* \"#utility.yul\":139:235   */\n    tag_16:\n        /* \"#utility.yul\":176:183   */\n      0x00\n        /* \"#utility.yul\":205:229   */\n      tag_21\n        /* \"#utility.yul\":223:228   */\n      dup3\n        /* \"#utility.yul\":205:229   */\n      tag_15\n      jump\t// in\n    tag_21:\n        /* \"#utility.yul\":194:229   */\n      swap1\n      pop\n        /* \"#utility.yul\":139:235   */\n      swap2\n      swap1\n      pop\n      jump\t// out\n        /* \"#utility.yul\":241:359   */\n    tag_17:\n        /* \"#utility.yul\":328:352   */\n      tag_23\n        /* \"#utility.yul\":346:351   */\n      dup2\n        /* \"#utility.yul\":328:352   */\n      tag_16\n      jump\t// in\n    tag_23:\n        /* \"#utility.yul\":323:326   */\n      dup3\n        /* \"#utility.yul\":316:353   */\n      mstore\n        /* \"#utility.yul\":241:359   */\n      pop\n      pop\n      jump\t// out\n        /* \"#utility.yul\":365:587   */\n    tag_7:\n        /* \"#utility.yul\":458:462   */\n      0x00\n        /* \"#utility.yul\":496:498   */\n      0x20\n        /* \"#utility.yul\":485:494   */\n      dup3\n        /* \"#utility.yul\":481:499   */\n      add\n        /* \"#utility.yul\":473:499   */\n      swap1\n      pop\n        /* \"#utility.yul\":509:580   */\n      tag_25\n        /* \"#utility.yul\":577:578   */\n      0x00\n        /* \"#utility.yul\":566:575   */\n      dup4\n        /* \"#utility.yul\":562:579   */\n      add\n        /* \"#utility.yul\":553:559   */\n      dup5\n        /* \"#utility.yul\":509:580   */\n      tag_17\n      jump\t// in\n    tag_25:\n        /* \"#utility.yul\":365:587   */\n      swap3\n      swap2\n      pop\n      pop\n      jump\t// out\n        /* \"#utility.yul\":593:925   */\n    tag_14:\n        /* \"#utility.yul\":714:718   */\n      0x00\n        /* \"#utility.yul\":752:754   */\n      0x40\n        /* \"#utility.yul\":741:750   */\n      dup3\n        /* \"#utility.yul\":737:755   */\n      add\n        /* \"#utility.yul\":729:755   */\n      swap1\n      pop\n        /* \"#utility.yul\":765:836   */\n      tag_27\n        /* \"#utility.yul\":833:834   */\n      0x00\n        /* \"#utility.yul\":822:831   */\n      dup4\n        /* \"#utility.yul\":818:835   */\n      add\n        /* \"#utility.yul\":809:815   */\n      dup6\n        /* \"#utility.yul\":765:836   */\n      tag_17\n      jump\t// in\n    tag_27:\n        /* \"#utility.yul\":846:918   */\n      tag_28\n        /* \"#utility.yul\":914:916   */\n      0x20\n        /* \"#utility.yul\":903:912   */\n      dup4\n        /* \"#utility.yul\":899:917   */\n      add\n        /* \"#utility.yul\":890:896   */\n      dup5\n        /* \"#utility.yul\":846:918   */\n      tag_17\n      jump\t// in\n    tag_28:\n        /* \"#utility.yul\":593:925   */\n      swap4\n      swap3\n      pop\n      pop\n      pop\n      jump\t// out\n    stop\n\n    sub_0: assembly {\n            /* \"contracts/AddressBook.sol\":112:2745  contract AddressBook is Ownable {... */\n          mstore(0x40, 0x80)\n            /* \"contracts/AddressBook.sol\":173:174  1 */\n          0x01\n            /* \"contracts/AddressBook.sol\":150:174  uint private _nextId = 1 */\n          dup1\n          sstore\n            /* \"contracts/AddressBook.sol\":706:764  constructor(address initialOwner) Ownable(initialOwner) {} */\n          callvalue\n          dup1\n          iszero\n          tag_1\n          jumpi\n          revert(0x00, 0x00)\n        tag_1:\n          pop\n          mload(0x40)\n          sub(codesize, bytecodeSize)\n          dup1\n          bytecodeSize\n          dup4\n          codecopy\n          dup2\n          dup2\n          add\n          0x40\n          mstore\n          dup2\n          add\n          swap1\n          tag_2\n          swap2\n          swap1\n          tag_3\n          jump\t// in\n        tag_2:\n            /* \"contracts/AddressBook.sol\":748:760  initialOwner */\n          dup1\n            /* \"@openzeppelin/contracts/access/Ownable.sol\":1297:1298  0 */\n          0x00\n            /* \"@openzeppelin/contracts/access/Ownable.sol\":1273:1299  initialOwner == address(0) */\n          0xffffffffffffffffffffffffffffffffffffffff\n          and\n            /* \"@openzeppelin/contracts/access/Ownable.sol\":1273:1285  initialOwner */\n          dup2\n            /* \"@openzeppelin/contracts/access/Ownable.sol\":1273:1299  initialOwner == address(0) */\n          0xffffffffffffffffffffffffffffffffffffffff\n          and\n          sub\n            /* \"@openzeppelin/contracts/access/Ownable.sol\":1269:1364  if (initialOwner == address(0)) {... */\n          tag_7\n          jumpi\n            /* \"@openzeppelin/contracts/access/Ownable.sol\":1350:1351  0 */\n          0x00\n            /* \"@openzeppelin/contracts/access/Ownable.sol\":1322:1353  OwnableInvalidOwner(address(0)) */\n          mload(0x40)\n          0x1e4fbdf700000000000000000000000000000000000000000000000000000000\n          dup2\n          mstore\n          0x04\n          add\n          tag_8\n          swap2\n          swap1\n          tag_9\n          jump\t// in\n        tag_8:\n          mload(0x40)\n          dup1\n          swap2\n          sub\n          swap1\n          revert\n            /* \"@openzeppelin/contracts/access/Ownable.sol\":1269:1364  if (initialOwner == address(0)) {... */\n        tag_7:\n            /* \"@openzeppelin/contracts/access/Ownable.sol\":1373:1405  _transferOwnership(initialOwner) */\n          tag_10\n            /* \"@openzeppelin/contracts/access/Ownable.sol\":1392:1404  initialOwner */\n          dup2\n            /* \"@openzeppelin/contracts/access/Ownable.sol\":1373:1391  _transferOwnership */\n          shl(0x20, tag_11)\n            /* \"@openzeppelin/contracts/access/Ownable.sol\":1373:1405  _transferOwnership(initialOwner) */\n          0x20\n          shr\n          jump\t// in\n        tag_10:\n            /* \"@openzeppelin/contracts/access/Ownable.sol\":1225:1412  constructor(address initialOwner) {... */\n          pop\n            /* \"contracts/AddressBook.sol\":706:764  constructor(address initialOwner) Ownable(initialOwner) {} */\n          pop\n            /* \"contracts/AddressBook.sol\":112:2745  contract AddressBook is Ownable {... */\n          jump(tag_13)\n            /* \"@openzeppelin/contracts/access/Ownable.sol\":2912:3099  function _transferOwnership(address newOwner) internal virtual {... */\n        tag_11:\n            /* \"@openzeppelin/contracts/access/Ownable.sol\":2985:3001  address oldOwner */\n          0x00\n            /* \"@openzeppelin/contracts/access/Ownable.sol\":3004:3010  _owner */\n          0x00\n          0x00\n          swap1\n          sload\n          swap1\n          0x0100\n          exp\n          swap1\n          div\n          0xffffffffffffffffffffffffffffffffffffffff\n          and\n            /* \"@openzeppelin/contracts/access/Ownable.sol\":2985:3010  address oldOwner = _owner */\n          swap1\n          pop\n            /* \"@openzeppelin/contracts/access/Ownable.sol\":3029:3037  newOwner */\n          dup2\n            /* \"@openzeppelin/contracts/access/Ownable.sol\":3020:3026  _owner */\n          0x00\n          0x00\n            /* \"@openzeppelin/contracts/access/Ownable.sol\":3020:3037  _owner = newOwner */\n          0x0100\n          exp\n          dup2\n          sload\n          dup2\n          0xffffffffffffffffffffffffffffffffffffffff\n          mul\n          not\n          and\n          swap1\n          dup4\n          0xffffffffffffffffffffffffffffffffffffffff\n          and\n          mul\n          or\n          swap1\n          sstore\n          pop\n            /* \"@openzeppelin/contracts/access/Ownable.sol\":3083:3091  newOwner */\n          dup2\n            /* \"@openzeppelin/contracts/access/Ownable.sol\":3052:3092  OwnershipTransferred(oldOwner, newOwner) */\n          0xffffffffffffffffffffffffffffffffffffffff\n          and\n            /* \"@openzeppelin/contracts/access/Ownable.sol\":3073:3081  oldOwner */\n          dup2\n            /* \"@openzeppelin/contracts/access/Ownable.sol\":3052:3092  OwnershipTransferred(oldOwner, newOwner) */\n          0xffffffffffffffffffffffffffffffffffffffff\n          and\n          0x8be0079c531659141344cd1fd0a4f28419497f9722a3daafe3b4186f6b6457e0\n          mload(0x40)\n          mload(0x40)\n          dup1\n          swap2\n          sub\n          swap1\n          log3\n            /* \"@openzeppelin/contracts/access/Ownable.sol\":2975:3099  {... */\n          pop\n            /* \"@openzeppelin/contracts/access/Ownable.sol\":2912:3099  function _transferOwnership(address newOwner) internal virtual {... */\n          pop\n          jump\t// out\n            /* \"#utility.yul\":88:205   */\n        tag_16:\n            /* \"#utility.yul\":197:198   */\n          0x00\n            /* \"#utility.yul\":194:195   */\n          0x00\n            /* \"#utility.yul\":187:199   */\n          revert\n            /* \"#utility.yul\":334:460   */\n        tag_18:\n            /* \"#utility.yul\":371:378   */\n          0x00\n            /* \"#utility.yul\":411:453   */\n          0xffffffffffffffffffffffffffffffffffffffff\n            /* \"#utility.yul\":404:409   */\n          dup3\n            /* \"#utility.yul\":400:454   */\n          and\n            /* \"#utility.yul\":389:454   */\n          swap1\n          pop\n            /* \"#utility.yul\":334:460   */\n          swap2\n          swap1\n          pop\n          jump\t// out\n            /* \"#utility.yul\":466:562   */\n        tag_19:\n            /* \"#utility.yul\":503:510   */\n          0x00\n            /* \"#utility.yul\":532:556   */\n          tag_29\n            /* \"#utility.yul\":550:555   */\n          dup3\n            /* \"#utility.yul\":532:556   */\n          tag_18\n          jump\t// in\n        tag_29:\n            /* \"#utility.yul\":521:556   */\n          swap1\n          pop\n            /* \"#utility.yul\":466:562   */\n          swap2\n          swap1\n          pop\n          jump\t// out\n            /* \"#utility.yul\":568:690   */\n        tag_20:\n            /* \"#utility.yul\":641:665   */\n          tag_31\n            /* \"#utility.yul\":659:664   */\n          dup2\n            /* \"#utility.yul\":641:665   */\n          tag_19\n          jump\t// in\n        tag_31:\n            /* \"#utility.yul\":634:639   */\n          dup2\n            /* \"#utility.yul\":631:666   */\n          eq\n            /* \"#utility.yul\":621:684   */\n          tag_32\n          jumpi\n            /* \"#utility.yul\":680:681   */\n          0x00\n            /* \"#utility.yul\":677:678   */\n          0x00\n            /* \"#utility.yul\":670:682   */\n          revert\n            /* \"#utility.yul\":621:684   */\n        tag_32:\n            /* \"#utility.yul\":568:690   */\n          pop\n          jump\t// out\n            /* \"#utility.yul\":696:839   */\n        tag_21:\n            /* \"#utility.yul\":753:758   */\n          0x00\n            /* \"#utility.yul\":784:790   */\n          dup2\n            /* \"#utility.yul\":778:791   */\n          mload\n            /* \"#utility.yul\":769:791   */\n          swap1\n          pop\n            /* \"#utility.yul\":800:833   */\n          tag_34\n            /* \"#utility.yul\":827:832   */\n          dup2\n            /* \"#utility.yul\":800:833   */\n          tag_20\n          jump\t// in\n        tag_34:\n            /* \"#utility.yul\":696:839   */\n          swap3\n          swap2\n          pop\n          pop\n          jump\t// out\n            /* \"#utility.yul\":845:1196   */\n        tag_3:\n            /* \"#utility.yul\":915:921   */\n          0x00\n            /* \"#utility.yul\":964:966   */\n          0x20\n            /* \"#utility.yul\":952:961   */\n          dup3\n            /* \"#utility.yul\":943:950   */\n          dup5\n            /* \"#utility.yul\":939:962   */\n          sub\n            /* \"#utility.yul\":935:967   */\n          slt\n            /* \"#utility.yul\":932:1051   */\n          iszero\n          tag_36\n          jumpi\n            /* \"#utility.yul\":970:1049   */\n          tag_37\n          tag_16\n          jump\t// in\n        tag_37:\n            /* \"#utility.yul\":932:1051   */\n        tag_36:\n            /* \"#utility.yul\":1090:1091   */\n          0x00\n            /* \"#utility.yul\":1115:1179   */\n          tag_38\n            /* \"#utility.yul\":1171:1178   */\n          dup5\n            /* \"#utility.yul\":1162:1168   */\n          dup3\n            /* \"#utility.yul\":1151:1160   */\n          dup6\n            /* \"#utility.yul\":1147:1169   */\n          add\n            /* \"#utility.yul\":1115:1179   */\n          tag_21\n          jump\t// in\n        tag_38:\n            /* \"#utility.yul\":1105:1179   */\n          swap2\n          pop\n            /* \"#utility.yul\":1061:1189   */\n          pop\n            /* \"#utility.yul\":845:1196   */\n          swap3\n          swap2\n          pop\n          pop\n          jump\t// out\n            /* \"#utility.yul\":1202:1320   */\n        tag_22:\n            /* \"#utility.yul\":1289:1313   */\n          tag_40\n            /* \"#utility.yul\":1307:1312   */\n          dup2\n            /* \"#utility.yul\":1289:1313   */\n          tag_19\n          jump\t// in\n        tag_40:\n            /* \"#utility.yul\":1284:1287   */\n          dup3\n            /* \"#utility.yul\":1277:1314   */\n          mstore\n            /* \"#utility.yul\":1202:1320   */\n          pop\n          pop\n          jump\t// out\n            /* \"#utility.yul\":1326:1548   */\n        tag_9:\n            /* \"#utility.yul\":1419:1423   */\n          0x00\n            /* \"#utility.yul\":1457:1459   */\n          0x20\n            /* \"#utility.yul\":1446:1455   */\n          dup3\n            /* \"#utility.yul\":1442:1460   */\n          add\n            /* \"#utility.yul\":1434:1460   */\n          swap1\n          pop\n            /* \"#utility.yul\":1470:1541   */\n          tag_42\n            /* \"#utility.yul\":1538:1539   */\n          0x00\n            /* \"#utility.yul\":1527:1536   */\n          dup4\n            /* \"#utility.yul\":1523:1540   */\n          add\n            /* \"#utility.yul\":1514:1520   */\n          dup5\n            /* \"#utility.yul\":1470:1541   */\n          tag_22\n          jump\t// in\n        tag_42:\n            /* \"#utility.yul\":1326:1548   */\n          swap3\n          swap2\n          pop\n          pop\n          jump\t// out\n            /* \"contracts/AddressBook.sol\":112:2745  contract AddressBook is Ownable {... */\n        tag_13:\n          dataSize(sub_0)\n          dup1\n          dataOffset(sub_0)\n          0x00\n          codecopy\n          0x00\n          return\n        stop\n\n        sub_0: assembly {\n                /* \"contracts/AddressBook.sol\":112:2745  contract AddressBook is Ownable {... */\n              mstore(0x40, 0x80)\n              callvalue\n              dup1\n              iszero\n              tag_1\n              jumpi\n              revert(0x00, 0x00)\n            tag_1:\n              pop\n              jumpi(tag_2, lt(calldatasize, 0x04))\n              shr(0xe0, calldataload(0x00))\n              dup1\n              0xb9ed6fca\n              gt\n              tag_10\n              jumpi\n              dup1\n              0xb9ed6fca\n              eq\n              tag_6\n              jumpi\n              dup1\n              0xe6505e1e\n              eq\n              tag_7\n              jumpi\n              dup1\n              0xef1d6ddd\n              eq\n              tag_8\n              jumpi\n              dup1\n              0xf2fde38b\n              eq\n              tag_9\n              jumpi\n              jump(tag_2)\n            tag_10:\n              dup1\n              0x3f06f6e8\n              eq\n              tag_3\n              jumpi\n              dup1\n              0x715018a6\n              eq\n              tag_4\n              jumpi\n              dup1\n              0x8da5cb5b\n              eq\n              tag_5\n              jumpi\n            tag_2:\n              revert(0x00, 0x00)\n                /* \"contracts/AddressBook.sol\":770:1230  function addContact(... */\n            tag_3:\n              tag_11\n              0x04\n              dup1\n              calldatasize\n              sub\n              dup2\n              add\n              swap1\n              tag_12\n              swap2\n              swap1\n              tag_13\n              jump\t// in\n            tag_12:\n              tag_14\n              jump\t// in\n            tag_11:\n              stop\n                /* \"@openzeppelin/contracts/access/Ownable.sol\":2293:2394  function renounceOwnership() public virtual onlyOwner {... */\n            tag_4:\n              tag_15\n              tag_16\n              jump\t// in\n            tag_15:\n              stop\n                /* \"@openzeppelin/contracts/access/Ownable.sol\":1638:1723  function owner() public view virtual returns (address) {... */\n            tag_5:\n              tag_17\n              tag_18\n              jump\t// in\n            tag_17:\n              mload(0x40)\n              tag_19\n              swap2\n              swap1\n              tag_20\n              jump\t// in\n            tag_19:\n              mload(0x40)\n              dup1\n              swap2\n              sub\n              swap1\n              return\n                /* \"contracts/AddressBook.sol\":1236:1759  function deleteContact(uint _id) external onlyOwner {... */\n            tag_6:\n              tag_21\n              0x04\n              dup1\n              calldatasize\n              sub\n              dup2\n              add\n              swap1\n              tag_22\n              swap2\n              swap1\n              tag_23\n              jump\t// in\n            tag_22:\n              tag_24\n              jump\t// in\n            tag_21:\n              stop\n                /* \"contracts/AddressBook.sol\":1765:1959  function getContact(uint _id) external view returns (Contact memory) {... */\n            tag_7:\n              tag_25\n              0x04\n              dup1\n              calldatasize\n              sub\n              dup2\n              add\n              swap1\n              tag_26\n              swap2\n              swap1\n              tag_23\n              jump\t// in\n            tag_26:\n              tag_27\n              jump\t// in\n            tag_25:\n              mload(0x40)\n              tag_28\n              swap2\n              swap1\n              tag_29\n              jump\t// in\n            tag_28:\n              mload(0x40)\n              dup1\n              swap2\n              sub\n              swap1\n              return\n                /* \"contracts/AddressBook.sol\":1965:2627  function getAllContacts() external view returns (Contact[] memory) {... */\n            tag_8:\n              tag_30\n              tag_31\n              jump\t// in\n            tag_30:\n              mload(0x40)\n              tag_32\n              swap2\n              swap1\n              tag_33\n              jump\t// in\n            tag_32:\n              mload(0x40)\n              dup1\n              swap2\n              sub\n              swap1\n              return\n                /* \"@openzeppelin/contracts/access/Ownable.sol\":2543:2758  function transferOwnership(address newOwner) public virtual onlyOwner {... */\n            tag_9:\n              tag_34\n              0x04\n              dup1\n              calldatasize\n              sub\n              dup2\n              add\n              swap1\n              tag_35\n              swap2\n              swap1\n              tag_36\n              jump\t// in\n            tag_35:\n              tag_37\n              jump\t// in\n            tag_34:\n              stop\n                /* \"contracts/AddressBook.sol\":770:1230  function addContact(... */\n            tag_14:\n                /* \"@openzeppelin/contracts/access/Ownable.sol\":1531:1544  _checkOwner() */\n              tag_39\n                /* \"@openzeppelin/contracts/access/Ownable.sol\":1531:1542  _checkOwner */\n              tag_40\n                /* \"@openzeppelin/contracts/access/Ownable.sol\":1531:1544  _checkOwner() */\n              jump\t// in\n            tag_39:\n                /* \"contracts/AddressBook.sol\":929:936  uint id */\n              0x00\n                /* \"contracts/AddressBook.sol\":939:946  _nextId */\n              sload(0x01)\n                /* \"contracts/AddressBook.sol\":929:946  uint id = _nextId */\n              swap1\n              pop\n                /* \"contracts/AddressBook.sol\":972:1120  Contact({... */\n              mload(0x40)\n              dup1\n              0x80\n              add\n              0x40\n              mstore\n              dup1\n                /* \"contracts/AddressBook.sol\":998:1000  id */\n              dup3\n                /* \"contracts/AddressBook.sol\":972:1120  Contact({... */\n              dup2\n              mstore\n              0x20\n              add\n                /* \"contracts/AddressBook.sol\":1025:1035  _firstName */\n              dup6\n                /* \"contracts/AddressBook.sol\":972:1120  Contact({... */\n              dup2\n              mstore\n              0x20\n              add\n                /* \"contracts/AddressBook.sol\":1059:1068  _lastName */\n              dup5\n                /* \"contracts/AddressBook.sol\":972:1120  Contact({... */\n              dup2\n              mstore\n              0x20\n              add\n                /* \"contracts/AddressBook.sol\":1096:1109  _phoneNumbers */\n              dup4\n                /* \"contracts/AddressBook.sol\":972:1120  Contact({... */\n              dup2\n              mstore\n              pop\n                /* \"contracts/AddressBook.sol\":956:965  _contacts */\n              0x02\n                /* \"contracts/AddressBook.sol\":956:969  _contacts[id] */\n              0x00\n                /* \"contracts/AddressBook.sol\":966:968  id */\n              dup4\n                /* \"contracts/AddressBook.sol\":956:969  _contacts[id] */\n              dup2\n              mstore\n              0x20\n              add\n              swap1\n              dup2\n              mstore\n              0x20\n              add\n              0x00\n              keccak256\n                /* \"contracts/AddressBook.sol\":956:1120  _contacts[id] = Contact({... */\n              0x00\n              dup3\n              add\n              mload\n              dup2\n              0x00\n              add\n              sstore\n              0x20\n              dup3\n              add\n              mload\n              dup2\n              0x01\n              add\n              swap1\n              dup2\n              tag_42\n              swap2\n              swap1\n              tag_43\n              jump\t// in\n            tag_42:\n              pop\n              0x40\n              dup3\n              add\n              mload\n              dup2\n              0x02\n              add\n              swap1\n              dup2\n              tag_44\n              swap2\n              swap1\n              tag_43\n              jump\t// in\n            tag_44:\n              pop\n              0x60\n              dup3\n              add\n              mload\n              dup2\n              0x03\n              add\n              swap1\n              dup1\n              mload\n              swap1\n              0x20\n              add\n              swap1\n              tag_45\n              swap3\n              swap2\n              swap1\n              tag_46\n              jump\t// in\n            tag_45:\n              pop\n              swap1\n              pop\n              pop\n                /* \"contracts/AddressBook.sol\":1130:1141  _contactIds */\n              0x03\n                /* \"contracts/AddressBook.sol\":1147:1149  id */\n              dup2\n                /* \"contracts/AddressBook.sol\":1130:1150  _contactIds.push(id) */\n              swap1\n              dup1\n              0x01\n              dup2\n              sload\n              add\n              dup1\n              dup3\n              sstore\n              dup1\n              swap2\n              pop\n              pop\n              0x01\n              swap1\n              sub\n              swap1\n              0x00\n              mstore\n              keccak256(0x00, 0x20)\n              add\n              0x00\n              swap1\n              swap2\n              swap1\n              swap2\n              swap1\n              swap2\n              pop\n              sstore\n                /* \"contracts/AddressBook.sol\":1160:1167  _nextId */\n              0x01\n              0x00\n                /* \"contracts/AddressBook.sol\":1160:1169  _nextId++ */\n              dup2\n              sload\n              dup1\n              swap3\n              swap2\n              swap1\n              tag_48\n              swap1\n              tag_49\n              jump\t// in\n            tag_48:\n              swap2\n              swap1\n              pop\n              sstore\n              pop\n                /* \"contracts/AddressBook.sol\":1184:1223  ContactAdded(id, _firstName, _lastName) */\n              0x39e4b2c2e9d45c66e23d37e83635b878e526ae64e30a703725563702a9167d82\n                /* \"contracts/AddressBook.sol\":1197:1199  id */\n              dup2\n                /* \"contracts/AddressBook.sol\":1201:1211  _firstName */\n              dup6\n                /* \"contracts/AddressBook.sol\":1213:1222  _lastName */\n              dup6\n                /* \"contracts/AddressBook.sol\":1184:1223  ContactAdded(id, _firstName, _lastName) */\n              mload(0x40)\n              tag_50\n              swap4\n              swap3\n              swap2\n              swap1\n              tag_51\n              jump\t// in\n            tag_50:\n              mload(0x40)\n              dup1\n              swap2\n              sub\n              swap1\n              log1\n                /* \"contracts/AddressBook.sol\":919:1230  {... */\n              pop\n                /* \"contracts/AddressBook.sol\":770:1230  function addContact(... */\n              pop\n              pop\n              pop\n              jump\t// out\n                /* \"@openzeppelin/contracts/access/Ownable.sol\":2293:2394  function renounceOwnership() public virtual onlyOwner {... */\n            tag_16:\n                /* \"@openzeppelin/contracts/access/Ownable.sol\":1531:1544  _checkOwner() */\n              tag_53\n                /* \"@openzeppelin/contracts/access/Ownable.sol\":1531:1542  _checkOwner */\n              tag_40\n                /* \"@openzeppelin/contracts/access/Ownable.sol\":1531:1544  _checkOwner() */\n              jump\t// in\n            tag_53:\n                /* \"@openzeppelin/contracts/access/Ownable.sol\":2357:2387  _transferOwnership(address(0)) */\n              tag_55\n                /* \"@openzeppelin/contracts/access/Ownable.sol\":2384:2385  0 */\n              0x00\n                /* \"@openzeppelin/contracts/access/Ownable.sol\":2357:2375  _transferOwnership */\n              tag_56\n                /* \"@openzeppelin/contracts/access/Ownable.sol\":2357:2387  _transferOwnership(address(0)) */\n              jump\t// in\n            tag_55:\n                /* \"@openzeppelin/contracts/access/Ownable.sol\":2293:2394  function renounceOwnership() public virtual onlyOwner {... */\n              jump\t// out\n                /* \"@openzeppelin/contracts/access/Ownable.sol\":1638:1723  function owner() public view virtual returns (address) {... */\n            tag_18:\n                /* \"@openzeppelin/contracts/access/Ownable.sol\":1684:1691  address */\n              0x00\n                /* \"@openzeppelin/contracts/access/Ownable.sol\":1710:1716  _owner */\n              0x00\n              0x00\n              swap1\n              sload\n              swap1\n              0x0100\n              exp\n              swap1\n              div\n              0xffffffffffffffffffffffffffffffffffffffff\n              and\n                /* \"@openzeppelin/contracts/access/Ownable.sol\":1703:1716  return _owner */\n              swap1\n              pop\n                /* \"@openzeppelin/contracts/access/Ownable.sol\":1638:1723  function owner() public view virtual returns (address) {... */\n              swap1\n              jump\t// out\n                /* \"contracts/AddressBook.sol\":1236:1759  function deleteContact(uint _id) external onlyOwner {... */\n            tag_24:\n                /* \"@openzeppelin/contracts/access/Ownable.sol\":1531:1544  _checkOwner() */\n              tag_59\n                /* \"@openzeppelin/contracts/access/Ownable.sol\":1531:1542  _checkOwner */\n              tag_40\n                /* \"@openzeppelin/contracts/access/Ownable.sol\":1531:1544  _checkOwner() */\n              jump\t// in\n            tag_59:\n                /* \"contracts/AddressBook.sol\":1303:1322  _contactExists(_id) */\n              tag_61\n                /* \"contracts/AddressBook.sol\":1318:1321  _id */\n              dup2\n                /* \"contracts/AddressBook.sol\":1303:1317  _contactExists */\n              tag_62\n                /* \"contracts/AddressBook.sol\":1303:1322  _contactExists(_id) */\n              jump\t// in\n            tag_61:\n                /* \"contracts/AddressBook.sol\":1298:1376  if (!_contactExists(_id)) {... */\n              tag_63\n              jumpi\n                /* \"contracts/AddressBook.sol\":1361:1364  _id */\n              dup1\n                /* \"contracts/AddressBook.sol\":1345:1365  ContactNotFound(_id) */\n              mload(0x40)\n              0xf55dec0000000000000000000000000000000000000000000000000000000000\n              dup2\n              mstore\n              0x04\n              add\n              tag_64\n              swap2\n              swap1\n              tag_65\n              jump\t// in\n            tag_64:\n              mload(0x40)\n              dup1\n              swap2\n              sub\n              swap1\n              revert\n                /* \"contracts/AddressBook.sol\":1298:1376  if (!_contactExists(_id)) {... */\n            tag_63:\n                /* \"contracts/AddressBook.sol\":1424:1433  _contacts */\n              0x02\n                /* \"contracts/AddressBook.sol\":1424:1438  _contacts[_id] */\n              0x00\n                /* \"contracts/AddressBook.sol\":1434:1437  _id */\n              dup3\n                /* \"contracts/AddressBook.sol\":1424:1438  _contacts[_id] */\n              dup2\n              mstore\n              0x20\n              add\n              swap1\n              dup2\n              mstore\n              0x20\n              add\n              0x00\n              keccak256\n              0x00\n                /* \"contracts/AddressBook.sol\":1417:1438  delete _contacts[_id] */\n              0x00\n              dup3\n              add\n              0x00\n              swap1\n              sstore\n              0x01\n              dup3\n              add\n              0x00\n              tag_66\n              swap2\n              swap1\n              tag_67\n              jump\t// in\n            tag_66:\n              0x02\n              dup3\n              add\n              0x00\n              tag_68\n              swap2\n              swap1\n              tag_67\n              jump\t// in\n            tag_68:\n              0x03\n              dup3\n              add\n              0x00\n              tag_69\n              swap2\n              swap1\n              tag_70\n              jump\t// in\n            tag_69:\n              pop\n              pop\n                /* \"contracts/AddressBook.sol\":1483:1489  uint i */\n              0x00\n                /* \"contracts/AddressBook.sol\":1492:1493  0 */\n              0x00\n                /* \"contracts/AddressBook.sol\":1483:1493  uint i = 0 */\n              swap1\n              pop\n                /* \"contracts/AddressBook.sol\":1478:1718  for (uint i = 0; i < _contactIds.length; i++) {... */\n            tag_71:\n                /* \"contracts/AddressBook.sol\":1499:1510  _contactIds */\n              0x03\n                /* \"contracts/AddressBook.sol\":1499:1517  _contactIds.length */\n              dup1\n              sload\n              swap1\n              pop\n                /* \"contracts/AddressBook.sol\":1495:1496  i */\n              dup2\n                /* \"contracts/AddressBook.sol\":1495:1517  i < _contactIds.length */\n              lt\n                /* \"contracts/AddressBook.sol\":1478:1718  for (uint i = 0; i < _contactIds.length; i++) {... */\n              iszero\n              tag_72\n              jumpi\n                /* \"contracts/AddressBook.sol\":1560:1563  _id */\n              dup2\n                /* \"contracts/AddressBook.sol\":1542:1553  _contactIds */\n              0x03\n                /* \"contracts/AddressBook.sol\":1554:1555  i */\n              dup3\n                /* \"contracts/AddressBook.sol\":1542:1556  _contactIds[i] */\n              dup2\n              sload\n              dup2\n              lt\n              tag_74\n              jumpi\n              tag_75\n              tag_76\n              jump\t// in\n            tag_75:\n            tag_74:\n              swap1\n              0x00\n              mstore\n              keccak256(0x00, 0x20)\n              add\n              sload\n                /* \"contracts/AddressBook.sol\":1542:1563  _contactIds[i] == _id */\n              sub\n                /* \"contracts/AddressBook.sol\":1538:1708  if (_contactIds[i] == _id) {... */\n              tag_78\n              jumpi\n                /* \"contracts/AddressBook.sol\":1600:1611  _contactIds */\n              0x03\n                /* \"contracts/AddressBook.sol\":1633:1634  1 */\n              0x01\n                /* \"contracts/AddressBook.sol\":1612:1623  _contactIds */\n              0x03\n                /* \"contracts/AddressBook.sol\":1612:1630  _contactIds.length */\n              dup1\n              sload\n              swap1\n              pop\n                /* \"contracts/AddressBook.sol\":1612:1634  _contactIds.length - 1 */\n              tag_79\n              swap2\n              swap1\n              tag_80\n              jump\t// in\n            tag_79:\n                /* \"contracts/AddressBook.sol\":1600:1635  _contactIds[_contactIds.length - 1] */\n              dup2\n              sload\n              dup2\n              lt\n              tag_81\n              jumpi\n              tag_82\n              tag_76\n              jump\t// in\n            tag_82:\n            tag_81:\n              swap1\n              0x00\n              mstore\n              keccak256(0x00, 0x20)\n              add\n              sload\n                /* \"contracts/AddressBook.sol\":1583:1594  _contactIds */\n              0x03\n                /* \"contracts/AddressBook.sol\":1595:1596  i */\n              dup3\n                /* \"contracts/AddressBook.sol\":1583:1597  _contactIds[i] */\n              dup2\n              sload\n              dup2\n              lt\n              tag_84\n              jumpi\n              tag_85\n              tag_76\n              jump\t// in\n            tag_85:\n            tag_84:\n              swap1\n              0x00\n              mstore\n              keccak256(0x00, 0x20)\n              add\n                /* \"contracts/AddressBook.sol\":1583:1635  _contactIds[i] = _contactIds[_contactIds.length - 1] */\n              dup2\n              swap1\n              sstore\n              pop\n                /* \"contracts/AddressBook.sol\":1653:1664  _contactIds */\n              0x03\n                /* \"contracts/AddressBook.sol\":1653:1670  _contactIds.pop() */\n              dup1\n              sload\n              dup1\n              tag_87\n              jumpi\n              tag_88\n              tag_89\n              jump\t// in\n            tag_88:\n            tag_87:\n              0x01\n              swap1\n              sub\n              dup2\n              dup2\n              swap1\n              0x00\n              mstore\n              keccak256(0x00, 0x20)\n              add\n              0x00\n              swap1\n              sstore\n              swap1\n              sstore\n                /* \"contracts/AddressBook.sol\":1688:1693  break */\n              jump(tag_72)\n                /* \"contracts/AddressBook.sol\":1538:1708  if (_contactIds[i] == _id) {... */\n            tag_78:\n                /* \"contracts/AddressBook.sol\":1519:1522  i++ */\n              dup1\n              dup1\n              0x01\n              add\n              swap2\n              pop\n              pop\n                /* \"contracts/AddressBook.sol\":1478:1718  for (uint i = 0; i < _contactIds.length; i++) {... */\n              jump(tag_71)\n            tag_72:\n              pop\n                /* \"contracts/AddressBook.sol\":1733:1752  ContactDeleted(_id) */\n              0xa3c745e32bb55cfe98a4a89c04153df8d2ffea0e5a57289f08bd2d9ebdf52010\n                /* \"contracts/AddressBook.sol\":1748:1751  _id */\n              dup2\n                /* \"contracts/AddressBook.sol\":1733:1752  ContactDeleted(_id) */\n              mload(0x40)\n              tag_91\n              swap2\n              swap1\n              tag_65\n              jump\t// in\n            tag_91:\n              mload(0x40)\n              dup1\n              swap2\n              sub\n              swap1\n              log1\n                /* \"contracts/AddressBook.sol\":1236:1759  function deleteContact(uint _id) external onlyOwner {... */\n              pop\n              jump\t// out\n                /* \"contracts/AddressBook.sol\":1765:1959  function getContact(uint _id) external view returns (Contact memory) {... */\n            tag_27:\n                /* \"contracts/AddressBook.sol\":1818:1832  Contact memory */\n              tag_92\n              tag_93\n              jump\t// in\n            tag_92:\n                /* \"contracts/AddressBook.sol\":1849:1868  _contactExists(_id) */\n              tag_95\n                /* \"contracts/AddressBook.sol\":1864:1867  _id */\n              dup3\n                /* \"contracts/AddressBook.sol\":1849:1863  _contactExists */\n              tag_62\n                /* \"contracts/AddressBook.sol\":1849:1868  _contactExists(_id) */\n              jump\t// in\n            tag_95:\n                /* \"contracts/AddressBook.sol\":1844:1922  if (!_contactExists(_id)) {... */\n              tag_96\n              jumpi\n                /* \"contracts/AddressBook.sol\":1907:1910  _id */\n              dup2\n                /* \"contracts/AddressBook.sol\":1891:1911  ContactNotFound(_id) */\n              mload(0x40)\n              0xf55dec0000000000000000000000000000000000000000000000000000000000\n              dup2\n              mstore\n              0x04\n              add\n              tag_97\n              swap2\n              swap1\n              tag_65\n              jump\t// in\n            tag_97:\n              mload(0x40)\n              dup1\n              swap2\n              sub\n              swap1\n              revert\n                /* \"contracts/AddressBook.sol\":1844:1922  if (!_contactExists(_id)) {... */\n            tag_96:\n                /* \"contracts/AddressBook.sol\":1938:1947  _contacts */\n              0x02\n                /* \"contracts/AddressBook.sol\":1938:1952  _contacts[_id] */\n              0x00\n                /* \"contracts/AddressBook.sol\":1948:1951  _id */\n              dup4\n                /* \"contracts/AddressBook.sol\":1938:1952  _contacts[_id] */\n              dup2\n              mstore\n              0x20\n              add\n              swap1\n              dup2\n              mstore\n              0x20\n              add\n              0x00\n              keccak256\n                /* \"contracts/AddressBook.sol\":1931:1952  return _contacts[_id] */\n              mload(0x40)\n              dup1\n              0x80\n              add\n              0x40\n              mstore\n              swap1\n              dup2\n              0x00\n              dup3\n              add\n              sload\n              dup2\n              mstore\n              0x20\n              add\n              0x01\n              dup3\n              add\n              dup1\n              sload\n              tag_98\n              swap1\n              tag_99\n              jump\t// in\n            tag_98:\n              dup1\n              0x1f\n              add\n              0x20\n              dup1\n              swap2\n              div\n              mul\n              0x20\n              add\n              mload(0x40)\n              swap1\n              dup2\n              add\n              0x40\n              mstore\n              dup1\n              swap3\n              swap2\n              swap1\n              dup2\n              dup2\n              mstore\n              0x20\n              add\n              dup3\n              dup1\n              sload\n              tag_100\n              swap1\n              tag_99\n              jump\t// in\n            tag_100:\n              dup1\n              iszero\n              tag_101\n              jumpi\n              dup1\n              0x1f\n              lt\n              tag_102\n              jumpi\n              0x0100\n              dup1\n              dup4\n              sload\n              div\n              mul\n              dup4\n              mstore\n              swap2\n              0x20\n              add\n              swap2\n              jump(tag_101)\n            tag_102:\n              dup3\n              add\n              swap2\n              swap1\n              0x00\n              mstore\n              keccak256(0x00, 0x20)\n              swap1\n            tag_103:\n              dup2\n              sload\n              dup2\n              mstore\n              swap1\n              0x01\n              add\n              swap1\n              0x20\n              add\n              dup1\n              dup4\n              gt\n              tag_103\n              jumpi\n              dup3\n              swap1\n              sub\n              0x1f\n              and\n              dup3\n              add\n              swap2\n            tag_101:\n              pop\n              pop\n              pop\n              pop\n              pop\n              dup2\n              mstore\n              0x20\n              add\n              0x02\n              dup3\n              add\n              dup1\n              sload\n              tag_104\n              swap1\n              tag_99\n              jump\t// in\n            tag_104:\n              dup1\n              0x1f\n              add\n              0x20\n              dup1\n              swap2\n              div\n              mul\n              0x20\n              add\n              mload(0x40)\n              swap1\n              dup2\n              add\n              0x40\n              mstore\n              dup1\n              swap3\n              swap2\n              swap1\n              dup2\n              dup2\n              mstore\n              0x20\n              add\n              dup3\n              dup1\n              sload\n              tag_105\n              swap1\n              tag_99\n              jump\t// in\n            tag_105:\n              dup1\n              iszero\n              tag_106\n              jumpi\n              dup1\n              0x1f\n              lt\n              tag_107\n              jumpi\n              0x0100\n              dup1\n              dup4\n              sload\n              div\n              mul\n              dup4\n              mstore\n              swap2\n              0x20\n              add\n              swap2\n              jump(tag_106)\n            tag_107:\n              dup3\n              add\n              swap2\n              swap1\n              0x00\n              mstore\n              keccak256(0x00, 0x20)\n              swap1\n            tag_108:\n              dup2\n              sload\n              dup2\n              mstore\n              swap1\n              0x01\n              add\n              swap1\n              0x20\n              add\n              dup1\n              dup4\n              gt\n              tag_108\n              jumpi\n              dup3\n              swap1\n              sub\n              0x1f\n              and\n              dup3\n              add\n              swap2\n            tag_106:\n              pop\n              pop\n              pop\n              pop\n              pop\n              dup2\n              mstore\n              0x20\n              add\n              0x03\n              dup3\n              add\n              dup1\n              sload\n              dup1\n              0x20\n              mul\n              0x20\n              add\n              mload(0x40)\n              swap1\n              dup2\n              add\n              0x40\n              mstore\n              dup1\n              swap3\n              swap2\n              swap1\n              dup2\n              dup2\n              mstore\n              0x20\n              add\n              dup3\n              dup1\n              sload\n              dup1\n              iszero\n              tag_109\n              jumpi\n              0x20\n              mul\n              dup3\n              add\n              swap2\n              swap1\n              0x00\n              mstore\n              keccak256(0x00, 0x20)\n              swap1\n            tag_110:\n              dup2\n              sload\n              dup2\n              mstore\n              0x20\n              add\n              swap1\n              0x01\n              add\n              swap1\n              dup1\n              dup4\n              gt\n              tag_110\n              jumpi\n            tag_109:\n              pop\n              pop\n              pop\n              pop\n              pop\n              dup2\n              mstore\n              pop\n              pop\n              swap1\n              pop\n                /* \"contracts/AddressBook.sol\":1765:1959  function getContact(uint _id) external view returns (Contact memory) {... */\n              swap2\n              swap1\n              pop\n              jump\t// out\n                /* \"contracts/AddressBook.sol\":1965:2627  function getAllContacts() external view returns (Contact[] memory) {... */\n            tag_31:\n                /* \"contracts/AddressBook.sol\":2014:2030  Contact[] memory */\n              0x60\n                /* \"contracts/AddressBook.sol\":2042:2052  uint count */\n              0x00\n                /* \"contracts/AddressBook.sol\":2055:2056  0 */\n              0x00\n                /* \"contracts/AddressBook.sol\":2042:2056  uint count = 0 */\n              swap1\n              pop\n                /* \"contracts/AddressBook.sol\":2109:2115  uint i */\n              0x00\n                /* \"contracts/AddressBook.sol\":2118:2119  0 */\n              0x00\n                /* \"contracts/AddressBook.sol\":2109:2119  uint i = 0 */\n              swap1\n              pop\n                /* \"contracts/AddressBook.sol\":2104:2250  for (uint i = 0; i < _contactIds.length; i++) {... */\n            tag_112:\n                /* \"contracts/AddressBook.sol\":2125:2136  _contactIds */\n              0x03\n                /* \"contracts/AddressBook.sol\":2125:2143  _contactIds.length */\n              dup1\n              sload\n              swap1\n              pop\n                /* \"contracts/AddressBook.sol\":2121:2122  i */\n              dup2\n                /* \"contracts/AddressBook.sol\":2121:2143  i < _contactIds.length */\n              lt\n                /* \"contracts/AddressBook.sol\":2104:2250  for (uint i = 0; i < _contactIds.length; i++) {... */\n              iszero\n              tag_113\n              jumpi\n                /* \"contracts/AddressBook.sol\":2168:2198  _contactExists(_contactIds[i]) */\n              tag_115\n                /* \"contracts/AddressBook.sol\":2183:2194  _contactIds */\n              0x03\n                /* \"contracts/AddressBook.sol\":2195:2196  i */\n              dup3\n                /* \"contracts/AddressBook.sol\":2183:2197  _contactIds[i] */\n              dup2\n              sload\n              dup2\n              lt\n              tag_116\n              jumpi\n              tag_117\n              tag_76\n              jump\t// in\n            tag_117:\n            tag_116:\n              swap1\n              0x00\n              mstore\n              keccak256(0x00, 0x20)\n              add\n              sload\n                /* \"contracts/AddressBook.sol\":2168:2182  _contactExists */\n              tag_62\n                /* \"contracts/AddressBook.sol\":2168:2198  _contactExists(_contactIds[i]) */\n              jump\t// in\n            tag_115:\n                /* \"contracts/AddressBook.sol\":2164:2240  if (_contactExists(_contactIds[i])) {... */\n              iszero\n              tag_119\n              jumpi\n                /* \"contracts/AddressBook.sol\":2218:2225  count++ */\n              dup2\n              dup1\n              tag_120\n              swap1\n              tag_49\n              jump\t// in\n            tag_120:\n              swap3\n              pop\n              pop\n                /* \"contracts/AddressBook.sol\":2164:2240  if (_contactExists(_contactIds[i])) {... */\n            tag_119:\n                /* \"contracts/AddressBook.sol\":2145:2148  i++ */\n              dup1\n              dup1\n              0x01\n              add\n              swap2\n              pop\n              pop\n                /* \"contracts/AddressBook.sol\":2104:2250  for (uint i = 0; i < _contactIds.length; i++) {... */\n              jump(tag_112)\n            tag_113:\n              pop\n                /* \"contracts/AddressBook.sol\":2293:2318  Contact[] memory contacts */\n              0x00\n                /* \"contracts/AddressBook.sol\":2335:2340  count */\n              dup2\n                /* \"contracts/AddressBook.sol\":2321:2341  new Contact[](count) */\n              0xffffffffffffffff\n              dup2\n              gt\n              iszero\n              tag_121\n              jumpi\n              tag_122\n              tag_123\n              jump\t// in\n            tag_122:\n            tag_121:\n              mload(0x40)\n              swap1\n              dup1\n              dup3\n              mstore\n              dup1\n              0x20\n              mul\n              0x20\n              add\n              dup3\n              add\n              0x40\n              mstore\n              dup1\n              iszero\n              tag_124\n              jumpi\n              dup2\n              0x20\n              add\n            tag_125:\n              tag_126\n              tag_93\n              jump\t// in\n            tag_126:\n              dup2\n              mstore\n              0x20\n              add\n              swap1\n              0x01\n              swap1\n              sub\n              swap1\n              dup2\n              tag_125\n              jumpi\n              swap1\n              pop\n            tag_124:\n              pop\n                /* \"contracts/AddressBook.sol\":2293:2341  Contact[] memory contacts = new Contact[](count) */\n              swap1\n              pop\n                /* \"contracts/AddressBook.sol\":2351:2361  uint index */\n              0x00\n                /* \"contracts/AddressBook.sol\":2364:2365  0 */\n              0x00\n                /* \"contracts/AddressBook.sol\":2351:2365  uint index = 0 */\n              swap1\n              pop\n                /* \"contracts/AddressBook.sol\":2380:2386  uint i */\n              0x00\n                /* \"contracts/AddressBook.sol\":2389:2390  0 */\n              0x00\n                /* \"contracts/AddressBook.sol\":2380:2390  uint i = 0 */\n              swap1\n              pop\n                /* \"contracts/AddressBook.sol\":2375:2596  for (uint i = 0; i < _contactIds.length; i++) {... */\n            tag_127:\n                /* \"contracts/AddressBook.sol\":2396:2407  _contactIds */\n              0x03\n                /* \"contracts/AddressBook.sol\":2396:2414  _contactIds.length */\n              dup1\n              sload\n              swap1\n              pop\n                /* \"contracts/AddressBook.sol\":2392:2393  i */\n              dup2\n                /* \"contracts/AddressBook.sol\":2392:2414  i < _contactIds.length */\n              lt\n                /* \"contracts/AddressBook.sol\":2375:2596  for (uint i = 0; i < _contactIds.length; i++) {... */\n              iszero\n              tag_128\n              jumpi\n                /* \"contracts/AddressBook.sol\":2435:2442  uint id */\n              0x00\n                /* \"contracts/AddressBook.sol\":2445:2456  _contactIds */\n              0x03\n                /* \"contracts/AddressBook.sol\":2457:2458  i */\n              dup3\n                /* \"contracts/AddressBook.sol\":2445:2459  _contactIds[i] */\n              dup2\n              sload\n              dup2\n              lt\n              tag_130\n              jumpi\n              tag_131\n              tag_76\n              jump\t// in\n            tag_131:\n            tag_130:\n              swap1\n              0x00\n              mstore\n              keccak256(0x00, 0x20)\n              add\n              sload\n                /* \"contracts/AddressBook.sol\":2435:2459  uint id = _contactIds[i] */\n              swap1\n              pop\n                /* \"contracts/AddressBook.sol\":2477:2495  _contactExists(id) */\n              tag_133\n                /* \"contracts/AddressBook.sol\":2492:2494  id */\n              dup2\n                /* \"contracts/AddressBook.sol\":2477:2491  _contactExists */\n              tag_62\n                /* \"contracts/AddressBook.sol\":2477:2495  _contactExists(id) */\n              jump\t// in\n            tag_133:\n                /* \"contracts/AddressBook.sol\":2473:2586  if (_contactExists(id)) {... */\n              iszero\n              tag_134\n              jumpi\n                /* \"contracts/AddressBook.sol\":2533:2542  _contacts */\n              0x02\n                /* \"contracts/AddressBook.sol\":2533:2546  _contacts[id] */\n              0x00\n                /* \"contracts/AddressBook.sol\":2543:2545  id */\n              dup3\n                /* \"contracts/AddressBook.sol\":2533:2546  _contacts[id] */\n              dup2\n              mstore\n              0x20\n              add\n              swap1\n              dup2\n              mstore\n              0x20\n              add\n              0x00\n              keccak256\n                /* \"contracts/AddressBook.sol\":2515:2546  contacts[index] = _contacts[id] */\n              mload(0x40)\n              dup1\n              0x80\n              add\n              0x40\n              mstore\n              swap1\n              dup2\n              0x00\n              dup3\n              add\n              sload\n              dup2\n              mstore\n              0x20\n              add\n              0x01\n              dup3\n              add\n              dup1\n              sload\n              tag_135\n              swap1\n              tag_99\n              jump\t// in\n            tag_135:\n              dup1\n              0x1f\n              add\n              0x20\n              dup1\n              swap2\n              div\n              mul\n              0x20\n              add\n              mload(0x40)\n              swap1\n              dup2\n              add\n              0x40\n              mstore\n              dup1\n              swap3\n              swap2\n              swap1\n              dup2\n              dup2\n              mstore\n              0x20\n              add\n              dup3\n              dup1\n              sload\n              tag_136\n              swap1\n              tag_99\n              jump\t// in\n            tag_136:\n              dup1\n              iszero\n              tag_137\n              jumpi\n              dup1\n              0x1f\n              lt\n              tag_138\n              jumpi\n              0x0100\n              dup1\n              dup4\n              sload\n              div\n              mul\n              dup4\n              mstore\n              swap2\n              0x20\n              add\n              swap2\n              jump(tag_137)\n            tag_138:\n              dup3\n              add\n              swap2\n              swap1\n              0x00\n              mstore\n              keccak256(0x00, 0x20)\n              swap1\n            tag_139:\n              dup2\n              sload\n              dup2\n              mstore\n              swap1\n              0x01\n              add\n              swap1\n              0x20\n              add\n              dup1\n              dup4\n              gt\n              tag_139\n              jumpi\n              dup3\n              swap1\n              sub\n              0x1f\n              and\n              dup3\n              add\n              swap2\n            tag_137:\n              pop\n              pop\n              pop\n              pop\n              pop\n              dup2\n              mstore\n              0x20\n              add\n              0x02\n              dup3\n              add\n              dup1\n              sload\n              tag_140\n              swap1\n              tag_99\n              jump\t// in\n            tag_140:\n              dup1\n              0x1f\n              add\n              0x20\n              dup1\n              swap2\n              div\n              mul\n              0x20\n              add\n              mload(0x40)\n              swap1\n              dup2\n              add\n              0x40\n              mstore\n              dup1\n              swap3\n              swap2\n              swap1\n              dup2\n              dup2\n              mstore\n              0x20\n              add\n              dup3\n              dup1\n              sload\n              tag_141\n              swap1\n              tag_99\n              jump\t// in\n            tag_141:\n              dup1\n              iszero\n              tag_142\n              jumpi\n              dup1\n              0x1f\n              lt\n              tag_143\n              jumpi\n              0x0100\n              dup1\n              dup4\n              sload\n              div\n              mul\n              dup4\n              mstore\n              swap2\n              0x20\n              add\n              swap2\n              jump(tag_142)\n            tag_143:\n              dup3\n              add\n              swap2\n              swap1\n              0x00\n              mstore\n              keccak256(0x00, 0x20)\n              swap1\n            tag_144:\n              dup2\n              sload\n              dup2\n              mstore\n              swap1\n              0x01\n              add\n              swap1\n              0x20\n              add\n              dup1\n              dup4\n              gt\n              tag_144\n              jumpi\n              dup3\n              swap1\n              sub\n              0x1f\n              and\n              dup3\n              add\n              swap2\n            tag_142:\n              pop\n              pop\n              pop\n              pop\n              pop\n              dup2\n              mstore\n              0x20\n              add\n              0x03\n              dup3\n              add\n              dup1\n              sload\n              dup1\n              0x20\n              mul\n              0x20\n              add\n              mload(0x40)\n              swap1\n              dup2\n              add\n              0x40\n              mstore\n              dup1\n              swap3\n              swap2\n              swap1\n              dup2\n              dup2\n              mstore\n              0x20\n              add\n              dup3\n              dup1\n              sload\n              dup1\n              iszero\n              tag_145\n              jumpi\n              0x20\n              mul\n              dup3\n              add\n              swap2\n              swap1\n              0x00\n              mstore\n              keccak256(0x00, 0x20)\n              swap1\n            tag_146:\n              dup2\n              sload\n              dup2\n              mstore\n              0x20\n              add\n              swap1\n              0x01\n              add\n              swap1\n              dup1\n              dup4\n              gt\n              tag_146\n              jumpi\n            tag_145:\n              pop\n              pop\n              pop\n              pop\n              pop\n              dup2\n              mstore\n              pop\n              pop\n                /* \"contracts/AddressBook.sol\":2515:2523  contacts */\n              dup5\n                /* \"contracts/AddressBook.sol\":2524:2529  index */\n              dup5\n                /* \"contracts/AddressBook.sol\":2515:2530  contacts[index] */\n              dup2\n              mload\n              dup2\n              lt\n              tag_147\n              jumpi\n              tag_148\n              tag_76\n              jump\t// in\n            tag_148:\n            tag_147:\n              0x20\n              mul\n              0x20\n              add\n              add\n                /* \"contracts/AddressBook.sol\":2515:2546  contacts[index] = _contacts[id] */\n              dup2\n              swap1\n              mstore\n              pop\n                /* \"contracts/AddressBook.sol\":2564:2571  index++ */\n              dup3\n              dup1\n              tag_149\n              swap1\n              tag_49\n              jump\t// in\n            tag_149:\n              swap4\n              pop\n              pop\n                /* \"contracts/AddressBook.sol\":2473:2586  if (_contactExists(id)) {... */\n            tag_134:\n                /* \"contracts/AddressBook.sol\":2421:2596  {... */\n              pop\n                /* \"contracts/AddressBook.sol\":2416:2419  i++ */\n              dup1\n              dup1\n              0x01\n              add\n              swap2\n              pop\n              pop\n                /* \"contracts/AddressBook.sol\":2375:2596  for (uint i = 0; i < _contactIds.length; i++) {... */\n              jump(tag_127)\n            tag_128:\n              pop\n                /* \"contracts/AddressBook.sol\":2612:2620  contacts */\n              dup2\n                /* \"contracts/AddressBook.sol\":2605:2620  return contacts */\n              swap4\n              pop\n              pop\n              pop\n              pop\n                /* \"contracts/AddressBook.sol\":1965:2627  function getAllContacts() external view returns (Contact[] memory) {... */\n              swap1\n              jump\t// out\n                /* \"@openzeppelin/contracts/access/Ownable.sol\":2543:2758  function transferOwnership(address newOwner) public virtual onlyOwner {... */\n            tag_37:\n                /* \"@openzeppelin/contracts/access/Ownable.sol\":1531:1544  _checkOwner() */\n              tag_151\n                /* \"@openzeppelin/contracts/access/Ownable.sol\":1531:1542  _checkOwner */\n              tag_40\n                /* \"@openzeppelin/contracts/access/Ownable.sol\":1531:1544  _checkOwner() */\n              jump\t// in\n            tag_151:\n                /* \"@openzeppelin/contracts/access/Ownable.sol\":2647:2648  0 */\n              0x00\n                /* \"@openzeppelin/contracts/access/Ownable.sol\":2627:2649  newOwner == address(0) */\n              0xffffffffffffffffffffffffffffffffffffffff\n              and\n                /* \"@openzeppelin/contracts/access/Ownable.sol\":2627:2635  newOwner */\n              dup2\n                /* \"@openzeppelin/contracts/access/Ownable.sol\":2627:2649  newOwner == address(0) */\n              0xffffffffffffffffffffffffffffffffffffffff\n              and\n              sub\n                /* \"@openzeppelin/contracts/access/Ownable.sol\":2623:2714  if (newOwner == address(0)) {... */\n              tag_153\n              jumpi\n                /* \"@openzeppelin/contracts/access/Ownable.sol\":2700:2701  0 */\n              0x00\n                /* \"@openzeppelin/contracts/access/Ownable.sol\":2672:2703  OwnableInvalidOwner(address(0)) */\n              mload(0x40)\n              0x1e4fbdf700000000000000000000000000000000000000000000000000000000\n              dup2\n              mstore\n              0x04\n              add\n              tag_154\n              swap2\n              swap1\n              tag_20\n              jump\t// in\n            tag_154:\n              mload(0x40)\n              dup1\n              swap2\n              sub\n              swap1\n              revert\n                /* \"@openzeppelin/contracts/access/Ownable.sol\":2623:2714  if (newOwner == address(0)) {... */\n            tag_153:\n                /* \"@openzeppelin/contracts/access/Ownable.sol\":2723:2751  _transferOwnership(newOwner) */\n              tag_155\n                /* \"@openzeppelin/contracts/access/Ownable.sol\":2742:2750  newOwner */\n              dup2\n                /* \"@openzeppelin/contracts/access/Ownable.sol\":2723:2741  _transferOwnership */\n              tag_56\n                /* \"@openzeppelin/contracts/access/Ownable.sol\":2723:2751  _transferOwnership(newOwner) */\n              jump\t// in\n            tag_155:\n                /* \"@openzeppelin/contracts/access/Ownable.sol\":2543:2758  function transferOwnership(address newOwner) public virtual onlyOwner {... */\n              pop\n              jump\t// out\n                /* \"@openzeppelin/contracts/access/Ownable.sol\":1796:1958  function _checkOwner() internal view virtual {... */\n            tag_40:\n                /* \"@openzeppelin/contracts/access/Ownable.sol\":1866:1878  _msgSender() */\n              tag_157\n                /* \"@openzeppelin/contracts/access/Ownable.sol\":1866:1876  _msgSender */\n              tag_158\n                /* \"@openzeppelin/contracts/access/Ownable.sol\":1866:1878  _msgSender() */\n              jump\t// in\n            tag_157:\n                /* \"@openzeppelin/contracts/access/Ownable.sol\":1855:1878  owner() != _msgSender() */\n              0xffffffffffffffffffffffffffffffffffffffff\n              and\n                /* \"@openzeppelin/contracts/access/Ownable.sol\":1855:1862  owner() */\n              tag_159\n                /* \"@openzeppelin/contracts/access/Ownable.sol\":1855:1860  owner */\n              tag_18\n                /* \"@openzeppelin/contracts/access/Ownable.sol\":1855:1862  owner() */\n              jump\t// in\n            tag_159:\n                /* \"@openzeppelin/contracts/access/Ownable.sol\":1855:1878  owner() != _msgSender() */\n              0xffffffffffffffffffffffffffffffffffffffff\n              and\n              eq\n                /* \"@openzeppelin/contracts/access/Ownable.sol\":1851:1952  if (owner() != _msgSender()) {... */\n              tag_160\n              jumpi\n                /* \"@openzeppelin/contracts/access/Ownable.sol\":1928:1940  _msgSender() */\n              tag_161\n                /* \"@openzeppelin/contracts/access/Ownable.sol\":1928:1938  _msgSender */\n              tag_158\n                /* \"@openzeppelin/contracts/access/Ownable.sol\":1928:1940  _msgSender() */\n              jump\t// in\n            tag_161:\n                /* \"@openzeppelin/contracts/access/Ownable.sol\":1901:1941  OwnableUnauthorizedAccount(_msgSender()) */\n              mload(0x40)\n              0x118cdaa700000000000000000000000000000000000000000000000000000000\n              dup2\n              mstore\n              0x04\n              add\n              tag_162\n              swap2\n              swap1\n              tag_20\n              jump\t// in\n            tag_162:\n              mload(0x40)\n              dup1\n              swap2\n              sub\n              swap1\n              revert\n                /* \"@openzeppelin/contracts/access/Ownable.sol\":1851:1952  if (owner() != _msgSender()) {... */\n            tag_160:\n                /* \"@openzeppelin/contracts/access/Ownable.sol\":1796:1958  function _checkOwner() internal view virtual {... */\n              jump\t// out\n                /* \"@openzeppelin/contracts/access/Ownable.sol\":2912:3099  function _transferOwnership(address newOwner) internal virtual {... */\n            tag_56:\n                /* \"@openzeppelin/contracts/access/Ownable.sol\":2985:3001  address oldOwner */\n              0x00\n                /* \"@openzeppelin/contracts/access/Ownable.sol\":3004:3010  _owner */\n              0x00\n              0x00\n              swap1\n              sload\n              swap1\n              0x0100\n              exp\n              swap1\n              div\n              0xffffffffffffffffffffffffffffffffffffffff\n              and\n                /* \"@openzeppelin/contracts/access/Ownable.sol\":2985:3010  address oldOwner = _owner */\n              swap1\n              pop\n                /* \"@openzeppelin/contracts/access/Ownable.sol\":3029:3037  newOwner */\n              dup2\n                /* \"@openzeppelin/contracts/access/Ownable.sol\":3020:3026  _owner */\n              0x00\n              0x00\n                /* \"@openzeppelin/contracts/access/Ownable.sol\":3020:3037  _owner = newOwner */\n              0x0100\n              exp\n              dup2\n              sload\n              dup2\n              0xffffffffffffffffffffffffffffffffffffffff\n              mul\n              not\n              and\n              swap1\n              dup4\n              0xffffffffffffffffffffffffffffffffffffffff\n              and\n              mul\n              or\n              swap1\n              sstore\n              pop\n                /* \"@openzeppelin/contracts/access/Ownable.sol\":3083:3091  newOwner */\n              dup2\n                /* \"@openzeppelin/contracts/access/Ownable.sol\":3052:3092  OwnershipTransferred(oldOwner, newOwner) */\n              0xffffffffffffffffffffffffffffffffffffffff\n              and\n                /* \"@openzeppelin/contracts/access/Ownable.sol\":3073:3081  oldOwner */\n              dup2\n                /* \"@openzeppelin/contracts/access/Ownable.sol\":3052:3092  OwnershipTransferred(oldOwner, newOwner) */\n              0xffffffffffffffffffffffffffffffffffffffff\n              and\n              0x8be0079c531659141344cd1fd0a4f28419497f9722a3daafe3b4186f6b6457e0\n              mload(0x40)\n              mload(0x40)\n              dup1\n              swap2\n              sub\n              swap1\n              log3\n                /* \"@openzeppelin/contracts/access/Ownable.sol\":2975:3099  {... */\n              pop\n                /* \"@openzeppelin/contracts/access/Ownable.sol\":2912:3099  function _transferOwnership(address newOwner) internal virtual {... */\n              pop\n              jump\t// out\n                /* \"contracts/AddressBook.sol\":2633:2743  function _contactExists(uint _id) private view returns (bool) {... */\n            tag_62:\n                /* \"contracts/AddressBook.sol\":2689:2693  bool */\n              0x00\n                /* \"contracts/AddressBook.sol\":2733:2736  _id */\n              dup2\n                /* \"contracts/AddressBook.sol\":2712:2721  _contacts */\n              0x02\n                /* \"contracts/AddressBook.sol\":2712:2726  _contacts[_id] */\n              0x00\n                /* \"contracts/AddressBook.sol\":2722:2725  _id */\n              dup5\n                /* \"contracts/AddressBook.sol\":2712:2726  _contacts[_id] */\n              dup2\n              mstore\n              0x20\n              add\n              swap1\n              dup2\n              mstore\n              0x20\n              add\n              0x00\n              keccak256\n                /* \"contracts/AddressBook.sol\":2712:2729  _contacts[_id].id */\n              0x00\n              add\n              sload\n                /* \"contracts/AddressBook.sol\":2712:2736  _contacts[_id].id == _id */\n              eq\n                /* \"contracts/AddressBook.sol\":2705:2736  return _contacts[_id].id == _id */\n              swap1\n              pop\n                /* \"contracts/AddressBook.sol\":2633:2743  function _contactExists(uint _id) private view returns (bool) {... */\n              swap2\n              swap1\n              pop\n              jump\t// out\n                /* \"@openzeppelin/contracts/utils/Context.sol\":656:752  function _msgSender() internal view virtual returns (address) {... */\n            tag_158:\n                /* \"@openzeppelin/contracts/utils/Context.sol\":709:716  address */\n              0x00\n                /* \"@openzeppelin/contracts/utils/Context.sol\":735:745  msg.sender */\n              caller\n                /* \"@openzeppelin/contracts/utils/Context.sol\":728:745  return msg.sender */\n              swap1\n              pop\n                /* \"@openzeppelin/contracts/utils/Context.sol\":656:752  function _msgSender() internal view virtual returns (address) {... */\n              swap1\n              jump\t// out\n            tag_46:\n              dup3\n              dup1\n              sload\n              dup3\n              dup3\n              sstore\n              swap1\n              0x00\n              mstore\n              keccak256(0x00, 0x20)\n              swap1\n              dup2\n              add\n              swap3\n              dup3\n              iszero\n              tag_166\n              jumpi\n              swap2\n              0x20\n              mul\n              dup3\n              add\n            tag_167:\n              dup3\n              dup2\n              gt\n              iszero\n              tag_168\n              jumpi\n              dup3\n              mload\n              dup3\n              sstore\n              swap2\n              0x20\n              add\n              swap2\n              swap1\n              0x01\n              add\n              swap1\n              jump(tag_167)\n            tag_168:\n            tag_166:\n              pop\n              swap1\n              pop\n              tag_169\n              swap2\n              swap1\n              tag_170\n              jump\t// in\n            tag_169:\n              pop\n              swap1\n              jump\t// out\n            tag_67:\n              pop\n              dup1\n              sload\n              tag_171\n              swap1\n              tag_99\n              jump\t// in\n            tag_171:\n              0x00\n              dup3\n              sstore\n              dup1\n              0x1f\n              lt\n              tag_173\n              jumpi\n              pop\n              jump(tag_172)\n            tag_173:\n              0x1f\n              add\n              0x20\n              swap1\n              div\n              swap1\n              0x00\n              mstore\n              keccak256(0x00, 0x20)\n              swap1\n              dup2\n              add\n              swap1\n              tag_174\n              swap2\n              swap1\n              tag_170\n              jump\t// in\n            tag_174:\n            tag_172:\n              pop\n              jump\t// out\n            tag_70:\n              pop\n              dup1\n              sload\n              0x00\n              dup3\n              sstore\n              swap1\n              0x00\n              mstore\n              keccak256(0x00, 0x20)\n              swap1\n              dup2\n              add\n              swap1\n              tag_176\n              swap2\n              swap1\n              tag_170\n              jump\t// in\n            tag_176:\n              pop\n              jump\t// out\n            tag_93:\n              mload(0x40)\n              dup1\n              0x80\n              add\n              0x40\n              mstore\n              dup1\n              0x00\n              dup2\n              mstore\n              0x20\n              add\n              0x60\n              dup2\n              mstore\n              0x20\n              add\n              0x60\n              dup2\n              mstore\n              0x20\n              add\n              0x60\n              dup2\n              mstore\n              pop\n              swap1\n              jump\t// out\n            tag_170:\n            tag_177:\n              dup1\n              dup3\n              gt\n              iszero\n              tag_178\n              jumpi\n              0x00\n              dup2\n              0x00\n              swap1\n              sstore\n              pop\n              0x01\n              add\n              jump(tag_177)\n            tag_178:\n              pop\n              swap1\n              jump\t// out\n                /* \"#utility.yul\":7:82   */\n            tag_179:\n                /* \"#utility.yul\":40:46   */\n              0x00\n                /* \"#utility.yul\":73:75   */\n              0x40\n                /* \"#utility.yul\":67:76   */\n              mload\n                /* \"#utility.yul\":57:76   */\n              swap1\n              pop\n                /* \"#utility.yul\":7:82   */\n              swap1\n              jump\t// out\n                /* \"#utility.yul\":88:205   */\n            tag_180:\n                /* \"#utility.yul\":197:198   */\n              0x00\n                /* \"#utility.yul\":194:195   */\n              0x00\n                /* \"#utility.yul\":187:199   */\n              revert\n                /* \"#utility.yul\":211:328   */\n            tag_181:\n                /* \"#utility.yul\":320:321   */\n              0x00\n                /* \"#utility.yul\":317:318   */\n              0x00\n                /* \"#utility.yul\":310:322   */\n              revert\n                /* \"#utility.yul\":334:451   */\n            tag_182:\n                /* \"#utility.yul\":443:444   */\n              0x00\n                /* \"#utility.yul\":440:441   */\n              0x00\n                /* \"#utility.yul\":433:445   */\n              revert\n                /* \"#utility.yul\":457:574   */\n            tag_183:\n                /* \"#utility.yul\":566:567   */\n              0x00\n                /* \"#utility.yul\":563:564   */\n              0x00\n                /* \"#utility.yul\":556:568   */\n              revert\n                /* \"#utility.yul\":580:682   */\n            tag_184:\n                /* \"#utility.yul\":621:627   */\n              0x00\n                /* \"#utility.yul\":672:674   */\n              0x1f\n                /* \"#utility.yul\":668:675   */\n              not\n                /* \"#utility.yul\":663:665   */\n              0x1f\n                /* \"#utility.yul\":656:661   */\n              dup4\n                /* \"#utility.yul\":652:666   */\n              add\n                /* \"#utility.yul\":648:676   */\n              and\n                /* \"#utility.yul\":638:676   */\n              swap1\n              pop\n                /* \"#utility.yul\":580:682   */\n              swap2\n              swap1\n              pop\n              jump\t// out\n                /* \"#utility.yul\":688:868   */\n            tag_123:\n                /* \"#utility.yul\":736:813   */\n              0x4e487b7100000000000000000000000000000000000000000000000000000000\n                /* \"#utility.yul\":733:734   */\n              0x00\n                /* \"#utility.yul\":726:814   */\n              mstore\n                /* \"#utility.yul\":833:837   */\n              0x41\n                /* \"#utility.yul\":830:831   */\n              0x04\n                /* \"#utility.yul\":823:838   */\n              mstore\n                /* \"#utility.yul\":857:861   */\n              0x24\n                /* \"#utility.yul\":854:855   */\n              0x00\n                /* \"#utility.yul\":847:862   */\n              revert\n                /* \"#utility.yul\":874:1155   */\n            tag_185:\n                /* \"#utility.yul\":957:984   */\n              tag_251\n                /* \"#utility.yul\":979:983   */\n              dup3\n                /* \"#utility.yul\":957:984   */\n              tag_184\n              jump\t// in\n            tag_251:\n                /* \"#utility.yul\":949:955   */\n              dup2\n                /* \"#utility.yul\":945:985   */\n              add\n                /* \"#utility.yul\":1087:1093   */\n              dup2\n                /* \"#utility.yul\":1075:1085   */\n              dup2\n                /* \"#utility.yul\":1072:1094   */\n              lt\n                /* \"#utility.yul\":1051:1069   */\n              0xffffffffffffffff\n                /* \"#utility.yul\":1039:1049   */\n              dup3\n                /* \"#utility.yul\":1036:1070   */\n              gt\n                /* \"#utility.yul\":1033:1095   */\n              or\n                /* \"#utility.yul\":1030:1118   */\n              iszero\n              tag_252\n              jumpi\n                /* \"#utility.yul\":1098:1116   */\n              tag_253\n              tag_123\n              jump\t// in\n            tag_253:\n                /* \"#utility.yul\":1030:1118   */\n            tag_252:\n                /* \"#utility.yul\":1138:1148   */\n              dup1\n                /* \"#utility.yul\":1134:1136   */\n              0x40\n                /* \"#utility.yul\":1127:1149   */\n              mstore\n                /* \"#utility.yul\":917:1155   */\n              pop\n                /* \"#utility.yul\":874:1155   */\n              pop\n              pop\n              jump\t// out\n                /* \"#utility.yul\":1161:1290   */\n            tag_186:\n                /* \"#utility.yul\":1195:1201   */\n              0x00\n                /* \"#utility.yul\":1222:1242   */\n              tag_255\n              tag_179\n              jump\t// in\n            tag_255:\n                /* \"#utility.yul\":1212:1242   */\n              swap1\n              pop\n                /* \"#utility.yul\":1251:1284   */\n              tag_256\n                /* \"#utility.yul\":1279:1283   */\n              dup3\n                /* \"#utility.yul\":1271:1277   */\n              dup3\n                /* \"#utility.yul\":1251:1284   */\n              tag_185\n              jump\t// in\n            tag_256:\n                /* \"#utility.yul\":1161:1290   */\n              swap2\n              swap1\n              pop\n              jump\t// out\n                /* \"#utility.yul\":1296:1604   */\n            tag_187:\n                /* \"#utility.yul\":1358:1362   */\n              0x00\n                /* \"#utility.yul\":1448:1466   */\n              0xffffffffffffffff\n                /* \"#utility.yul\":1440:1446   */\n              dup3\n                /* \"#utility.yul\":1437:1467   */\n              gt\n                /* \"#utility.yul\":1434:1490   */\n              iszero\n              tag_258\n              jumpi\n                /* \"#utility.yul\":1470:1488   */\n              tag_259\n              tag_123\n              jump\t// in\n            tag_259:\n                /* \"#utility.yul\":1434:1490   */\n            tag_258:\n                /* \"#utility.yul\":1508:1537   */\n              tag_260\n                /* \"#utility.yul\":1530:1536   */\n              dup3\n                /* \"#utility.yul\":1508:1537   */\n              tag_184\n              jump\t// in\n            tag_260:\n                /* \"#utility.yul\":1500:1537   */\n              swap1\n              pop\n                /* \"#utility.yul\":1592:1596   */\n              0x20\n                /* \"#utility.yul\":1586:1590   */\n              dup2\n                /* \"#utility.yul\":1582:1597   */\n              add\n                /* \"#utility.yul\":1574:1597   */\n              swap1\n              pop\n                /* \"#utility.yul\":1296:1604   */\n              swap2\n              swap1\n              pop\n              jump\t// out\n                /* \"#utility.yul\":1610:1758   */\n            tag_188:\n                /* \"#utility.yul\":1708:1714   */\n              dup3\n                /* \"#utility.yul\":1703:1706   */\n              dup2\n                /* \"#utility.yul\":1698:1701   */\n              dup4\n                /* \"#utility.yul\":1685:1715   */\n              calldatacopy\n                /* \"#utility.yul\":1749:1750   */\n              0x00\n                /* \"#utility.yul\":1740:1746   */\n              dup4\n                /* \"#utility.yul\":1735:1738   */\n              dup4\n                /* \"#utility.yul\":1731:1747   */\n              add\n                /* \"#utility.yul\":1724:1751   */\n              mstore\n                /* \"#utility.yul\":1610:1758   */\n              pop\n              pop\n              pop\n              jump\t// out\n                /* \"#utility.yul\":1764:2189   */\n            tag_189:\n                /* \"#utility.yul\":1842:1847   */\n              0x00\n                /* \"#utility.yul\":1867:1933   */\n              tag_263\n                /* \"#utility.yul\":1883:1932   */\n              tag_264\n                /* \"#utility.yul\":1925:1931   */\n              dup5\n                /* \"#utility.yul\":1883:1932   */\n              tag_187\n              jump\t// in\n            tag_264:\n                /* \"#utility.yul\":1867:1933   */\n              tag_186\n              jump\t// in\n            tag_263:\n                /* \"#utility.yul\":1858:1933   */\n              swap1\n              pop\n                /* \"#utility.yul\":1956:1962   */\n              dup3\n                /* \"#utility.yul\":1949:1954   */\n              dup2\n                /* \"#utility.yul\":1942:1963   */\n              mstore\n                /* \"#utility.yul\":1994:1998   */\n              0x20\n                /* \"#utility.yul\":1987:1992   */\n              dup2\n                /* \"#utility.yul\":1983:1999   */\n              add\n                /* \"#utility.yul\":2032:2035   */\n              dup5\n                /* \"#utility.yul\":2023:2029   */\n              dup5\n                /* \"#utility.yul\":2018:2021   */\n              dup5\n                /* \"#utility.yul\":2014:2030   */\n              add\n                /* \"#utility.yul\":2011:2036   */\n              gt\n                /* \"#utility.yul\":2008:2120   */\n              iszero\n              tag_265\n              jumpi\n                /* \"#utility.yul\":2039:2118   */\n              tag_266\n              tag_183\n              jump\t// in\n            tag_266:\n                /* \"#utility.yul\":2008:2120   */\n            tag_265:\n                /* \"#utility.yul\":2129:2183   */\n              tag_267\n                /* \"#utility.yul\":2176:2182   */\n              dup5\n                /* \"#utility.yul\":2171:2174   */\n              dup3\n                /* \"#utility.yul\":2166:2169   */\n              dup6\n                /* \"#utility.yul\":2129:2183   */\n              tag_188\n              jump\t// in\n            tag_267:\n                /* \"#utility.yul\":1848:2189   */\n              pop\n                /* \"#utility.yul\":1764:2189   */\n              swap4\n              swap3\n              pop\n              pop\n              pop\n              jump\t// out\n                /* \"#utility.yul\":2209:2549   */\n            tag_190:\n                /* \"#utility.yul\":2265:2270   */\n              0x00\n                /* \"#utility.yul\":2314:2317   */\n              dup3\n                /* \"#utility.yul\":2307:2311   */\n              0x1f\n                /* \"#utility.yul\":2299:2305   */\n              dup4\n                /* \"#utility.yul\":2295:2312   */\n              add\n                /* \"#utility.yul\":2291:2318   */\n              slt\n                /* \"#utility.yul\":2281:2403   */\n              tag_269\n              jumpi\n                /* \"#utility.yul\":2322:2401   */\n              tag_270\n              tag_182\n              jump\t// in\n            tag_270:\n                /* \"#utility.yul\":2281:2403   */\n            tag_269:\n                /* \"#utility.yul\":2439:2445   */\n              dup2\n                /* \"#utility.yul\":2426:2446   */\n              calldataload\n                /* \"#utility.yul\":2464:2543   */\n              tag_271\n                /* \"#utility.yul\":2539:2542   */\n              dup5\n                /* \"#utility.yul\":2531:2537   */\n              dup3\n                /* \"#utility.yul\":2524:2528   */\n              0x20\n                /* \"#utility.yul\":2516:2522   */\n              dup7\n                /* \"#utility.yul\":2512:2529   */\n              add\n                /* \"#utility.yul\":2464:2543   */\n              tag_189\n              jump\t// in\n            tag_271:\n                /* \"#utility.yul\":2455:2543   */\n              swap2\n              pop\n                /* \"#utility.yul\":2271:2549   */\n              pop\n                /* \"#utility.yul\":2209:2549   */\n              swap3\n              swap2\n              pop\n              pop\n              jump\t// out\n                /* \"#utility.yul\":2555:2866   */\n            tag_191:\n                /* \"#utility.yul\":2632:2636   */\n              0x00\n                /* \"#utility.yul\":2722:2740   */\n              0xffffffffffffffff\n                /* \"#utility.yul\":2714:2720   */\n              dup3\n                /* \"#utility.yul\":2711:2741   */\n              gt\n                /* \"#utility.yul\":2708:2764   */\n              iszero\n              tag_273\n              jumpi\n                /* \"#utility.yul\":2744:2762   */\n              tag_274\n              tag_123\n              jump\t// in\n            tag_274:\n                /* \"#utility.yul\":2708:2764   */\n            tag_273:\n                /* \"#utility.yul\":2794:2798   */\n              0x20\n                /* \"#utility.yul\":2786:2792   */\n              dup3\n                /* \"#utility.yul\":2782:2799   */\n              mul\n                /* \"#utility.yul\":2774:2799   */\n              swap1\n              pop\n                /* \"#utility.yul\":2854:2858   */\n              0x20\n                /* \"#utility.yul\":2848:2852   */\n              dup2\n                /* \"#utility.yul\":2844:2859   */\n              add\n                /* \"#utility.yul\":2836:2859   */\n              swap1\n              pop\n                /* \"#utility.yul\":2555:2866   */\n              swap2\n              swap1\n              pop\n              jump\t// out\n                /* \"#utility.yul\":2872:2989   */\n            tag_192:\n                /* \"#utility.yul\":2981:2982   */\n              0x00\n                /* \"#utility.yul\":2978:2979   */\n              0x00\n                /* \"#utility.yul\":2971:2983   */\n              revert\n                /* \"#utility.yul\":2995:3072   */\n            tag_193:\n                /* \"#utility.yul\":3032:3039   */\n              0x00\n                /* \"#utility.yul\":3061:3066   */\n              dup2\n                /* \"#utility.yul\":3050:3066   */\n              swap1\n              pop\n                /* \"#utility.yul\":2995:3072   */\n              swap2\n              swap1\n              pop\n              jump\t// out\n                /* \"#utility.yul\":3078:3200   */\n            tag_194:\n                /* \"#utility.yul\":3151:3175   */\n              tag_278\n                /* \"#utility.yul\":3169:3174   */\n              dup2\n                /* \"#utility.yul\":3151:3175   */\n              tag_193\n              jump\t// in\n            tag_278:\n                /* \"#utility.yul\":3144:3149   */\n              dup2\n                /* \"#utility.yul\":3141:3176   */\n              eq\n                /* \"#utility.yul\":3131:3194   */\n              tag_279\n              jumpi\n                /* \"#utility.yul\":3190:3191   */\n              0x00\n                /* \"#utility.yul\":3187:3188   */\n              0x00\n                /* \"#utility.yul\":3180:3192   */\n              revert\n                /* \"#utility.yul\":3131:3194   */\n            tag_279:\n                /* \"#utility.yul\":3078:3200   */\n              pop\n              jump\t// out\n                /* \"#utility.yul\":3206:3345   */\n            tag_195:\n                /* \"#utility.yul\":3252:3257   */\n              0x00\n                /* \"#utility.yul\":3290:3296   */\n              dup2\n                /* \"#utility.yul\":3277:3297   */\n              calldataload\n                /* \"#utility.yul\":3268:3297   */\n              swap1\n              pop\n                /* \"#utility.yul\":3306:3339   */\n              tag_281\n                /* \"#utility.yul\":3333:3338   */\n              dup2\n                /* \"#utility.yul\":3306:3339   */\n              tag_194\n              jump\t// in\n            tag_281:\n                /* \"#utility.yul\":3206:3345   */\n              swap3\n              swap2\n              pop\n              pop\n              jump\t// out\n                /* \"#utility.yul\":3368:4078   */\n            tag_196:\n                /* \"#utility.yul\":3464:3469   */\n              0x00\n                /* \"#utility.yul\":3489:3570   */\n              tag_283\n                /* \"#utility.yul\":3505:3569   */\n              tag_284\n                /* \"#utility.yul\":3562:3568   */\n              dup5\n                /* \"#utility.yul\":3505:3569   */\n              tag_191\n              jump\t// in\n            tag_284:\n                /* \"#utility.yul\":3489:3570   */\n              tag_186\n              jump\t// in\n            tag_283:\n                /* \"#utility.yul\":3480:3570   */\n              swap1\n              pop\n                /* \"#utility.yul\":3590:3595   */\n              dup1\n                /* \"#utility.yul\":3619:3625   */\n              dup4\n                /* \"#utility.yul\":3612:3617   */\n              dup3\n                /* \"#utility.yul\":3605:3626   */\n              mstore\n                /* \"#utility.yul\":3653:3657   */\n              0x20\n                /* \"#utility.yul\":3646:3651   */\n              dup3\n                /* \"#utility.yul\":3642:3658   */\n              add\n                /* \"#utility.yul\":3635:3658   */\n              swap1\n              pop\n                /* \"#utility.yul\":3706:3710   */\n              0x20\n                /* \"#utility.yul\":3698:3704   */\n              dup5\n                /* \"#utility.yul\":3694:3711   */\n              mul\n                /* \"#utility.yul\":3686:3692   */\n              dup4\n                /* \"#utility.yul\":3682:3712   */\n              add\n                /* \"#utility.yul\":3735:3738   */\n              dup6\n                /* \"#utility.yul\":3727:3733   */\n              dup2\n                /* \"#utility.yul\":3724:3739   */\n              gt\n                /* \"#utility.yul\":3721:3843   */\n              iszero\n              tag_285\n              jumpi\n                /* \"#utility.yul\":3754:3833   */\n              tag_286\n              tag_192\n              jump\t// in\n            tag_286:\n                /* \"#utility.yul\":3721:3843   */\n            tag_285:\n                /* \"#utility.yul\":3869:3875   */\n              dup4\n                /* \"#utility.yul\":3852:4072   */\n            tag_287:\n                /* \"#utility.yul\":3886:3892   */\n              dup2\n                /* \"#utility.yul\":3881:3884   */\n              dup2\n                /* \"#utility.yul\":3878:3893   */\n              lt\n                /* \"#utility.yul\":3852:4072   */\n              iszero\n              tag_289\n              jumpi\n                /* \"#utility.yul\":3961:3964   */\n              dup1\n                /* \"#utility.yul\":3990:4027   */\n              tag_290\n                /* \"#utility.yul\":4023:4026   */\n              dup9\n                /* \"#utility.yul\":4011:4021   */\n              dup3\n                /* \"#utility.yul\":3990:4027   */\n              tag_195\n              jump\t// in\n            tag_290:\n                /* \"#utility.yul\":3985:3988   */\n              dup5\n                /* \"#utility.yul\":3978:4028   */\n              mstore\n                /* \"#utility.yul\":4057:4061   */\n              0x20\n                /* \"#utility.yul\":4052:4055   */\n              dup5\n                /* \"#utility.yul\":4048:4062   */\n              add\n                /* \"#utility.yul\":4041:4062   */\n              swap4\n              pop\n                /* \"#utility.yul\":3928:4072   */\n              pop\n                /* \"#utility.yul\":3912:3916   */\n              0x20\n                /* \"#utility.yul\":3907:3910   */\n              dup2\n                /* \"#utility.yul\":3903:3917   */\n              add\n                /* \"#utility.yul\":3896:3917   */\n              swap1\n              pop\n                /* \"#utility.yul\":3852:4072   */\n              jump(tag_287)\n            tag_289:\n                /* \"#utility.yul\":3856:3877   */\n              pop\n                /* \"#utility.yul\":3470:4078   */\n              pop\n              pop\n                /* \"#utility.yul\":3368:4078   */\n              swap4\n              swap3\n              pop\n              pop\n              pop\n              jump\t// out\n                /* \"#utility.yul\":4101:4471   */\n            tag_197:\n                /* \"#utility.yul\":4172:4177   */\n              0x00\n                /* \"#utility.yul\":4221:4224   */\n              dup3\n                /* \"#utility.yul\":4214:4218   */\n              0x1f\n                /* \"#utility.yul\":4206:4212   */\n              dup4\n                /* \"#utility.yul\":4202:4219   */\n              add\n                /* \"#utility.yul\":4198:4225   */\n              slt\n                /* \"#utility.yul\":4188:4310   */\n              tag_292\n              jumpi\n                /* \"#utility.yul\":4229:4308   */\n              tag_293\n              tag_182\n              jump\t// in\n            tag_293:\n                /* \"#utility.yul\":4188:4310   */\n            tag_292:\n                /* \"#utility.yul\":4346:4352   */\n              dup2\n                /* \"#utility.yul\":4333:4353   */\n              calldataload\n                /* \"#utility.yul\":4371:4465   */\n              tag_294\n                /* \"#utility.yul\":4461:4464   */\n              dup5\n                /* \"#utility.yul\":4453:4459   */\n              dup3\n                /* \"#utility.yul\":4446:4450   */\n              0x20\n                /* \"#utility.yul\":4438:4444   */\n              dup7\n                /* \"#utility.yul\":4434:4451   */\n              add\n                /* \"#utility.yul\":4371:4465   */\n              tag_196\n              jump\t// in\n            tag_294:\n                /* \"#utility.yul\":4362:4465   */\n              swap2\n              pop\n                /* \"#utility.yul\":4178:4471   */\n              pop\n                /* \"#utility.yul\":4101:4471   */\n              swap3\n              swap2\n              pop\n              pop\n              jump\t// out\n                /* \"#utility.yul\":4477:5666   */\n            tag_13:\n                /* \"#utility.yul\":4599:4605   */\n              0x00\n                /* \"#utility.yul\":4607:4613   */\n              0x00\n                /* \"#utility.yul\":4615:4621   */\n              0x00\n                /* \"#utility.yul\":4664:4666   */\n              0x60\n                /* \"#utility.yul\":4652:4661   */\n              dup5\n                /* \"#utility.yul\":4643:4650   */\n              dup7\n                /* \"#utility.yul\":4639:4662   */\n              sub\n                /* \"#utility.yul\":4635:4667   */\n              slt\n                /* \"#utility.yul\":4632:4751   */\n              iszero\n              tag_296\n              jumpi\n                /* \"#utility.yul\":4670:4749   */\n              tag_297\n              tag_180\n              jump\t// in\n            tag_297:\n                /* \"#utility.yul\":4632:4751   */\n            tag_296:\n                /* \"#utility.yul\":4818:4819   */\n              0x00\n                /* \"#utility.yul\":4807:4816   */\n              dup5\n                /* \"#utility.yul\":4803:4820   */\n              add\n                /* \"#utility.yul\":4790:4821   */\n              calldataload\n                /* \"#utility.yul\":4848:4866   */\n              0xffffffffffffffff\n                /* \"#utility.yul\":4840:4846   */\n              dup2\n                /* \"#utility.yul\":4837:4867   */\n              gt\n                /* \"#utility.yul\":4834:4951   */\n              iszero\n              tag_298\n              jumpi\n                /* \"#utility.yul\":4870:4949   */\n              tag_299\n              tag_181\n              jump\t// in\n            tag_299:\n                /* \"#utility.yul\":4834:4951   */\n            tag_298:\n                /* \"#utility.yul\":4975:5038   */\n              tag_300\n                /* \"#utility.yul\":5030:5037   */\n              dup7\n                /* \"#utility.yul\":5021:5027   */\n              dup3\n                /* \"#utility.yul\":5010:5019   */\n              dup8\n                /* \"#utility.yul\":5006:5028   */\n              add\n                /* \"#utility.yul\":4975:5038   */\n              tag_190\n              jump\t// in\n            tag_300:\n                /* \"#utility.yul\":4965:5038   */\n              swap4\n              pop\n                /* \"#utility.yul\":4761:5048   */\n              pop\n                /* \"#utility.yul\":5115:5117   */\n              0x20\n                /* \"#utility.yul\":5104:5113   */\n              dup5\n                /* \"#utility.yul\":5100:5118   */\n              add\n                /* \"#utility.yul\":5087:5119   */\n              calldataload\n                /* \"#utility.yul\":5146:5164   */\n              0xffffffffffffffff\n                /* \"#utility.yul\":5138:5144   */\n              dup2\n                /* \"#utility.yul\":5135:5165   */\n              gt\n                /* \"#utility.yul\":5132:5249   */\n              iszero\n              tag_301\n              jumpi\n                /* \"#utility.yul\":5168:5247   */\n              tag_302\n              tag_181\n              jump\t// in\n            tag_302:\n                /* \"#utility.yul\":5132:5249   */\n            tag_301:\n                /* \"#utility.yul\":5273:5336   */\n              tag_303\n                /* \"#utility.yul\":5328:5335   */\n              dup7\n                /* \"#utility.yul\":5319:5325   */\n              dup3\n                /* \"#utility.yul\":5308:5317   */\n              dup8\n                /* \"#utility.yul\":5304:5326   */\n              add\n                /* \"#utility.yul\":5273:5336   */\n              tag_190\n              jump\t// in\n            tag_303:\n                /* \"#utility.yul\":5263:5336   */\n              swap3\n              pop\n                /* \"#utility.yul\":5058:5346   */\n              pop\n                /* \"#utility.yul\":5413:5415   */\n              0x40\n                /* \"#utility.yul\":5402:5411   */\n              dup5\n                /* \"#utility.yul\":5398:5416   */\n              add\n                /* \"#utility.yul\":5385:5417   */\n              calldataload\n                /* \"#utility.yul\":5444:5462   */\n              0xffffffffffffffff\n                /* \"#utility.yul\":5436:5442   */\n              dup2\n                /* \"#utility.yul\":5433:5463   */\n              gt\n                /* \"#utility.yul\":5430:5547   */\n              iszero\n              tag_304\n              jumpi\n                /* \"#utility.yul\":5466:5545   */\n              tag_305\n              tag_181\n              jump\t// in\n            tag_305:\n                /* \"#utility.yul\":5430:5547   */\n            tag_304:\n                /* \"#utility.yul\":5571:5649   */\n              tag_306\n                /* \"#utility.yul\":5641:5648   */\n              dup7\n                /* \"#utility.yul\":5632:5638   */\n              dup3\n                /* \"#utility.yul\":5621:5630   */\n              dup8\n                /* \"#utility.yul\":5617:5639   */\n              add\n                /* \"#utility.yul\":5571:5649   */\n              tag_197\n              jump\t// in\n            tag_306:\n                /* \"#utility.yul\":5561:5649   */\n              swap2\n              pop\n                /* \"#utility.yul\":5356:5659   */\n              pop\n                /* \"#utility.yul\":4477:5666   */\n              swap3\n              pop\n              swap3\n              pop\n              swap3\n              jump\t// out\n                /* \"#utility.yul\":5672:5798   */\n            tag_198:\n                /* \"#utility.yul\":5709:5716   */\n              0x00\n                /* \"#utility.yul\":5749:5791   */\n              0xffffffffffffffffffffffffffffffffffffffff\n                /* \"#utility.yul\":5742:5747   */\n              dup3\n                /* \"#utility.yul\":5738:5792   */\n              and\n                /* \"#utility.yul\":5727:5792   */\n              swap1\n              pop\n                /* \"#utility.yul\":5672:5798   */\n              swap2\n              swap1\n              pop\n              jump\t// out\n                /* \"#utility.yul\":5804:5900   */\n            tag_199:\n                /* \"#utility.yul\":5841:5848   */\n              0x00\n                /* \"#utility.yul\":5870:5894   */\n              tag_309\n                /* \"#utility.yul\":5888:5893   */\n              dup3\n                /* \"#utility.yul\":5870:5894   */\n              tag_198\n              jump\t// in\n            tag_309:\n                /* \"#utility.yul\":5859:5894   */\n              swap1\n              pop\n                /* \"#utility.yul\":5804:5900   */\n              swap2\n              swap1\n              pop\n              jump\t// out\n                /* \"#utility.yul\":5906:6024   */\n            tag_200:\n                /* \"#utility.yul\":5993:6017   */\n              tag_311\n                /* \"#utility.yul\":6011:6016   */\n              dup2\n                /* \"#utility.yul\":5993:6017   */\n              tag_199\n              jump\t// in\n            tag_311:\n                /* \"#utility.yul\":5988:5991   */\n              dup3\n                /* \"#utility.yul\":5981:6018   */\n              mstore\n                /* \"#utility.yul\":5906:6024   */\n              pop\n              pop\n              jump\t// out\n                /* \"#utility.yul\":6030:6252   */\n            tag_20:\n                /* \"#utility.yul\":6123:6127   */\n              0x00\n                /* \"#utility.yul\":6161:6163   */\n              0x20\n                /* \"#utility.yul\":6150:6159   */\n              dup3\n                /* \"#utility.yul\":6146:6164   */\n              add\n                /* \"#utility.yul\":6138:6164   */\n              swap1\n              pop\n                /* \"#utility.yul\":6174:6245   */\n              tag_313\n                /* \"#utility.yul\":6242:6243   */\n              0x00\n                /* \"#utility.yul\":6231:6240   */\n              dup4\n                /* \"#utility.yul\":6227:6244   */\n              add\n                /* \"#utility.yul\":6218:6224   */\n              dup5\n                /* \"#utility.yul\":6174:6245   */\n              tag_200\n              jump\t// in\n            tag_313:\n                /* \"#utility.yul\":6030:6252   */\n              swap3\n              swap2\n              pop\n              pop\n              jump\t// out\n                /* \"#utility.yul\":6258:6587   */\n            tag_23:\n                /* \"#utility.yul\":6317:6323   */\n              0x00\n                /* \"#utility.yul\":6366:6368   */\n              0x20\n                /* \"#utility.yul\":6354:6363   */\n              dup3\n                /* \"#utility.yul\":6345:6352   */\n              dup5\n                /* \"#utility.yul\":6341:6364   */\n              sub\n                /* \"#utility.yul\":6337:6369   */\n              slt\n                /* \"#utility.yul\":6334:6453   */\n              iszero\n              tag_315\n              jumpi\n                /* \"#utility.yul\":6372:6451   */\n              tag_316\n              tag_180\n              jump\t// in\n            tag_316:\n                /* \"#utility.yul\":6334:6453   */\n            tag_315:\n                /* \"#utility.yul\":6492:6493   */\n              0x00\n                /* \"#utility.yul\":6517:6570   */\n              tag_317\n                /* \"#utility.yul\":6562:6569   */\n              dup5\n                /* \"#utility.yul\":6553:6559   */\n              dup3\n                /* \"#utility.yul\":6542:6551   */\n              dup6\n                /* \"#utility.yul\":6538:6560   */\n              add\n                /* \"#utility.yul\":6517:6570   */\n              tag_195\n              jump\t// in\n            tag_317:\n                /* \"#utility.yul\":6507:6570   */\n              swap2\n              pop\n                /* \"#utility.yul\":6463:6580   */\n              pop\n                /* \"#utility.yul\":6258:6587   */\n              swap3\n              swap2\n              pop\n              pop\n              jump\t// out\n                /* \"#utility.yul\":6593:6701   */\n            tag_201:\n                /* \"#utility.yul\":6670:6694   */\n              tag_319\n                /* \"#utility.yul\":6688:6693   */\n              dup2\n                /* \"#utility.yul\":6670:6694   */\n              tag_193\n              jump\t// in\n            tag_319:\n                /* \"#utility.yul\":6665:6668   */\n              dup3\n                /* \"#utility.yul\":6658:6695   */\n              mstore\n                /* \"#utility.yul\":6593:6701   */\n              pop\n              pop\n              jump\t// out\n                /* \"#utility.yul\":6707:6806   */\n            tag_202:\n                /* \"#utility.yul\":6759:6765   */\n              0x00\n                /* \"#utility.yul\":6793:6798   */\n              dup2\n                /* \"#utility.yul\":6787:6799   */\n              mload\n                /* \"#utility.yul\":6777:6799   */\n              swap1\n              pop\n                /* \"#utility.yul\":6707:6806   */\n              swap2\n              swap1\n              pop\n              jump\t// out\n                /* \"#utility.yul\":6812:6971   */\n            tag_203:\n                /* \"#utility.yul\":6886:6897   */\n              0x00\n                /* \"#utility.yul\":6920:6926   */\n              dup3\n                /* \"#utility.yul\":6915:6918   */\n              dup3\n                /* \"#utility.yul\":6908:6927   */\n              mstore\n                /* \"#utility.yul\":6960:6964   */\n              0x20\n                /* \"#utility.yul\":6955:6958   */\n              dup3\n                /* \"#utility.yul\":6951:6965   */\n              add\n                /* \"#utility.yul\":6936:6965   */\n              swap1\n              pop\n                /* \"#utility.yul\":6812:6971   */\n              swap3\n              swap2\n              pop\n              pop\n              jump\t// out\n                /* \"#utility.yul\":6977:7116   */\n            tag_204:\n                /* \"#utility.yul\":7066:7072   */\n              dup3\n                /* \"#utility.yul\":7061:7064   */\n              dup2\n                /* \"#utility.yul\":7056:7059   */\n              dup4\n                /* \"#utility.yul\":7050:7073   */\n              mcopy\n                /* \"#utility.yul\":7107:7108   */\n              0x00\n                /* \"#utility.yul\":7098:7104   */\n              dup4\n                /* \"#utility.yul\":7093:7096   */\n              dup4\n                /* \"#utility.yul\":7089:7105   */\n              add\n                /* \"#utility.yul\":7082:7109   */\n              mstore\n                /* \"#utility.yul\":6977:7116   */\n              pop\n              pop\n              pop\n              jump\t// out\n                /* \"#utility.yul\":7122:7479   */\n            tag_205:\n                /* \"#utility.yul\":7200:7203   */\n              0x00\n                /* \"#utility.yul\":7228:7267   */\n              tag_324\n                /* \"#utility.yul\":7261:7266   */\n              dup3\n                /* \"#utility.yul\":7228:7267   */\n              tag_202\n              jump\t// in\n            tag_324:\n                /* \"#utility.yul\":7283:7344   */\n              tag_325\n                /* \"#utility.yul\":7337:7343   */\n              dup2\n                /* \"#utility.yul\":7332:7335   */\n              dup6\n                /* \"#utility.yul\":7283:7344   */\n              tag_203\n              jump\t// in\n            tag_325:\n                /* \"#utility.yul\":7276:7344   */\n              swap4\n              pop\n                /* \"#utility.yul\":7353:7418   */\n              tag_326\n                /* \"#utility.yul\":7411:7417   */\n              dup2\n                /* \"#utility.yul\":7406:7409   */\n              dup6\n                /* \"#utility.yul\":7399:7403   */\n              0x20\n                /* \"#utility.yul\":7392:7397   */\n              dup7\n                /* \"#utility.yul\":7388:7404   */\n              add\n                /* \"#utility.yul\":7353:7418   */\n              tag_204\n              jump\t// in\n            tag_326:\n                /* \"#utility.yul\":7443:7472   */\n              tag_327\n                /* \"#utility.yul\":7465:7471   */\n              dup2\n                /* \"#utility.yul\":7443:7472   */\n              tag_184\n              jump\t// in\n            tag_327:\n                /* \"#utility.yul\":7438:7441   */\n              dup5\n                /* \"#utility.yul\":7434:7473   */\n              add\n                /* \"#utility.yul\":7427:7473   */\n              swap2\n              pop\n                /* \"#utility.yul\":7204:7479   */\n              pop\n                /* \"#utility.yul\":7122:7479   */\n              swap3\n              swap2\n              pop\n              pop\n              jump\t// out\n                /* \"#utility.yul\":7485:7599   */\n            tag_206:\n                /* \"#utility.yul\":7552:7558   */\n              0x00\n                /* \"#utility.yul\":7586:7591   */\n              dup2\n                /* \"#utility.yul\":7580:7592   */\n              mload\n                /* \"#utility.yul\":7570:7592   */\n              swap1\n              pop\n                /* \"#utility.yul\":7485:7599   */\n              swap2\n              swap1\n              pop\n              jump\t// out\n                /* \"#utility.yul\":7605:7779   */\n            tag_207:\n                /* \"#utility.yul\":7694:7705   */\n              0x00\n                /* \"#utility.yul\":7728:7734   */\n              dup3\n                /* \"#utility.yul\":7723:7726   */\n              dup3\n                /* \"#utility.yul\":7716:7735   */\n              mstore\n                /* \"#utility.yul\":7768:7772   */\n              0x20\n                /* \"#utility.yul\":7763:7766   */\n              dup3\n                /* \"#utility.yul\":7759:7773   */\n              add\n                /* \"#utility.yul\":7744:7773   */\n              swap1\n              pop\n                /* \"#utility.yul\":7605:7779   */\n              swap3\n              swap2\n              pop\n              pop\n              jump\t// out\n                /* \"#utility.yul\":7785:7917   */\n            tag_208:\n                /* \"#utility.yul\":7852:7856   */\n              0x00\n                /* \"#utility.yul\":7875:7878   */\n              dup2\n                /* \"#utility.yul\":7867:7878   */\n              swap1\n              pop\n                /* \"#utility.yul\":7905:7909   */\n              0x20\n                /* \"#utility.yul\":7900:7903   */\n              dup3\n                /* \"#utility.yul\":7896:7910   */\n              add\n                /* \"#utility.yul\":7888:7910   */\n              swap1\n              pop\n                /* \"#utility.yul\":7785:7917   */\n              swap2\n              swap1\n              pop\n              jump\t// out\n                /* \"#utility.yul\":7923:8102   */\n            tag_209:\n                /* \"#utility.yul\":7992:8002   */\n              0x00\n                /* \"#utility.yul\":8013:8059   */\n              tag_332\n                /* \"#utility.yul\":8055:8058   */\n              dup4\n                /* \"#utility.yul\":8047:8053   */\n              dup4\n                /* \"#utility.yul\":8013:8059   */\n              tag_201\n              jump\t// in\n            tag_332:\n                /* \"#utility.yul\":8091:8095   */\n              0x20\n                /* \"#utility.yul\":8086:8089   */\n              dup4\n                /* \"#utility.yul\":8082:8096   */\n              add\n                /* \"#utility.yul\":8068:8096   */\n              swap1\n              pop\n                /* \"#utility.yul\":7923:8102   */\n              swap3\n              swap2\n              pop\n              pop\n              jump\t// out\n                /* \"#utility.yul\":8108:8221   */\n            tag_210:\n                /* \"#utility.yul\":8178:8182   */\n              0x00\n                /* \"#utility.yul\":8210:8214   */\n              0x20\n                /* \"#utility.yul\":8205:8208   */\n              dup3\n                /* \"#utility.yul\":8201:8215   */\n              add\n                /* \"#utility.yul\":8193:8215   */\n              swap1\n              pop\n                /* \"#utility.yul\":8108:8221   */\n              swap2\n              swap1\n              pop\n              jump\t// out\n                /* \"#utility.yul\":8257:8969   */\n            tag_211:\n                /* \"#utility.yul\":8366:8369   */\n              0x00\n                /* \"#utility.yul\":8395:8449   */\n              tag_335\n                /* \"#utility.yul\":8443:8448   */\n              dup3\n                /* \"#utility.yul\":8395:8449   */\n              tag_206\n              jump\t// in\n            tag_335:\n                /* \"#utility.yul\":8465:8541   */\n              tag_336\n                /* \"#utility.yul\":8534:8540   */\n              dup2\n                /* \"#utility.yul\":8529:8532   */\n              dup6\n                /* \"#utility.yul\":8465:8541   */\n              tag_207\n              jump\t// in\n            tag_336:\n                /* \"#utility.yul\":8458:8541   */\n              swap4\n              pop\n                /* \"#utility.yul\":8565:8621   */\n              tag_337\n                /* \"#utility.yul\":8615:8620   */\n              dup4\n                /* \"#utility.yul\":8565:8621   */\n              tag_208\n              jump\t// in\n            tag_337:\n                /* \"#utility.yul\":8644:8651   */\n              dup1\n                /* \"#utility.yul\":8675:8676   */\n              0x00\n                /* \"#utility.yul\":8660:8944   */\n            tag_338:\n                /* \"#utility.yul\":8685:8691   */\n              dup4\n                /* \"#utility.yul\":8682:8683   */\n              dup2\n                /* \"#utility.yul\":8679:8692   */\n              lt\n                /* \"#utility.yul\":8660:8944   */\n              iszero\n              tag_340\n              jumpi\n                /* \"#utility.yul\":8761:8767   */\n              dup2\n                /* \"#utility.yul\":8755:8768   */\n              mload\n                /* \"#utility.yul\":8788:8851   */\n              tag_341\n                /* \"#utility.yul\":8847:8850   */\n              dup9\n                /* \"#utility.yul\":8832:8845   */\n              dup3\n                /* \"#utility.yul\":8788:8851   */\n              tag_209\n              jump\t// in\n            tag_341:\n                /* \"#utility.yul\":8781:8851   */\n              swap8\n              pop\n                /* \"#utility.yul\":8874:8934   */\n              tag_342\n                /* \"#utility.yul\":8927:8933   */\n              dup4\n                /* \"#utility.yul\":8874:8934   */\n              tag_210\n              jump\t// in\n            tag_342:\n                /* \"#utility.yul\":8864:8934   */\n              swap3\n              pop\n                /* \"#utility.yul\":8720:8944   */\n              pop\n                /* \"#utility.yul\":8707:8708   */\n              0x01\n                /* \"#utility.yul\":8704:8705   */\n              dup2\n                /* \"#utility.yul\":8700:8709   */\n              add\n                /* \"#utility.yul\":8695:8709   */\n              swap1\n              pop\n                /* \"#utility.yul\":8660:8944   */\n              jump(tag_338)\n            tag_340:\n                /* \"#utility.yul\":8664:8678   */\n              pop\n                /* \"#utility.yul\":8960:8963   */\n              dup6\n                /* \"#utility.yul\":8953:8963   */\n              swap4\n              pop\n                /* \"#utility.yul\":8371:8969   */\n              pop\n              pop\n              pop\n                /* \"#utility.yul\":8257:8969   */\n              swap3\n              swap2\n              pop\n              pop\n              jump\t// out\n                /* \"#utility.yul\":9039:10178   */\n            tag_212:\n                /* \"#utility.yul\":9156:9159   */\n              0x00\n                /* \"#utility.yul\":9192:9196   */\n              0x80\n                /* \"#utility.yul\":9187:9190   */\n              dup4\n                /* \"#utility.yul\":9183:9197   */\n              add\n                /* \"#utility.yul\":9277:9281   */\n              0x00\n                /* \"#utility.yul\":9270:9275   */\n              dup4\n                /* \"#utility.yul\":9266:9282   */\n              add\n                /* \"#utility.yul\":9260:9283   */\n              mload\n                /* \"#utility.yul\":9296:9359   */\n              tag_344\n                /* \"#utility.yul\":9353:9357   */\n              0x00\n                /* \"#utility.yul\":9348:9351   */\n              dup7\n                /* \"#utility.yul\":9344:9358   */\n              add\n                /* \"#utility.yul\":9330:9342   */\n              dup3\n                /* \"#utility.yul\":9296:9359   */\n              tag_201\n              jump\t// in\n            tag_344:\n                /* \"#utility.yul\":9207:9369   */\n              pop\n                /* \"#utility.yul\":9456:9460   */\n              0x20\n                /* \"#utility.yul\":9449:9454   */\n              dup4\n                /* \"#utility.yul\":9445:9461   */\n              add\n                /* \"#utility.yul\":9439:9462   */\n              mload\n                /* \"#utility.yul\":9509:9512   */\n              dup5\n                /* \"#utility.yul\":9503:9507   */\n              dup3\n                /* \"#utility.yul\":9499:9513   */\n              sub\n                /* \"#utility.yul\":9492:9496   */\n              0x20\n                /* \"#utility.yul\":9487:9490   */\n              dup7\n                /* \"#utility.yul\":9483:9497   */\n              add\n                /* \"#utility.yul\":9476:9514   */\n              mstore\n                /* \"#utility.yul\":9535:9608   */\n              tag_345\n                /* \"#utility.yul\":9603:9607   */\n              dup3\n                /* \"#utility.yul\":9589:9601   */\n              dup3\n                /* \"#utility.yul\":9535:9608   */\n              tag_205\n              jump\t// in\n            tag_345:\n                /* \"#utility.yul\":9527:9608   */\n              swap2\n              pop\n                /* \"#utility.yul\":9379:9619   */\n              pop\n                /* \"#utility.yul\":9705:9709   */\n              0x40\n                /* \"#utility.yul\":9698:9703   */\n              dup4\n                /* \"#utility.yul\":9694:9710   */\n              add\n                /* \"#utility.yul\":9688:9711   */\n              mload\n                /* \"#utility.yul\":9758:9761   */\n              dup5\n                /* \"#utility.yul\":9752:9756   */\n              dup3\n                /* \"#utility.yul\":9748:9762   */\n              sub\n                /* \"#utility.yul\":9741:9745   */\n              0x40\n                /* \"#utility.yul\":9736:9739   */\n              dup7\n                /* \"#utility.yul\":9732:9746   */\n              add\n                /* \"#utility.yul\":9725:9763   */\n              mstore\n                /* \"#utility.yul\":9784:9857   */\n              tag_346\n                /* \"#utility.yul\":9852:9856   */\n              dup3\n                /* \"#utility.yul\":9838:9850   */\n              dup3\n                /* \"#utility.yul\":9784:9857   */\n              tag_205\n              jump\t// in\n            tag_346:\n                /* \"#utility.yul\":9776:9857   */\n              swap2\n              pop\n                /* \"#utility.yul\":9629:9868   */\n              pop\n                /* \"#utility.yul\":9958:9962   */\n              0x60\n                /* \"#utility.yul\":9951:9956   */\n              dup4\n                /* \"#utility.yul\":9947:9963   */\n              add\n                /* \"#utility.yul\":9941:9964   */\n              mload\n                /* \"#utility.yul\":10011:10014   */\n              dup5\n                /* \"#utility.yul\":10005:10009   */\n              dup3\n                /* \"#utility.yul\":10001:10015   */\n              sub\n                /* \"#utility.yul\":9994:9998   */\n              0x60\n                /* \"#utility.yul\":9989:9992   */\n              dup7\n                /* \"#utility.yul\":9985:9999   */\n              add\n                /* \"#utility.yul\":9978:10016   */\n              mstore\n                /* \"#utility.yul\":10037:10140   */\n              tag_347\n                /* \"#utility.yul\":10135:10139   */\n              dup3\n                /* \"#utility.yul\":10121:10133   */\n              dup3\n                /* \"#utility.yul\":10037:10140   */\n              tag_211\n              jump\t// in\n            tag_347:\n                /* \"#utility.yul\":10029:10140   */\n              swap2\n              pop\n                /* \"#utility.yul\":9878:10151   */\n              pop\n                /* \"#utility.yul\":10168:10172   */\n              dup1\n                /* \"#utility.yul\":10161:10172   */\n              swap2\n              pop\n                /* \"#utility.yul\":9161:10178   */\n              pop\n                /* \"#utility.yul\":9039:10178   */\n              swap3\n              swap2\n              pop\n              pop\n              jump\t// out\n                /* \"#utility.yul\":10184:10553   */\n            tag_29:\n                /* \"#utility.yul\":10325:10329   */\n              0x00\n                /* \"#utility.yul\":10363:10365   */\n              0x20\n                /* \"#utility.yul\":10352:10361   */\n              dup3\n                /* \"#utility.yul\":10348:10366   */\n              add\n                /* \"#utility.yul\":10340:10366   */\n              swap1\n              pop\n                /* \"#utility.yul\":10412:10421   */\n              dup2\n                /* \"#utility.yul\":10406:10410   */\n              dup2\n                /* \"#utility.yul\":10402:10422   */\n              sub\n                /* \"#utility.yul\":10398:10399   */\n              0x00\n                /* \"#utility.yul\":10387:10396   */\n              dup4\n                /* \"#utility.yul\":10383:10400   */\n              add\n                /* \"#utility.yul\":10376:10423   */\n              mstore\n                /* \"#utility.yul\":10440:10546   */\n              tag_349\n                /* \"#utility.yul\":10541:10545   */\n              dup2\n                /* \"#utility.yul\":10532:10538   */\n              dup5\n                /* \"#utility.yul\":10440:10546   */\n              tag_212\n              jump\t// in\n            tag_349:\n                /* \"#utility.yul\":10432:10546   */\n              swap1\n              pop\n                /* \"#utility.yul\":10184:10553   */\n              swap3\n              swap2\n              pop\n              pop\n              jump\t// out\n                /* \"#utility.yul\":10559:10697   */\n            tag_213:\n                /* \"#utility.yul\":10650:10656   */\n              0x00\n                /* \"#utility.yul\":10684:10689   */\n              dup2\n                /* \"#utility.yul\":10678:10690   */\n              mload\n                /* \"#utility.yul\":10668:10690   */\n              swap1\n              pop\n                /* \"#utility.yul\":10559:10697   */\n              swap2\n              swap1\n              pop\n              jump\t// out\n                /* \"#utility.yul\":10703:10911   */\n            tag_214:\n                /* \"#utility.yul\":10826:10837   */\n              0x00\n                /* \"#utility.yul\":10860:10866   */\n              dup3\n                /* \"#utility.yul\":10855:10858   */\n              dup3\n                /* \"#utility.yul\":10848:10867   */\n              mstore\n                /* \"#utility.yul\":10900:10904   */\n              0x20\n                /* \"#utility.yul\":10895:10898   */\n              dup3\n                /* \"#utility.yul\":10891:10905   */\n              add\n                /* \"#utility.yul\":10876:10905   */\n              swap1\n              pop\n                /* \"#utility.yul\":10703:10911   */\n              swap3\n              swap2\n              pop\n              pop\n              jump\t// out\n                /* \"#utility.yul\":10917:11073   */\n            tag_215:\n                /* \"#utility.yul\":11008:11012   */\n              0x00\n                /* \"#utility.yul\":11031:11034   */\n              dup2\n                /* \"#utility.yul\":11023:11034   */\n              swap1\n              pop\n                /* \"#utility.yul\":11061:11065   */\n              0x20\n                /* \"#utility.yul\":11056:11059   */\n              dup3\n                /* \"#utility.yul\":11052:11066   */\n              add\n                /* \"#utility.yul\":11044:11066   */\n              swap1\n              pop\n                /* \"#utility.yul\":10917:11073   */\n              swap2\n              swap1\n              pop\n              jump\t// out\n                /* \"#utility.yul\":11143:12272   */\n            tag_216:\n                /* \"#utility.yul\":11250:11253   */\n              0x00\n                /* \"#utility.yul\":11286:11290   */\n              0x80\n                /* \"#utility.yul\":11281:11284   */\n              dup4\n                /* \"#utility.yul\":11277:11291   */\n              add\n                /* \"#utility.yul\":11371:11375   */\n              0x00\n                /* \"#utility.yul\":11364:11369   */\n              dup4\n                /* \"#utility.yul\":11360:11376   */\n              add\n                /* \"#utility.yul\":11354:11377   */\n              mload\n                /* \"#utility.yul\":11390:11453   */\n              tag_354\n                /* \"#utility.yul\":11447:11451   */\n              0x00\n                /* \"#utility.yul\":11442:11445   */\n              dup7\n                /* \"#utility.yul\":11438:11452   */\n              add\n                /* \"#utility.yul\":11424:11436   */\n              dup3\n                /* \"#utility.yul\":11390:11453   */\n              tag_201\n              jump\t// in\n            tag_354:\n                /* \"#utility.yul\":11301:11463   */\n              pop\n                /* \"#utility.yul\":11550:11554   */\n              0x20\n                /* \"#utility.yul\":11543:11548   */\n              dup4\n                /* \"#utility.yul\":11539:11555   */\n              add\n                /* \"#utility.yul\":11533:11556   */\n              mload\n                /* \"#utility.yul\":11603:11606   */\n              dup5\n                /* \"#utility.yul\":11597:11601   */\n              dup3\n                /* \"#utility.yul\":11593:11607   */\n              sub\n                /* \"#utility.yul\":11586:11590   */\n              0x20\n                /* \"#utility.yul\":11581:11584   */\n              dup7\n                /* \"#utility.yul\":11577:11591   */\n              add\n                /* \"#utility.yul\":11570:11608   */\n              mstore\n                /* \"#utility.yul\":11629:11702   */\n              tag_355\n                /* \"#utility.yul\":11697:11701   */\n              dup3\n                /* \"#utility.yul\":11683:11695   */\n              dup3\n                /* \"#utility.yul\":11629:11702   */\n              tag_205\n              jump\t// in\n            tag_355:\n                /* \"#utility.yul\":11621:11702   */\n              swap2\n              pop\n                /* \"#utility.yul\":11473:11713   */\n              pop\n                /* \"#utility.yul\":11799:11803   */\n              0x40\n                /* \"#utility.yul\":11792:11797   */\n              dup4\n                /* \"#utility.yul\":11788:11804   */\n              add\n                /* \"#utility.yul\":11782:11805   */\n              mload\n                /* \"#utility.yul\":11852:11855   */\n              dup5\n                /* \"#utility.yul\":11846:11850   */\n              dup3\n                /* \"#utility.yul\":11842:11856   */\n              sub\n                /* \"#utility.yul\":11835:11839   */\n              0x40\n                /* \"#utility.yul\":11830:11833   */\n              dup7\n                /* \"#utility.yul\":11826:11840   */\n              add\n                /* \"#utility.yul\":11819:11857   */\n              mstore\n                /* \"#utility.yul\":11878:11951   */\n              tag_356\n                /* \"#utility.yul\":11946:11950   */\n              dup3\n                /* \"#utility.yul\":11932:11944   */\n              dup3\n                /* \"#utility.yul\":11878:11951   */\n              tag_205\n              jump\t// in\n            tag_356:\n                /* \"#utility.yul\":11870:11951   */\n              swap2\n              pop\n                /* \"#utility.yul\":11723:11962   */\n              pop\n                /* \"#utility.yul\":12052:12056   */\n              0x60\n                /* \"#utility.yul\":12045:12050   */\n              dup4\n                /* \"#utility.yul\":12041:12057   */\n              add\n                /* \"#utility.yul\":12035:12058   */\n              mload\n                /* \"#utility.yul\":12105:12108   */\n              dup5\n                /* \"#utility.yul\":12099:12103   */\n              dup3\n                /* \"#utility.yul\":12095:12109   */\n              sub\n                /* \"#utility.yul\":12088:12092   */\n              0x60\n                /* \"#utility.yul\":12083:12086   */\n              dup7\n                /* \"#utility.yul\":12079:12093   */\n              add\n                /* \"#utility.yul\":12072:12110   */\n              mstore\n                /* \"#utility.yul\":12131:12234   */\n              tag_357\n                /* \"#utility.yul\":12229:12233   */\n              dup3\n                /* \"#utility.yul\":12215:12227   */\n              dup3\n                /* \"#utility.yul\":12131:12234   */\n              tag_211\n              jump\t// in\n            tag_357:\n                /* \"#utility.yul\":12123:12234   */\n              swap2\n              pop\n                /* \"#utility.yul\":11972:12245   */\n              pop\n                /* \"#utility.yul\":12262:12266   */\n              dup1\n                /* \"#utility.yul\":12255:12266   */\n              swap2\n              pop\n                /* \"#utility.yul\":11255:12272   */\n              pop\n                /* \"#utility.yul\":11143:12272   */\n              swap3\n              swap2\n              pop\n              pop\n              jump\t// out\n                /* \"#utility.yul\":12278:12530   */\n            tag_217:\n                /* \"#utility.yul\":12395:12405   */\n              0x00\n                /* \"#utility.yul\":12430:12524   */\n              tag_359\n                /* \"#utility.yul\":12520:12523   */\n              dup4\n                /* \"#utility.yul\":12512:12518   */\n              dup4\n                /* \"#utility.yul\":12430:12524   */\n              tag_216\n              jump\t// in\n            tag_359:\n                /* \"#utility.yul\":12416:12524   */\n              swap1\n              pop\n                /* \"#utility.yul\":12278:12530   */\n              swap3\n              swap2\n              pop\n              pop\n              jump\t// out\n                /* \"#utility.yul\":12536:12673   */\n            tag_218:\n                /* \"#utility.yul\":12630:12634   */\n              0x00\n                /* \"#utility.yul\":12662:12666   */\n              0x20\n                /* \"#utility.yul\":12657:12660   */\n              dup3\n                /* \"#utility.yul\":12653:12667   */\n              add\n                /* \"#utility.yul\":12645:12667   */\n              swap1\n              pop\n                /* \"#utility.yul\":12536:12673   */\n              swap2\n              swap1\n              pop\n              jump\t// out\n                /* \"#utility.yul\":12747:13850   */\n            tag_219:\n                /* \"#utility.yul\":12914:12917   */\n              0x00\n                /* \"#utility.yul\":12943:13021   */\n              tag_362\n                /* \"#utility.yul\":13015:13020   */\n              dup3\n                /* \"#utility.yul\":12943:13021   */\n              tag_213\n              jump\t// in\n            tag_362:\n                /* \"#utility.yul\":13037:13147   */\n              tag_363\n                /* \"#utility.yul\":13140:13146   */\n              dup2\n                /* \"#utility.yul\":13135:13138   */\n              dup6\n                /* \"#utility.yul\":13037:13147   */\n              tag_214\n              jump\t// in\n            tag_363:\n                /* \"#utility.yul\":13030:13147   */\n              swap4\n              pop\n                /* \"#utility.yul\":13173:13176   */\n              dup4\n                /* \"#utility.yul\":13218:13222   */\n              0x20\n                /* \"#utility.yul\":13210:13216   */\n              dup3\n                /* \"#utility.yul\":13206:13223   */\n              mul\n                /* \"#utility.yul\":13201:13204   */\n              dup6\n                /* \"#utility.yul\":13197:13224   */\n              add\n                /* \"#utility.yul\":13248:13328   */\n              tag_364\n                /* \"#utility.yul\":13322:13327   */\n              dup6\n                /* \"#utility.yul\":13248:13328   */\n              tag_215\n              jump\t// in\n            tag_364:\n                /* \"#utility.yul\":13351:13358   */\n              dup1\n                /* \"#utility.yul\":13382:13383   */\n              0x00\n                /* \"#utility.yul\":13367:13805   */\n            tag_365:\n                /* \"#utility.yul\":13392:13398   */\n              dup6\n                /* \"#utility.yul\":13389:13390   */\n              dup2\n                /* \"#utility.yul\":13386:13399   */\n              lt\n                /* \"#utility.yul\":13367:13805   */\n              iszero\n              tag_367\n              jumpi\n                /* \"#utility.yul\":13463:13472   */\n              dup5\n                /* \"#utility.yul\":13457:13461   */\n              dup5\n                /* \"#utility.yul\":13453:13473   */\n              sub\n                /* \"#utility.yul\":13448:13451   */\n              dup10\n                /* \"#utility.yul\":13441:13474   */\n              mstore\n                /* \"#utility.yul\":13514:13520   */\n              dup2\n                /* \"#utility.yul\":13508:13521   */\n              mload\n                /* \"#utility.yul\":13542:13654   */\n              tag_368\n                /* \"#utility.yul\":13649:13653   */\n              dup6\n                /* \"#utility.yul\":13634:13647   */\n              dup3\n                /* \"#utility.yul\":13542:13654   */\n              tag_217\n              jump\t// in\n            tag_368:\n                /* \"#utility.yul\":13534:13654   */\n              swap5\n              pop\n                /* \"#utility.yul\":13677:13761   */\n              tag_369\n                /* \"#utility.yul\":13754:13760   */\n              dup4\n                /* \"#utility.yul\":13677:13761   */\n              tag_218\n              jump\t// in\n            tag_369:\n                /* \"#utility.yul\":13667:13761   */\n              swap3\n              pop\n                /* \"#utility.yul\":13790:13794   */\n              0x20\n                /* \"#utility.yul\":13785:13788   */\n              dup11\n                /* \"#utility.yul\":13781:13795   */\n              add\n                /* \"#utility.yul\":13774:13795   */\n              swap10\n              pop\n                /* \"#utility.yul\":13427:13805   */\n              pop\n                /* \"#utility.yul\":13414:13415   */\n              0x01\n                /* \"#utility.yul\":13411:13412   */\n              dup2\n                /* \"#utility.yul\":13407:13416   */\n              add\n                /* \"#utility.yul\":13402:13416   */\n              swap1\n              pop\n                /* \"#utility.yul\":13367:13805   */\n              jump(tag_365)\n            tag_367:\n                /* \"#utility.yul\":13371:13385   */\n              pop\n                /* \"#utility.yul\":13821:13825   */\n              dup3\n                /* \"#utility.yul\":13814:13825   */\n              swap8\n              pop\n                /* \"#utility.yul\":13841:13844   */\n              dup8\n                /* \"#utility.yul\":13834:13844   */\n              swap6\n              pop\n                /* \"#utility.yul\":12919:13850   */\n              pop\n              pop\n              pop\n              pop\n              pop\n                /* \"#utility.yul\":12747:13850   */\n              swap3\n              swap2\n              pop\n              pop\n              jump\t// out\n                /* \"#utility.yul\":13856:14325   */\n            tag_33:\n                /* \"#utility.yul\":14047:14051   */\n              0x00\n                /* \"#utility.yul\":14085:14087   */\n              0x20\n                /* \"#utility.yul\":14074:14083   */\n              dup3\n                /* \"#utility.yul\":14070:14088   */\n              add\n                /* \"#utility.yul\":14062:14088   */\n              swap1\n              pop\n                /* \"#utility.yul\":14134:14143   */\n              dup2\n                /* \"#utility.yul\":14128:14132   */\n              dup2\n                /* \"#utility.yul\":14124:14144   */\n              sub\n                /* \"#utility.yul\":14120:14121   */\n              0x00\n                /* \"#utility.yul\":14109:14118   */\n              dup4\n                /* \"#utility.yul\":14105:14122   */\n              add\n                /* \"#utility.yul\":14098:14145   */\n              mstore\n                /* \"#utility.yul\":14162:14318   */\n              tag_371\n                /* \"#utility.yul\":14313:14317   */\n              dup2\n                /* \"#utility.yul\":14304:14310   */\n              dup5\n                /* \"#utility.yul\":14162:14318   */\n              tag_219\n              jump\t// in\n            tag_371:\n                /* \"#utility.yul\":14154:14318   */\n              swap1\n              pop\n                /* \"#utility.yul\":13856:14325   */\n              swap3\n              swap2\n              pop\n              pop\n              jump\t// out\n                /* \"#utility.yul\":14331:14453   */\n            tag_220:\n                /* \"#utility.yul\":14404:14428   */\n              tag_373\n                /* \"#utility.yul\":14422:14427   */\n              dup2\n                /* \"#utility.yul\":14404:14428   */\n              tag_199\n              jump\t// in\n            tag_373:\n                /* \"#utility.yul\":14397:14402   */\n              dup2\n                /* \"#utility.yul\":14394:14429   */\n              eq\n                /* \"#utility.yul\":14384:14447   */\n              tag_374\n              jumpi\n                /* \"#utility.yul\":14443:14444   */\n              0x00\n                /* \"#utility.yul\":14440:14441   */\n              0x00\n                /* \"#utility.yul\":14433:14445   */\n              revert\n                /* \"#utility.yul\":14384:14447   */\n            tag_374:\n                /* \"#utility.yul\":14331:14453   */\n              pop\n              jump\t// out\n                /* \"#utility.yul\":14459:14598   */\n            tag_221:\n                /* \"#utility.yul\":14505:14510   */\n              0x00\n                /* \"#utility.yul\":14543:14549   */\n              dup2\n                /* \"#utility.yul\":14530:14550   */\n              calldataload\n                /* \"#utility.yul\":14521:14550   */\n              swap1\n              pop\n                /* \"#utility.yul\":14559:14592   */\n              tag_376\n                /* \"#utility.yul\":14586:14591   */\n              dup2\n                /* \"#utility.yul\":14559:14592   */\n              tag_220\n              jump\t// in\n            tag_376:\n                /* \"#utility.yul\":14459:14598   */\n              swap3\n              swap2\n              pop\n              pop\n              jump\t// out\n                /* \"#utility.yul\":14604:14933   */\n            tag_36:\n                /* \"#utility.yul\":14663:14669   */\n              0x00\n                /* \"#utility.yul\":14712:14714   */\n              0x20\n                /* \"#utility.yul\":14700:14709   */\n              dup3\n                /* \"#utility.yul\":14691:14698   */\n              dup5\n                /* \"#utility.yul\":14687:14710   */\n              sub\n                /* \"#utility.yul\":14683:14715   */\n              slt\n                /* \"#utility.yul\":14680:14799   */\n              iszero\n              tag_378\n              jumpi\n                /* \"#utility.yul\":14718:14797   */\n              tag_379\n              tag_180\n              jump\t// in\n            tag_379:\n                /* \"#utility.yul\":14680:14799   */\n            tag_378:\n                /* \"#utility.yul\":14838:14839   */\n              0x00\n                /* \"#utility.yul\":14863:14916   */\n              tag_380\n                /* \"#utility.yul\":14908:14915   */\n              dup5\n                /* \"#utility.yul\":14899:14905   */\n              dup3\n                /* \"#utility.yul\":14888:14897   */\n              dup6\n                /* \"#utility.yul\":14884:14906   */\n              add\n                /* \"#utility.yul\":14863:14916   */\n              tag_221\n              jump\t// in\n            tag_380:\n                /* \"#utility.yul\":14853:14916   */\n              swap2\n              pop\n                /* \"#utility.yul\":14809:14926   */\n              pop\n                /* \"#utility.yul\":14604:14933   */\n              swap3\n              swap2\n              pop\n              pop\n              jump\t// out\n                /* \"#utility.yul\":14939:15119   */\n            tag_222:\n                /* \"#utility.yul\":14987:15064   */\n              0x4e487b7100000000000000000000000000000000000000000000000000000000\n                /* \"#utility.yul\":14984:14985   */\n              0x00\n                /* \"#utility.yul\":14977:15065   */\n              mstore\n                /* \"#utility.yul\":15084:15088   */\n              0x22\n                /* \"#utility.yul\":15081:15082   */\n              0x04\n                /* \"#utility.yul\":15074:15089   */\n              mstore\n                /* \"#utility.yul\":15108:15112   */\n              0x24\n                /* \"#utility.yul\":15105:15106   */\n              0x00\n                /* \"#utility.yul\":15098:15113   */\n              revert\n                /* \"#utility.yul\":15125:15445   */\n            tag_99:\n                /* \"#utility.yul\":15169:15175   */\n              0x00\n                /* \"#utility.yul\":15206:15207   */\n              0x02\n                /* \"#utility.yul\":15200:15204   */\n              dup3\n                /* \"#utility.yul\":15196:15208   */\n              div\n                /* \"#utility.yul\":15186:15208   */\n              swap1\n              pop\n                /* \"#utility.yul\":15253:15254   */\n              0x01\n                /* \"#utility.yul\":15247:15251   */\n              dup3\n                /* \"#utility.yul\":15243:15255   */\n              and\n                /* \"#utility.yul\":15274:15292   */\n              dup1\n                /* \"#utility.yul\":15264:15345   */\n              tag_383\n              jumpi\n                /* \"#utility.yul\":15330:15334   */\n              0x7f\n                /* \"#utility.yul\":15322:15328   */\n              dup3\n                /* \"#utility.yul\":15318:15335   */\n              and\n                /* \"#utility.yul\":15308:15335   */\n              swap2\n              pop\n                /* \"#utility.yul\":15264:15345   */\n            tag_383:\n                /* \"#utility.yul\":15392:15394   */\n              0x20\n                /* \"#utility.yul\":15384:15390   */\n              dup3\n                /* \"#utility.yul\":15381:15395   */\n              lt\n                /* \"#utility.yul\":15361:15379   */\n              dup2\n                /* \"#utility.yul\":15358:15396   */\n              sub\n                /* \"#utility.yul\":15355:15439   */\n              tag_384\n              jumpi\n                /* \"#utility.yul\":15411:15429   */\n              tag_385\n              tag_222\n              jump\t// in\n            tag_385:\n                /* \"#utility.yul\":15355:15439   */\n            tag_384:\n                /* \"#utility.yul\":15176:15445   */\n              pop\n                /* \"#utility.yul\":15125:15445   */\n              swap2\n              swap1\n              pop\n              jump\t// out\n                /* \"#utility.yul\":15451:15592   */\n            tag_223:\n                /* \"#utility.yul\":15500:15504   */\n              0x00\n                /* \"#utility.yul\":15523:15526   */\n              dup2\n                /* \"#utility.yul\":15515:15526   */\n              swap1\n              pop\n                /* \"#utility.yul\":15546:15549   */\n              dup2\n                /* \"#utility.yul\":15543:15544   */\n              0x00\n                /* \"#utility.yul\":15536:15550   */\n              mstore\n                /* \"#utility.yul\":15580:15584   */\n              0x20\n                /* \"#utility.yul\":15577:15578   */\n              0x00\n                /* \"#utility.yul\":15567:15585   */\n              keccak256\n                /* \"#utility.yul\":15559:15585   */\n              swap1\n              pop\n                /* \"#utility.yul\":15451:15592   */\n              swap2\n              swap1\n              pop\n              jump\t// out\n                /* \"#utility.yul\":15598:15691   */\n            tag_224:\n                /* \"#utility.yul\":15635:15641   */\n              0x00\n                /* \"#utility.yul\":15682:15684   */\n              0x20\n                /* \"#utility.yul\":15677:15679   */\n              0x1f\n                /* \"#utility.yul\":15670:15675   */\n              dup4\n                /* \"#utility.yul\":15666:15680   */\n              add\n                /* \"#utility.yul\":15662:15685   */\n              div\n                /* \"#utility.yul\":15652:15685   */\n              swap1\n              pop\n                /* \"#utility.yul\":15598:15691   */\n              swap2\n              swap1\n              pop\n              jump\t// out\n                /* \"#utility.yul\":15697:15804   */\n            tag_225:\n                /* \"#utility.yul\":15741:15749   */\n              0x00\n                /* \"#utility.yul\":15791:15796   */\n              dup3\n                /* \"#utility.yul\":15785:15789   */\n              dup3\n                /* \"#utility.yul\":15781:15797   */\n              shl\n                /* \"#utility.yul\":15760:15797   */\n              swap1\n              pop\n                /* \"#utility.yul\":15697:15804   */\n              swap3\n              swap2\n              pop\n              pop\n              jump\t// out\n                /* \"#utility.yul\":15810:16203   */\n            tag_226:\n                /* \"#utility.yul\":15879:15885   */\n              0x00\n                /* \"#utility.yul\":15929:15930   */\n              0x08\n                /* \"#utility.yul\":15917:15927   */\n              dup4\n                /* \"#utility.yul\":15913:15931   */\n              mul\n                /* \"#utility.yul\":15952:16049   */\n              tag_390\n                /* \"#utility.yul\":15982:16048   */\n              0xffffffffffffffffffffffffffffffffffffffffffffffffffffffffffffffff\n                /* \"#utility.yul\":15971:15980   */\n              dup3\n                /* \"#utility.yul\":15952:16049   */\n              tag_225\n              jump\t// in\n            tag_390:\n                /* \"#utility.yul\":16070:16109   */\n              tag_391\n                /* \"#utility.yul\":16100:16108   */\n              dup7\n                /* \"#utility.yul\":16089:16098   */\n              dup4\n                /* \"#utility.yul\":16070:16109   */\n              tag_225\n              jump\t// in\n            tag_391:\n                /* \"#utility.yul\":16058:16109   */\n              swap6\n              pop\n                /* \"#utility.yul\":16142:16146   */\n              dup1\n                /* \"#utility.yul\":16138:16147   */\n              not\n                /* \"#utility.yul\":16131:16136   */\n              dup5\n                /* \"#utility.yul\":16127:16148   */\n              and\n                /* \"#utility.yul\":16118:16148   */\n              swap4\n              pop\n                /* \"#utility.yul\":16191:16195   */\n              dup1\n                /* \"#utility.yul\":16181:16189   */\n              dup7\n                /* \"#utility.yul\":16177:16196   */\n              and\n                /* \"#utility.yul\":16170:16175   */\n              dup5\n                /* \"#utility.yul\":16167:16197   */\n              or\n                /* \"#utility.yul\":16157:16197   */\n              swap3\n              pop\n                /* \"#utility.yul\":15886:16203   */\n              pop\n              pop\n                /* \"#utility.yul\":15810:16203   */\n              swap4\n              swap3\n              pop\n              pop\n              pop\n              jump\t// out\n                /* \"#utility.yul\":16209:16269   */\n            tag_227:\n                /* \"#utility.yul\":16237:16240   */\n              0x00\n                /* \"#utility.yul\":16258:16263   */\n              dup2\n                /* \"#utility.yul\":16251:16263   */\n              swap1\n              pop\n                /* \"#utility.yul\":16209:16269   */\n              swap2\n              swap1\n              pop\n              jump\t// out\n                /* \"#utility.yul\":16275:16417   */\n            tag_228:\n                /* \"#utility.yul\":16325:16334   */\n              0x00\n                /* \"#utility.yul\":16358:16411   */\n              tag_394\n                /* \"#utility.yul\":16376:16410   */\n              tag_395\n                /* \"#utility.yul\":16385:16409   */\n              tag_396\n                /* \"#utility.yul\":16403:16408   */\n              dup5\n                /* \"#utility.yul\":16385:16409   */\n              tag_193\n              jump\t// in\n            tag_396:\n                /* \"#utility.yul\":16376:16410   */\n              tag_227\n              jump\t// in\n            tag_395:\n                /* \"#utility.yul\":16358:16411   */\n              tag_193\n              jump\t// in\n            tag_394:\n                /* \"#utility.yul\":16345:16411   */\n              swap1\n              pop\n                /* \"#utility.yul\":16275:16417   */\n              swap2\n              swap1\n              pop\n              jump\t// out\n                /* \"#utility.yul\":16423:16498   */\n            tag_229:\n                /* \"#utility.yul\":16466:16469   */\n              0x00\n                /* \"#utility.yul\":16487:16492   */\n              dup2\n                /* \"#utility.yul\":16480:16492   */\n              swap1\n              pop\n                /* \"#utility.yul\":16423:16498   */\n              swap2\n              swap1\n              pop\n              jump\t// out\n                /* \"#utility.yul\":16504:16773   */\n            tag_230:\n                /* \"#utility.yul\":16614:16653   */\n              tag_399\n                /* \"#utility.yul\":16645:16652   */\n              dup4\n                /* \"#utility.yul\":16614:16653   */\n              tag_228\n              jump\t// in\n            tag_399:\n                /* \"#utility.yul\":16675:16766   */\n              tag_400\n                /* \"#utility.yul\":16724:16765   */\n              tag_401\n                /* \"#utility.yul\":16748:16764   */\n              dup3\n                /* \"#utility.yul\":16724:16765   */\n              tag_229\n              jump\t// in\n            tag_401:\n                /* \"#utility.yul\":16716:16722   */\n              dup5\n                /* \"#utility.yul\":16709:16713   */\n              dup5\n                /* \"#utility.yul\":16703:16714   */\n              sload\n                /* \"#utility.yul\":16675:16766   */\n              tag_226\n              jump\t// in\n            tag_400:\n                /* \"#utility.yul\":16669:16673   */\n              dup3\n                /* \"#utility.yul\":16662:16767   */\n              sstore\n                /* \"#utility.yul\":16580:16773   */\n              pop\n                /* \"#utility.yul\":16504:16773   */\n              pop\n              pop\n              pop\n              jump\t// out\n                /* \"#utility.yul\":16779:16852   */\n            tag_231:\n                /* \"#utility.yul\":16824:16827   */\n              0x00\n                /* \"#utility.yul\":16845:16846   */\n              0x00\n                /* \"#utility.yul\":16838:16846   */\n              swap1\n              pop\n                /* \"#utility.yul\":16779:16852   */\n              swap1\n              jump\t// out\n                /* \"#utility.yul\":16858:17047   */\n            tag_232:\n                /* \"#utility.yul\":16935:16967   */\n              tag_404\n              tag_231\n              jump\t// in\n            tag_404:\n                /* \"#utility.yul\":16976:17041   */\n              tag_405\n                /* \"#utility.yul\":17034:17040   */\n              dup2\n                /* \"#utility.yul\":17026:17032   */\n              dup5\n                /* \"#utility.yul\":17020:17024   */\n              dup5\n                /* \"#utility.yul\":16976:17041   */\n              tag_230\n              jump\t// in\n            tag_405:\n                /* \"#utility.yul\":16911:17047   */\n              pop\n                /* \"#utility.yul\":16858:17047   */\n              pop\n              pop\n              jump\t// out\n                /* \"#utility.yul\":17053:17239   */\n            tag_233:\n                /* \"#utility.yul\":17113:17233   */\n            tag_407:\n                /* \"#utility.yul\":17130:17133   */\n              dup2\n                /* \"#utility.yul\":17123:17128   */\n              dup2\n                /* \"#utility.yul\":17120:17134   */\n              lt\n                /* \"#utility.yul\":17113:17233   */\n              iszero\n              tag_409\n              jumpi\n                /* \"#utility.yul\":17184:17223   */\n              tag_410\n                /* \"#utility.yul\":17221:17222   */\n              0x00\n                /* \"#utility.yul\":17214:17219   */\n              dup3\n                /* \"#utility.yul\":17184:17223   */\n              tag_232\n              jump\t// in\n            tag_410:\n                /* \"#utility.yul\":17157:17158   */\n              0x01\n                /* \"#utility.yul\":17150:17155   */\n              dup2\n                /* \"#utility.yul\":17146:17159   */\n              add\n                /* \"#utility.yul\":17137:17159   */\n              swap1\n              pop\n                /* \"#utility.yul\":17113:17233   */\n              jump(tag_407)\n            tag_409:\n                /* \"#utility.yul\":17053:17239   */\n              pop\n              pop\n              jump\t// out\n                /* \"#utility.yul\":17245:17788   */\n            tag_234:\n                /* \"#utility.yul\":17346:17348   */\n              0x1f\n                /* \"#utility.yul\":17341:17344   */\n              dup3\n                /* \"#utility.yul\":17338:17349   */\n              gt\n                /* \"#utility.yul\":17335:17781   */\n              iszero\n              tag_412\n              jumpi\n                /* \"#utility.yul\":17380:17418   */\n              tag_413\n                /* \"#utility.yul\":17412:17417   */\n              dup2\n                /* \"#utility.yul\":17380:17418   */\n              tag_223\n              jump\t// in\n            tag_413:\n                /* \"#utility.yul\":17464:17493   */\n              tag_414\n                /* \"#utility.yul\":17482:17492   */\n              dup5\n                /* \"#utility.yul\":17464:17493   */\n              tag_224\n              jump\t// in\n            tag_414:\n                /* \"#utility.yul\":17454:17462   */\n              dup2\n                /* \"#utility.yul\":17450:17494   */\n              add\n                /* \"#utility.yul\":17647:17649   */\n              0x20\n                /* \"#utility.yul\":17635:17645   */\n              dup6\n                /* \"#utility.yul\":17632:17650   */\n              lt\n                /* \"#utility.yul\":17629:17678   */\n              iszero\n              tag_415\n              jumpi\n                /* \"#utility.yul\":17668:17676   */\n              dup2\n                /* \"#utility.yul\":17653:17676   */\n              swap1\n              pop\n                /* \"#utility.yul\":17629:17678   */\n            tag_415:\n                /* \"#utility.yul\":17691:17771   */\n              tag_416\n                /* \"#utility.yul\":17747:17769   */\n              tag_417\n                /* \"#utility.yul\":17765:17768   */\n              dup6\n                /* \"#utility.yul\":17747:17769   */\n              tag_224\n              jump\t// in\n            tag_417:\n                /* \"#utility.yul\":17737:17745   */\n              dup4\n                /* \"#utility.yul\":17733:17770   */\n              add\n                /* \"#utility.yul\":17720:17731   */\n              dup3\n                /* \"#utility.yul\":17691:17771   */\n              tag_233\n              jump\t// in\n            tag_416:\n                /* \"#utility.yul\":17350:17781   */\n              pop\n              pop\n                /* \"#utility.yul\":17335:17781   */\n            tag_412:\n                /* \"#utility.yul\":17245:17788   */\n              pop\n              pop\n              pop\n              jump\t// out\n                /* \"#utility.yul\":17794:17911   */\n            tag_235:\n                /* \"#utility.yul\":17848:17856   */\n              0x00\n                /* \"#utility.yul\":17898:17903   */\n              dup3\n                /* \"#utility.yul\":17892:17896   */\n              dup3\n                /* \"#utility.yul\":17888:17904   */\n              shr\n                /* \"#utility.yul\":17867:17904   */\n              swap1\n              pop\n                /* \"#utility.yul\":17794:17911   */\n              swap3\n              swap2\n              pop\n              pop\n              jump\t// out\n                /* \"#utility.yul\":17917:18086   */\n            tag_236:\n                /* \"#utility.yul\":17961:17967   */\n              0x00\n                /* \"#utility.yul\":17994:18045   */\n              tag_420\n                /* \"#utility.yul\":18042:18043   */\n              0x00\n                /* \"#utility.yul\":18038:18044   */\n              not\n                /* \"#utility.yul\":18030:18035   */\n              dup5\n                /* \"#utility.yul\":18027:18028   */\n              0x08\n                /* \"#utility.yul\":18023:18036   */\n              mul\n                /* \"#utility.yul\":17994:18045   */\n              tag_235\n              jump\t// in\n            tag_420:\n                /* \"#utility.yul\":17990:18046   */\n              not\n                /* \"#utility.yul\":18075:18079   */\n              dup1\n                /* \"#utility.yul\":18069:18073   */\n              dup4\n                /* \"#utility.yul\":18065:18080   */\n              and\n                /* \"#utility.yul\":18055:18080   */\n              swap2\n              pop\n                /* \"#utility.yul\":17968:18086   */\n              pop\n                /* \"#utility.yul\":17917:18086   */\n              swap3\n              swap2\n              pop\n              pop\n              jump\t// out\n                /* \"#utility.yul\":18091:18386   */\n            tag_237:\n                /* \"#utility.yul\":18167:18171   */\n              0x00\n                /* \"#utility.yul\":18313:18342   */\n              tag_422\n                /* \"#utility.yul\":18338:18341   */\n              dup4\n                /* \"#utility.yul\":18332:18336   */\n              dup4\n                /* \"#utility.yul\":18313:18342   */\n              tag_236\n              jump\t// in\n            tag_422:\n                /* \"#utility.yul\":18305:18342   */\n              swap2\n              pop\n                /* \"#utility.yul\":18375:18378   */\n              dup3\n                /* \"#utility.yul\":18372:18373   */\n              0x02\n                /* \"#utility.yul\":18368:18379   */\n              mul\n                /* \"#utility.yul\":18362:18366   */\n              dup3\n                /* \"#utility.yul\":18359:18380   */\n              or\n                /* \"#utility.yul\":18351:18380   */\n              swap1\n              pop\n                /* \"#utility.yul\":18091:18386   */\n              swap3\n              swap2\n              pop\n              pop\n              jump\t// out\n                /* \"#utility.yul\":18391:19786   */\n            tag_43:\n                /* \"#utility.yul\":18508:18545   */\n              tag_424\n                /* \"#utility.yul\":18541:18544   */\n              dup3\n                /* \"#utility.yul\":18508:18545   */\n              tag_202\n              jump\t// in\n            tag_424:\n                /* \"#utility.yul\":18610:18628   */\n              0xffffffffffffffff\n                /* \"#utility.yul\":18602:18608   */\n              dup2\n                /* \"#utility.yul\":18599:18629   */\n              gt\n                /* \"#utility.yul\":18596:18652   */\n              iszero\n              tag_425\n              jumpi\n                /* \"#utility.yul\":18632:18650   */\n              tag_426\n              tag_123\n              jump\t// in\n            tag_426:\n                /* \"#utility.yul\":18596:18652   */\n            tag_425:\n                /* \"#utility.yul\":18676:18714   */\n              tag_427\n                /* \"#utility.yul\":18708:18712   */\n              dup3\n                /* \"#utility.yul\":18702:18713   */\n              sload\n                /* \"#utility.yul\":18676:18714   */\n              tag_99\n              jump\t// in\n            tag_427:\n                /* \"#utility.yul\":18761:18828   */\n              tag_428\n                /* \"#utility.yul\":18821:18827   */\n              dup3\n                /* \"#utility.yul\":18813:18819   */\n              dup3\n                /* \"#utility.yul\":18807:18811   */\n              dup6\n                /* \"#utility.yul\":18761:18828   */\n              tag_234\n              jump\t// in\n            tag_428:\n                /* \"#utility.yul\":18855:18856   */\n              0x00\n                /* \"#utility.yul\":18879:18883   */\n              0x20\n                /* \"#utility.yul\":18866:18883   */\n              swap1\n              pop\n                /* \"#utility.yul\":18911:18913   */\n              0x1f\n                /* \"#utility.yul\":18903:18909   */\n              dup4\n                /* \"#utility.yul\":18900:18914   */\n              gt\n                /* \"#utility.yul\":18928:18929   */\n              0x01\n                /* \"#utility.yul\":18923:19541   */\n              dup2\n              eq\n              tag_430\n              jumpi\n                /* \"#utility.yul\":19585:19586   */\n              0x00\n                /* \"#utility.yul\":19602:19608   */\n              dup5\n                /* \"#utility.yul\":19599:19676   */\n              iszero\n              tag_431\n              jumpi\n                /* \"#utility.yul\":19651:19660   */\n              dup3\n                /* \"#utility.yul\":19646:19649   */\n              dup8\n                /* \"#utility.yul\":19642:19661   */\n              add\n                /* \"#utility.yul\":19636:19662   */\n              mload\n                /* \"#utility.yul\":19627:19662   */\n              swap1\n              pop\n                /* \"#utility.yul\":19599:19676   */\n            tag_431:\n                /* \"#utility.yul\":19702:19769   */\n              tag_432\n                /* \"#utility.yul\":19762:19768   */\n              dup6\n                /* \"#utility.yul\":19755:19760   */\n              dup3\n                /* \"#utility.yul\":19702:19769   */\n              tag_237\n              jump\t// in\n            tag_432:\n                /* \"#utility.yul\":19696:19700   */\n              dup7\n                /* \"#utility.yul\":19689:19770   */\n              sstore\n                /* \"#utility.yul\":19558:19780   */\n              pop\n                /* \"#utility.yul\":18893:19780   */\n              jump(tag_429)\n                /* \"#utility.yul\":18923:19541   */\n            tag_430:\n                /* \"#utility.yul\":18975:18979   */\n              0x1f\n                /* \"#utility.yul\":18971:18980   */\n              not\n                /* \"#utility.yul\":18963:18969   */\n              dup5\n                /* \"#utility.yul\":18959:18981   */\n              and\n                /* \"#utility.yul\":19009:19046   */\n              tag_433\n                /* \"#utility.yul\":19041:19045   */\n              dup7\n                /* \"#utility.yul\":19009:19046   */\n              tag_223\n              jump\t// in\n            tag_433:\n                /* \"#utility.yul\":19068:19069   */\n              0x00\n                /* \"#utility.yul\":19082:19290   */\n            tag_434:\n                /* \"#utility.yul\":19096:19103   */\n              dup3\n                /* \"#utility.yul\":19093:19094   */\n              dup2\n                /* \"#utility.yul\":19090:19104   */\n              lt\n                /* \"#utility.yul\":19082:19290   */\n              iszero\n              tag_436\n              jumpi\n                /* \"#utility.yul\":19175:19184   */\n              dup5\n                /* \"#utility.yul\":19170:19173   */\n              dup10\n                /* \"#utility.yul\":19166:19185   */\n              add\n                /* \"#utility.yul\":19160:19186   */\n              mload\n                /* \"#utility.yul\":19152:19158   */\n              dup3\n                /* \"#utility.yul\":19145:19187   */\n              sstore\n                /* \"#utility.yul\":19226:19227   */\n              0x01\n                /* \"#utility.yul\":19218:19224   */\n              dup3\n                /* \"#utility.yul\":19214:19228   */\n              add\n                /* \"#utility.yul\":19204:19228   */\n              swap2\n              pop\n                /* \"#utility.yul\":19273:19275   */\n              0x20\n                /* \"#utility.yul\":19262:19271   */\n              dup6\n                /* \"#utility.yul\":19258:19276   */\n              add\n                /* \"#utility.yul\":19245:19276   */\n              swap5\n              pop\n                /* \"#utility.yul\":19119:19123   */\n              0x20\n                /* \"#utility.yul\":19116:19117   */\n              dup2\n                /* \"#utility.yul\":19112:19124   */\n              add\n                /* \"#utility.yul\":19107:19124   */\n              swap1\n              pop\n                /* \"#utility.yul\":19082:19290   */\n              jump(tag_434)\n            tag_436:\n                /* \"#utility.yul\":19318:19324   */\n              dup7\n                /* \"#utility.yul\":19309:19316   */\n              dup4\n                /* \"#utility.yul\":19306:19325   */\n              lt\n                /* \"#utility.yul\":19303:19482   */\n              iszero\n              tag_437\n              jumpi\n                /* \"#utility.yul\":19376:19385   */\n              dup5\n                /* \"#utility.yul\":19371:19374   */\n              dup10\n                /* \"#utility.yul\":19367:19386   */\n              add\n                /* \"#utility.yul\":19361:19387   */\n              mload\n                /* \"#utility.yul\":19419:19467   */\n              tag_438\n                /* \"#utility.yul\":19461:19465   */\n              0x1f\n                /* \"#utility.yul\":19453:19459   */\n              dup10\n                /* \"#utility.yul\":19449:19466   */\n              and\n                /* \"#utility.yul\":19438:19447   */\n              dup3\n                /* \"#utility.yul\":19419:19467   */\n              tag_236\n              jump\t// in\n            tag_438:\n                /* \"#utility.yul\":19411:19417   */\n              dup4\n                /* \"#utility.yul\":19404:19468   */\n              sstore\n                /* \"#utility.yul\":19326:19482   */\n              pop\n                /* \"#utility.yul\":19303:19482   */\n            tag_437:\n                /* \"#utility.yul\":19528:19529   */\n              0x01\n                /* \"#utility.yul\":19524:19525   */\n              0x02\n                /* \"#utility.yul\":19516:19522   */\n              dup9\n                /* \"#utility.yul\":19512:19526   */\n              mul\n                /* \"#utility.yul\":19508:19530   */\n              add\n                /* \"#utility.yul\":19502:19506   */\n              dup9\n                /* \"#utility.yul\":19495:19531   */\n              sstore\n                /* \"#utility.yul\":18930:19541   */\n              pop\n              pop\n              pop\n                /* \"#utility.yul\":18893:19780   */\n            tag_429:\n              pop\n                /* \"#utility.yul\":18483:19786   */\n              pop\n              pop\n              pop\n                /* \"#utility.yul\":18391:19786   */\n              pop\n              pop\n              jump\t// out\n                /* \"#utility.yul\":19792:19972   */\n            tag_238:\n                /* \"#utility.yul\":19840:19917   */\n              0x4e487b7100000000000000000000000000000000000000000000000000000000\n                /* \"#utility.yul\":19837:19838   */\n              0x00\n                /* \"#utility.yul\":19830:19918   */\n              mstore\n                /* \"#utility.yul\":19937:19941   */\n              0x11\n                /* \"#utility.yul\":19934:19935   */\n              0x04\n                /* \"#utility.yul\":19927:19942   */\n              mstore\n                /* \"#utility.yul\":19961:19965   */\n              0x24\n                /* \"#utility.yul\":19958:19959   */\n              0x00\n                /* \"#utility.yul\":19951:19966   */\n              revert\n                /* \"#utility.yul\":19978:20211   */\n            tag_49:\n                /* \"#utility.yul\":20017:20020   */\n              0x00\n                /* \"#utility.yul\":20040:20064   */\n              tag_441\n                /* \"#utility.yul\":20058:20063   */\n              dup3\n                /* \"#utility.yul\":20040:20064   */\n              tag_193\n              jump\t// in\n            tag_441:\n                /* \"#utility.yul\":20031:20064   */\n              swap2\n              pop\n                /* \"#utility.yul\":20086:20152   */\n              0xffffffffffffffffffffffffffffffffffffffffffffffffffffffffffffffff\n                /* \"#utility.yul\":20079:20084   */\n              dup3\n                /* \"#utility.yul\":20076:20153   */\n              sub\n                /* \"#utility.yul\":20073:20176   */\n              tag_442\n              jumpi\n                /* \"#utility.yul\":20156:20174   */\n              tag_443\n              tag_238\n              jump\t// in\n            tag_443:\n                /* \"#utility.yul\":20073:20176   */\n            tag_442:\n                /* \"#utility.yul\":20203:20204   */\n              0x01\n                /* \"#utility.yul\":20196:20201   */\n              dup3\n                /* \"#utility.yul\":20192:20205   */\n              add\n                /* \"#utility.yul\":20185:20205   */\n              swap1\n              pop\n                /* \"#utility.yul\":19978:20211   */\n              swap2\n              swap1\n              pop\n              jump\t// out\n                /* \"#utility.yul\":20217:20335   */\n            tag_239:\n                /* \"#utility.yul\":20304:20328   */\n              tag_445\n                /* \"#utility.yul\":20322:20327   */\n              dup2\n                /* \"#utility.yul\":20304:20328   */\n              tag_193\n              jump\t// in\n            tag_445:\n                /* \"#utility.yul\":20299:20302   */\n              dup3\n                /* \"#utility.yul\":20292:20329   */\n              mstore\n                /* \"#utility.yul\":20217:20335   */\n              pop\n              pop\n              jump\t// out\n                /* \"#utility.yul\":20341:20510   */\n            tag_240:\n                /* \"#utility.yul\":20425:20436   */\n              0x00\n                /* \"#utility.yul\":20459:20465   */\n              dup3\n                /* \"#utility.yul\":20454:20457   */\n              dup3\n                /* \"#utility.yul\":20447:20466   */\n              mstore\n                /* \"#utility.yul\":20499:20503   */\n              0x20\n                /* \"#utility.yul\":20494:20497   */\n              dup3\n                /* \"#utility.yul\":20490:20504   */\n              add\n                /* \"#utility.yul\":20475:20504   */\n              swap1\n              pop\n                /* \"#utility.yul\":20341:20510   */\n              swap3\n              swap2\n              pop\n              pop\n              jump\t// out\n                /* \"#utility.yul\":20516:20893   */\n            tag_241:\n                /* \"#utility.yul\":20604:20607   */\n              0x00\n                /* \"#utility.yul\":20632:20671   */\n              tag_448\n                /* \"#utility.yul\":20665:20670   */\n              dup3\n                /* \"#utility.yul\":20632:20671   */\n              tag_202\n              jump\t// in\n            tag_448:\n                /* \"#utility.yul\":20687:20758   */\n              tag_449\n                /* \"#utility.yul\":20751:20757   */\n              dup2\n                /* \"#utility.yul\":20746:20749   */\n              dup6\n                /* \"#utility.yul\":20687:20758   */\n              tag_240\n              jump\t// in\n            tag_449:\n                /* \"#utility.yul\":20680:20758   */\n              swap4\n              pop\n                /* \"#utility.yul\":20767:20832   */\n              tag_450\n                /* \"#utility.yul\":20825:20831   */\n              dup2\n                /* \"#utility.yul\":20820:20823   */\n              dup6\n                /* \"#utility.yul\":20813:20817   */\n              0x20\n                /* \"#utility.yul\":20806:20811   */\n              dup7\n                /* \"#utility.yul\":20802:20818   */\n              add\n                /* \"#utility.yul\":20767:20832   */\n              tag_204\n              jump\t// in\n            tag_450:\n                /* \"#utility.yul\":20857:20886   */\n              tag_451\n                /* \"#utility.yul\":20879:20885   */\n              dup2\n                /* \"#utility.yul\":20857:20886   */\n              tag_184\n              jump\t// in\n            tag_451:\n                /* \"#utility.yul\":20852:20855   */\n              dup5\n                /* \"#utility.yul\":20848:20887   */\n              add\n                /* \"#utility.yul\":20841:20887   */\n              swap2\n              pop\n                /* \"#utility.yul\":20608:20893   */\n              pop\n                /* \"#utility.yul\":20516:20893   */\n              swap3\n              swap2\n              pop\n              pop\n              jump\t// out\n                /* \"#utility.yul\":20899:21523   */\n            tag_51:\n                /* \"#utility.yul\":21088:21092   */\n              0x00\n                /* \"#utility.yul\":21126:21128   */\n              0x60\n                /* \"#utility.yul\":21115:21124   */\n              dup3\n                /* \"#utility.yul\":21111:21129   */\n              add\n                /* \"#utility.yul\":21103:21129   */\n              swap1\n              pop\n                /* \"#utility.yul\":21139:21210   */\n              tag_453\n                /* \"#utility.yul\":21207:21208   */\n              0x00\n                /* \"#utility.yul\":21196:21205   */\n              dup4\n                /* \"#utility.yul\":21192:21209   */\n              add\n                /* \"#utility.yul\":21183:21189   */\n              dup7\n                /* \"#utility.yul\":21139:21210   */\n              tag_239\n              jump\t// in\n            tag_453:\n                /* \"#utility.yul\":21257:21266   */\n              dup2\n                /* \"#utility.yul\":21251:21255   */\n              dup2\n                /* \"#utility.yul\":21247:21267   */\n              sub\n                /* \"#utility.yul\":21242:21244   */\n              0x20\n                /* \"#utility.yul\":21231:21240   */\n              dup4\n                /* \"#utility.yul\":21227:21245   */\n              add\n                /* \"#utility.yul\":21220:21268   */\n              mstore\n                /* \"#utility.yul\":21285:21363   */\n              tag_454\n                /* \"#utility.yul\":21358:21362   */\n              dup2\n                /* \"#utility.yul\":21349:21355   */\n              dup6\n                /* \"#utility.yul\":21285:21363   */\n              tag_241\n              jump\t// in\n            tag_454:\n                /* \"#utility.yul\":21277:21363   */\n              swap1\n              pop\n                /* \"#utility.yul\":21410:21419   */\n              dup2\n                /* \"#utility.yul\":21404:21408   */\n              dup2\n                /* \"#utility.yul\":21400:21420   */\n              sub\n                /* \"#utility.yul\":21395:21397   */\n              0x40\n                /* \"#utility.yul\":21384:21393   */\n              dup4\n                /* \"#utility.yul\":21380:21398   */\n              add\n                /* \"#utility.yul\":21373:21421   */\n              mstore\n                /* \"#utility.yul\":21438:21516   */\n              tag_455\n                /* \"#utility.yul\":21511:21515   */\n              dup2\n                /* \"#utility.yul\":21502:21508   */\n              dup5\n                /* \"#utility.yul\":21438:21516   */\n              tag_241\n              jump\t// in\n            tag_455:\n                /* \"#utility.yul\":21430:21516   */\n              swap1\n              pop\n                /* \"#utility.yul\":20899:21523   */\n              swap5\n              swap4\n              pop\n              pop\n              pop\n              pop\n              jump\t// out\n                /* \"#utility.yul\":21529:21751   */\n            tag_65:\n                /* \"#utility.yul\":21622:21626   */\n              0x00\n                /* \"#utility.yul\":21660:21662   */\n              0x20\n                /* \"#utility.yul\":21649:21658   */\n              dup3\n                /* \"#utility.yul\":21645:21663   */\n              add\n                /* \"#utility.yul\":21637:21663   */\n              swap1\n              pop\n                /* \"#utility.yul\":21673:21744   */\n              tag_457\n                /* \"#utility.yul\":21741:21742   */\n              0x00\n                /* \"#utility.yul\":21730:21739   */\n              dup4\n                /* \"#utility.yul\":21726:21743   */\n              add\n                /* \"#utility.yul\":21717:21723   */\n              dup5\n                /* \"#utility.yul\":21673:21744   */\n              tag_239\n              jump\t// in\n            tag_457:\n                /* \"#utility.yul\":21529:21751   */\n              swap3\n              swap2\n              pop\n              pop\n              jump\t// out\n                /* \"#utility.yul\":21757:21937   */\n            tag_76:\n                /* \"#utility.yul\":21805:21882   */\n              0x4e487b7100000000000000000000000000000000000000000000000000000000\n                /* \"#utility.yul\":21802:21803   */\n              0x00\n                /* \"#utility.yul\":21795:21883   */\n              mstore\n                /* \"#utility.yul\":21902:21906   */\n              0x32\n                /* \"#utility.yul\":21899:21900   */\n              0x04\n                /* \"#utility.yul\":21892:21907   */\n              mstore\n                /* \"#utility.yul\":21926:21930   */\n              0x24\n                /* \"#utility.yul\":21923:21924   */\n              0x00\n                /* \"#utility.yul\":21916:21931   */\n              revert\n                /* \"#utility.yul\":21943:22137   */\n            tag_80:\n                /* \"#utility.yul\":21983:21987   */\n              0x00\n                /* \"#utility.yul\":22003:22023   */\n              tag_460\n                /* \"#utility.yul\":22021:22022   */\n              dup3\n                /* \"#utility.yul\":22003:22023   */\n              tag_193\n              jump\t// in\n            tag_460:\n                /* \"#utility.yul\":21998:22023   */\n              swap2\n              pop\n                /* \"#utility.yul\":22037:22057   */\n              tag_461\n                /* \"#utility.yul\":22055:22056   */\n              dup4\n                /* \"#utility.yul\":22037:22057   */\n              tag_193\n              jump\t// in\n            tag_461:\n                /* \"#utility.yul\":22032:22057   */\n              swap3\n              pop\n                /* \"#utility.yul\":22081:22082   */\n              dup3\n                /* \"#utility.yul\":22078:22079   */\n              dup3\n                /* \"#utility.yul\":22074:22083   */\n              sub\n                /* \"#utility.yul\":22066:22083   */\n              swap1\n              pop\n                /* \"#utility.yul\":22105:22106   */\n              dup2\n                /* \"#utility.yul\":22099:22103   */\n              dup2\n                /* \"#utility.yul\":22096:22107   */\n              gt\n                /* \"#utility.yul\":22093:22130   */\n              iszero\n              tag_462\n              jumpi\n                /* \"#utility.yul\":22110:22128   */\n              tag_463\n              tag_238\n              jump\t// in\n            tag_463:\n                /* \"#utility.yul\":22093:22130   */\n            tag_462:\n                /* \"#utility.yul\":21943:22137   */\n              swap3\n              swap2\n              pop\n              pop\n              jump\t// out\n                /* \"#utility.yul\":22143:22323   */\n            tag_89:\n                /* \"#utility.yul\":22191:22268   */\n              0x4e487b7100000000000000000000000000000000000000000000000000000000\n                /* \"#utility.yul\":22188:22189   */\n              0x00\n                /* \"#utility.yul\":22181:22269   */\n              mstore\n                /* \"#utility.yul\":22288:22292   */\n              0x31\n                /* \"#utility.yul\":22285:22286   */\n              0x04\n                /* \"#utility.yul\":22278:22293   */\n              mstore\n                /* \"#utility.yul\":22312:22316   */\n              0x24\n                /* \"#utility.yul\":22309:22310   */\n              0x00\n                /* \"#utility.yul\":22302:22317   */\n              revert\n\n            auxdata: 0xa26469706673582212206b9c074e2ab9d75b0e806039fe34611001f0d94b7f95d81bb0026175dbf3fdd764736f6c634300081e0033\n        }\n    }\n\n    auxdata: 0xa26469706673582212202197b53cc682c95887c8b2738a2c8414f222a4ad719fc2f822949ef54385537764736f6c634300081e0033\n}\n",
				"bytecode": {
					"linkReferences": {},
					"object": "6080604052348015600e575f5ffd5b50611aeb8061001c5f395ff3fe608060405234801561000f575f5ffd5b5060043610610029575f3560e01c8063775c300c1461002d575b5f5ffd5b61003561004b565b604051610042919061010c565b60405180910390f35b5f5f3360405161005a906100c0565b610064919061010c565b604051809103905ff08015801561007d573d5f5f3e3d5ffd5b5090507fda9578afd0a05de40ee1e98caa6df8585a3d1ad17fed1bbf4de60789a3d5827d81336040516100b1929190610125565b60405180910390a18091505090565b6119698061014d83390190565b5f73ffffffffffffffffffffffffffffffffffffffff82169050919050565b5f6100f6826100cd565b9050919050565b610106816100ec565b82525050565b5f60208201905061011f5f8301846100fd565b92915050565b5f6040820190506101385f8301856100fd565b61014560208301846100fd565b939250505056fe608060405260018055348015610013575f5ffd5b50604051611969380380611969833981810160405281019061003591906101db565b805f73ffffffffffffffffffffffffffffffffffffffff168173ffffffffffffffffffffffffffffffffffffffff16036100a6575f6040517f1e4fbdf700000000000000000000000000000000000000000000000000000000815260040161009d9190610215565b60405180910390fd5b6100b5816100bc60201b60201c565b505061022e565b5f5f5f9054906101000a900473ffffffffffffffffffffffffffffffffffffffff169050815f5f6101000a81548173ffffffffffffffffffffffffffffffffffffffff021916908373ffffffffffffffffffffffffffffffffffffffff1602179055508173ffffffffffffffffffffffffffffffffffffffff168173ffffffffffffffffffffffffffffffffffffffff167f8be0079c531659141344cd1fd0a4f28419497f9722a3daafe3b4186f6b6457e060405160405180910390a35050565b5f5ffd5b5f73ffffffffffffffffffffffffffffffffffffffff82169050919050565b5f6101aa82610181565b9050919050565b6101ba816101a0565b81146101c4575f5ffd5b50565b5f815190506101d5816101b1565b92915050565b5f602082840312156101f0576101ef61017d565b5b5f6101fd848285016101c7565b91505092915050565b61020f816101a0565b82525050565b5f6020820190506102285f830184610206565b92915050565b61172e8061023b5f395ff3fe608060405234801561000f575f5ffd5b506004361061007b575f3560e01c8063b9ed6fca11610059578063b9ed6fca146100c3578063e6505e1e146100df578063ef1d6ddd1461010f578063f2fde38b1461012d5761007b565b80633f06f6e81461007f578063715018a61461009b5780638da5cb5b146100a5575b5f5ffd5b61009960048036038101906100949190610e0e565b610149565b005b6100a361025b565b005b6100ad61026e565b6040516100ba9190610ef1565b60405180910390f35b6100dd60048036038101906100d89190610f0a565b610295565b005b6100f960048036038101906100f49190610f0a565b610423565b60405161010691906110ba565b60405180910390f35b610117610617565b6040516101249190611203565b60405180910390f35b6101476004803603810190610142919061124d565b6108f1565b005b610151610975565b5f600154905060405180608001604052808281526020018581526020018481526020018381525060025f8381526020019081526020015f205f820151815f015560208201518160010190816101a69190611475565b5060408201518160020190816101bc9190611475565b5060608201518160030190805190602001906101d9929190610ae2565b50905050600381908060018154018082558091505060019003905f5260205f20015f909190919091505560015f81548092919061021590611571565b91905055507f39e4b2c2e9d45c66e23d37e83635b878e526ae64e30a703725563702a9167d8281858560405161024d9392919061160f565b60405180910390a150505050565b610263610975565b61026c5f6109fc565b565b5f5f5f9054906101000a900473ffffffffffffffffffffffffffffffffffffffff16905090565b61029d610975565b6102a681610abd565b6102e757806040517ff55dec000000000000000000000000000000000000000000000000000000000081526004016102de9190611652565b60405180910390fd5b60025f8281526020019081526020015f205f5f82015f9055600182015f61030e9190610b2d565b600282015f61031d9190610b2d565b600382015f61032c9190610b6a565b50505f5f90505b6003805490508110156103e85781600382815481106103555761035461166b565b5b905f5260205f200154036103db57600360016003805490506103779190611698565b815481106103885761038761166b565b5b905f5260205f200154600382815481106103a5576103a461166b565b5b905f5260205f20018190555060038054806103c3576103c26116cb565b5b600190038181905f5260205f20015f905590556103e8565b8080600101915050610333565b507fa3c745e32bb55cfe98a4a89c04153df8d2ffea0e5a57289f08bd2d9ebdf52010816040516104189190611652565b60405180910390a150565b61042b610b88565b61043482610abd565b61047557816040517ff55dec0000000000000000000000000000000000000000000000000000000000815260040161046c9190611652565b60405180910390fd5b60025f8381526020019081526020015f206040518060800160405290815f82015481526020016001820180546104aa906112a5565b80601f01602080910402602001604051908101604052809291908181526020018280546104d6906112a5565b80156105215780601f106104f857610100808354040283529160200191610521565b820191905f5260205f20905b81548152906001019060200180831161050457829003601f168201915b5050505050815260200160028201805461053a906112a5565b80601f0160208091040260200160405190810160405280929190818152602001828054610566906112a5565b80156105b15780601f10610588576101008083540402835291602001916105b1565b820191905f5260205f20905b81548152906001019060200180831161059457829003601f168201915b505050505081526020016003820180548060200260200160405190810160405280929190818152602001828054801561060757602002820191905f5260205f20905b8154815260200190600101908083116105f3575b5050505050815250509050919050565b60605f5f90505f5f90505b60038054905081101561067557610654600382815481106106465761064561166b565b5b905f5260205f200154610abd565b1561066857818061066490611571565b9250505b8080600101915050610622565b505f8167ffffffffffffffff81111561069157610690610bf3565b5b6040519080825280602002602001820160405280156106ca57816020015b6106b7610b88565b8152602001906001900390816106af5790505b5090505f5f90505f5f90505b6003805490508110156108e7575f600382815481106106f8576106f761166b565b5b905f5260205f200154905061070c81610abd565b156108d95760025f8281526020019081526020015f206040518060800160405290815f8201548152602001600182018054610746906112a5565b80601f0160208091040260200160405190810160405280929190818152602001828054610772906112a5565b80156107bd5780601f10610794576101008083540402835291602001916107bd565b820191905f5260205f20905b8154815290600101906020018083116107a057829003601f168201915b505050505081526020016002820180546107d6906112a5565b80601f0160208091040260200160405190810160405280929190818152602001828054610802906112a5565b801561084d5780601f106108245761010080835404028352916020019161084d565b820191905f5260205f20905b81548152906001019060200180831161083057829003601f168201915b50505050508152602001600382018054806020026020016040519081016040528092919081815260200182805480156108a357602002820191905f5260205f20905b81548152602001906001019080831161088f575b5050505050815250508484815181106108bf576108be61166b565b5b602002602001018190525082806108d590611571565b9350505b5080806001019150506106d6565b5081935050505090565b6108f9610975565b5f73ffffffffffffffffffffffffffffffffffffffff168173ffffffffffffffffffffffffffffffffffffffff1603610969575f6040517f1e4fbdf70000000000000000000000000000000000000000000000000000000081526004016109609190610ef1565b60405180910390fd5b610972816109fc565b50565b61097d610adb565b73ffffffffffffffffffffffffffffffffffffffff1661099b61026e565b73ffffffffffffffffffffffffffffffffffffffff16146109fa576109be610adb565b6040517f118cdaa70000000000000000000000000000000000000000000000000000000081526004016109f19190610ef1565b60405180910390fd5b565b5f5f5f9054906101000a900473ffffffffffffffffffffffffffffffffffffffff169050815f5f6101000a81548173ffffffffffffffffffffffffffffffffffffffff021916908373ffffffffffffffffffffffffffffffffffffffff1602179055508173ffffffffffffffffffffffffffffffffffffffff168173ffffffffffffffffffffffffffffffffffffffff167f8be0079c531659141344cd1fd0a4f28419497f9722a3daafe3b4186f6b6457e060405160405180910390a35050565b5f8160025f8481526020019081526020015f205f0154149050919050565b5f33905090565b828054828255905f5260205f20908101928215610b1c579160200282015b82811115610b1b578251825591602001919060010190610b00565b5b509050610b299190610baf565b5090565b508054610b39906112a5565b5f825580601f10610b4a5750610b67565b601f0160209004905f5260205f2090810190610b669190610baf565b5b50565b5080545f8255905f5260205f2090810190610b859190610baf565b50565b60405180608001604052805f81526020016060815260200160608152602001606081525090565b5b80821115610bc6575f815f905550600101610bb0565b5090565b5f604051905090565b5f5ffd5b5f5ffd5b5f5ffd5b5f5ffd5b5f601f19601f8301169050919050565b7f4e487b71000000000000000000000000000000000000000000000000000000005f52604160045260245ffd5b610c2982610be3565b810181811067ffffffffffffffff82111715610c4857610c47610bf3565b5b80604052505050565b5f610c5a610bca565b9050610c668282610c20565b919050565b5f67ffffffffffffffff821115610c8557610c84610bf3565b5b610c8e82610be3565b9050602081019050919050565b828183375f83830152505050565b5f610cbb610cb684610c6b565b610c51565b905082815260208101848484011115610cd757610cd6610bdf565b5b610ce2848285610c9b565b509392505050565b5f82601f830112610cfe57610cfd610bdb565b5b8135610d0e848260208601610ca9565b91505092915050565b5f67ffffffffffffffff821115610d3157610d30610bf3565b5b602082029050602081019050919050565b5f5ffd5b5f819050919050565b610d5881610d46565b8114610d62575f5ffd5b50565b5f81359050610d7381610d4f565b92915050565b5f610d8b610d8684610d17565b610c51565b90508083825260208201905060208402830185811115610dae57610dad610d42565b5b835b81811015610dd75780610dc38882610d65565b845260208401935050602081019050610db0565b5050509392505050565b5f82601f830112610df557610df4610bdb565b5b8135610e05848260208601610d79565b91505092915050565b5f5f5f60608486031215610e2557610e24610bd3565b5b5f84013567ffffffffffffffff811115610e4257610e41610bd7565b5b610e4e86828701610cea565b935050602084013567ffffffffffffffff811115610e6f57610e6e610bd7565b5b610e7b86828701610cea565b925050604084013567ffffffffffffffff811115610e9c57610e9b610bd7565b5b610ea886828701610de1565b9150509250925092565b5f73ffffffffffffffffffffffffffffffffffffffff82169050919050565b5f610edb82610eb2565b9050919050565b610eeb81610ed1565b82525050565b5f602082019050610f045f830184610ee2565b92915050565b5f60208284031215610f1f57610f1e610bd3565b5b5f610f2c84828501610d65565b91505092915050565b610f3e81610d46565b82525050565b5f81519050919050565b5f82825260208201905092915050565b8281835e5f83830152505050565b5f610f7682610f44565b610f808185610f4e565b9350610f90818560208601610f5e565b610f9981610be3565b840191505092915050565b5f81519050919050565b5f82825260208201905092915050565b5f819050602082019050919050565b5f610fd88383610f35565b60208301905092915050565b5f602082019050919050565b5f610ffa82610fa4565b6110048185610fae565b935061100f83610fbe565b805f5b8381101561103f5781516110268882610fcd565b975061103183610fe4565b925050600181019050611012565b5085935050505092915050565b5f608083015f8301516110615f860182610f35565b50602083015184820360208601526110798282610f6c565b915050604083015184820360408601526110938282610f6c565b915050606083015184820360608601526110ad8282610ff0565b9150508091505092915050565b5f6020820190508181035f8301526110d2818461104c565b905092915050565b5f81519050919050565b5f82825260208201905092915050565b5f819050602082019050919050565b5f608083015f8301516111185f860182610f35565b50602083015184820360208601526111308282610f6c565b9150506040830151848203604086015261114a8282610f6c565b915050606083015184820360608601526111648282610ff0565b9150508091505092915050565b5f61117c8383611103565b905092915050565b5f602082019050919050565b5f61119a826110da565b6111a481856110e4565b9350836020820285016111b6856110f4565b805f5b858110156111f157848403895281516111d28582611171565b94506111dd83611184565b925060208a019950506001810190506111b9565b50829750879550505050505092915050565b5f6020820190508181035f83015261121b8184611190565b905092915050565b61122c81610ed1565b8114611236575f5ffd5b50565b5f8135905061124781611223565b92915050565b5f6020828403121561126257611261610bd3565b5b5f61126f84828501611239565b91505092915050565b7f4e487b71000000000000000000000000000000000000000000000000000000005f52602260045260245ffd5b5f60028204905060018216806112bc57607f821691505b6020821081036112cf576112ce611278565b5b50919050565b5f819050815f5260205f209050919050565b5f6020601f8301049050919050565b5f82821b905092915050565b5f600883026113317fffffffffffffffffffffffffffffffffffffffffffffffffffffffffffffffff826112f6565b61133b86836112f6565b95508019841693508086168417925050509392505050565b5f819050919050565b5f61137661137161136c84610d46565b611353565b610d46565b9050919050565b5f819050919050565b61138f8361135c565b6113a361139b8261137d565b848454611302565b825550505050565b5f5f905090565b6113ba6113ab565b6113c5818484611386565b505050565b5b818110156113e8576113dd5f826113b2565b6001810190506113cb565b5050565b601f82111561142d576113fe816112d5565b611407846112e7565b81016020851015611416578190505b61142a611422856112e7565b8301826113ca565b50505b505050565b5f82821c905092915050565b5f61144d5f1984600802611432565b1980831691505092915050565b5f611465838361143e565b9150826002028217905092915050565b61147e82610f44565b67ffffffffffffffff81111561149757611496610bf3565b5b6114a182546112a5565b6114ac8282856113ec565b5f60209050601f8311600181146114dd575f84156114cb578287015190505b6114d5858261145a565b86555061153c565b601f1984166114eb866112d5565b5f5b82811015611512578489015182556001820191506020850194506020810190506114ed565b8683101561152f578489015161152b601f89168261143e565b8355505b6001600288020188555050505b505050505050565b7f4e487b71000000000000000000000000000000000000000000000000000000005f52601160045260245ffd5b5f61157b82610d46565b91507fffffffffffffffffffffffffffffffffffffffffffffffffffffffffffffffff82036115ad576115ac611544565b5b600182019050919050565b6115c181610d46565b82525050565b5f82825260208201905092915050565b5f6115e182610f44565b6115eb81856115c7565b93506115fb818560208601610f5e565b61160481610be3565b840191505092915050565b5f6060820190506116225f8301866115b8565b818103602083015261163481856115d7565b9050818103604083015261164881846115d7565b9050949350505050565b5f6020820190506116655f8301846115b8565b92915050565b7f4e487b71000000000000000000000000000000000000000000000000000000005f52603260045260245ffd5b5f6116a282610d46565b91506116ad83610d46565b92508282039050818111156116c5576116c4611544565b5b92915050565b7f4e487b71000000000000000000000000000000000000000000000000000000005f52603160045260245ffdfea26469706673582212206b9c074e2ab9d75b0e806039fe34611001f0d94b7f95d81bb0026175dbf3fdd764736f6c634300081e0033a26469706673582212202197b53cc682c95887c8b2738a2c8414f222a4ad719fc2f822949ef54385537764736f6c634300081e0033",
					"opcodes": "PUSH1 0x80 PUSH1 0x40 MSTORE CALLVALUE DUP1 ISZERO PUSH1 0xE JUMPI PUSH0 PUSH0 REVERT JUMPDEST POP PUSH2 0x1AEB DUP1 PUSH2 0x1C PUSH0 CODECOPY PUSH0 RETURN INVALID PUSH1 0x80 PUSH1 0x40 MSTORE CALLVALUE DUP1 ISZERO PUSH2 0xF JUMPI PUSH0 PUSH0 REVERT JUMPDEST POP PUSH1 0x4 CALLDATASIZE LT PUSH2 0x29 JUMPI PUSH0 CALLDATALOAD PUSH1 0xE0 SHR DUP1 PUSH4 0x775C300C EQ PUSH2 0x2D JUMPI JUMPDEST PUSH0 PUSH0 REVERT JUMPDEST PUSH2 0x35 PUSH2 0x4B JUMP JUMPDEST PUSH1 0x40 MLOAD PUSH2 0x42 SWAP2 SWAP1 PUSH2 0x10C JUMP JUMPDEST PUSH1 0x40 MLOAD DUP1 SWAP2 SUB SWAP1 RETURN JUMPDEST PUSH0 PUSH0 CALLER PUSH1 0x40 MLOAD PUSH2 0x5A SWAP1 PUSH2 0xC0 JUMP JUMPDEST PUSH2 0x64 SWAP2 SWAP1 PUSH2 0x10C JUMP JUMPDEST PUSH1 0x40 MLOAD DUP1 SWAP2 SUB SWAP1 PUSH0 CREATE DUP1 ISZERO DUP1 ISZERO PUSH2 0x7D JUMPI RETURNDATASIZE PUSH0 PUSH0 RETURNDATACOPY RETURNDATASIZE PUSH0 REVERT JUMPDEST POP SWAP1 POP PUSH32 0xDA9578AFD0A05DE40EE1E98CAA6DF8585A3D1AD17FED1BBF4DE60789A3D5827D DUP2 CALLER PUSH1 0x40 MLOAD PUSH2 0xB1 SWAP3 SWAP2 SWAP1 PUSH2 0x125 JUMP JUMPDEST PUSH1 0x40 MLOAD DUP1 SWAP2 SUB SWAP1 LOG1 DUP1 SWAP2 POP POP SWAP1 JUMP JUMPDEST PUSH2 0x1969 DUP1 PUSH2 0x14D DUP4 CODECOPY ADD SWAP1 JUMP JUMPDEST PUSH0 PUSH20 0xFFFFFFFFFFFFFFFFFFFFFFFFFFFFFFFFFFFFFFFF DUP3 AND SWAP1 POP SWAP2 SWAP1 POP JUMP JUMPDEST PUSH0 PUSH2 0xF6 DUP3 PUSH2 0xCD JUMP JUMPDEST SWAP1 POP SWAP2 SWAP1 POP JUMP JUMPDEST PUSH2 0x106 DUP2 PUSH2 0xEC JUMP JUMPDEST DUP3 MSTORE POP POP JUMP JUMPDEST PUSH0 PUSH1 0x20 DUP3 ADD SWAP1 POP PUSH2 0x11F PUSH0 DUP4 ADD DUP5 PUSH2 0xFD JUMP JUMPDEST SWAP3 SWAP2 POP POP JUMP JUMPDEST PUSH0 PUSH1 0x40 DUP3 ADD SWAP1 POP PUSH2 0x138 PUSH0 DUP4 ADD DUP6 PUSH2 0xFD JUMP JUMPDEST PUSH2 0x145 PUSH1 0x20 DUP4 ADD DUP5 PUSH2 0xFD JUMP JUMPDEST SWAP4 SWAP3 POP POP POP JUMP INVALID PUSH1 0x80 PUSH1 0x40 MSTORE PUSH1 0x1 DUP1 SSTORE CALLVALUE DUP1 ISZERO PUSH2 0x13 JUMPI PUSH0 PUSH0 REVERT JUMPDEST POP PUSH1 0x40 MLOAD PUSH2 0x1969 CODESIZE SUB DUP1 PUSH2 0x1969 DUP4 CODECOPY DUP2 DUP2 ADD PUSH1 0x40 MSTORE DUP2 ADD SWAP1 PUSH2 0x35 SWAP2 SWAP1 PUSH2 0x1DB JUMP JUMPDEST DUP1 PUSH0 PUSH20 0xFFFFFFFFFFFFFFFFFFFFFFFFFFFFFFFFFFFFFFFF AND DUP2 PUSH20 0xFFFFFFFFFFFFFFFFFFFFFFFFFFFFFFFFFFFFFFFF AND SUB PUSH2 0xA6 JUMPI PUSH0 PUSH1 0x40 MLOAD PUSH32 0x1E4FBDF700000000000000000000000000000000000000000000000000000000 DUP2 MSTORE PUSH1 0x4 ADD PUSH2 0x9D SWAP2 SWAP1 PUSH2 0x215 JUMP JUMPDEST PUSH1 0x40 MLOAD DUP1 SWAP2 SUB SWAP1 REVERT JUMPDEST PUSH2 0xB5 DUP2 PUSH2 0xBC PUSH1 0x20 SHL PUSH1 0x20 SHR JUMP JUMPDEST POP POP PUSH2 0x22E JUMP JUMPDEST PUSH0 PUSH0 PUSH0 SWAP1 SLOAD SWAP1 PUSH2 0x100 EXP SWAP1 DIV PUSH20 0xFFFFFFFFFFFFFFFFFFFFFFFFFFFFFFFFFFFFFFFF AND SWAP1 POP DUP2 PUSH0 PUSH0 PUSH2 0x100 EXP DUP2 SLOAD DUP2 PUSH20 0xFFFFFFFFFFFFFFFFFFFFFFFFFFFFFFFFFFFFFFFF MUL NOT AND SWAP1 DUP4 PUSH20 0xFFFFFFFFFFFFFFFFFFFFFFFFFFFFFFFFFFFFFFFF AND MUL OR SWAP1 SSTORE POP DUP2 PUSH20 0xFFFFFFFFFFFFFFFFFFFFFFFFFFFFFFFFFFFFFFFF AND DUP2 PUSH20 0xFFFFFFFFFFFFFFFFFFFFFFFFFFFFFFFFFFFFFFFF AND PUSH32 0x8BE0079C531659141344CD1FD0A4F28419497F9722A3DAAFE3B4186F6B6457E0 PUSH1 0x40 MLOAD PUSH1 0x40 MLOAD DUP1 SWAP2 SUB SWAP1 LOG3 POP POP JUMP JUMPDEST PUSH0 PUSH0 REVERT JUMPDEST PUSH0 PUSH20 0xFFFFFFFFFFFFFFFFFFFFFFFFFFFFFFFFFFFFFFFF DUP3 AND SWAP1 POP SWAP2 SWAP1 POP JUMP JUMPDEST PUSH0 PUSH2 0x1AA DUP3 PUSH2 0x181 JUMP JUMPDEST SWAP1 POP SWAP2 SWAP1 POP JUMP JUMPDEST PUSH2 0x1BA DUP2 PUSH2 0x1A0 JUMP JUMPDEST DUP2 EQ PUSH2 0x1C4 JUMPI PUSH0 PUSH0 REVERT JUMPDEST POP JUMP JUMPDEST PUSH0 DUP2 MLOAD SWAP1 POP PUSH2 0x1D5 DUP2 PUSH2 0x1B1 JUMP JUMPDEST SWAP3 SWAP2 POP POP JUMP JUMPDEST PUSH0 PUSH1 0x20 DUP3 DUP5 SUB SLT ISZERO PUSH2 0x1F0 JUMPI PUSH2 0x1EF PUSH2 0x17D JUMP JUMPDEST JUMPDEST PUSH0 PUSH2 0x1FD DUP5 DUP3 DUP6 ADD PUSH2 0x1C7 JUMP JUMPDEST SWAP2 POP POP SWAP3 SWAP2 POP POP JUMP JUMPDEST PUSH2 0x20F DUP2 PUSH2 0x1A0 JUMP JUMPDEST DUP3 MSTORE POP POP JUMP JUMPDEST PUSH0 PUSH1 0x20 DUP3 ADD SWAP1 POP PUSH2 0x228 PUSH0 DUP4 ADD DUP5 PUSH2 0x206 JUMP JUMPDEST SWAP3 SWAP2 POP POP JUMP JUMPDEST PUSH2 0x172E DUP1 PUSH2 0x23B PUSH0 CODECOPY PUSH0 RETURN INVALID PUSH1 0x80 PUSH1 0x40 MSTORE CALLVALUE DUP1 ISZERO PUSH2 0xF JUMPI PUSH0 PUSH0 REVERT JUMPDEST POP PUSH1 0x4 CALLDATASIZE LT PUSH2 0x7B JUMPI PUSH0 CALLDATALOAD PUSH1 0xE0 SHR DUP1 PUSH4 0xB9ED6FCA GT PUSH2 0x59 JUMPI DUP1 PUSH4 0xB9ED6FCA EQ PUSH2 0xC3 JUMPI DUP1 PUSH4 0xE6505E1E EQ PUSH2 0xDF JUMPI DUP1 PUSH4 0xEF1D6DDD EQ PUSH2 0x10F JUMPI DUP1 PUSH4 0xF2FDE38B EQ PUSH2 0x12D JUMPI PUSH2 0x7B JUMP JUMPDEST DUP1 PUSH4 0x3F06F6E8 EQ PUSH2 0x7F JUMPI DUP1 PUSH4 0x715018A6 EQ PUSH2 0x9B JUMPI DUP1 PUSH4 0x8DA5CB5B EQ PUSH2 0xA5 JUMPI JUMPDEST PUSH0 PUSH0 REVERT JUMPDEST PUSH2 0x99 PUSH1 0x4 DUP1 CALLDATASIZE SUB DUP2 ADD SWAP1 PUSH2 0x94 SWAP2 SWAP1 PUSH2 0xE0E JUMP JUMPDEST PUSH2 0x149 JUMP JUMPDEST STOP JUMPDEST PUSH2 0xA3 PUSH2 0x25B JUMP JUMPDEST STOP JUMPDEST PUSH2 0xAD PUSH2 0x26E JUMP JUMPDEST PUSH1 0x40 MLOAD PUSH2 0xBA SWAP2 SWAP1 PUSH2 0xEF1 JUMP JUMPDEST PUSH1 0x40 MLOAD DUP1 SWAP2 SUB SWAP1 RETURN JUMPDEST PUSH2 0xDD PUSH1 0x4 DUP1 CALLDATASIZE SUB DUP2 ADD SWAP1 PUSH2 0xD8 SWAP2 SWAP1 PUSH2 0xF0A JUMP JUMPDEST PUSH2 0x295 JUMP JUMPDEST STOP JUMPDEST PUSH2 0xF9 PUSH1 0x4 DUP1 CALLDATASIZE SUB DUP2 ADD SWAP1 PUSH2 0xF4 SWAP2 SWAP1 PUSH2 0xF0A JUMP JUMPDEST PUSH2 0x423 JUMP JUMPDEST PUSH1 0x40 MLOAD PUSH2 0x106 SWAP2 SWAP1 PUSH2 0x10BA JUMP JUMPDEST PUSH1 0x40 MLOAD DUP1 SWAP2 SUB SWAP1 RETURN JUMPDEST PUSH2 0x117 PUSH2 0x617 JUMP JUMPDEST PUSH1 0x40 MLOAD PUSH2 0x124 SWAP2 SWAP1 PUSH2 0x1203 JUMP JUMPDEST PUSH1 0x40 MLOAD DUP1 SWAP2 SUB SWAP1 RETURN JUMPDEST PUSH2 0x147 PUSH1 0x4 DUP1 CALLDATASIZE SUB DUP2 ADD SWAP1 PUSH2 0x142 SWAP2 SWAP1 PUSH2 0x124D JUMP JUMPDEST PUSH2 0x8F1 JUMP JUMPDEST STOP JUMPDEST PUSH2 0x151 PUSH2 0x975 JUMP JUMPDEST PUSH0 PUSH1 0x1 SLOAD SWAP1 POP PUSH1 0x40 MLOAD DUP1 PUSH1 0x80 ADD PUSH1 0x40 MSTORE DUP1 DUP3 DUP2 MSTORE PUSH1 0x20 ADD DUP6 DUP2 MSTORE PUSH1 0x20 ADD DUP5 DUP2 MSTORE PUSH1 0x20 ADD DUP4 DUP2 MSTORE POP PUSH1 0x2 PUSH0 DUP4 DUP2 MSTORE PUSH1 0x20 ADD SWAP1 DUP2 MSTORE PUSH1 0x20 ADD PUSH0 KECCAK256 PUSH0 DUP3 ADD MLOAD DUP2 PUSH0 ADD SSTORE PUSH1 0x20 DUP3 ADD MLOAD DUP2 PUSH1 0x1 ADD SWAP1 DUP2 PUSH2 0x1A6 SWAP2 SWAP1 PUSH2 0x1475 JUMP JUMPDEST POP PUSH1 0x40 DUP3 ADD MLOAD DUP2 PUSH1 0x2 ADD SWAP1 DUP2 PUSH2 0x1BC SWAP2 SWAP1 PUSH2 0x1475 JUMP JUMPDEST POP PUSH1 0x60 DUP3 ADD MLOAD DUP2 PUSH1 0x3 ADD SWAP1 DUP1 MLOAD SWAP1 PUSH1 0x20 ADD SWAP1 PUSH2 0x1D9 SWAP3 SWAP2 SWAP1 PUSH2 0xAE2 JUMP JUMPDEST POP SWAP1 POP POP PUSH1 0x3 DUP2 SWAP1 DUP1 PUSH1 0x1 DUP2 SLOAD ADD DUP1 DUP3 SSTORE DUP1 SWAP2 POP POP PUSH1 0x1 SWAP1 SUB SWAP1 PUSH0 MSTORE PUSH1 0x20 PUSH0 KECCAK256 ADD PUSH0 SWAP1 SWAP2 SWAP1 SWAP2 SWAP1 SWAP2 POP SSTORE PUSH1 0x1 PUSH0 DUP2 SLOAD DUP1 SWAP3 SWAP2 SWAP1 PUSH2 0x215 SWAP1 PUSH2 0x1571 JUMP JUMPDEST SWAP2 SWAP1 POP SSTORE POP PUSH32 0x39E4B2C2E9D45C66E23D37E83635B878E526AE64E30A703725563702A9167D82 DUP2 DUP6 DUP6 PUSH1 0x40 MLOAD PUSH2 0x24D SWAP4 SWAP3 SWAP2 SWAP1 PUSH2 0x160F JUMP JUMPDEST PUSH1 0x40 MLOAD DUP1 SWAP2 SUB SWAP1 LOG1 POP POP POP POP JUMP JUMPDEST PUSH2 0x263 PUSH2 0x975 JUMP JUMPDEST PUSH2 0x26C PUSH0 PUSH2 0x9FC JUMP JUMPDEST JUMP JUMPDEST PUSH0 PUSH0 PUSH0 SWAP1 SLOAD SWAP1 PUSH2 0x100 EXP SWAP1 DIV PUSH20 0xFFFFFFFFFFFFFFFFFFFFFFFFFFFFFFFFFFFFFFFF AND SWAP1 POP SWAP1 JUMP JUMPDEST PUSH2 0x29D PUSH2 0x975 JUMP JUMPDEST PUSH2 0x2A6 DUP2 PUSH2 0xABD JUMP JUMPDEST PUSH2 0x2E7 JUMPI DUP1 PUSH1 0x40 MLOAD PUSH32 0xF55DEC0000000000000000000000000000000000000000000000000000000000 DUP2 MSTORE PUSH1 0x4 ADD PUSH2 0x2DE SWAP2 SWAP1 PUSH2 0x1652 JUMP JUMPDEST PUSH1 0x40 MLOAD DUP1 SWAP2 SUB SWAP1 REVERT JUMPDEST PUSH1 0x2 PUSH0 DUP3 DUP2 MSTORE PUSH1 0x20 ADD SWAP1 DUP2 MSTORE PUSH1 0x20 ADD PUSH0 KECCAK256 PUSH0 PUSH0 DUP3 ADD PUSH0 SWAP1 SSTORE PUSH1 0x1 DUP3 ADD PUSH0 PUSH2 0x30E SWAP2 SWAP1 PUSH2 0xB2D JUMP JUMPDEST PUSH1 0x2 DUP3 ADD PUSH0 PUSH2 0x31D SWAP2 SWAP1 PUSH2 0xB2D JUMP JUMPDEST PUSH1 0x3 DUP3 ADD PUSH0 PUSH2 0x32C SWAP2 SWAP1 PUSH2 0xB6A JUMP JUMPDEST POP POP PUSH0 PUSH0 SWAP1 POP JUMPDEST PUSH1 0x3 DUP1 SLOAD SWAP1 POP DUP2 LT ISZERO PUSH2 0x3E8 JUMPI DUP2 PUSH1 0x3 DUP3 DUP2 SLOAD DUP2 LT PUSH2 0x355 JUMPI PUSH2 0x354 PUSH2 0x166B JUMP JUMPDEST JUMPDEST SWAP1 PUSH0 MSTORE PUSH1 0x20 PUSH0 KECCAK256 ADD SLOAD SUB PUSH2 0x3DB JUMPI PUSH1 0x3 PUSH1 0x1 PUSH1 0x3 DUP1 SLOAD SWAP1 POP PUSH2 0x377 SWAP2 SWAP1 PUSH2 0x1698 JUMP JUMPDEST DUP2 SLOAD DUP2 LT PUSH2 0x388 JUMPI PUSH2 0x387 PUSH2 0x166B JUMP JUMPDEST JUMPDEST SWAP1 PUSH0 MSTORE PUSH1 0x20 PUSH0 KECCAK256 ADD SLOAD PUSH1 0x3 DUP3 DUP2 SLOAD DUP2 LT PUSH2 0x3A5 JUMPI PUSH2 0x3A4 PUSH2 0x166B JUMP JUMPDEST JUMPDEST SWAP1 PUSH0 MSTORE PUSH1 0x20 PUSH0 KECCAK256 ADD DUP2 SWAP1 SSTORE POP PUSH1 0x3 DUP1 SLOAD DUP1 PUSH2 0x3C3 JUMPI PUSH2 0x3C2 PUSH2 0x16CB JUMP JUMPDEST JUMPDEST PUSH1 0x1 SWAP1 SUB DUP2 DUP2 SWAP1 PUSH0 MSTORE PUSH1 0x20 PUSH0 KECCAK256 ADD PUSH0 SWAP1 SSTORE SWAP1 SSTORE PUSH2 0x3E8 JUMP JUMPDEST DUP1 DUP1 PUSH1 0x1 ADD SWAP2 POP POP PUSH2 0x333 JUMP JUMPDEST POP PUSH32 0xA3C745E32BB55CFE98A4A89C04153DF8D2FFEA0E5A57289F08BD2D9EBDF52010 DUP2 PUSH1 0x40 MLOAD PUSH2 0x418 SWAP2 SWAP1 PUSH2 0x1652 JUMP JUMPDEST PUSH1 0x40 MLOAD DUP1 SWAP2 SUB SWAP1 LOG1 POP JUMP JUMPDEST PUSH2 0x42B PUSH2 0xB88 JUMP JUMPDEST PUSH2 0x434 DUP3 PUSH2 0xABD JUMP JUMPDEST PUSH2 0x475 JUMPI DUP2 PUSH1 0x40 MLOAD PUSH32 0xF55DEC0000000000000000000000000000000000000000000000000000000000 DUP2 MSTORE PUSH1 0x4 ADD PUSH2 0x46C SWAP2 SWAP1 PUSH2 0x1652 JUMP JUMPDEST PUSH1 0x40 MLOAD DUP1 SWAP2 SUB SWAP1 REVERT JUMPDEST PUSH1 0x2 PUSH0 DUP4 DUP2 MSTORE PUSH1 0x20 ADD SWAP1 DUP2 MSTORE PUSH1 0x20 ADD PUSH0 KECCAK256 PUSH1 0x40 MLOAD DUP1 PUSH1 0x80 ADD PUSH1 0x40 MSTORE SWAP1 DUP2 PUSH0 DUP3 ADD SLOAD DUP2 MSTORE PUSH1 0x20 ADD PUSH1 0x1 DUP3 ADD DUP1 SLOAD PUSH2 0x4AA SWAP1 PUSH2 0x12A5 JUMP JUMPDEST DUP1 PUSH1 0x1F ADD PUSH1 0x20 DUP1 SWAP2 DIV MUL PUSH1 0x20 ADD PUSH1 0x40 MLOAD SWAP1 DUP2 ADD PUSH1 0x40 MSTORE DUP1 SWAP3 SWAP2 SWAP1 DUP2 DUP2 MSTORE PUSH1 0x20 ADD DUP3 DUP1 SLOAD PUSH2 0x4D6 SWAP1 PUSH2 0x12A5 JUMP JUMPDEST DUP1 ISZERO PUSH2 0x521 JUMPI DUP1 PUSH1 0x1F LT PUSH2 0x4F8 JUMPI PUSH2 0x100 DUP1 DUP4 SLOAD DIV MUL DUP4 MSTORE SWAP2 PUSH1 0x20 ADD SWAP2 PUSH2 0x521 JUMP JUMPDEST DUP3 ADD SWAP2 SWAP1 PUSH0 MSTORE PUSH1 0x20 PUSH0 KECCAK256 SWAP1 JUMPDEST DUP2 SLOAD DUP2 MSTORE SWAP1 PUSH1 0x1 ADD SWAP1 PUSH1 0x20 ADD DUP1 DUP4 GT PUSH2 0x504 JUMPI DUP3 SWAP1 SUB PUSH1 0x1F AND DUP3 ADD SWAP2 JUMPDEST POP POP POP POP POP DUP2 MSTORE PUSH1 0x20 ADD PUSH1 0x2 DUP3 ADD DUP1 SLOAD PUSH2 0x53A SWAP1 PUSH2 0x12A5 JUMP JUMPDEST DUP1 PUSH1 0x1F ADD PUSH1 0x20 DUP1 SWAP2 DIV MUL PUSH1 0x20 ADD PUSH1 0x40 MLOAD SWAP1 DUP2 ADD PUSH1 0x40 MSTORE DUP1 SWAP3 SWAP2 SWAP1 DUP2 DUP2 MSTORE PUSH1 0x20 ADD DUP3 DUP1 SLOAD PUSH2 0x566 SWAP1 PUSH2 0x12A5 JUMP JUMPDEST DUP1 ISZERO PUSH2 0x5B1 JUMPI DUP1 PUSH1 0x1F LT PUSH2 0x588 JUMPI PUSH2 0x100 DUP1 DUP4 SLOAD DIV MUL DUP4 MSTORE SWAP2 PUSH1 0x20 ADD SWAP2 PUSH2 0x5B1 JUMP JUMPDEST DUP3 ADD SWAP2 SWAP1 PUSH0 MSTORE PUSH1 0x20 PUSH0 KECCAK256 SWAP1 JUMPDEST DUP2 SLOAD DUP2 MSTORE SWAP1 PUSH1 0x1 ADD SWAP1 PUSH1 0x20 ADD DUP1 DUP4 GT PUSH2 0x594 JUMPI DUP3 SWAP1 SUB PUSH1 0x1F AND DUP3 ADD SWAP2 JUMPDEST POP POP POP POP POP DUP2 MSTORE PUSH1 0x20 ADD PUSH1 0x3 DUP3 ADD DUP1 SLOAD DUP1 PUSH1 0x20 MUL PUSH1 0x20 ADD PUSH1 0x40 MLOAD SWAP1 DUP2 ADD PUSH1 0x40 MSTORE DUP1 SWAP3 SWAP2 SWAP1 DUP2 DUP2 MSTORE PUSH1 0x20 ADD DUP3 DUP1 SLOAD DUP1 ISZERO PUSH2 0x607 JUMPI PUSH1 0x20 MUL DUP3 ADD SWAP2 SWAP1 PUSH0 MSTORE PUSH1 0x20 PUSH0 KECCAK256 SWAP1 JUMPDEST DUP2 SLOAD DUP2 MSTORE PUSH1 0x20 ADD SWAP1 PUSH1 0x1 ADD SWAP1 DUP1 DUP4 GT PUSH2 0x5F3 JUMPI JUMPDEST POP POP POP POP POP DUP2 MSTORE POP POP SWAP1 POP SWAP2 SWAP1 POP JUMP JUMPDEST PUSH1 0x60 PUSH0 PUSH0 SWAP1 POP PUSH0 PUSH0 SWAP1 POP JUMPDEST PUSH1 0x3 DUP1 SLOAD SWAP1 POP DUP2 LT ISZERO PUSH2 0x675 JUMPI PUSH2 0x654 PUSH1 0x3 DUP3 DUP2 SLOAD DUP2 LT PUSH2 0x646 JUMPI PUSH2 0x645 PUSH2 0x166B JUMP JUMPDEST JUMPDEST SWAP1 PUSH0 MSTORE PUSH1 0x20 PUSH0 KECCAK256 ADD SLOAD PUSH2 0xABD JUMP JUMPDEST ISZERO PUSH2 0x668 JUMPI DUP2 DUP1 PUSH2 0x664 SWAP1 PUSH2 0x1571 JUMP JUMPDEST SWAP3 POP POP JUMPDEST DUP1 DUP1 PUSH1 0x1 ADD SWAP2 POP POP PUSH2 0x622 JUMP JUMPDEST POP PUSH0 DUP2 PUSH8 0xFFFFFFFFFFFFFFFF DUP2 GT ISZERO PUSH2 0x691 JUMPI PUSH2 0x690 PUSH2 0xBF3 JUMP JUMPDEST JUMPDEST PUSH1 0x40 MLOAD SWAP1 DUP1 DUP3 MSTORE DUP1 PUSH1 0x20 MUL PUSH1 0x20 ADD DUP3 ADD PUSH1 0x40 MSTORE DUP1 ISZERO PUSH2 0x6CA JUMPI DUP2 PUSH1 0x20 ADD JUMPDEST PUSH2 0x6B7 PUSH2 0xB88 JUMP JUMPDEST DUP2 MSTORE PUSH1 0x20 ADD SWAP1 PUSH1 0x1 SWAP1 SUB SWAP1 DUP2 PUSH2 0x6AF JUMPI SWAP1 POP JUMPDEST POP SWAP1 POP PUSH0 PUSH0 SWAP1 POP PUSH0 PUSH0 SWAP1 POP JUMPDEST PUSH1 0x3 DUP1 SLOAD SWAP1 POP DUP2 LT ISZERO PUSH2 0x8E7 JUMPI PUSH0 PUSH1 0x3 DUP3 DUP2 SLOAD DUP2 LT PUSH2 0x6F8 JUMPI PUSH2 0x6F7 PUSH2 0x166B JUMP JUMPDEST JUMPDEST SWAP1 PUSH0 MSTORE PUSH1 0x20 PUSH0 KECCAK256 ADD SLOAD SWAP1 POP PUSH2 0x70C DUP2 PUSH2 0xABD JUMP JUMPDEST ISZERO PUSH2 0x8D9 JUMPI PUSH1 0x2 PUSH0 DUP3 DUP2 MSTORE PUSH1 0x20 ADD SWAP1 DUP2 MSTORE PUSH1 0x20 ADD PUSH0 KECCAK256 PUSH1 0x40 MLOAD DUP1 PUSH1 0x80 ADD PUSH1 0x40 MSTORE SWAP1 DUP2 PUSH0 DUP3 ADD SLOAD DUP2 MSTORE PUSH1 0x20 ADD PUSH1 0x1 DUP3 ADD DUP1 SLOAD PUSH2 0x746 SWAP1 PUSH2 0x12A5 JUMP JUMPDEST DUP1 PUSH1 0x1F ADD PUSH1 0x20 DUP1 SWAP2 DIV MUL PUSH1 0x20 ADD PUSH1 0x40 MLOAD SWAP1 DUP2 ADD PUSH1 0x40 MSTORE DUP1 SWAP3 SWAP2 SWAP1 DUP2 DUP2 MSTORE PUSH1 0x20 ADD DUP3 DUP1 SLOAD PUSH2 0x772 SWAP1 PUSH2 0x12A5 JUMP JUMPDEST DUP1 ISZERO PUSH2 0x7BD JUMPI DUP1 PUSH1 0x1F LT PUSH2 0x794 JUMPI PUSH2 0x100 DUP1 DUP4 SLOAD DIV MUL DUP4 MSTORE SWAP2 PUSH1 0x20 ADD SWAP2 PUSH2 0x7BD JUMP JUMPDEST DUP3 ADD SWAP2 SWAP1 PUSH0 MSTORE PUSH1 0x20 PUSH0 KECCAK256 SWAP1 JUMPDEST DUP2 SLOAD DUP2 MSTORE SWAP1 PUSH1 0x1 ADD SWAP1 PUSH1 0x20 ADD DUP1 DUP4 GT PUSH2 0x7A0 JUMPI DUP3 SWAP1 SUB PUSH1 0x1F AND DUP3 ADD SWAP2 JUMPDEST POP POP POP POP POP DUP2 MSTORE PUSH1 0x20 ADD PUSH1 0x2 DUP3 ADD DUP1 SLOAD PUSH2 0x7D6 SWAP1 PUSH2 0x12A5 JUMP JUMPDEST DUP1 PUSH1 0x1F ADD PUSH1 0x20 DUP1 SWAP2 DIV MUL PUSH1 0x20 ADD PUSH1 0x40 MLOAD SWAP1 DUP2 ADD PUSH1 0x40 MSTORE DUP1 SWAP3 SWAP2 SWAP1 DUP2 DUP2 MSTORE PUSH1 0x20 ADD DUP3 DUP1 SLOAD PUSH2 0x802 SWAP1 PUSH2 0x12A5 JUMP JUMPDEST DUP1 ISZERO PUSH2 0x84D JUMPI DUP1 PUSH1 0x1F LT PUSH2 0x824 JUMPI PUSH2 0x100 DUP1 DUP4 SLOAD DIV MUL DUP4 MSTORE SWAP2 PUSH1 0x20 ADD SWAP2 PUSH2 0x84D JUMP JUMPDEST DUP3 ADD SWAP2 SWAP1 PUSH0 MSTORE PUSH1 0x20 PUSH0 KECCAK256 SWAP1 JUMPDEST DUP2 SLOAD DUP2 MSTORE SWAP1 PUSH1 0x1 ADD SWAP1 PUSH1 0x20 ADD DUP1 DUP4 GT PUSH2 0x830 JUMPI DUP3 SWAP1 SUB PUSH1 0x1F AND DUP3 ADD SWAP2 JUMPDEST POP POP POP POP POP DUP2 MSTORE PUSH1 0x20 ADD PUSH1 0x3 DUP3 ADD DUP1 SLOAD DUP1 PUSH1 0x20 MUL PUSH1 0x20 ADD PUSH1 0x40 MLOAD SWAP1 DUP2 ADD PUSH1 0x40 MSTORE DUP1 SWAP3 SWAP2 SWAP1 DUP2 DUP2 MSTORE PUSH1 0x20 ADD DUP3 DUP1 SLOAD DUP1 ISZERO PUSH2 0x8A3 JUMPI PUSH1 0x20 MUL DUP3 ADD SWAP2 SWAP1 PUSH0 MSTORE PUSH1 0x20 PUSH0 KECCAK256 SWAP1 JUMPDEST DUP2 SLOAD DUP2 MSTORE PUSH1 0x20 ADD SWAP1 PUSH1 0x1 ADD SWAP1 DUP1 DUP4 GT PUSH2 0x88F JUMPI JUMPDEST POP POP POP POP POP DUP2 MSTORE POP POP DUP5 DUP5 DUP2 MLOAD DUP2 LT PUSH2 0x8BF JUMPI PUSH2 0x8BE PUSH2 0x166B JUMP JUMPDEST JUMPDEST PUSH1 0x20 MUL PUSH1 0x20 ADD ADD DUP2 SWAP1 MSTORE POP DUP3 DUP1 PUSH2 0x8D5 SWAP1 PUSH2 0x1571 JUMP JUMPDEST SWAP4 POP POP JUMPDEST POP DUP1 DUP1 PUSH1 0x1 ADD SWAP2 POP POP PUSH2 0x6D6 JUMP JUMPDEST POP DUP2 SWAP4 POP POP POP POP SWAP1 JUMP JUMPDEST PUSH2 0x8F9 PUSH2 0x975 JUMP JUMPDEST PUSH0 PUSH20 0xFFFFFFFFFFFFFFFFFFFFFFFFFFFFFFFFFFFFFFFF AND DUP2 PUSH20 0xFFFFFFFFFFFFFFFFFFFFFFFFFFFFFFFFFFFFFFFF AND SUB PUSH2 0x969 JUMPI PUSH0 PUSH1 0x40 MLOAD PUSH32 0x1E4FBDF700000000000000000000000000000000000000000000000000000000 DUP2 MSTORE PUSH1 0x4 ADD PUSH2 0x960 SWAP2 SWAP1 PUSH2 0xEF1 JUMP JUMPDEST PUSH1 0x40 MLOAD DUP1 SWAP2 SUB SWAP1 REVERT JUMPDEST PUSH2 0x972 DUP2 PUSH2 0x9FC JUMP JUMPDEST POP JUMP JUMPDEST PUSH2 0x97D PUSH2 0xADB JUMP JUMPDEST PUSH20 0xFFFFFFFFFFFFFFFFFFFFFFFFFFFFFFFFFFFFFFFF AND PUSH2 0x99B PUSH2 0x26E JUMP JUMPDEST PUSH20 0xFFFFFFFFFFFFFFFFFFFFFFFFFFFFFFFFFFFFFFFF AND EQ PUSH2 0x9FA JUMPI PUSH2 0x9BE PUSH2 0xADB JUMP JUMPDEST PUSH1 0x40 MLOAD PUSH32 0x118CDAA700000000000000000000000000000000000000000000000000000000 DUP2 MSTORE PUSH1 0x4 ADD PUSH2 0x9F1 SWAP2 SWAP1 PUSH2 0xEF1 JUMP JUMPDEST PUSH1 0x40 MLOAD DUP1 SWAP2 SUB SWAP1 REVERT JUMPDEST JUMP JUMPDEST PUSH0 PUSH0 PUSH0 SWAP1 SLOAD SWAP1 PUSH2 0x100 EXP SWAP1 DIV PUSH20 0xFFFFFFFFFFFFFFFFFFFFFFFFFFFFFFFFFFFFFFFF AND SWAP1 POP DUP2 PUSH0 PUSH0 PUSH2 0x100 EXP DUP2 SLOAD DUP2 PUSH20 0xFFFFFFFFFFFFFFFFFFFFFFFFFFFFFFFFFFFFFFFF MUL NOT AND SWAP1 DUP4 PUSH20 0xFFFFFFFFFFFFFFFFFFFFFFFFFFFFFFFFFFFFFFFF AND MUL OR SWAP1 SSTORE POP DUP2 PUSH20 0xFFFFFFFFFFFFFFFFFFFFFFFFFFFFFFFFFFFFFFFF AND DUP2 PUSH20 0xFFFFFFFFFFFFFFFFFFFFFFFFFFFFFFFFFFFFFFFF AND PUSH32 0x8BE0079C531659141344CD1FD0A4F28419497F9722A3DAAFE3B4186F6B6457E0 PUSH1 0x40 MLOAD PUSH1 0x40 MLOAD DUP1 SWAP2 SUB SWAP1 LOG3 POP POP JUMP JUMPDEST PUSH0 DUP2 PUSH1 0x2 PUSH0 DUP5 DUP2 MSTORE PUSH1 0x20 ADD SWAP1 DUP2 MSTORE PUSH1 0x20 ADD PUSH0 KECCAK256 PUSH0 ADD SLOAD EQ SWAP1 POP SWAP2 SWAP1 POP JUMP JUMPDEST PUSH0 CALLER SWAP1 POP SWAP1 JUMP JUMPDEST DUP3 DUP1 SLOAD DUP3 DUP3 SSTORE SWAP1 PUSH0 MSTORE PUSH1 0x20 PUSH0 KECCAK256 SWAP1 DUP2 ADD SWAP3 DUP3 ISZERO PUSH2 0xB1C JUMPI SWAP2 PUSH1 0x20 MUL DUP3 ADD JUMPDEST DUP3 DUP2 GT ISZERO PUSH2 0xB1B JUMPI DUP3 MLOAD DUP3 SSTORE SWAP2 PUSH1 0x20 ADD SWAP2 SWAP1 PUSH1 0x1 ADD SWAP1 PUSH2 0xB00 JUMP JUMPDEST JUMPDEST POP SWAP1 POP PUSH2 0xB29 SWAP2 SWAP1 PUSH2 0xBAF JUMP JUMPDEST POP SWAP1 JUMP JUMPDEST POP DUP1 SLOAD PUSH2 0xB39 SWAP1 PUSH2 0x12A5 JUMP JUMPDEST PUSH0 DUP3 SSTORE DUP1 PUSH1 0x1F LT PUSH2 0xB4A JUMPI POP PUSH2 0xB67 JUMP JUMPDEST PUSH1 0x1F ADD PUSH1 0x20 SWAP1 DIV SWAP1 PUSH0 MSTORE PUSH1 0x20 PUSH0 KECCAK256 SWAP1 DUP2 ADD SWAP1 PUSH2 0xB66 SWAP2 SWAP1 PUSH2 0xBAF JUMP JUMPDEST JUMPDEST POP JUMP JUMPDEST POP DUP1 SLOAD PUSH0 DUP3 SSTORE SWAP1 PUSH0 MSTORE PUSH1 0x20 PUSH0 KECCAK256 SWAP1 DUP2 ADD SWAP1 PUSH2 0xB85 SWAP2 SWAP1 PUSH2 0xBAF JUMP JUMPDEST POP JUMP JUMPDEST PUSH1 0x40 MLOAD DUP1 PUSH1 0x80 ADD PUSH1 0x40 MSTORE DUP1 PUSH0 DUP2 MSTORE PUSH1 0x20 ADD PUSH1 0x60 DUP2 MSTORE PUSH1 0x20 ADD PUSH1 0x60 DUP2 MSTORE PUSH1 0x20 ADD PUSH1 0x60 DUP2 MSTORE POP SWAP1 JUMP JUMPDEST JUMPDEST DUP1 DUP3 GT ISZERO PUSH2 0xBC6 JUMPI PUSH0 DUP2 PUSH0 SWAP1 SSTORE POP PUSH1 0x1 ADD PUSH2 0xBB0 JUMP JUMPDEST POP SWAP1 JUMP JUMPDEST PUSH0 PUSH1 0x40 MLOAD SWAP1 POP SWAP1 JUMP JUMPDEST PUSH0 PUSH0 REVERT JUMPDEST PUSH0 PUSH0 REVERT JUMPDEST PUSH0 PUSH0 REVERT JUMPDEST PUSH0 PUSH0 REVERT JUMPDEST PUSH0 PUSH1 0x1F NOT PUSH1 0x1F DUP4 ADD AND SWAP1 POP SWAP2 SWAP1 POP JUMP JUMPDEST PUSH32 0x4E487B7100000000000000000000000000000000000000000000000000000000 PUSH0 MSTORE PUSH1 0x41 PUSH1 0x4 MSTORE PUSH1 0x24 PUSH0 REVERT JUMPDEST PUSH2 0xC29 DUP3 PUSH2 0xBE3 JUMP JUMPDEST DUP2 ADD DUP2 DUP2 LT PUSH8 0xFFFFFFFFFFFFFFFF DUP3 GT OR ISZERO PUSH2 0xC48 JUMPI PUSH2 0xC47 PUSH2 0xBF3 JUMP JUMPDEST JUMPDEST DUP1 PUSH1 0x40 MSTORE POP POP POP JUMP JUMPDEST PUSH0 PUSH2 0xC5A PUSH2 0xBCA JUMP JUMPDEST SWAP1 POP PUSH2 0xC66 DUP3 DUP3 PUSH2 0xC20 JUMP JUMPDEST SWAP2 SWAP1 POP JUMP JUMPDEST PUSH0 PUSH8 0xFFFFFFFFFFFFFFFF DUP3 GT ISZERO PUSH2 0xC85 JUMPI PUSH2 0xC84 PUSH2 0xBF3 JUMP JUMPDEST JUMPDEST PUSH2 0xC8E DUP3 PUSH2 0xBE3 JUMP JUMPDEST SWAP1 POP PUSH1 0x20 DUP2 ADD SWAP1 POP SWAP2 SWAP1 POP JUMP JUMPDEST DUP3 DUP2 DUP4 CALLDATACOPY PUSH0 DUP4 DUP4 ADD MSTORE POP POP POP JUMP JUMPDEST PUSH0 PUSH2 0xCBB PUSH2 0xCB6 DUP5 PUSH2 0xC6B JUMP JUMPDEST PUSH2 0xC51 JUMP JUMPDEST SWAP1 POP DUP3 DUP2 MSTORE PUSH1 0x20 DUP2 ADD DUP5 DUP5 DUP5 ADD GT ISZERO PUSH2 0xCD7 JUMPI PUSH2 0xCD6 PUSH2 0xBDF JUMP JUMPDEST JUMPDEST PUSH2 0xCE2 DUP5 DUP3 DUP6 PUSH2 0xC9B JUMP JUMPDEST POP SWAP4 SWAP3 POP POP POP JUMP JUMPDEST PUSH0 DUP3 PUSH1 0x1F DUP4 ADD SLT PUSH2 0xCFE JUMPI PUSH2 0xCFD PUSH2 0xBDB JUMP JUMPDEST JUMPDEST DUP2 CALLDATALOAD PUSH2 0xD0E DUP5 DUP3 PUSH1 0x20 DUP7 ADD PUSH2 0xCA9 JUMP JUMPDEST SWAP2 POP POP SWAP3 SWAP2 POP POP JUMP JUMPDEST PUSH0 PUSH8 0xFFFFFFFFFFFFFFFF DUP3 GT ISZERO PUSH2 0xD31 JUMPI PUSH2 0xD30 PUSH2 0xBF3 JUMP JUMPDEST JUMPDEST PUSH1 0x20 DUP3 MUL SWAP1 POP PUSH1 0x20 DUP2 ADD SWAP1 POP SWAP2 SWAP1 POP JUMP JUMPDEST PUSH0 PUSH0 REVERT JUMPDEST PUSH0 DUP2 SWAP1 POP SWAP2 SWAP1 POP JUMP JUMPDEST PUSH2 0xD58 DUP2 PUSH2 0xD46 JUMP JUMPDEST DUP2 EQ PUSH2 0xD62 JUMPI PUSH0 PUSH0 REVERT JUMPDEST POP JUMP JUMPDEST PUSH0 DUP2 CALLDATALOAD SWAP1 POP PUSH2 0xD73 DUP2 PUSH2 0xD4F JUMP JUMPDEST SWAP3 SWAP2 POP POP JUMP JUMPDEST PUSH0 PUSH2 0xD8B PUSH2 0xD86 DUP5 PUSH2 0xD17 JUMP JUMPDEST PUSH2 0xC51 JUMP JUMPDEST SWAP1 POP DUP1 DUP4 DUP3 MSTORE PUSH1 0x20 DUP3 ADD SWAP1 POP PUSH1 0x20 DUP5 MUL DUP4 ADD DUP6 DUP2 GT ISZERO PUSH2 0xDAE JUMPI PUSH2 0xDAD PUSH2 0xD42 JUMP JUMPDEST JUMPDEST DUP4 JUMPDEST DUP2 DUP2 LT ISZERO PUSH2 0xDD7 JUMPI DUP1 PUSH2 0xDC3 DUP9 DUP3 PUSH2 0xD65 JUMP JUMPDEST DUP5 MSTORE PUSH1 0x20 DUP5 ADD SWAP4 POP POP PUSH1 0x20 DUP2 ADD SWAP1 POP PUSH2 0xDB0 JUMP JUMPDEST POP POP POP SWAP4 SWAP3 POP POP POP JUMP JUMPDEST PUSH0 DUP3 PUSH1 0x1F DUP4 ADD SLT PUSH2 0xDF5 JUMPI PUSH2 0xDF4 PUSH2 0xBDB JUMP JUMPDEST JUMPDEST DUP2 CALLDATALOAD PUSH2 0xE05 DUP5 DUP3 PUSH1 0x20 DUP7 ADD PUSH2 0xD79 JUMP JUMPDEST SWAP2 POP POP SWAP3 SWAP2 POP POP JUMP JUMPDEST PUSH0 PUSH0 PUSH0 PUSH1 0x60 DUP5 DUP7 SUB SLT ISZERO PUSH2 0xE25 JUMPI PUSH2 0xE24 PUSH2 0xBD3 JUMP JUMPDEST JUMPDEST PUSH0 DUP5 ADD CALLDATALOAD PUSH8 0xFFFFFFFFFFFFFFFF DUP2 GT ISZERO PUSH2 0xE42 JUMPI PUSH2 0xE41 PUSH2 0xBD7 JUMP JUMPDEST JUMPDEST PUSH2 0xE4E DUP7 DUP3 DUP8 ADD PUSH2 0xCEA JUMP JUMPDEST SWAP4 POP POP PUSH1 0x20 DUP5 ADD CALLDATALOAD PUSH8 0xFFFFFFFFFFFFFFFF DUP2 GT ISZERO PUSH2 0xE6F JUMPI PUSH2 0xE6E PUSH2 0xBD7 JUMP JUMPDEST JUMPDEST PUSH2 0xE7B DUP7 DUP3 DUP8 ADD PUSH2 0xCEA JUMP JUMPDEST SWAP3 POP POP PUSH1 0x40 DUP5 ADD CALLDATALOAD PUSH8 0xFFFFFFFFFFFFFFFF DUP2 GT ISZERO PUSH2 0xE9C JUMPI PUSH2 0xE9B PUSH2 0xBD7 JUMP JUMPDEST JUMPDEST PUSH2 0xEA8 DUP7 DUP3 DUP8 ADD PUSH2 0xDE1 JUMP JUMPDEST SWAP2 POP POP SWAP3 POP SWAP3 POP SWAP3 JUMP JUMPDEST PUSH0 PUSH20 0xFFFFFFFFFFFFFFFFFFFFFFFFFFFFFFFFFFFFFFFF DUP3 AND SWAP1 POP SWAP2 SWAP1 POP JUMP JUMPDEST PUSH0 PUSH2 0xEDB DUP3 PUSH2 0xEB2 JUMP JUMPDEST SWAP1 POP SWAP2 SWAP1 POP JUMP JUMPDEST PUSH2 0xEEB DUP2 PUSH2 0xED1 JUMP JUMPDEST DUP3 MSTORE POP POP JUMP JUMPDEST PUSH0 PUSH1 0x20 DUP3 ADD SWAP1 POP PUSH2 0xF04 PUSH0 DUP4 ADD DUP5 PUSH2 0xEE2 JUMP JUMPDEST SWAP3 SWAP2 POP POP JUMP JUMPDEST PUSH0 PUSH1 0x20 DUP3 DUP5 SUB SLT ISZERO PUSH2 0xF1F JUMPI PUSH2 0xF1E PUSH2 0xBD3 JUMP JUMPDEST JUMPDEST PUSH0 PUSH2 0xF2C DUP5 DUP3 DUP6 ADD PUSH2 0xD65 JUMP JUMPDEST SWAP2 POP POP SWAP3 SWAP2 POP POP JUMP JUMPDEST PUSH2 0xF3E DUP2 PUSH2 0xD46 JUMP JUMPDEST DUP3 MSTORE POP POP JUMP JUMPDEST PUSH0 DUP2 MLOAD SWAP1 POP SWAP2 SWAP1 POP JUMP JUMPDEST PUSH0 DUP3 DUP3 MSTORE PUSH1 0x20 DUP3 ADD SWAP1 POP SWAP3 SWAP2 POP POP JUMP JUMPDEST DUP3 DUP2 DUP4 MCOPY PUSH0 DUP4 DUP4 ADD MSTORE POP POP POP JUMP JUMPDEST PUSH0 PUSH2 0xF76 DUP3 PUSH2 0xF44 JUMP JUMPDEST PUSH2 0xF80 DUP2 DUP6 PUSH2 0xF4E JUMP JUMPDEST SWAP4 POP PUSH2 0xF90 DUP2 DUP6 PUSH1 0x20 DUP7 ADD PUSH2 0xF5E JUMP JUMPDEST PUSH2 0xF99 DUP2 PUSH2 0xBE3 JUMP JUMPDEST DUP5 ADD SWAP2 POP POP SWAP3 SWAP2 POP POP JUMP JUMPDEST PUSH0 DUP2 MLOAD SWAP1 POP SWAP2 SWAP1 POP JUMP JUMPDEST PUSH0 DUP3 DUP3 MSTORE PUSH1 0x20 DUP3 ADD SWAP1 POP SWAP3 SWAP2 POP POP JUMP JUMPDEST PUSH0 DUP2 SWAP1 POP PUSH1 0x20 DUP3 ADD SWAP1 POP SWAP2 SWAP1 POP JUMP JUMPDEST PUSH0 PUSH2 0xFD8 DUP4 DUP4 PUSH2 0xF35 JUMP JUMPDEST PUSH1 0x20 DUP4 ADD SWAP1 POP SWAP3 SWAP2 POP POP JUMP JUMPDEST PUSH0 PUSH1 0x20 DUP3 ADD SWAP1 POP SWAP2 SWAP1 POP JUMP JUMPDEST PUSH0 PUSH2 0xFFA DUP3 PUSH2 0xFA4 JUMP JUMPDEST PUSH2 0x1004 DUP2 DUP6 PUSH2 0xFAE JUMP JUMPDEST SWAP4 POP PUSH2 0x100F DUP4 PUSH2 0xFBE JUMP JUMPDEST DUP1 PUSH0 JUMPDEST DUP4 DUP2 LT ISZERO PUSH2 0x103F JUMPI DUP2 MLOAD PUSH2 0x1026 DUP9 DUP3 PUSH2 0xFCD JUMP JUMPDEST SWAP8 POP PUSH2 0x1031 DUP4 PUSH2 0xFE4 JUMP JUMPDEST SWAP3 POP POP PUSH1 0x1 DUP2 ADD SWAP1 POP PUSH2 0x1012 JUMP JUMPDEST POP DUP6 SWAP4 POP POP POP POP SWAP3 SWAP2 POP POP JUMP JUMPDEST PUSH0 PUSH1 0x80 DUP4 ADD PUSH0 DUP4 ADD MLOAD PUSH2 0x1061 PUSH0 DUP7 ADD DUP3 PUSH2 0xF35 JUMP JUMPDEST POP PUSH1 0x20 DUP4 ADD MLOAD DUP5 DUP3 SUB PUSH1 0x20 DUP7 ADD MSTORE PUSH2 0x1079 DUP3 DUP3 PUSH2 0xF6C JUMP JUMPDEST SWAP2 POP POP PUSH1 0x40 DUP4 ADD MLOAD DUP5 DUP3 SUB PUSH1 0x40 DUP7 ADD MSTORE PUSH2 0x1093 DUP3 DUP3 PUSH2 0xF6C JUMP JUMPDEST SWAP2 POP POP PUSH1 0x60 DUP4 ADD MLOAD DUP5 DUP3 SUB PUSH1 0x60 DUP7 ADD MSTORE PUSH2 0x10AD DUP3 DUP3 PUSH2 0xFF0 JUMP JUMPDEST SWAP2 POP POP DUP1 SWAP2 POP POP SWAP3 SWAP2 POP POP JUMP JUMPDEST PUSH0 PUSH1 0x20 DUP3 ADD SWAP1 POP DUP2 DUP2 SUB PUSH0 DUP4 ADD MSTORE PUSH2 0x10D2 DUP2 DUP5 PUSH2 0x104C JUMP JUMPDEST SWAP1 POP SWAP3 SWAP2 POP POP JUMP JUMPDEST PUSH0 DUP2 MLOAD SWAP1 POP SWAP2 SWAP1 POP JUMP JUMPDEST PUSH0 DUP3 DUP3 MSTORE PUSH1 0x20 DUP3 ADD SWAP1 POP SWAP3 SWAP2 POP POP JUMP JUMPDEST PUSH0 DUP2 SWAP1 POP PUSH1 0x20 DUP3 ADD SWAP1 POP SWAP2 SWAP1 POP JUMP JUMPDEST PUSH0 PUSH1 0x80 DUP4 ADD PUSH0 DUP4 ADD MLOAD PUSH2 0x1118 PUSH0 DUP7 ADD DUP3 PUSH2 0xF35 JUMP JUMPDEST POP PUSH1 0x20 DUP4 ADD MLOAD DUP5 DUP3 SUB PUSH1 0x20 DUP7 ADD MSTORE PUSH2 0x1130 DUP3 DUP3 PUSH2 0xF6C JUMP JUMPDEST SWAP2 POP POP PUSH1 0x40 DUP4 ADD MLOAD DUP5 DUP3 SUB PUSH1 0x40 DUP7 ADD MSTORE PUSH2 0x114A DUP3 DUP3 PUSH2 0xF6C JUMP JUMPDEST SWAP2 POP POP PUSH1 0x60 DUP4 ADD MLOAD DUP5 DUP3 SUB PUSH1 0x60 DUP7 ADD MSTORE PUSH2 0x1164 DUP3 DUP3 PUSH2 0xFF0 JUMP JUMPDEST SWAP2 POP POP DUP1 SWAP2 POP POP SWAP3 SWAP2 POP POP JUMP JUMPDEST PUSH0 PUSH2 0x117C DUP4 DUP4 PUSH2 0x1103 JUMP JUMPDEST SWAP1 POP SWAP3 SWAP2 POP POP JUMP JUMPDEST PUSH0 PUSH1 0x20 DUP3 ADD SWAP1 POP SWAP2 SWAP1 POP JUMP JUMPDEST PUSH0 PUSH2 0x119A DUP3 PUSH2 0x10DA JUMP JUMPDEST PUSH2 0x11A4 DUP2 DUP6 PUSH2 0x10E4 JUMP JUMPDEST SWAP4 POP DUP4 PUSH1 0x20 DUP3 MUL DUP6 ADD PUSH2 0x11B6 DUP6 PUSH2 0x10F4 JUMP JUMPDEST DUP1 PUSH0 JUMPDEST DUP6 DUP2 LT ISZERO PUSH2 0x11F1 JUMPI DUP5 DUP5 SUB DUP10 MSTORE DUP2 MLOAD PUSH2 0x11D2 DUP6 DUP3 PUSH2 0x1171 JUMP JUMPDEST SWAP5 POP PUSH2 0x11DD DUP4 PUSH2 0x1184 JUMP JUMPDEST SWAP3 POP PUSH1 0x20 DUP11 ADD SWAP10 POP POP PUSH1 0x1 DUP2 ADD SWAP1 POP PUSH2 0x11B9 JUMP JUMPDEST POP DUP3 SWAP8 POP DUP8 SWAP6 POP POP POP POP POP POP SWAP3 SWAP2 POP POP JUMP JUMPDEST PUSH0 PUSH1 0x20 DUP3 ADD SWAP1 POP DUP2 DUP2 SUB PUSH0 DUP4 ADD MSTORE PUSH2 0x121B DUP2 DUP5 PUSH2 0x1190 JUMP JUMPDEST SWAP1 POP SWAP3 SWAP2 POP POP JUMP JUMPDEST PUSH2 0x122C DUP2 PUSH2 0xED1 JUMP JUMPDEST DUP2 EQ PUSH2 0x1236 JUMPI PUSH0 PUSH0 REVERT JUMPDEST POP JUMP JUMPDEST PUSH0 DUP2 CALLDATALOAD SWAP1 POP PUSH2 0x1247 DUP2 PUSH2 0x1223 JUMP JUMPDEST SWAP3 SWAP2 POP POP JUMP JUMPDEST PUSH0 PUSH1 0x20 DUP3 DUP5 SUB SLT ISZERO PUSH2 0x1262 JUMPI PUSH2 0x1261 PUSH2 0xBD3 JUMP JUMPDEST JUMPDEST PUSH0 PUSH2 0x126F DUP5 DUP3 DUP6 ADD PUSH2 0x1239 JUMP JUMPDEST SWAP2 POP POP SWAP3 SWAP2 POP POP JUMP JUMPDEST PUSH32 0x4E487B7100000000000000000000000000000000000000000000000000000000 PUSH0 MSTORE PUSH1 0x22 PUSH1 0x4 MSTORE PUSH1 0x24 PUSH0 REVERT JUMPDEST PUSH0 PUSH1 0x2 DUP3 DIV SWAP1 POP PUSH1 0x1 DUP3 AND DUP1 PUSH2 0x12BC JUMPI PUSH1 0x7F DUP3 AND SWAP2 POP JUMPDEST PUSH1 0x20 DUP3 LT DUP2 SUB PUSH2 0x12CF JUMPI PUSH2 0x12CE PUSH2 0x1278 JUMP JUMPDEST JUMPDEST POP SWAP2 SWAP1 POP JUMP JUMPDEST PUSH0 DUP2 SWAP1 POP DUP2 PUSH0 MSTORE PUSH1 0x20 PUSH0 KECCAK256 SWAP1 POP SWAP2 SWAP1 POP JUMP JUMPDEST PUSH0 PUSH1 0x20 PUSH1 0x1F DUP4 ADD DIV SWAP1 POP SWAP2 SWAP1 POP JUMP JUMPDEST PUSH0 DUP3 DUP3 SHL SWAP1 POP SWAP3 SWAP2 POP POP JUMP JUMPDEST PUSH0 PUSH1 0x8 DUP4 MUL PUSH2 0x1331 PUSH32 0xFFFFFFFFFFFFFFFFFFFFFFFFFFFFFFFFFFFFFFFFFFFFFFFFFFFFFFFFFFFFFFFF DUP3 PUSH2 0x12F6 JUMP JUMPDEST PUSH2 0x133B DUP7 DUP4 PUSH2 0x12F6 JUMP JUMPDEST SWAP6 POP DUP1 NOT DUP5 AND SWAP4 POP DUP1 DUP7 AND DUP5 OR SWAP3 POP POP POP SWAP4 SWAP3 POP POP POP JUMP JUMPDEST PUSH0 DUP2 SWAP1 POP SWAP2 SWAP1 POP JUMP JUMPDEST PUSH0 PUSH2 0x1376 PUSH2 0x1371 PUSH2 0x136C DUP5 PUSH2 0xD46 JUMP JUMPDEST PUSH2 0x1353 JUMP JUMPDEST PUSH2 0xD46 JUMP JUMPDEST SWAP1 POP SWAP2 SWAP1 POP JUMP JUMPDEST PUSH0 DUP2 SWAP1 POP SWAP2 SWAP1 POP JUMP JUMPDEST PUSH2 0x138F DUP4 PUSH2 0x135C JUMP JUMPDEST PUSH2 0x13A3 PUSH2 0x139B DUP3 PUSH2 0x137D JUMP JUMPDEST DUP5 DUP5 SLOAD PUSH2 0x1302 JUMP JUMPDEST DUP3 SSTORE POP POP POP POP JUMP JUMPDEST PUSH0 PUSH0 SWAP1 POP SWAP1 JUMP JUMPDEST PUSH2 0x13BA PUSH2 0x13AB JUMP JUMPDEST PUSH2 0x13C5 DUP2 DUP5 DUP5 PUSH2 0x1386 JUMP JUMPDEST POP POP POP JUMP JUMPDEST JUMPDEST DUP2 DUP2 LT ISZERO PUSH2 0x13E8 JUMPI PUSH2 0x13DD PUSH0 DUP3 PUSH2 0x13B2 JUMP JUMPDEST PUSH1 0x1 DUP2 ADD SWAP1 POP PUSH2 0x13CB JUMP JUMPDEST POP POP JUMP JUMPDEST PUSH1 0x1F DUP3 GT ISZERO PUSH2 0x142D JUMPI PUSH2 0x13FE DUP2 PUSH2 0x12D5 JUMP JUMPDEST PUSH2 0x1407 DUP5 PUSH2 0x12E7 JUMP JUMPDEST DUP2 ADD PUSH1 0x20 DUP6 LT ISZERO PUSH2 0x1416 JUMPI DUP2 SWAP1 POP JUMPDEST PUSH2 0x142A PUSH2 0x1422 DUP6 PUSH2 0x12E7 JUMP JUMPDEST DUP4 ADD DUP3 PUSH2 0x13CA JUMP JUMPDEST POP POP JUMPDEST POP POP POP JUMP JUMPDEST PUSH0 DUP3 DUP3 SHR SWAP1 POP SWAP3 SWAP2 POP POP JUMP JUMPDEST PUSH0 PUSH2 0x144D PUSH0 NOT DUP5 PUSH1 0x8 MUL PUSH2 0x1432 JUMP JUMPDEST NOT DUP1 DUP4 AND SWAP2 POP POP SWAP3 SWAP2 POP POP JUMP JUMPDEST PUSH0 PUSH2 0x1465 DUP4 DUP4 PUSH2 0x143E JUMP JUMPDEST SWAP2 POP DUP3 PUSH1 0x2 MUL DUP3 OR SWAP1 POP SWAP3 SWAP2 POP POP JUMP JUMPDEST PUSH2 0x147E DUP3 PUSH2 0xF44 JUMP JUMPDEST PUSH8 0xFFFFFFFFFFFFFFFF DUP2 GT ISZERO PUSH2 0x1497 JUMPI PUSH2 0x1496 PUSH2 0xBF3 JUMP JUMPDEST JUMPDEST PUSH2 0x14A1 DUP3 SLOAD PUSH2 0x12A5 JUMP JUMPDEST PUSH2 0x14AC DUP3 DUP3 DUP6 PUSH2 0x13EC JUMP JUMPDEST PUSH0 PUSH1 0x20 SWAP1 POP PUSH1 0x1F DUP4 GT PUSH1 0x1 DUP2 EQ PUSH2 0x14DD JUMPI PUSH0 DUP5 ISZERO PUSH2 0x14CB JUMPI DUP3 DUP8 ADD MLOAD SWAP1 POP JUMPDEST PUSH2 0x14D5 DUP6 DUP3 PUSH2 0x145A JUMP JUMPDEST DUP7 SSTORE POP PUSH2 0x153C JUMP JUMPDEST PUSH1 0x1F NOT DUP5 AND PUSH2 0x14EB DUP7 PUSH2 0x12D5 JUMP JUMPDEST PUSH0 JUMPDEST DUP3 DUP2 LT ISZERO PUSH2 0x1512 JUMPI DUP5 DUP10 ADD MLOAD DUP3 SSTORE PUSH1 0x1 DUP3 ADD SWAP2 POP PUSH1 0x20 DUP6 ADD SWAP5 POP PUSH1 0x20 DUP2 ADD SWAP1 POP PUSH2 0x14ED JUMP JUMPDEST DUP7 DUP4 LT ISZERO PUSH2 0x152F JUMPI DUP5 DUP10 ADD MLOAD PUSH2 0x152B PUSH1 0x1F DUP10 AND DUP3 PUSH2 0x143E JUMP JUMPDEST DUP4 SSTORE POP JUMPDEST PUSH1 0x1 PUSH1 0x2 DUP9 MUL ADD DUP9 SSTORE POP POP POP JUMPDEST POP POP POP POP POP POP JUMP JUMPDEST PUSH32 0x4E487B7100000000000000000000000000000000000000000000000000000000 PUSH0 MSTORE PUSH1 0x11 PUSH1 0x4 MSTORE PUSH1 0x24 PUSH0 REVERT JUMPDEST PUSH0 PUSH2 0x157B DUP3 PUSH2 0xD46 JUMP JUMPDEST SWAP2 POP PUSH32 0xFFFFFFFFFFFFFFFFFFFFFFFFFFFFFFFFFFFFFFFFFFFFFFFFFFFFFFFFFFFFFFFF DUP3 SUB PUSH2 0x15AD JUMPI PUSH2 0x15AC PUSH2 0x1544 JUMP JUMPDEST JUMPDEST PUSH1 0x1 DUP3 ADD SWAP1 POP SWAP2 SWAP1 POP JUMP JUMPDEST PUSH2 0x15C1 DUP2 PUSH2 0xD46 JUMP JUMPDEST DUP3 MSTORE POP POP JUMP JUMPDEST PUSH0 DUP3 DUP3 MSTORE PUSH1 0x20 DUP3 ADD SWAP1 POP SWAP3 SWAP2 POP POP JUMP JUMPDEST PUSH0 PUSH2 0x15E1 DUP3 PUSH2 0xF44 JUMP JUMPDEST PUSH2 0x15EB DUP2 DUP6 PUSH2 0x15C7 JUMP JUMPDEST SWAP4 POP PUSH2 0x15FB DUP2 DUP6 PUSH1 0x20 DUP7 ADD PUSH2 0xF5E JUMP JUMPDEST PUSH2 0x1604 DUP2 PUSH2 0xBE3 JUMP JUMPDEST DUP5 ADD SWAP2 POP POP SWAP3 SWAP2 POP POP JUMP JUMPDEST PUSH0 PUSH1 0x60 DUP3 ADD SWAP1 POP PUSH2 0x1622 PUSH0 DUP4 ADD DUP7 PUSH2 0x15B8 JUMP JUMPDEST DUP2 DUP2 SUB PUSH1 0x20 DUP4 ADD MSTORE PUSH2 0x1634 DUP2 DUP6 PUSH2 0x15D7 JUMP JUMPDEST SWAP1 POP DUP2 DUP2 SUB PUSH1 0x40 DUP4 ADD MSTORE PUSH2 0x1648 DUP2 DUP5 PUSH2 0x15D7 JUMP JUMPDEST SWAP1 POP SWAP5 SWAP4 POP POP POP POP JUMP JUMPDEST PUSH0 PUSH1 0x20 DUP3 ADD SWAP1 POP PUSH2 0x1665 PUSH0 DUP4 ADD DUP5 PUSH2 0x15B8 JUMP JUMPDEST SWAP3 SWAP2 POP POP JUMP JUMPDEST PUSH32 0x4E487B7100000000000000000000000000000000000000000000000000000000 PUSH0 MSTORE PUSH1 0x32 PUSH1 0x4 MSTORE PUSH1 0x24 PUSH0 REVERT JUMPDEST PUSH0 PUSH2 0x16A2 DUP3 PUSH2 0xD46 JUMP JUMPDEST SWAP2 POP PUSH2 0x16AD DUP4 PUSH2 0xD46 JUMP JUMPDEST SWAP3 POP DUP3 DUP3 SUB SWAP1 POP DUP2 DUP2 GT ISZERO PUSH2 0x16C5 JUMPI PUSH2 0x16C4 PUSH2 0x1544 JUMP JUMPDEST JUMPDEST SWAP3 SWAP2 POP POP JUMP JUMPDEST PUSH32 0x4E487B7100000000000000000000000000000000000000000000000000000000 PUSH0 MSTORE PUSH1 0x31 PUSH1 0x4 MSTORE PUSH1 0x24 PUSH0 REVERT INVALID LOG2 PUSH5 0x6970667358 0x22 SLT KECCAK256 PUSH12 0x9C074E2AB9D75B0E806039FE CALLVALUE PUSH2 0x1001 CREATE 0xD9 0x4B PUSH32 0x95D81BB0026175DBF3FDD764736F6C634300081E0033A2646970667358221220 0x21 SWAP8 0xB5 EXTCODECOPY 0xC6 DUP3 0xC9 PC DUP8 0xC8 0xB2 PUSH20 0x8A2C8414F222A4AD719FC2F822949EF543855377 PUSH5 0x736F6C6343 STOP ADDMOD 0x1E STOP CALLER "
				},
				"gasEstimates": {
					"creation": {
						"codeDepositCost": "1378200",
						"executionCost": "1436",
						"totalCost": "1379636"
					},
					"external": {
						"deploy()": "infinite"
					}
				},
				"methodIdentifiers": {
					"deploy()": "775c300c"
				}
			},
			"storageLayout": {
				"storage": [],
				"types": null
			},
			"userdoc": {
				"kind": "user",
				"methods": {},
				"version": 1
			}
		}
	}
}