{
	"contracts/ErrorTriageExcercise.sol": {
		"ErrorTriageExercise": {
			"abi": [
				{
					"inputs": [
						{
							"internalType": "uint256",
							"name": "_num",
							"type": "uint256"
						}
					],
					"name": "addToArr",
					"outputs": [],
					"stateMutability": "nonpayable",
					"type": "function"
				},
				{
					"inputs": [
						{
							"internalType": "uint256",
							"name": "_base",
							"type": "uint256"
						},
						{
							"internalType": "int256",
							"name": "_modifier",
							"type": "int256"
						}
					],
					"name": "applyModifier",
					"outputs": [
						{
							"internalType": "uint256",
							"name": "",
							"type": "uint256"
						}
					],
					"stateMutability": "pure",
					"type": "function"
				},
				{
					"inputs": [
						{
							"internalType": "uint256",
							"name": "_a",
							"type": "uint256"
						},
						{
							"internalType": "uint256",
							"name": "_b",
							"type": "uint256"
						},
						{
							"internalType": "uint256",
							"name": "_c",
							"type": "uint256"
						},
						{
							"internalType": "uint256",
							"name": "_d",
							"type": "uint256"
						}
					],
					"name": "diffWithNeighbor",
					"outputs": [
						{
							"internalType": "uint256[]",
							"name": "",
							"type": "uint256[]"
						}
					],
					"stateMutability": "pure",
					"type": "function"
				},
				{
					"inputs": [],
					"name": "getArr",
					"outputs": [
						{
							"internalType": "uint256[]",
							"name": "",
							"type": "uint256[]"
						}
					],
					"stateMutability": "view",
					"type": "function"
				},
				{
					"inputs": [],
					"name": "popWithReturn",
					"outputs": [
						{
							"internalType": "uint256",
							"name": "",
							"type": "uint256"
						}
					],
					"stateMutability": "nonpayable",
					"type": "function"
				},
				{
					"inputs": [],
					"name": "resetArr",
					"outputs": [],
					"stateMutability": "nonpayable",
					"type": "function"
				}
			],
			"devdoc": {
				"kind": "dev",
				"methods": {},
				"version": 1
			},
			"evm": {
				"assembly": "    /* \"contracts/ErrorTriageExcercise.sol\":58:1615  contract ErrorTriageExercise {... */\n  mstore(0x40, 0x80)\n  callvalue\n  dup1\n  iszero\n  tag_1\n  jumpi\n  revert(0x00, 0x00)\ntag_1:\n  pop\n  dataSize(sub_0)\n  dup1\n  dataOffset(sub_0)\n  0x00\n  codecopy\n  0x00\n  return\nstop\n\nsub_0: assembly {\n        /* \"contracts/ErrorTriageExcercise.sol\":58:1615  contract ErrorTriageExercise {... */\n      mstore(0x40, 0x80)\n      callvalue\n      dup1\n      iszero\n      tag_1\n      jumpi\n      revert(0x00, 0x00)\n    tag_1:\n      pop\n      jumpi(tag_2, lt(calldatasize, 0x04))\n      shr(0xe0, calldataload(0x00))\n      dup1\n      0x1abe2ac2\n      eq\n      tag_3\n      jumpi\n      dup1\n      0x29432314\n      eq\n      tag_4\n      jumpi\n      dup1\n      0x64529db5\n      eq\n      tag_5\n      jumpi\n      dup1\n      0xe1819ff9\n      eq\n      tag_6\n      jumpi\n      dup1\n      0xf74e51ea\n      eq\n      tag_7\n      jumpi\n      dup1\n      0xfb8cbced\n      eq\n      tag_8\n      jumpi\n    tag_2:\n      revert(0x00, 0x00)\n        /* \"contracts/ErrorTriageExcercise.sol\":1160:1356  function popWithReturn() public returns (uint) {... */\n    tag_3:\n      tag_9\n      tag_10\n      jump\t// in\n    tag_9:\n      mload(0x40)\n      tag_11\n      swap2\n      swap1\n      tag_12\n      jump\t// in\n    tag_11:\n      mload(0x40)\n      dup1\n      swap2\n      sub\n      swap1\n      return\n        /* \"contracts/ErrorTriageExcercise.sol\":199:565  function diffWithNeighbor(... */\n    tag_4:\n      tag_13\n      0x04\n      dup1\n      calldatasize\n      sub\n      dup2\n      add\n      swap1\n      tag_14\n      swap2\n      swap1\n      tag_15\n      jump\t// in\n    tag_14:\n      tag_16\n      jump\t// in\n    tag_13:\n      mload(0x40)\n      tag_17\n      swap2\n      swap1\n      tag_18\n      jump\t// in\n    tag_17:\n      mload(0x40)\n      dup1\n      swap2\n      sub\n      swap1\n      return\n        /* \"contracts/ErrorTriageExcercise.sol\":1559:1613  function resetArr() public {... */\n    tag_5:\n      tag_19\n      tag_20\n      jump\t// in\n    tag_19:\n      stop\n        /* \"contracts/ErrorTriageExcercise.sol\":1399:1466  function addToArr(uint _num) public {... */\n    tag_6:\n      tag_21\n      0x04\n      dup1\n      calldatasize\n      sub\n      dup2\n      add\n      swap1\n      tag_22\n      swap2\n      swap1\n      tag_23\n      jump\t// in\n    tag_22:\n      tag_24\n      jump\t// in\n    tag_21:\n      stop\n        /* \"contracts/ErrorTriageExcercise.sol\":650:1096  function applyModifier(... */\n    tag_7:\n      tag_25\n      0x04\n      dup1\n      calldatasize\n      sub\n      dup2\n      add\n      swap1\n      tag_26\n      swap2\n      swap1\n      tag_27\n      jump\t// in\n    tag_26:\n      tag_28\n      jump\t// in\n    tag_25:\n      mload(0x40)\n      tag_29\n      swap2\n      swap1\n      tag_12\n      jump\t// in\n    tag_29:\n      mload(0x40)\n      dup1\n      swap2\n      sub\n      swap1\n      return\n        /* \"contracts/ErrorTriageExcercise.sol\":1472:1553  function getArr() public view returns (uint[] memory) {... */\n    tag_8:\n      tag_30\n      tag_31\n      jump\t// in\n    tag_30:\n      mload(0x40)\n      tag_32\n      swap2\n      swap1\n      tag_18\n      jump\t// in\n    tag_32:\n      mload(0x40)\n      dup1\n      swap2\n      sub\n      swap1\n      return\n        /* \"contracts/ErrorTriageExcercise.sol\":1160:1356  function popWithReturn() public returns (uint) {... */\n    tag_10:\n        /* \"contracts/ErrorTriageExcercise.sol\":1201:1205  uint */\n      0x00\n        /* \"contracts/ErrorTriageExcercise.sol\":1238:1239  0 */\n      0x00\n        /* \"contracts/ErrorTriageExcercise.sol\":1225:1228  arr */\n      0x00\n        /* \"contracts/ErrorTriageExcercise.sol\":1225:1235  arr.length */\n      dup1\n      sload\n      swap1\n      pop\n        /* \"contracts/ErrorTriageExcercise.sol\":1225:1239  arr.length > 0 */\n      gt\n        /* \"contracts/ErrorTriageExcercise.sol\":1217:1258  require(arr.length > 0, \"Array is empty\") */\n      tag_34\n      jumpi\n      mload(0x40)\n      0x08c379a000000000000000000000000000000000000000000000000000000000\n      dup2\n      mstore\n      0x04\n      add\n      tag_35\n      swap1\n      tag_36\n      jump\t// in\n    tag_35:\n      mload(0x40)\n      dup1\n      swap2\n      sub\n      swap1\n      revert\n    tag_34:\n        /* \"contracts/ErrorTriageExcercise.sol\":1268:1282  uint lastValue */\n      0x00\n        /* \"contracts/ErrorTriageExcercise.sol\":1285:1288  arr */\n      0x00\n        /* \"contracts/ErrorTriageExcercise.sol\":1302:1303  1 */\n      0x01\n        /* \"contracts/ErrorTriageExcercise.sol\":1289:1292  arr */\n      0x00\n        /* \"contracts/ErrorTriageExcercise.sol\":1289:1299  arr.length */\n      dup1\n      sload\n      swap1\n      pop\n        /* \"contracts/ErrorTriageExcercise.sol\":1289:1303  arr.length - 1 */\n      tag_37\n      swap2\n      swap1\n      tag_38\n      jump\t// in\n    tag_37:\n        /* \"contracts/ErrorTriageExcercise.sol\":1285:1304  arr[arr.length - 1] */\n      dup2\n      sload\n      dup2\n      lt\n      tag_39\n      jumpi\n      tag_40\n      tag_41\n      jump\t// in\n    tag_40:\n    tag_39:\n      swap1\n      0x00\n      mstore\n      keccak256(0x00, 0x20)\n      add\n      sload\n        /* \"contracts/ErrorTriageExcercise.sol\":1268:1304  uint lastValue = arr[arr.length - 1] */\n      swap1\n      pop\n        /* \"contracts/ErrorTriageExcercise.sol\":1314:1317  arr */\n      0x00\n        /* \"contracts/ErrorTriageExcercise.sol\":1314:1323  arr.pop() */\n      dup1\n      sload\n      dup1\n      tag_43\n      jumpi\n      tag_44\n      tag_45\n      jump\t// in\n    tag_44:\n    tag_43:\n      0x01\n      swap1\n      sub\n      dup2\n      dup2\n      swap1\n      0x00\n      mstore\n      keccak256(0x00, 0x20)\n      add\n      0x00\n      swap1\n      sstore\n      swap1\n      sstore\n        /* \"contracts/ErrorTriageExcercise.sol\":1340:1349  lastValue */\n      dup1\n        /* \"contracts/ErrorTriageExcercise.sol\":1333:1349  return lastValue */\n      swap2\n      pop\n      pop\n        /* \"contracts/ErrorTriageExcercise.sol\":1160:1356  function popWithReturn() public returns (uint) {... */\n      swap1\n      jump\t// out\n        /* \"contracts/ErrorTriageExcercise.sol\":199:565  function diffWithNeighbor(... */\n    tag_16:\n        /* \"contracts/ErrorTriageExcercise.sol\":320:333  uint[] memory */\n      0x60\n        /* \"contracts/ErrorTriageExcercise.sol\":345:366  uint[] memory results */\n      0x00\n        /* \"contracts/ErrorTriageExcercise.sol\":380:381  3 */\n      0x03\n        /* \"contracts/ErrorTriageExcercise.sol\":369:382  new uint[](3) */\n      0xffffffffffffffff\n      dup2\n      gt\n      iszero\n      tag_48\n      jumpi\n      tag_49\n      tag_50\n      jump\t// in\n    tag_49:\n    tag_48:\n      mload(0x40)\n      swap1\n      dup1\n      dup3\n      mstore\n      dup1\n      0x20\n      mul\n      0x20\n      add\n      dup3\n      add\n      0x40\n      mstore\n      dup1\n      iszero\n      tag_51\n      jumpi\n      dup2\n      0x20\n      add\n      0x20\n      dup3\n      mul\n      dup1\n      calldatasize\n      dup4\n      calldatacopy\n      dup1\n      dup3\n      add\n      swap2\n      pop\n      pop\n      swap1\n      pop\n    tag_51:\n      pop\n        /* \"contracts/ErrorTriageExcercise.sol\":345:382  uint[] memory results = new uint[](3) */\n      swap1\n      pop\n        /* \"contracts/ErrorTriageExcercise.sol\":411:413  _b */\n      dup5\n        /* \"contracts/ErrorTriageExcercise.sol\":406:408  _a */\n      dup7\n        /* \"contracts/ErrorTriageExcercise.sol\":406:413  _a > _b */\n      gt\n        /* \"contracts/ErrorTriageExcercise.sol\":406:433  _a > _b ? _a - _b : _b - _a */\n      tag_52\n      jumpi\n        /* \"contracts/ErrorTriageExcercise.sol\":431:433  _a */\n      dup6\n        /* \"contracts/ErrorTriageExcercise.sol\":426:428  _b */\n      dup6\n        /* \"contracts/ErrorTriageExcercise.sol\":426:433  _b - _a */\n      tag_53\n      swap2\n      swap1\n      tag_38\n      jump\t// in\n    tag_53:\n        /* \"contracts/ErrorTriageExcercise.sol\":406:433  _a > _b ? _a - _b : _b - _a */\n      jump(tag_54)\n    tag_52:\n        /* \"contracts/ErrorTriageExcercise.sol\":421:423  _b */\n      dup5\n        /* \"contracts/ErrorTriageExcercise.sol\":416:418  _a */\n      dup7\n        /* \"contracts/ErrorTriageExcercise.sol\":416:423  _a - _b */\n      tag_55\n      swap2\n      swap1\n      tag_38\n      jump\t// in\n    tag_55:\n        /* \"contracts/ErrorTriageExcercise.sol\":406:433  _a > _b ? _a - _b : _b - _a */\n    tag_54:\n        /* \"contracts/ErrorTriageExcercise.sol\":393:400  results */\n      dup2\n        /* \"contracts/ErrorTriageExcercise.sol\":401:402  0 */\n      0x00\n        /* \"contracts/ErrorTriageExcercise.sol\":393:403  results[0] */\n      dup2\n      mload\n      dup2\n      lt\n      tag_56\n      jumpi\n      tag_57\n      tag_41\n      jump\t// in\n    tag_57:\n    tag_56:\n      0x20\n      mul\n      0x20\n      add\n      add\n        /* \"contracts/ErrorTriageExcercise.sol\":393:433  results[0] = _a > _b ? _a - _b : _b - _a */\n      dup2\n      dup2\n      mstore\n      pop\n      pop\n        /* \"contracts/ErrorTriageExcercise.sol\":461:463  _c */\n      dup4\n        /* \"contracts/ErrorTriageExcercise.sol\":456:458  _b */\n      dup6\n        /* \"contracts/ErrorTriageExcercise.sol\":456:463  _b > _c */\n      gt\n        /* \"contracts/ErrorTriageExcercise.sol\":456:483  _b > _c ? _b - _c : _c - _b */\n      tag_58\n      jumpi\n        /* \"contracts/ErrorTriageExcercise.sol\":481:483  _b */\n      dup5\n        /* \"contracts/ErrorTriageExcercise.sol\":476:478  _c */\n      dup5\n        /* \"contracts/ErrorTriageExcercise.sol\":476:483  _c - _b */\n      tag_59\n      swap2\n      swap1\n      tag_38\n      jump\t// in\n    tag_59:\n        /* \"contracts/ErrorTriageExcercise.sol\":456:483  _b > _c ? _b - _c : _c - _b */\n      jump(tag_60)\n    tag_58:\n        /* \"contracts/ErrorTriageExcercise.sol\":471:473  _c */\n      dup4\n        /* \"contracts/ErrorTriageExcercise.sol\":466:468  _b */\n      dup6\n        /* \"contracts/ErrorTriageExcercise.sol\":466:473  _b - _c */\n      tag_61\n      swap2\n      swap1\n      tag_38\n      jump\t// in\n    tag_61:\n        /* \"contracts/ErrorTriageExcercise.sol\":456:483  _b > _c ? _b - _c : _c - _b */\n    tag_60:\n        /* \"contracts/ErrorTriageExcercise.sol\":443:450  results */\n      dup2\n        /* \"contracts/ErrorTriageExcercise.sol\":451:452  1 */\n      0x01\n        /* \"contracts/ErrorTriageExcercise.sol\":443:453  results[1] */\n      dup2\n      mload\n      dup2\n      lt\n      tag_62\n      jumpi\n      tag_63\n      tag_41\n      jump\t// in\n    tag_63:\n    tag_62:\n      0x20\n      mul\n      0x20\n      add\n      add\n        /* \"contracts/ErrorTriageExcercise.sol\":443:483  results[1] = _b > _c ? _b - _c : _c - _b */\n      dup2\n      dup2\n      mstore\n      pop\n      pop\n        /* \"contracts/ErrorTriageExcercise.sol\":511:513  _d */\n      dup3\n        /* \"contracts/ErrorTriageExcercise.sol\":506:508  _c */\n      dup5\n        /* \"contracts/ErrorTriageExcercise.sol\":506:513  _c > _d */\n      gt\n        /* \"contracts/ErrorTriageExcercise.sol\":506:533  _c > _d ? _c - _d : _d - _c */\n      tag_64\n      jumpi\n        /* \"contracts/ErrorTriageExcercise.sol\":531:533  _c */\n      dup4\n        /* \"contracts/ErrorTriageExcercise.sol\":526:528  _d */\n      dup4\n        /* \"contracts/ErrorTriageExcercise.sol\":526:533  _d - _c */\n      tag_65\n      swap2\n      swap1\n      tag_38\n      jump\t// in\n    tag_65:\n        /* \"contracts/ErrorTriageExcercise.sol\":506:533  _c > _d ? _c - _d : _d - _c */\n      jump(tag_66)\n    tag_64:\n        /* \"contracts/ErrorTriageExcercise.sol\":521:523  _d */\n      dup3\n        /* \"contracts/ErrorTriageExcercise.sol\":516:518  _c */\n      dup5\n        /* \"contracts/ErrorTriageExcercise.sol\":516:523  _c - _d */\n      tag_67\n      swap2\n      swap1\n      tag_38\n      jump\t// in\n    tag_67:\n        /* \"contracts/ErrorTriageExcercise.sol\":506:533  _c > _d ? _c - _d : _d - _c */\n    tag_66:\n        /* \"contracts/ErrorTriageExcercise.sol\":493:500  results */\n      dup2\n        /* \"contracts/ErrorTriageExcercise.sol\":501:502  2 */\n      0x02\n        /* \"contracts/ErrorTriageExcercise.sol\":493:503  results[2] */\n      dup2\n      mload\n      dup2\n      lt\n      tag_68\n      jumpi\n      tag_69\n      tag_41\n      jump\t// in\n    tag_69:\n    tag_68:\n      0x20\n      mul\n      0x20\n      add\n      add\n        /* \"contracts/ErrorTriageExcercise.sol\":493:533  results[2] = _c > _d ? _c - _d : _d - _c */\n      dup2\n      dup2\n      mstore\n      pop\n      pop\n        /* \"contracts/ErrorTriageExcercise.sol\":551:558  results */\n      dup1\n        /* \"contracts/ErrorTriageExcercise.sol\":544:558  return results */\n      swap2\n      pop\n      pop\n        /* \"contracts/ErrorTriageExcercise.sol\":199:565  function diffWithNeighbor(... */\n      swap5\n      swap4\n      pop\n      pop\n      pop\n      pop\n      jump\t// out\n        /* \"contracts/ErrorTriageExcercise.sol\":1559:1613  function resetArr() public {... */\n    tag_20:\n        /* \"contracts/ErrorTriageExcercise.sol\":1603:1606  arr */\n      0x00\n      0x00\n        /* \"contracts/ErrorTriageExcercise.sol\":1596:1606  delete arr */\n      tag_71\n      swap2\n      swap1\n      tag_72\n      jump\t// in\n    tag_71:\n        /* \"contracts/ErrorTriageExcercise.sol\":1559:1613  function resetArr() public {... */\n      jump\t// out\n        /* \"contracts/ErrorTriageExcercise.sol\":1399:1466  function addToArr(uint _num) public {... */\n    tag_24:\n        /* \"contracts/ErrorTriageExcercise.sol\":1445:1448  arr */\n      0x00\n        /* \"contracts/ErrorTriageExcercise.sol\":1454:1458  _num */\n      dup2\n        /* \"contracts/ErrorTriageExcercise.sol\":1445:1459  arr.push(_num) */\n      swap1\n      dup1\n      0x01\n      dup2\n      sload\n      add\n      dup1\n      dup3\n      sstore\n      dup1\n      swap2\n      pop\n      pop\n      0x01\n      swap1\n      sub\n      swap1\n      0x00\n      mstore\n      keccak256(0x00, 0x20)\n      add\n      0x00\n      swap1\n      swap2\n      swap1\n      swap2\n      swap1\n      swap2\n      pop\n      sstore\n        /* \"contracts/ErrorTriageExcercise.sol\":1399:1466  function addToArr(uint _num) public {... */\n      pop\n      jump\t// out\n        /* \"contracts/ErrorTriageExcercise.sol\":650:1096  function applyModifier(... */\n    tag_28:\n        /* \"contracts/ErrorTriageExcercise.sol\":731:735  uint */\n      0x00\n        /* \"contracts/ErrorTriageExcercise.sol\":760:764  1000 */\n      0x03e8\n        /* \"contracts/ErrorTriageExcercise.sol\":751:756  _base */\n      dup4\n        /* \"contracts/ErrorTriageExcercise.sol\":751:764  _base >= 1000 */\n      lt\n      iszero\n        /* \"contracts/ErrorTriageExcercise.sol\":743:789  require(_base >= 1000, \"Base must be >= 1000\") */\n      tag_76\n      jumpi\n      mload(0x40)\n      0x08c379a000000000000000000000000000000000000000000000000000000000\n      dup2\n      mstore\n      0x04\n      add\n      tag_77\n      swap1\n      tag_78\n      jump\t// in\n    tag_77:\n      mload(0x40)\n      dup1\n      swap2\n      sub\n      swap1\n      revert\n    tag_76:\n        /* \"contracts/ErrorTriageExcercise.sol\":816:820  -100 */\n      0xffffffffffffffffffffffffffffffffffffffffffffffffffffffffffffff9c\n        /* \"contracts/ErrorTriageExcercise.sol\":803:812  _modifier */\n      dup3\n        /* \"contracts/ErrorTriageExcercise.sol\":803:820  _modifier >= -100 */\n      slt\n      iszero\n        /* \"contracts/ErrorTriageExcercise.sol\":803:840  _modifier >= -100 && _modifier <= 100 */\n      dup1\n      iszero\n      tag_79\n      jumpi\n      pop\n        /* \"contracts/ErrorTriageExcercise.sol\":837:840  100 */\n      0x64\n        /* \"contracts/ErrorTriageExcercise.sol\":824:833  _modifier */\n      dup3\n        /* \"contracts/ErrorTriageExcercise.sol\":824:840  _modifier <= 100 */\n      sgt\n      iszero\n        /* \"contracts/ErrorTriageExcercise.sol\":803:840  _modifier >= -100 && _modifier <= 100 */\n    tag_79:\n        /* \"contracts/ErrorTriageExcercise.sol\":795:882  require(_modifier >= -100 && _modifier <= 100, \"Modifier must be between -100 and 100\") */\n      tag_80\n      jumpi\n      mload(0x40)\n      0x08c379a000000000000000000000000000000000000000000000000000000000\n      dup2\n      mstore\n      0x04\n      add\n      tag_81\n      swap1\n      tag_82\n      jump\t// in\n    tag_81:\n      mload(0x40)\n      dup1\n      swap2\n      sub\n      swap1\n      revert\n    tag_80:\n        /* \"contracts/ErrorTriageExcercise.sol\":905:906  0 */\n      0x00\n        /* \"contracts/ErrorTriageExcercise.sol\":893:902  _modifier */\n      dup3\n        /* \"contracts/ErrorTriageExcercise.sol\":893:906  _modifier < 0 */\n      slt\n        /* \"contracts/ErrorTriageExcercise.sol\":889:1058  if (_modifier < 0) {... */\n      iszero\n      tag_83\n      jumpi\n        /* \"contracts/ErrorTriageExcercise.sol\":918:930  int modValue */\n      0x00\n        /* \"contracts/ErrorTriageExcercise.sol\":933:942  _modifier */\n      dup3\n        /* \"contracts/ErrorTriageExcercise.sol\":918:942  int modValue = _modifier */\n      swap1\n      pop\n        /* \"contracts/ErrorTriageExcercise.sol\":975:983  modValue */\n      dup1\n        /* \"contracts/ErrorTriageExcercise.sol\":974:983  -modValue */\n      tag_84\n      swap1\n      tag_85\n      jump\t// in\n    tag_84:\n        /* \"contracts/ErrorTriageExcercise.sol\":960:965  _base */\n      dup5\n        /* \"contracts/ErrorTriageExcercise.sol\":960:984  _base >= uint(-modValue) */\n      lt\n      iszero\n        /* \"contracts/ErrorTriageExcercise.sol\":952:1011  require(_base >= uint(-modValue), \"Result would underflow\") */\n      tag_86\n      jumpi\n      mload(0x40)\n      0x08c379a000000000000000000000000000000000000000000000000000000000\n      dup2\n      mstore\n      0x04\n      add\n      tag_87\n      swap1\n      tag_88\n      jump\t// in\n    tag_87:\n      mload(0x40)\n      dup1\n      swap2\n      sub\n      swap1\n      revert\n    tag_86:\n        /* \"contracts/ErrorTriageExcercise.sol\":1042:1050  modValue */\n      dup1\n        /* \"contracts/ErrorTriageExcercise.sol\":1041:1050  -modValue */\n      tag_89\n      swap1\n      tag_85\n      jump\t// in\n    tag_89:\n        /* \"contracts/ErrorTriageExcercise.sol\":1028:1033  _base */\n      dup5\n        /* \"contracts/ErrorTriageExcercise.sol\":1028:1051  _base - uint(-modValue) */\n      tag_90\n      swap2\n      swap1\n      tag_38\n      jump\t// in\n    tag_90:\n        /* \"contracts/ErrorTriageExcercise.sol\":1021:1051  return _base - uint(-modValue) */\n      swap2\n      pop\n      pop\n      jump(tag_75)\n        /* \"contracts/ErrorTriageExcercise.sol\":889:1058  if (_modifier < 0) {... */\n    tag_83:\n        /* \"contracts/ErrorTriageExcercise.sol\":1083:1092  _modifier */\n      dup2\n        /* \"contracts/ErrorTriageExcercise.sol\":1070:1075  _base */\n      dup4\n        /* \"contracts/ErrorTriageExcercise.sol\":1070:1093  _base + uint(_modifier) */\n      tag_91\n      swap2\n      swap1\n      tag_92\n      jump\t// in\n    tag_91:\n        /* \"contracts/ErrorTriageExcercise.sol\":1063:1093  return _base + uint(_modifier) */\n      swap1\n      pop\n        /* \"contracts/ErrorTriageExcercise.sol\":650:1096  function applyModifier(... */\n    tag_75:\n      swap3\n      swap2\n      pop\n      pop\n      jump\t// out\n        /* \"contracts/ErrorTriageExcercise.sol\":1472:1553  function getArr() public view returns (uint[] memory) {... */\n    tag_31:\n        /* \"contracts/ErrorTriageExcercise.sol\":1511:1524  uint[] memory */\n      0x60\n        /* \"contracts/ErrorTriageExcercise.sol\":1543:1546  arr */\n      0x00\n        /* \"contracts/ErrorTriageExcercise.sol\":1536:1546  return arr */\n      dup1\n      sload\n      dup1\n      0x20\n      mul\n      0x20\n      add\n      mload(0x40)\n      swap1\n      dup2\n      add\n      0x40\n      mstore\n      dup1\n      swap3\n      swap2\n      swap1\n      dup2\n      dup2\n      mstore\n      0x20\n      add\n      dup3\n      dup1\n      sload\n      dup1\n      iszero\n      tag_94\n      jumpi\n      0x20\n      mul\n      dup3\n      add\n      swap2\n      swap1\n      0x00\n      mstore\n      keccak256(0x00, 0x20)\n      swap1\n    tag_95:\n      dup2\n      sload\n      dup2\n      mstore\n      0x20\n      add\n      swap1\n      0x01\n      add\n      swap1\n      dup1\n      dup4\n      gt\n      tag_95\n      jumpi\n    tag_94:\n      pop\n      pop\n      pop\n      pop\n      pop\n      swap1\n      pop\n        /* \"contracts/ErrorTriageExcercise.sol\":1472:1553  function getArr() public view returns (uint[] memory) {... */\n      swap1\n      jump\t// out\n    tag_72:\n      pop\n      dup1\n      sload\n      0x00\n      dup3\n      sstore\n      swap1\n      0x00\n      mstore\n      keccak256(0x00, 0x20)\n      swap1\n      dup2\n      add\n      swap1\n      tag_97\n      swap2\n      swap1\n      tag_98\n      jump\t// in\n    tag_97:\n      pop\n      jump\t// out\n    tag_98:\n    tag_99:\n      dup1\n      dup3\n      gt\n      iszero\n      tag_100\n      jumpi\n      0x00\n      dup2\n      0x00\n      swap1\n      sstore\n      pop\n      0x01\n      add\n      jump(tag_99)\n    tag_100:\n      pop\n      swap1\n      jump\t// out\n        /* \"#utility.yul\":7:84   */\n    tag_101:\n        /* \"#utility.yul\":44:51   */\n      0x00\n        /* \"#utility.yul\":73:78   */\n      dup2\n        /* \"#utility.yul\":62:78   */\n      swap1\n      pop\n        /* \"#utility.yul\":7:84   */\n      swap2\n      swap1\n      pop\n      jump\t// out\n        /* \"#utility.yul\":90:208   */\n    tag_102:\n        /* \"#utility.yul\":177:201   */\n      tag_131\n        /* \"#utility.yul\":195:200   */\n      dup2\n        /* \"#utility.yul\":177:201   */\n      tag_101\n      jump\t// in\n    tag_131:\n        /* \"#utility.yul\":172:175   */\n      dup3\n        /* \"#utility.yul\":165:202   */\n      mstore\n        /* \"#utility.yul\":90:208   */\n      pop\n      pop\n      jump\t// out\n        /* \"#utility.yul\":214:436   */\n    tag_12:\n        /* \"#utility.yul\":307:311   */\n      0x00\n        /* \"#utility.yul\":345:347   */\n      0x20\n        /* \"#utility.yul\":334:343   */\n      dup3\n        /* \"#utility.yul\":330:348   */\n      add\n        /* \"#utility.yul\":322:348   */\n      swap1\n      pop\n        /* \"#utility.yul\":358:429   */\n      tag_133\n        /* \"#utility.yul\":426:427   */\n      0x00\n        /* \"#utility.yul\":415:424   */\n      dup4\n        /* \"#utility.yul\":411:428   */\n      add\n        /* \"#utility.yul\":402:408   */\n      dup5\n        /* \"#utility.yul\":358:429   */\n      tag_102\n      jump\t// in\n    tag_133:\n        /* \"#utility.yul\":214:436   */\n      swap3\n      swap2\n      pop\n      pop\n      jump\t// out\n        /* \"#utility.yul\":523:640   */\n    tag_104:\n        /* \"#utility.yul\":632:633   */\n      0x00\n        /* \"#utility.yul\":629:630   */\n      0x00\n        /* \"#utility.yul\":622:634   */\n      revert\n        /* \"#utility.yul\":769:891   */\n    tag_106:\n        /* \"#utility.yul\":842:866   */\n      tag_138\n        /* \"#utility.yul\":860:865   */\n      dup2\n        /* \"#utility.yul\":842:866   */\n      tag_101\n      jump\t// in\n    tag_138:\n        /* \"#utility.yul\":835:840   */\n      dup2\n        /* \"#utility.yul\":832:867   */\n      eq\n        /* \"#utility.yul\":822:885   */\n      tag_139\n      jumpi\n        /* \"#utility.yul\":881:882   */\n      0x00\n        /* \"#utility.yul\":878:879   */\n      0x00\n        /* \"#utility.yul\":871:883   */\n      revert\n        /* \"#utility.yul\":822:885   */\n    tag_139:\n        /* \"#utility.yul\":769:891   */\n      pop\n      jump\t// out\n        /* \"#utility.yul\":897:1036   */\n    tag_107:\n        /* \"#utility.yul\":943:948   */\n      0x00\n        /* \"#utility.yul\":981:987   */\n      dup2\n        /* \"#utility.yul\":968:988   */\n      calldataload\n        /* \"#utility.yul\":959:988   */\n      swap1\n      pop\n        /* \"#utility.yul\":997:1030   */\n      tag_141\n        /* \"#utility.yul\":1024:1029   */\n      dup2\n        /* \"#utility.yul\":997:1030   */\n      tag_106\n      jump\t// in\n    tag_141:\n        /* \"#utility.yul\":897:1036   */\n      swap3\n      swap2\n      pop\n      pop\n      jump\t// out\n        /* \"#utility.yul\":1042:1807   */\n    tag_15:\n        /* \"#utility.yul\":1128:1134   */\n      0x00\n        /* \"#utility.yul\":1136:1142   */\n      0x00\n        /* \"#utility.yul\":1144:1150   */\n      0x00\n        /* \"#utility.yul\":1152:1158   */\n      0x00\n        /* \"#utility.yul\":1201:1204   */\n      0x80\n        /* \"#utility.yul\":1189:1198   */\n      dup6\n        /* \"#utility.yul\":1180:1187   */\n      dup8\n        /* \"#utility.yul\":1176:1199   */\n      sub\n        /* \"#utility.yul\":1172:1205   */\n      slt\n        /* \"#utility.yul\":1169:1289   */\n      iszero\n      tag_143\n      jumpi\n        /* \"#utility.yul\":1208:1287   */\n      tag_144\n      tag_104\n      jump\t// in\n    tag_144:\n        /* \"#utility.yul\":1169:1289   */\n    tag_143:\n        /* \"#utility.yul\":1328:1329   */\n      0x00\n        /* \"#utility.yul\":1353:1406   */\n      tag_145\n        /* \"#utility.yul\":1398:1405   */\n      dup8\n        /* \"#utility.yul\":1389:1395   */\n      dup3\n        /* \"#utility.yul\":1378:1387   */\n      dup9\n        /* \"#utility.yul\":1374:1396   */\n      add\n        /* \"#utility.yul\":1353:1406   */\n      tag_107\n      jump\t// in\n    tag_145:\n        /* \"#utility.yul\":1343:1406   */\n      swap5\n      pop\n        /* \"#utility.yul\":1299:1416   */\n      pop\n        /* \"#utility.yul\":1455:1457   */\n      0x20\n        /* \"#utility.yul\":1481:1534   */\n      tag_146\n        /* \"#utility.yul\":1526:1533   */\n      dup8\n        /* \"#utility.yul\":1517:1523   */\n      dup3\n        /* \"#utility.yul\":1506:1515   */\n      dup9\n        /* \"#utility.yul\":1502:1524   */\n      add\n        /* \"#utility.yul\":1481:1534   */\n      tag_107\n      jump\t// in\n    tag_146:\n        /* \"#utility.yul\":1471:1534   */\n      swap4\n      pop\n        /* \"#utility.yul\":1426:1544   */\n      pop\n        /* \"#utility.yul\":1583:1585   */\n      0x40\n        /* \"#utility.yul\":1609:1662   */\n      tag_147\n        /* \"#utility.yul\":1654:1661   */\n      dup8\n        /* \"#utility.yul\":1645:1651   */\n      dup3\n        /* \"#utility.yul\":1634:1643   */\n      dup9\n        /* \"#utility.yul\":1630:1652   */\n      add\n        /* \"#utility.yul\":1609:1662   */\n      tag_107\n      jump\t// in\n    tag_147:\n        /* \"#utility.yul\":1599:1662   */\n      swap3\n      pop\n        /* \"#utility.yul\":1554:1672   */\n      pop\n        /* \"#utility.yul\":1711:1713   */\n      0x60\n        /* \"#utility.yul\":1737:1790   */\n      tag_148\n        /* \"#utility.yul\":1782:1789   */\n      dup8\n        /* \"#utility.yul\":1773:1779   */\n      dup3\n        /* \"#utility.yul\":1762:1771   */\n      dup9\n        /* \"#utility.yul\":1758:1780   */\n      add\n        /* \"#utility.yul\":1737:1790   */\n      tag_107\n      jump\t// in\n    tag_148:\n        /* \"#utility.yul\":1727:1790   */\n      swap2\n      pop\n        /* \"#utility.yul\":1682:1800   */\n      pop\n        /* \"#utility.yul\":1042:1807   */\n      swap3\n      swap6\n      swap2\n      swap5\n      pop\n      swap3\n      pop\n      jump\t// out\n        /* \"#utility.yul\":1813:1927   */\n    tag_108:\n        /* \"#utility.yul\":1880:1886   */\n      0x00\n        /* \"#utility.yul\":1914:1919   */\n      dup2\n        /* \"#utility.yul\":1908:1920   */\n      mload\n        /* \"#utility.yul\":1898:1920   */\n      swap1\n      pop\n        /* \"#utility.yul\":1813:1927   */\n      swap2\n      swap1\n      pop\n      jump\t// out\n        /* \"#utility.yul\":1933:2117   */\n    tag_109:\n        /* \"#utility.yul\":2032:2043   */\n      0x00\n        /* \"#utility.yul\":2066:2072   */\n      dup3\n        /* \"#utility.yul\":2061:2064   */\n      dup3\n        /* \"#utility.yul\":2054:2073   */\n      mstore\n        /* \"#utility.yul\":2106:2110   */\n      0x20\n        /* \"#utility.yul\":2101:2104   */\n      dup3\n        /* \"#utility.yul\":2097:2111   */\n      add\n        /* \"#utility.yul\":2082:2111   */\n      swap1\n      pop\n        /* \"#utility.yul\":1933:2117   */\n      swap3\n      swap2\n      pop\n      pop\n      jump\t// out\n        /* \"#utility.yul\":2123:2255   */\n    tag_110:\n        /* \"#utility.yul\":2190:2194   */\n      0x00\n        /* \"#utility.yul\":2213:2216   */\n      dup2\n        /* \"#utility.yul\":2205:2216   */\n      swap1\n      pop\n        /* \"#utility.yul\":2243:2247   */\n      0x20\n        /* \"#utility.yul\":2238:2241   */\n      dup3\n        /* \"#utility.yul\":2234:2248   */\n      add\n        /* \"#utility.yul\":2226:2248   */\n      swap1\n      pop\n        /* \"#utility.yul\":2123:2255   */\n      swap2\n      swap1\n      pop\n      jump\t// out\n        /* \"#utility.yul\":2261:2369   */\n    tag_111:\n        /* \"#utility.yul\":2338:2362   */\n      tag_153\n        /* \"#utility.yul\":2356:2361   */\n      dup2\n        /* \"#utility.yul\":2338:2362   */\n      tag_101\n      jump\t// in\n    tag_153:\n        /* \"#utility.yul\":2333:2336   */\n      dup3\n        /* \"#utility.yul\":2326:2363   */\n      mstore\n        /* \"#utility.yul\":2261:2369   */\n      pop\n      pop\n      jump\t// out\n        /* \"#utility.yul\":2375:2554   */\n    tag_112:\n        /* \"#utility.yul\":2444:2454   */\n      0x00\n        /* \"#utility.yul\":2465:2511   */\n      tag_155\n        /* \"#utility.yul\":2507:2510   */\n      dup4\n        /* \"#utility.yul\":2499:2505   */\n      dup4\n        /* \"#utility.yul\":2465:2511   */\n      tag_111\n      jump\t// in\n    tag_155:\n        /* \"#utility.yul\":2543:2547   */\n      0x20\n        /* \"#utility.yul\":2538:2541   */\n      dup4\n        /* \"#utility.yul\":2534:2548   */\n      add\n        /* \"#utility.yul\":2520:2548   */\n      swap1\n      pop\n        /* \"#utility.yul\":2375:2554   */\n      swap3\n      swap2\n      pop\n      pop\n      jump\t// out\n        /* \"#utility.yul\":2560:2673   */\n    tag_113:\n        /* \"#utility.yul\":2630:2634   */\n      0x00\n        /* \"#utility.yul\":2662:2666   */\n      0x20\n        /* \"#utility.yul\":2657:2660   */\n      dup3\n        /* \"#utility.yul\":2653:2667   */\n      add\n        /* \"#utility.yul\":2645:2667   */\n      swap1\n      pop\n        /* \"#utility.yul\":2560:2673   */\n      swap2\n      swap1\n      pop\n      jump\t// out\n        /* \"#utility.yul\":2709:3441   */\n    tag_114:\n        /* \"#utility.yul\":2828:2831   */\n      0x00\n        /* \"#utility.yul\":2857:2911   */\n      tag_158\n        /* \"#utility.yul\":2905:2910   */\n      dup3\n        /* \"#utility.yul\":2857:2911   */\n      tag_108\n      jump\t// in\n    tag_158:\n        /* \"#utility.yul\":2927:3013   */\n      tag_159\n        /* \"#utility.yul\":3006:3012   */\n      dup2\n        /* \"#utility.yul\":3001:3004   */\n      dup6\n        /* \"#utility.yul\":2927:3013   */\n      tag_109\n      jump\t// in\n    tag_159:\n        /* \"#utility.yul\":2920:3013   */\n      swap4\n      pop\n        /* \"#utility.yul\":3037:3093   */\n      tag_160\n        /* \"#utility.yul\":3087:3092   */\n      dup4\n        /* \"#utility.yul\":3037:3093   */\n      tag_110\n      jump\t// in\n    tag_160:\n        /* \"#utility.yul\":3116:3123   */\n      dup1\n        /* \"#utility.yul\":3147:3148   */\n      0x00\n        /* \"#utility.yul\":3132:3416   */\n    tag_161:\n        /* \"#utility.yul\":3157:3163   */\n      dup4\n        /* \"#utility.yul\":3154:3155   */\n      dup2\n        /* \"#utility.yul\":3151:3164   */\n      lt\n        /* \"#utility.yul\":3132:3416   */\n      iszero\n      tag_163\n      jumpi\n        /* \"#utility.yul\":3233:3239   */\n      dup2\n        /* \"#utility.yul\":3227:3240   */\n      mload\n        /* \"#utility.yul\":3260:3323   */\n      tag_164\n        /* \"#utility.yul\":3319:3322   */\n      dup9\n        /* \"#utility.yul\":3304:3317   */\n      dup3\n        /* \"#utility.yul\":3260:3323   */\n      tag_112\n      jump\t// in\n    tag_164:\n        /* \"#utility.yul\":3253:3323   */\n      swap8\n      pop\n        /* \"#utility.yul\":3346:3406   */\n      tag_165\n        /* \"#utility.yul\":3399:3405   */\n      dup4\n        /* \"#utility.yul\":3346:3406   */\n      tag_113\n      jump\t// in\n    tag_165:\n        /* \"#utility.yul\":3336:3406   */\n      swap3\n      pop\n        /* \"#utility.yul\":3192:3416   */\n      pop\n        /* \"#utility.yul\":3179:3180   */\n      0x01\n        /* \"#utility.yul\":3176:3177   */\n      dup2\n        /* \"#utility.yul\":3172:3181   */\n      add\n        /* \"#utility.yul\":3167:3181   */\n      swap1\n      pop\n        /* \"#utility.yul\":3132:3416   */\n      jump(tag_161)\n    tag_163:\n        /* \"#utility.yul\":3136:3150   */\n      pop\n        /* \"#utility.yul\":3432:3435   */\n      dup6\n        /* \"#utility.yul\":3425:3435   */\n      swap4\n      pop\n        /* \"#utility.yul\":2833:3441   */\n      pop\n      pop\n      pop\n        /* \"#utility.yul\":2709:3441   */\n      swap3\n      swap2\n      pop\n      pop\n      jump\t// out\n        /* \"#utility.yul\":3447:3820   */\n    tag_18:\n        /* \"#utility.yul\":3590:3594   */\n      0x00\n        /* \"#utility.yul\":3628:3630   */\n      0x20\n        /* \"#utility.yul\":3617:3626   */\n      dup3\n        /* \"#utility.yul\":3613:3631   */\n      add\n        /* \"#utility.yul\":3605:3631   */\n      swap1\n      pop\n        /* \"#utility.yul\":3677:3686   */\n      dup2\n        /* \"#utility.yul\":3671:3675   */\n      dup2\n        /* \"#utility.yul\":3667:3687   */\n      sub\n        /* \"#utility.yul\":3663:3664   */\n      0x00\n        /* \"#utility.yul\":3652:3661   */\n      dup4\n        /* \"#utility.yul\":3648:3665   */\n      add\n        /* \"#utility.yul\":3641:3688   */\n      mstore\n        /* \"#utility.yul\":3705:3813   */\n      tag_167\n        /* \"#utility.yul\":3808:3812   */\n      dup2\n        /* \"#utility.yul\":3799:3805   */\n      dup5\n        /* \"#utility.yul\":3705:3813   */\n      tag_114\n      jump\t// in\n    tag_167:\n        /* \"#utility.yul\":3697:3813   */\n      swap1\n      pop\n        /* \"#utility.yul\":3447:3820   */\n      swap3\n      swap2\n      pop\n      pop\n      jump\t// out\n        /* \"#utility.yul\":3826:4155   */\n    tag_23:\n        /* \"#utility.yul\":3885:3891   */\n      0x00\n        /* \"#utility.yul\":3934:3936   */\n      0x20\n        /* \"#utility.yul\":3922:3931   */\n      dup3\n        /* \"#utility.yul\":3913:3920   */\n      dup5\n        /* \"#utility.yul\":3909:3932   */\n      sub\n        /* \"#utility.yul\":3905:3937   */\n      slt\n        /* \"#utility.yul\":3902:4021   */\n      iszero\n      tag_169\n      jumpi\n        /* \"#utility.yul\":3940:4019   */\n      tag_170\n      tag_104\n      jump\t// in\n    tag_170:\n        /* \"#utility.yul\":3902:4021   */\n    tag_169:\n        /* \"#utility.yul\":4060:4061   */\n      0x00\n        /* \"#utility.yul\":4085:4138   */\n      tag_171\n        /* \"#utility.yul\":4130:4137   */\n      dup5\n        /* \"#utility.yul\":4121:4127   */\n      dup3\n        /* \"#utility.yul\":4110:4119   */\n      dup6\n        /* \"#utility.yul\":4106:4128   */\n      add\n        /* \"#utility.yul\":4085:4138   */\n      tag_107\n      jump\t// in\n    tag_171:\n        /* \"#utility.yul\":4075:4138   */\n      swap2\n      pop\n        /* \"#utility.yul\":4031:4148   */\n      pop\n        /* \"#utility.yul\":3826:4155   */\n      swap3\n      swap2\n      pop\n      pop\n      jump\t// out\n        /* \"#utility.yul\":4161:4237   */\n    tag_115:\n        /* \"#utility.yul\":4197:4204   */\n      0x00\n        /* \"#utility.yul\":4226:4231   */\n      dup2\n        /* \"#utility.yul\":4215:4231   */\n      swap1\n      pop\n        /* \"#utility.yul\":4161:4237   */\n      swap2\n      swap1\n      pop\n      jump\t// out\n        /* \"#utility.yul\":4243:4363   */\n    tag_116:\n        /* \"#utility.yul\":4315:4338   */\n      tag_174\n        /* \"#utility.yul\":4332:4337   */\n      dup2\n        /* \"#utility.yul\":4315:4338   */\n      tag_115\n      jump\t// in\n    tag_174:\n        /* \"#utility.yul\":4308:4313   */\n      dup2\n        /* \"#utility.yul\":4305:4339   */\n      eq\n        /* \"#utility.yul\":4295:4357   */\n      tag_175\n      jumpi\n        /* \"#utility.yul\":4353:4354   */\n      0x00\n        /* \"#utility.yul\":4350:4351   */\n      0x00\n        /* \"#utility.yul\":4343:4355   */\n      revert\n        /* \"#utility.yul\":4295:4357   */\n    tag_175:\n        /* \"#utility.yul\":4243:4363   */\n      pop\n      jump\t// out\n        /* \"#utility.yul\":4369:4506   */\n    tag_117:\n        /* \"#utility.yul\":4414:4419   */\n      0x00\n        /* \"#utility.yul\":4452:4458   */\n      dup2\n        /* \"#utility.yul\":4439:4459   */\n      calldataload\n        /* \"#utility.yul\":4430:4459   */\n      swap1\n      pop\n        /* \"#utility.yul\":4468:4500   */\n      tag_177\n        /* \"#utility.yul\":4494:4499   */\n      dup2\n        /* \"#utility.yul\":4468:4500   */\n      tag_116\n      jump\t// in\n    tag_177:\n        /* \"#utility.yul\":4369:4506   */\n      swap3\n      swap2\n      pop\n      pop\n      jump\t// out\n        /* \"#utility.yul\":4512:4984   */\n    tag_27:\n        /* \"#utility.yul\":4579:4585   */\n      0x00\n        /* \"#utility.yul\":4587:4593   */\n      0x00\n        /* \"#utility.yul\":4636:4638   */\n      0x40\n        /* \"#utility.yul\":4624:4633   */\n      dup4\n        /* \"#utility.yul\":4615:4622   */\n      dup6\n        /* \"#utility.yul\":4611:4634   */\n      sub\n        /* \"#utility.yul\":4607:4639   */\n      slt\n        /* \"#utility.yul\":4604:4723   */\n      iszero\n      tag_179\n      jumpi\n        /* \"#utility.yul\":4642:4721   */\n      tag_180\n      tag_104\n      jump\t// in\n    tag_180:\n        /* \"#utility.yul\":4604:4723   */\n    tag_179:\n        /* \"#utility.yul\":4762:4763   */\n      0x00\n        /* \"#utility.yul\":4787:4840   */\n      tag_181\n        /* \"#utility.yul\":4832:4839   */\n      dup6\n        /* \"#utility.yul\":4823:4829   */\n      dup3\n        /* \"#utility.yul\":4812:4821   */\n      dup7\n        /* \"#utility.yul\":4808:4830   */\n      add\n        /* \"#utility.yul\":4787:4840   */\n      tag_107\n      jump\t// in\n    tag_181:\n        /* \"#utility.yul\":4777:4840   */\n      swap3\n      pop\n        /* \"#utility.yul\":4733:4850   */\n      pop\n        /* \"#utility.yul\":4889:4891   */\n      0x20\n        /* \"#utility.yul\":4915:4967   */\n      tag_182\n        /* \"#utility.yul\":4959:4966   */\n      dup6\n        /* \"#utility.yul\":4950:4956   */\n      dup3\n        /* \"#utility.yul\":4939:4948   */\n      dup7\n        /* \"#utility.yul\":4935:4957   */\n      add\n        /* \"#utility.yul\":4915:4967   */\n      tag_117\n      jump\t// in\n    tag_182:\n        /* \"#utility.yul\":4905:4967   */\n      swap2\n      pop\n        /* \"#utility.yul\":4860:4977   */\n      pop\n        /* \"#utility.yul\":4512:4984   */\n      swap3\n      pop\n      swap3\n      swap1\n      pop\n      jump\t// out\n        /* \"#utility.yul\":4990:5159   */\n    tag_118:\n        /* \"#utility.yul\":5074:5085   */\n      0x00\n        /* \"#utility.yul\":5108:5114   */\n      dup3\n        /* \"#utility.yul\":5103:5106   */\n      dup3\n        /* \"#utility.yul\":5096:5115   */\n      mstore\n        /* \"#utility.yul\":5148:5152   */\n      0x20\n        /* \"#utility.yul\":5143:5146   */\n      dup3\n        /* \"#utility.yul\":5139:5153   */\n      add\n        /* \"#utility.yul\":5124:5153   */\n      swap1\n      pop\n        /* \"#utility.yul\":4990:5159   */\n      swap3\n      swap2\n      pop\n      pop\n      jump\t// out\n        /* \"#utility.yul\":5165:5329   */\n    tag_119:\n        /* \"#utility.yul\":5305:5321   */\n      0x417272617920697320656d707479000000000000000000000000000000000000\n        /* \"#utility.yul\":5301:5302   */\n      0x00\n        /* \"#utility.yul\":5293:5299   */\n      dup3\n        /* \"#utility.yul\":5289:5303   */\n      add\n        /* \"#utility.yul\":5282:5322   */\n      mstore\n        /* \"#utility.yul\":5165:5329   */\n      pop\n      jump\t// out\n        /* \"#utility.yul\":5335:5701   */\n    tag_120:\n        /* \"#utility.yul\":5477:5480   */\n      0x00\n        /* \"#utility.yul\":5498:5565   */\n      tag_186\n        /* \"#utility.yul\":5562:5564   */\n      0x0e\n        /* \"#utility.yul\":5557:5560   */\n      dup4\n        /* \"#utility.yul\":5498:5565   */\n      tag_118\n      jump\t// in\n    tag_186:\n        /* \"#utility.yul\":5491:5565   */\n      swap2\n      pop\n        /* \"#utility.yul\":5574:5667   */\n      tag_187\n        /* \"#utility.yul\":5663:5666   */\n      dup3\n        /* \"#utility.yul\":5574:5667   */\n      tag_119\n      jump\t// in\n    tag_187:\n        /* \"#utility.yul\":5692:5694   */\n      0x20\n        /* \"#utility.yul\":5687:5690   */\n      dup3\n        /* \"#utility.yul\":5683:5695   */\n      add\n        /* \"#utility.yul\":5676:5695   */\n      swap1\n      pop\n        /* \"#utility.yul\":5335:5701   */\n      swap2\n      swap1\n      pop\n      jump\t// out\n        /* \"#utility.yul\":5707:6126   */\n    tag_36:\n        /* \"#utility.yul\":5873:5877   */\n      0x00\n        /* \"#utility.yul\":5911:5913   */\n      0x20\n        /* \"#utility.yul\":5900:5909   */\n      dup3\n        /* \"#utility.yul\":5896:5914   */\n      add\n        /* \"#utility.yul\":5888:5914   */\n      swap1\n      pop\n        /* \"#utility.yul\":5960:5969   */\n      dup2\n        /* \"#utility.yul\":5954:5958   */\n      dup2\n        /* \"#utility.yul\":5950:5970   */\n      sub\n        /* \"#utility.yul\":5946:5947   */\n      0x00\n        /* \"#utility.yul\":5935:5944   */\n      dup4\n        /* \"#utility.yul\":5931:5948   */\n      add\n        /* \"#utility.yul\":5924:5971   */\n      mstore\n        /* \"#utility.yul\":5988:6119   */\n      tag_189\n        /* \"#utility.yul\":6114:6118   */\n      dup2\n        /* \"#utility.yul\":5988:6119   */\n      tag_120\n      jump\t// in\n    tag_189:\n        /* \"#utility.yul\":5980:6119   */\n      swap1\n      pop\n        /* \"#utility.yul\":5707:6126   */\n      swap2\n      swap1\n      pop\n      jump\t// out\n        /* \"#utility.yul\":6132:6312   */\n    tag_121:\n        /* \"#utility.yul\":6180:6257   */\n      0x4e487b7100000000000000000000000000000000000000000000000000000000\n        /* \"#utility.yul\":6177:6178   */\n      0x00\n        /* \"#utility.yul\":6170:6258   */\n      mstore\n        /* \"#utility.yul\":6277:6281   */\n      0x11\n        /* \"#utility.yul\":6274:6275   */\n      0x04\n        /* \"#utility.yul\":6267:6282   */\n      mstore\n        /* \"#utility.yul\":6301:6305   */\n      0x24\n        /* \"#utility.yul\":6298:6299   */\n      0x00\n        /* \"#utility.yul\":6291:6306   */\n      revert\n        /* \"#utility.yul\":6318:6512   */\n    tag_38:\n        /* \"#utility.yul\":6358:6362   */\n      0x00\n        /* \"#utility.yul\":6378:6398   */\n      tag_192\n        /* \"#utility.yul\":6396:6397   */\n      dup3\n        /* \"#utility.yul\":6378:6398   */\n      tag_101\n      jump\t// in\n    tag_192:\n        /* \"#utility.yul\":6373:6398   */\n      swap2\n      pop\n        /* \"#utility.yul\":6412:6432   */\n      tag_193\n        /* \"#utility.yul\":6430:6431   */\n      dup4\n        /* \"#utility.yul\":6412:6432   */\n      tag_101\n      jump\t// in\n    tag_193:\n        /* \"#utility.yul\":6407:6432   */\n      swap3\n      pop\n        /* \"#utility.yul\":6456:6457   */\n      dup3\n        /* \"#utility.yul\":6453:6454   */\n      dup3\n        /* \"#utility.yul\":6449:6458   */\n      sub\n        /* \"#utility.yul\":6441:6458   */\n      swap1\n      pop\n        /* \"#utility.yul\":6480:6481   */\n      dup2\n        /* \"#utility.yul\":6474:6478   */\n      dup2\n        /* \"#utility.yul\":6471:6482   */\n      gt\n        /* \"#utility.yul\":6468:6505   */\n      iszero\n      tag_194\n      jumpi\n        /* \"#utility.yul\":6485:6503   */\n      tag_195\n      tag_121\n      jump\t// in\n    tag_195:\n        /* \"#utility.yul\":6468:6505   */\n    tag_194:\n        /* \"#utility.yul\":6318:6512   */\n      swap3\n      swap2\n      pop\n      pop\n      jump\t// out\n        /* \"#utility.yul\":6518:6698   */\n    tag_41:\n        /* \"#utility.yul\":6566:6643   */\n      0x4e487b7100000000000000000000000000000000000000000000000000000000\n        /* \"#utility.yul\":6563:6564   */\n      0x00\n        /* \"#utility.yul\":6556:6644   */\n      mstore\n        /* \"#utility.yul\":6663:6667   */\n      0x32\n        /* \"#utility.yul\":6660:6661   */\n      0x04\n        /* \"#utility.yul\":6653:6668   */\n      mstore\n        /* \"#utility.yul\":6687:6691   */\n      0x24\n        /* \"#utility.yul\":6684:6685   */\n      0x00\n        /* \"#utility.yul\":6677:6692   */\n      revert\n        /* \"#utility.yul\":6704:6884   */\n    tag_45:\n        /* \"#utility.yul\":6752:6829   */\n      0x4e487b7100000000000000000000000000000000000000000000000000000000\n        /* \"#utility.yul\":6749:6750   */\n      0x00\n        /* \"#utility.yul\":6742:6830   */\n      mstore\n        /* \"#utility.yul\":6849:6853   */\n      0x31\n        /* \"#utility.yul\":6846:6847   */\n      0x04\n        /* \"#utility.yul\":6839:6854   */\n      mstore\n        /* \"#utility.yul\":6873:6877   */\n      0x24\n        /* \"#utility.yul\":6870:6871   */\n      0x00\n        /* \"#utility.yul\":6863:6878   */\n      revert\n        /* \"#utility.yul\":6890:7070   */\n    tag_50:\n        /* \"#utility.yul\":6938:7015   */\n      0x4e487b7100000000000000000000000000000000000000000000000000000000\n        /* \"#utility.yul\":6935:6936   */\n      0x00\n        /* \"#utility.yul\":6928:7016   */\n      mstore\n        /* \"#utility.yul\":7035:7039   */\n      0x41\n        /* \"#utility.yul\":7032:7033   */\n      0x04\n        /* \"#utility.yul\":7025:7040   */\n      mstore\n        /* \"#utility.yul\":7059:7063   */\n      0x24\n        /* \"#utility.yul\":7056:7057   */\n      0x00\n        /* \"#utility.yul\":7049:7064   */\n      revert\n        /* \"#utility.yul\":7076:7246   */\n    tag_122:\n        /* \"#utility.yul\":7216:7238   */\n      0x42617365206d757374206265203e3d2031303030000000000000000000000000\n        /* \"#utility.yul\":7212:7213   */\n      0x00\n        /* \"#utility.yul\":7204:7210   */\n      dup3\n        /* \"#utility.yul\":7200:7214   */\n      add\n        /* \"#utility.yul\":7193:7239   */\n      mstore\n        /* \"#utility.yul\":7076:7246   */\n      pop\n      jump\t// out\n        /* \"#utility.yul\":7252:7618   */\n    tag_123:\n        /* \"#utility.yul\":7394:7397   */\n      0x00\n        /* \"#utility.yul\":7415:7482   */\n      tag_201\n        /* \"#utility.yul\":7479:7481   */\n      0x14\n        /* \"#utility.yul\":7474:7477   */\n      dup4\n        /* \"#utility.yul\":7415:7482   */\n      tag_118\n      jump\t// in\n    tag_201:\n        /* \"#utility.yul\":7408:7482   */\n      swap2\n      pop\n        /* \"#utility.yul\":7491:7584   */\n      tag_202\n        /* \"#utility.yul\":7580:7583   */\n      dup3\n        /* \"#utility.yul\":7491:7584   */\n      tag_122\n      jump\t// in\n    tag_202:\n        /* \"#utility.yul\":7609:7611   */\n      0x20\n        /* \"#utility.yul\":7604:7607   */\n      dup3\n        /* \"#utility.yul\":7600:7612   */\n      add\n        /* \"#utility.yul\":7593:7612   */\n      swap1\n      pop\n        /* \"#utility.yul\":7252:7618   */\n      swap2\n      swap1\n      pop\n      jump\t// out\n        /* \"#utility.yul\":7624:8043   */\n    tag_78:\n        /* \"#utility.yul\":7790:7794   */\n      0x00\n        /* \"#utility.yul\":7828:7830   */\n      0x20\n        /* \"#utility.yul\":7817:7826   */\n      dup3\n        /* \"#utility.yul\":7813:7831   */\n      add\n        /* \"#utility.yul\":7805:7831   */\n      swap1\n      pop\n        /* \"#utility.yul\":7877:7886   */\n      dup2\n        /* \"#utility.yul\":7871:7875   */\n      dup2\n        /* \"#utility.yul\":7867:7887   */\n      sub\n        /* \"#utility.yul\":7863:7864   */\n      0x00\n        /* \"#utility.yul\":7852:7861   */\n      dup4\n        /* \"#utility.yul\":7848:7865   */\n      add\n        /* \"#utility.yul\":7841:7888   */\n      mstore\n        /* \"#utility.yul\":7905:8036   */\n      tag_204\n        /* \"#utility.yul\":8031:8035   */\n      dup2\n        /* \"#utility.yul\":7905:8036   */\n      tag_123\n      jump\t// in\n    tag_204:\n        /* \"#utility.yul\":7897:8036   */\n      swap1\n      pop\n        /* \"#utility.yul\":7624:8043   */\n      swap2\n      swap1\n      pop\n      jump\t// out\n        /* \"#utility.yul\":8049:8273   */\n    tag_124:\n        /* \"#utility.yul\":8189:8223   */\n      0x4d6f646966696572206d757374206265206265747765656e202d31303020616e\n        /* \"#utility.yul\":8185:8186   */\n      0x00\n        /* \"#utility.yul\":8177:8183   */\n      dup3\n        /* \"#utility.yul\":8173:8187   */\n      add\n        /* \"#utility.yul\":8166:8224   */\n      mstore\n        /* \"#utility.yul\":8258:8265   */\n      0x6420313030000000000000000000000000000000000000000000000000000000\n        /* \"#utility.yul\":8253:8255   */\n      0x20\n        /* \"#utility.yul\":8245:8251   */\n      dup3\n        /* \"#utility.yul\":8241:8256   */\n      add\n        /* \"#utility.yul\":8234:8266   */\n      mstore\n        /* \"#utility.yul\":8049:8273   */\n      pop\n      jump\t// out\n        /* \"#utility.yul\":8279:8645   */\n    tag_125:\n        /* \"#utility.yul\":8421:8424   */\n      0x00\n        /* \"#utility.yul\":8442:8509   */\n      tag_207\n        /* \"#utility.yul\":8506:8508   */\n      0x25\n        /* \"#utility.yul\":8501:8504   */\n      dup4\n        /* \"#utility.yul\":8442:8509   */\n      tag_118\n      jump\t// in\n    tag_207:\n        /* \"#utility.yul\":8435:8509   */\n      swap2\n      pop\n        /* \"#utility.yul\":8518:8611   */\n      tag_208\n        /* \"#utility.yul\":8607:8610   */\n      dup3\n        /* \"#utility.yul\":8518:8611   */\n      tag_124\n      jump\t// in\n    tag_208:\n        /* \"#utility.yul\":8636:8638   */\n      0x40\n        /* \"#utility.yul\":8631:8634   */\n      dup3\n        /* \"#utility.yul\":8627:8639   */\n      add\n        /* \"#utility.yul\":8620:8639   */\n      swap1\n      pop\n        /* \"#utility.yul\":8279:8645   */\n      swap2\n      swap1\n      pop\n      jump\t// out\n        /* \"#utility.yul\":8651:9070   */\n    tag_82:\n        /* \"#utility.yul\":8817:8821   */\n      0x00\n        /* \"#utility.yul\":8855:8857   */\n      0x20\n        /* \"#utility.yul\":8844:8853   */\n      dup3\n        /* \"#utility.yul\":8840:8858   */\n      add\n        /* \"#utility.yul\":8832:8858   */\n      swap1\n      pop\n        /* \"#utility.yul\":8904:8913   */\n      dup2\n        /* \"#utility.yul\":8898:8902   */\n      dup2\n        /* \"#utility.yul\":8894:8914   */\n      sub\n        /* \"#utility.yul\":8890:8891   */\n      0x00\n        /* \"#utility.yul\":8879:8888   */\n      dup4\n        /* \"#utility.yul\":8875:8892   */\n      add\n        /* \"#utility.yul\":8868:8915   */\n      mstore\n        /* \"#utility.yul\":8932:9063   */\n      tag_210\n        /* \"#utility.yul\":9058:9062   */\n      dup2\n        /* \"#utility.yul\":8932:9063   */\n      tag_125\n      jump\t// in\n    tag_210:\n        /* \"#utility.yul\":8924:9063   */\n      swap1\n      pop\n        /* \"#utility.yul\":8651:9070   */\n      swap2\n      swap1\n      pop\n      jump\t// out\n        /* \"#utility.yul\":9076:9304   */\n    tag_85:\n        /* \"#utility.yul\":9111:9114   */\n      0x00\n        /* \"#utility.yul\":9134:9157   */\n      tag_212\n        /* \"#utility.yul\":9151:9156   */\n      dup3\n        /* \"#utility.yul\":9134:9157   */\n      tag_115\n      jump\t// in\n    tag_212:\n        /* \"#utility.yul\":9125:9157   */\n      swap2\n      pop\n        /* \"#utility.yul\":9179:9245   */\n      0x8000000000000000000000000000000000000000000000000000000000000000\n        /* \"#utility.yul\":9172:9177   */\n      dup3\n        /* \"#utility.yul\":9169:9246   */\n      sub\n        /* \"#utility.yul\":9166:9269   */\n      tag_213\n      jumpi\n        /* \"#utility.yul\":9249:9267   */\n      tag_214\n      tag_121\n      jump\t// in\n    tag_214:\n        /* \"#utility.yul\":9166:9269   */\n    tag_213:\n        /* \"#utility.yul\":9292:9297   */\n      dup2\n        /* \"#utility.yul\":9289:9290   */\n      0x00\n        /* \"#utility.yul\":9285:9298   */\n      sub\n        /* \"#utility.yul\":9278:9298   */\n      swap1\n      pop\n        /* \"#utility.yul\":9076:9304   */\n      swap2\n      swap1\n      pop\n      jump\t// out\n        /* \"#utility.yul\":9310:9482   */\n    tag_126:\n        /* \"#utility.yul\":9450:9474   */\n      0x526573756c7420776f756c6420756e646572666c6f7700000000000000000000\n        /* \"#utility.yul\":9446:9447   */\n      0x00\n        /* \"#utility.yul\":9438:9444   */\n      dup3\n        /* \"#utility.yul\":9434:9448   */\n      add\n        /* \"#utility.yul\":9427:9475   */\n      mstore\n        /* \"#utility.yul\":9310:9482   */\n      pop\n      jump\t// out\n        /* \"#utility.yul\":9488:9854   */\n    tag_127:\n        /* \"#utility.yul\":9630:9633   */\n      0x00\n        /* \"#utility.yul\":9651:9718   */\n      tag_217\n        /* \"#utility.yul\":9715:9717   */\n      0x16\n        /* \"#utility.yul\":9710:9713   */\n      dup4\n        /* \"#utility.yul\":9651:9718   */\n      tag_118\n      jump\t// in\n    tag_217:\n        /* \"#utility.yul\":9644:9718   */\n      swap2\n      pop\n        /* \"#utility.yul\":9727:9820   */\n      tag_218\n        /* \"#utility.yul\":9816:9819   */\n      dup3\n        /* \"#utility.yul\":9727:9820   */\n      tag_126\n      jump\t// in\n    tag_218:\n        /* \"#utility.yul\":9845:9847   */\n      0x20\n        /* \"#utility.yul\":9840:9843   */\n      dup3\n        /* \"#utility.yul\":9836:9848   */\n      add\n        /* \"#utility.yul\":9829:9848   */\n      swap1\n      pop\n        /* \"#utility.yul\":9488:9854   */\n      swap2\n      swap1\n      pop\n      jump\t// out\n        /* \"#utility.yul\":9860:10279   */\n    tag_88:\n        /* \"#utility.yul\":10026:10030   */\n      0x00\n        /* \"#utility.yul\":10064:10066   */\n      0x20\n        /* \"#utility.yul\":10053:10062   */\n      dup3\n        /* \"#utility.yul\":10049:10067   */\n      add\n        /* \"#utility.yul\":10041:10067   */\n      swap1\n      pop\n        /* \"#utility.yul\":10113:10122   */\n      dup2\n        /* \"#utility.yul\":10107:10111   */\n      dup2\n        /* \"#utility.yul\":10103:10123   */\n      sub\n        /* \"#utility.yul\":10099:10100   */\n      0x00\n        /* \"#utility.yul\":10088:10097   */\n      dup4\n        /* \"#utility.yul\":10084:10101   */\n      add\n        /* \"#utility.yul\":10077:10124   */\n      mstore\n        /* \"#utility.yul\":10141:10272   */\n      tag_220\n        /* \"#utility.yul\":10267:10271   */\n      dup2\n        /* \"#utility.yul\":10141:10272   */\n      tag_127\n      jump\t// in\n    tag_220:\n        /* \"#utility.yul\":10133:10272   */\n      swap1\n      pop\n        /* \"#utility.yul\":9860:10279   */\n      swap2\n      swap1\n      pop\n      jump\t// out\n        /* \"#utility.yul\":10285:10476   */\n    tag_92:\n        /* \"#utility.yul\":10325:10328   */\n      0x00\n        /* \"#utility.yul\":10344:10364   */\n      tag_222\n        /* \"#utility.yul\":10362:10363   */\n      dup3\n        /* \"#utility.yul\":10344:10364   */\n      tag_101\n      jump\t// in\n    tag_222:\n        /* \"#utility.yul\":10339:10364   */\n      swap2\n      pop\n        /* \"#utility.yul\":10378:10398   */\n      tag_223\n        /* \"#utility.yul\":10396:10397   */\n      dup4\n        /* \"#utility.yul\":10378:10398   */\n      tag_101\n      jump\t// in\n    tag_223:\n        /* \"#utility.yul\":10373:10398   */\n      swap3\n      pop\n        /* \"#utility.yul\":10421:10422   */\n      dup3\n        /* \"#utility.yul\":10418:10419   */\n      dup3\n        /* \"#utility.yul\":10414:10423   */\n      add\n        /* \"#utility.yul\":10407:10423   */\n      swap1\n      pop\n        /* \"#utility.yul\":10442:10445   */\n      dup1\n        /* \"#utility.yul\":10439:10440   */\n      dup3\n        /* \"#utility.yul\":10436:10446   */\n      gt\n        /* \"#utility.yul\":10433:10469   */\n      iszero\n      tag_224\n      jumpi\n        /* \"#utility.yul\":10449:10467   */\n      tag_225\n      tag_121\n      jump\t// in\n    tag_225:\n        /* \"#utility.yul\":10433:10469   */\n    tag_224:\n        /* \"#utility.yul\":10285:10476   */\n      swap3\n      swap2\n      pop\n      pop\n      jump\t// out\n\n    auxdata: 0xa2646970667358221220a58ba87d8a63fbab125961e9b8deb0f1345ae7be9e381ceabf7bb3c2d89c287364736f6c634300081e0033\n}\n",
				"bytecode": {
					"linkReferences": {},
					"object": "6080604052348015600e575f5ffd5b50610a968061001c5f395ff3fe608060405234801561000f575f5ffd5b5060043610610060575f3560e01c80631abe2ac214610064578063294323141461008257806364529db5146100b2578063e1819ff9146100bc578063f74e51ea146100d8578063fb8cbced14610108575b5f5ffd5b61006c610126565b604051610079919061050c565b60405180910390f35b61009c60048036038101906100979190610553565b6101c7565b6040516100a9919061066e565b60405180910390f35b6100ba6102f0565b005b6100d660048036038101906100d1919061068e565b6102fe565b005b6100f260048036038101906100ed91906106ec565b610326565b6040516100ff919061050c565b60405180910390f35b610110610466565b60405161011d919061066e565b60405180910390f35b5f5f5f805490501161016d576040517f08c379a000000000000000000000000000000000000000000000000000000000815260040161016490610784565b60405180910390fd5b5f5f60015f8054905061018091906107cf565b8154811061019157610190610802565b5b905f5260205f20015490505f8054806101ad576101ac61082f565b5b600190038181905f5260205f20015f905590558091505090565b60605f600367ffffffffffffffff8111156101e5576101e461085c565b5b6040519080825280602002602001820160405280156102135781602001602082028036833780820191505090505b50905084861161022e57858561022991906107cf565b61023b565b848661023a91906107cf565b5b815f8151811061024e5761024d610802565b5b60200260200101818152505083851161027257848461026d91906107cf565b61027f565b838561027e91906107cf565b5b8160018151811061029357610292610802565b5b6020026020010181815250508284116102b75783836102b291906107cf565b6102c4565b82846102c391906107cf565b5b816002815181106102d8576102d7610802565b5b60200260200101818152505080915050949350505050565b5f5f6102fc91906104bb565b565b5f81908060018154018082558091505060019003905f5260205f20015f909190919091505550565b5f6103e883101561036c576040517f08c379a0000000000000000000000000000000000000000000000000000000008152600401610363906108d3565b60405180910390fd5b7fffffffffffffffffffffffffffffffffffffffffffffffffffffffffffffff9c821215801561039d575060648213155b6103dc576040517f08c379a00000000000000000000000000000000000000000000000000000000081526004016103d390610961565b60405180910390fd5b5f821215610451575f829050806103f29061097f565b841015610434576040517f08c379a000000000000000000000000000000000000000000000000000000000815260040161042b90610a0f565b60405180910390fd5b8061043e9061097f565b8461044991906107cf565b915050610460565b818361045d9190610a2d565b90505b92915050565b60605f8054806020026020016040519081016040528092919081815260200182805480156104b157602002820191905f5260205f20905b81548152602001906001019080831161049d575b5050505050905090565b5080545f8255905f5260205f20908101906104d691906104d9565b50565b5b808211156104f0575f815f9055506001016104da565b5090565b5f819050919050565b610506816104f4565b82525050565b5f60208201905061051f5f8301846104fd565b92915050565b5f5ffd5b610532816104f4565b811461053c575f5ffd5b50565b5f8135905061054d81610529565b92915050565b5f5f5f5f6080858703121561056b5761056a610525565b5b5f6105788782880161053f565b94505060206105898782880161053f565b935050604061059a8782880161053f565b92505060606105ab8782880161053f565b91505092959194509250565b5f81519050919050565b5f82825260208201905092915050565b5f819050602082019050919050565b6105e9816104f4565b82525050565b5f6105fa83836105e0565b60208301905092915050565b5f602082019050919050565b5f61061c826105b7565b61062681856105c1565b9350610631836105d1565b805f5b8381101561066157815161064888826105ef565b975061065383610606565b925050600181019050610634565b5085935050505092915050565b5f6020820190508181035f8301526106868184610612565b905092915050565b5f602082840312156106a3576106a2610525565b5b5f6106b08482850161053f565b91505092915050565b5f819050919050565b6106cb816106b9565b81146106d5575f5ffd5b50565b5f813590506106e6816106c2565b92915050565b5f5f6040838503121561070257610701610525565b5b5f61070f8582860161053f565b9250506020610720858286016106d8565b9150509250929050565b5f82825260208201905092915050565b7f417272617920697320656d7074790000000000000000000000000000000000005f82015250565b5f61076e600e8361072a565b91506107798261073a565b602082019050919050565b5f6020820190508181035f83015261079b81610762565b9050919050565b7f4e487b71000000000000000000000000000000000000000000000000000000005f52601160045260245ffd5b5f6107d9826104f4565b91506107e4836104f4565b92508282039050818111156107fc576107fb6107a2565b5b92915050565b7f4e487b71000000000000000000000000000000000000000000000000000000005f52603260045260245ffd5b7f4e487b71000000000000000000000000000000000000000000000000000000005f52603160045260245ffd5b7f4e487b71000000000000000000000000000000000000000000000000000000005f52604160045260245ffd5b7f42617365206d757374206265203e3d20313030300000000000000000000000005f82015250565b5f6108bd60148361072a565b91506108c882610889565b602082019050919050565b5f6020820190508181035f8301526108ea816108b1565b9050919050565b7f4d6f646966696572206d757374206265206265747765656e202d31303020616e5f8201527f6420313030000000000000000000000000000000000000000000000000000000602082015250565b5f61094b60258361072a565b9150610956826108f1565b604082019050919050565b5f6020820190508181035f8301526109788161093f565b9050919050565b5f610989826106b9565b91507f800000000000000000000000000000000000000000000000000000000000000082036109bb576109ba6107a2565b5b815f039050919050565b7f526573756c7420776f756c6420756e646572666c6f77000000000000000000005f82015250565b5f6109f960168361072a565b9150610a04826109c5565b602082019050919050565b5f6020820190508181035f830152610a26816109ed565b9050919050565b5f610a37826104f4565b9150610a42836104f4565b9250828201905080821115610a5a57610a596107a2565b5b9291505056fea2646970667358221220a58ba87d8a63fbab125961e9b8deb0f1345ae7be9e381ceabf7bb3c2d89c287364736f6c634300081e0033",
					"opcodes": "PUSH1 0x80 PUSH1 0x40 MSTORE CALLVALUE DUP1 ISZERO PUSH1 0xE JUMPI PUSH0 PUSH0 REVERT JUMPDEST POP PUSH2 0xA96 DUP1 PUSH2 0x1C PUSH0 CODECOPY PUSH0 RETURN INVALID PUSH1 0x80 PUSH1 0x40 MSTORE CALLVALUE DUP1 ISZERO PUSH2 0xF JUMPI PUSH0 PUSH0 REVERT JUMPDEST POP PUSH1 0x4 CALLDATASIZE LT PUSH2 0x60 JUMPI PUSH0 CALLDATALOAD PUSH1 0xE0 SHR DUP1 PUSH4 0x1ABE2AC2 EQ PUSH2 0x64 JUMPI DUP1 PUSH4 0x29432314 EQ PUSH2 0x82 JUMPI DUP1 PUSH4 0x64529DB5 EQ PUSH2 0xB2 JUMPI DUP1 PUSH4 0xE1819FF9 EQ PUSH2 0xBC JUMPI DUP1 PUSH4 0xF74E51EA EQ PUSH2 0xD8 JUMPI DUP1 PUSH4 0xFB8CBCED EQ PUSH2 0x108 JUMPI JUMPDEST PUSH0 PUSH0 REVERT JUMPDEST PUSH2 0x6C PUSH2 0x126 JUMP JUMPDEST PUSH1 0x40 MLOAD PUSH2 0x79 SWAP2 SWAP1 PUSH2 0x50C JUMP JUMPDEST PUSH1 0x40 MLOAD DUP1 SWAP2 SUB SWAP1 RETURN JUMPDEST PUSH2 0x9C PUSH1 0x4 DUP1 CALLDATASIZE SUB DUP2 ADD SWAP1 PUSH2 0x97 SWAP2 SWAP1 PUSH2 0x553 JUMP JUMPDEST PUSH2 0x1C7 JUMP JUMPDEST PUSH1 0x40 MLOAD PUSH2 0xA9 SWAP2 SWAP1 PUSH2 0x66E JUMP JUMPDEST PUSH1 0x40 MLOAD DUP1 SWAP2 SUB SWAP1 RETURN JUMPDEST PUSH2 0xBA PUSH2 0x2F0 JUMP JUMPDEST STOP JUMPDEST PUSH2 0xD6 PUSH1 0x4 DUP1 CALLDATASIZE SUB DUP2 ADD SWAP1 PUSH2 0xD1 SWAP2 SWAP1 PUSH2 0x68E JUMP JUMPDEST PUSH2 0x2FE JUMP JUMPDEST STOP JUMPDEST PUSH2 0xF2 PUSH1 0x4 DUP1 CALLDATASIZE SUB DUP2 ADD SWAP1 PUSH2 0xED SWAP2 SWAP1 PUSH2 0x6EC JUMP JUMPDEST PUSH2 0x326 JUMP JUMPDEST PUSH1 0x40 MLOAD PUSH2 0xFF SWAP2 SWAP1 PUSH2 0x50C JUMP JUMPDEST PUSH1 0x40 MLOAD DUP1 SWAP2 SUB SWAP1 RETURN JUMPDEST PUSH2 0x110 PUSH2 0x466 JUMP JUMPDEST PUSH1 0x40 MLOAD PUSH2 0x11D SWAP2 SWAP1 PUSH2 0x66E JUMP JUMPDEST PUSH1 0x40 MLOAD DUP1 SWAP2 SUB SWAP1 RETURN JUMPDEST PUSH0 PUSH0 PUSH0 DUP1 SLOAD SWAP1 POP GT PUSH2 0x16D JUMPI PUSH1 0x40 MLOAD PUSH32 0x8C379A000000000000000000000000000000000000000000000000000000000 DUP2 MSTORE PUSH1 0x4 ADD PUSH2 0x164 SWAP1 PUSH2 0x784 JUMP JUMPDEST PUSH1 0x40 MLOAD DUP1 SWAP2 SUB SWAP1 REVERT JUMPDEST PUSH0 PUSH0 PUSH1 0x1 PUSH0 DUP1 SLOAD SWAP1 POP PUSH2 0x180 SWAP2 SWAP1 PUSH2 0x7CF JUMP JUMPDEST DUP2 SLOAD DUP2 LT PUSH2 0x191 JUMPI PUSH2 0x190 PUSH2 0x802 JUMP JUMPDEST JUMPDEST SWAP1 PUSH0 MSTORE PUSH1 0x20 PUSH0 KECCAK256 ADD SLOAD SWAP1 POP PUSH0 DUP1 SLOAD DUP1 PUSH2 0x1AD JUMPI PUSH2 0x1AC PUSH2 0x82F JUMP JUMPDEST JUMPDEST PUSH1 0x1 SWAP1 SUB DUP2 DUP2 SWAP1 PUSH0 MSTORE PUSH1 0x20 PUSH0 KECCAK256 ADD PUSH0 SWAP1 SSTORE SWAP1 SSTORE DUP1 SWAP2 POP POP SWAP1 JUMP JUMPDEST PUSH1 0x60 PUSH0 PUSH1 0x3 PUSH8 0xFFFFFFFFFFFFFFFF DUP2 GT ISZERO PUSH2 0x1E5 JUMPI PUSH2 0x1E4 PUSH2 0x85C JUMP JUMPDEST JUMPDEST PUSH1 0x40 MLOAD SWAP1 DUP1 DUP3 MSTORE DUP1 PUSH1 0x20 MUL PUSH1 0x20 ADD DUP3 ADD PUSH1 0x40 MSTORE DUP1 ISZERO PUSH2 0x213 JUMPI DUP2 PUSH1 0x20 ADD PUSH1 0x20 DUP3 MUL DUP1 CALLDATASIZE DUP4 CALLDATACOPY DUP1 DUP3 ADD SWAP2 POP POP SWAP1 POP JUMPDEST POP SWAP1 POP DUP5 DUP7 GT PUSH2 0x22E JUMPI DUP6 DUP6 PUSH2 0x229 SWAP2 SWAP1 PUSH2 0x7CF JUMP JUMPDEST PUSH2 0x23B JUMP JUMPDEST DUP5 DUP7 PUSH2 0x23A SWAP2 SWAP1 PUSH2 0x7CF JUMP JUMPDEST JUMPDEST DUP2 PUSH0 DUP2 MLOAD DUP2 LT PUSH2 0x24E JUMPI PUSH2 0x24D PUSH2 0x802 JUMP JUMPDEST JUMPDEST PUSH1 0x20 MUL PUSH1 0x20 ADD ADD DUP2 DUP2 MSTORE POP POP DUP4 DUP6 GT PUSH2 0x272 JUMPI DUP5 DUP5 PUSH2 0x26D SWAP2 SWAP1 PUSH2 0x7CF JUMP JUMPDEST PUSH2 0x27F JUMP JUMPDEST DUP4 DUP6 PUSH2 0x27E SWAP2 SWAP1 PUSH2 0x7CF JUMP JUMPDEST JUMPDEST DUP2 PUSH1 0x1 DUP2 MLOAD DUP2 LT PUSH2 0x293 JUMPI PUSH2 0x292 PUSH2 0x802 JUMP JUMPDEST JUMPDEST PUSH1 0x20 MUL PUSH1 0x20 ADD ADD DUP2 DUP2 MSTORE POP POP DUP3 DUP5 GT PUSH2 0x2B7 JUMPI DUP4 DUP4 PUSH2 0x2B2 SWAP2 SWAP1 PUSH2 0x7CF JUMP JUMPDEST PUSH2 0x2C4 JUMP JUMPDEST DUP3 DUP5 PUSH2 0x2C3 SWAP2 SWAP1 PUSH2 0x7CF JUMP JUMPDEST JUMPDEST DUP2 PUSH1 0x2 DUP2 MLOAD DUP2 LT PUSH2 0x2D8 JUMPI PUSH2 0x2D7 PUSH2 0x802 JUMP JUMPDEST JUMPDEST PUSH1 0x20 MUL PUSH1 0x20 ADD ADD DUP2 DUP2 MSTORE POP POP DUP1 SWAP2 POP POP SWAP5 SWAP4 POP POP POP POP JUMP JUMPDEST PUSH0 PUSH0 PUSH2 0x2FC SWAP2 SWAP1 PUSH2 0x4BB JUMP JUMPDEST JUMP JUMPDEST PUSH0 DUP2 SWAP1 DUP1 PUSH1 0x1 DUP2 SLOAD ADD DUP1 DUP3 SSTORE DUP1 SWAP2 POP POP PUSH1 0x1 SWAP1 SUB SWAP1 PUSH0 MSTORE PUSH1 0x20 PUSH0 KECCAK256 ADD PUSH0 SWAP1 SWAP2 SWAP1 SWAP2 SWAP1 SWAP2 POP SSTORE POP JUMP JUMPDEST PUSH0 PUSH2 0x3E8 DUP4 LT ISZERO PUSH2 0x36C JUMPI PUSH1 0x40 MLOAD PUSH32 0x8C379A000000000000000000000000000000000000000000000000000000000 DUP2 MSTORE PUSH1 0x4 ADD PUSH2 0x363 SWAP1 PUSH2 0x8D3 JUMP JUMPDEST PUSH1 0x40 MLOAD DUP1 SWAP2 SUB SWAP1 REVERT JUMPDEST PUSH32 0xFFFFFFFFFFFFFFFFFFFFFFFFFFFFFFFFFFFFFFFFFFFFFFFFFFFFFFFFFFFFFF9C DUP3 SLT ISZERO DUP1 ISZERO PUSH2 0x39D JUMPI POP PUSH1 0x64 DUP3 SGT ISZERO JUMPDEST PUSH2 0x3DC JUMPI PUSH1 0x40 MLOAD PUSH32 0x8C379A000000000000000000000000000000000000000000000000000000000 DUP2 MSTORE PUSH1 0x4 ADD PUSH2 0x3D3 SWAP1 PUSH2 0x961 JUMP JUMPDEST PUSH1 0x40 MLOAD DUP1 SWAP2 SUB SWAP1 REVERT JUMPDEST PUSH0 DUP3 SLT ISZERO PUSH2 0x451 JUMPI PUSH0 DUP3 SWAP1 POP DUP1 PUSH2 0x3F2 SWAP1 PUSH2 0x97F JUMP JUMPDEST DUP5 LT ISZERO PUSH2 0x434 JUMPI PUSH1 0x40 MLOAD PUSH32 0x8C379A000000000000000000000000000000000000000000000000000000000 DUP2 MSTORE PUSH1 0x4 ADD PUSH2 0x42B SWAP1 PUSH2 0xA0F JUMP JUMPDEST PUSH1 0x40 MLOAD DUP1 SWAP2 SUB SWAP1 REVERT JUMPDEST DUP1 PUSH2 0x43E SWAP1 PUSH2 0x97F JUMP JUMPDEST DUP5 PUSH2 0x449 SWAP2 SWAP1 PUSH2 0x7CF JUMP JUMPDEST SWAP2 POP POP PUSH2 0x460 JUMP JUMPDEST DUP2 DUP4 PUSH2 0x45D SWAP2 SWAP1 PUSH2 0xA2D JUMP JUMPDEST SWAP1 POP JUMPDEST SWAP3 SWAP2 POP POP JUMP JUMPDEST PUSH1 0x60 PUSH0 DUP1 SLOAD DUP1 PUSH1 0x20 MUL PUSH1 0x20 ADD PUSH1 0x40 MLOAD SWAP1 DUP2 ADD PUSH1 0x40 MSTORE DUP1 SWAP3 SWAP2 SWAP1 DUP2 DUP2 MSTORE PUSH1 0x20 ADD DUP3 DUP1 SLOAD DUP1 ISZERO PUSH2 0x4B1 JUMPI PUSH1 0x20 MUL DUP3 ADD SWAP2 SWAP1 PUSH0 MSTORE PUSH1 0x20 PUSH0 KECCAK256 SWAP1 JUMPDEST DUP2 SLOAD DUP2 MSTORE PUSH1 0x20 ADD SWAP1 PUSH1 0x1 ADD SWAP1 DUP1 DUP4 GT PUSH2 0x49D JUMPI JUMPDEST POP POP POP POP POP SWAP1 POP SWAP1 JUMP JUMPDEST POP DUP1 SLOAD PUSH0 DUP3 SSTORE SWAP1 PUSH0 MSTORE PUSH1 0x20 PUSH0 KECCAK256 SWAP1 DUP2 ADD SWAP1 PUSH2 0x4D6 SWAP2 SWAP1 PUSH2 0x4D9 JUMP JUMPDEST POP JUMP JUMPDEST JUMPDEST DUP1 DUP3 GT ISZERO PUSH2 0x4F0 JUMPI PUSH0 DUP2 PUSH0 SWAP1 SSTORE POP PUSH1 0x1 ADD PUSH2 0x4DA JUMP JUMPDEST POP SWAP1 JUMP JUMPDEST PUSH0 DUP2 SWAP1 POP SWAP2 SWAP1 POP JUMP JUMPDEST PUSH2 0x506 DUP2 PUSH2 0x4F4 JUMP JUMPDEST DUP3 MSTORE POP POP JUMP JUMPDEST PUSH0 PUSH1 0x20 DUP3 ADD SWAP1 POP PUSH2 0x51F PUSH0 DUP4 ADD DUP5 PUSH2 0x4FD JUMP JUMPDEST SWAP3 SWAP2 POP POP JUMP JUMPDEST PUSH0 PUSH0 REVERT JUMPDEST PUSH2 0x532 DUP2 PUSH2 0x4F4 JUMP JUMPDEST DUP2 EQ PUSH2 0x53C JUMPI PUSH0 PUSH0 REVERT JUMPDEST POP JUMP JUMPDEST PUSH0 DUP2 CALLDATALOAD SWAP1 POP PUSH2 0x54D DUP2 PUSH2 0x529 JUMP JUMPDEST SWAP3 SWAP2 POP POP JUMP JUMPDEST PUSH0 PUSH0 PUSH0 PUSH0 PUSH1 0x80 DUP6 DUP8 SUB SLT ISZERO PUSH2 0x56B JUMPI PUSH2 0x56A PUSH2 0x525 JUMP JUMPDEST JUMPDEST PUSH0 PUSH2 0x578 DUP8 DUP3 DUP9 ADD PUSH2 0x53F JUMP JUMPDEST SWAP5 POP POP PUSH1 0x20 PUSH2 0x589 DUP8 DUP3 DUP9 ADD PUSH2 0x53F JUMP JUMPDEST SWAP4 POP POP PUSH1 0x40 PUSH2 0x59A DUP8 DUP3 DUP9 ADD PUSH2 0x53F JUMP JUMPDEST SWAP3 POP POP PUSH1 0x60 PUSH2 0x5AB DUP8 DUP3 DUP9 ADD PUSH2 0x53F JUMP JUMPDEST SWAP2 POP POP SWAP3 SWAP6 SWAP2 SWAP5 POP SWAP3 POP JUMP JUMPDEST PUSH0 DUP2 MLOAD SWAP1 POP SWAP2 SWAP1 POP JUMP JUMPDEST PUSH0 DUP3 DUP3 MSTORE PUSH1 0x20 DUP3 ADD SWAP1 POP SWAP3 SWAP2 POP POP JUMP JUMPDEST PUSH0 DUP2 SWAP1 POP PUSH1 0x20 DUP3 ADD SWAP1 POP SWAP2 SWAP1 POP JUMP JUMPDEST PUSH2 0x5E9 DUP2 PUSH2 0x4F4 JUMP JUMPDEST DUP3 MSTORE POP POP JUMP JUMPDEST PUSH0 PUSH2 0x5FA DUP4 DUP4 PUSH2 0x5E0 JUMP JUMPDEST PUSH1 0x20 DUP4 ADD SWAP1 POP SWAP3 SWAP2 POP POP JUMP JUMPDEST PUSH0 PUSH1 0x20 DUP3 ADD SWAP1 POP SWAP2 SWAP1 POP JUMP JUMPDEST PUSH0 PUSH2 0x61C DUP3 PUSH2 0x5B7 JUMP JUMPDEST PUSH2 0x626 DUP2 DUP6 PUSH2 0x5C1 JUMP JUMPDEST SWAP4 POP PUSH2 0x631 DUP4 PUSH2 0x5D1 JUMP JUMPDEST DUP1 PUSH0 JUMPDEST DUP4 DUP2 LT ISZERO PUSH2 0x661 JUMPI DUP2 MLOAD PUSH2 0x648 DUP9 DUP3 PUSH2 0x5EF JUMP JUMPDEST SWAP8 POP PUSH2 0x653 DUP4 PUSH2 0x606 JUMP JUMPDEST SWAP3 POP POP PUSH1 0x1 DUP2 ADD SWAP1 POP PUSH2 0x634 JUMP JUMPDEST POP DUP6 SWAP4 POP POP POP POP SWAP3 SWAP2 POP POP JUMP JUMPDEST PUSH0 PUSH1 0x20 DUP3 ADD SWAP1 POP DUP2 DUP2 SUB PUSH0 DUP4 ADD MSTORE PUSH2 0x686 DUP2 DUP5 PUSH2 0x612 JUMP JUMPDEST SWAP1 POP SWAP3 SWAP2 POP POP JUMP JUMPDEST PUSH0 PUSH1 0x20 DUP3 DUP5 SUB SLT ISZERO PUSH2 0x6A3 JUMPI PUSH2 0x6A2 PUSH2 0x525 JUMP JUMPDEST JUMPDEST PUSH0 PUSH2 0x6B0 DUP5 DUP3 DUP6 ADD PUSH2 0x53F JUMP JUMPDEST SWAP2 POP POP SWAP3 SWAP2 POP POP JUMP JUMPDEST PUSH0 DUP2 SWAP1 POP SWAP2 SWAP1 POP JUMP JUMPDEST PUSH2 0x6CB DUP2 PUSH2 0x6B9 JUMP JUMPDEST DUP2 EQ PUSH2 0x6D5 JUMPI PUSH0 PUSH0 REVERT JUMPDEST POP JUMP JUMPDEST PUSH0 DUP2 CALLDATALOAD SWAP1 POP PUSH2 0x6E6 DUP2 PUSH2 0x6C2 JUMP JUMPDEST SWAP3 SWAP2 POP POP JUMP JUMPDEST PUSH0 PUSH0 PUSH1 0x40 DUP4 DUP6 SUB SLT ISZERO PUSH2 0x702 JUMPI PUSH2 0x701 PUSH2 0x525 JUMP JUMPDEST JUMPDEST PUSH0 PUSH2 0x70F DUP6 DUP3 DUP7 ADD PUSH2 0x53F JUMP JUMPDEST SWAP3 POP POP PUSH1 0x20 PUSH2 0x720 DUP6 DUP3 DUP7 ADD PUSH2 0x6D8 JUMP JUMPDEST SWAP2 POP POP SWAP3 POP SWAP3 SWAP1 POP JUMP JUMPDEST PUSH0 DUP3 DUP3 MSTORE PUSH1 0x20 DUP3 ADD SWAP1 POP SWAP3 SWAP2 POP POP JUMP JUMPDEST PUSH32 0x417272617920697320656D707479000000000000000000000000000000000000 PUSH0 DUP3 ADD MSTORE POP JUMP JUMPDEST PUSH0 PUSH2 0x76E PUSH1 0xE DUP4 PUSH2 0x72A JUMP JUMPDEST SWAP2 POP PUSH2 0x779 DUP3 PUSH2 0x73A JUMP JUMPDEST PUSH1 0x20 DUP3 ADD SWAP1 POP SWAP2 SWAP1 POP JUMP JUMPDEST PUSH0 PUSH1 0x20 DUP3 ADD SWAP1 POP DUP2 DUP2 SUB PUSH0 DUP4 ADD MSTORE PUSH2 0x79B DUP2 PUSH2 0x762 JUMP JUMPDEST SWAP1 POP SWAP2 SWAP1 POP JUMP JUMPDEST PUSH32 0x4E487B7100000000000000000000000000000000000000000000000000000000 PUSH0 MSTORE PUSH1 0x11 PUSH1 0x4 MSTORE PUSH1 0x24 PUSH0 REVERT JUMPDEST PUSH0 PUSH2 0x7D9 DUP3 PUSH2 0x4F4 JUMP JUMPDEST SWAP2 POP PUSH2 0x7E4 DUP4 PUSH2 0x4F4 JUMP JUMPDEST SWAP3 POP DUP3 DUP3 SUB SWAP1 POP DUP2 DUP2 GT ISZERO PUSH2 0x7FC JUMPI PUSH2 0x7FB PUSH2 0x7A2 JUMP JUMPDEST JUMPDEST SWAP3 SWAP2 POP POP JUMP JUMPDEST PUSH32 0x4E487B7100000000000000000000000000000000000000000000000000000000 PUSH0 MSTORE PUSH1 0x32 PUSH1 0x4 MSTORE PUSH1 0x24 PUSH0 REVERT JUMPDEST PUSH32 0x4E487B7100000000000000000000000000000000000000000000000000000000 PUSH0 MSTORE PUSH1 0x31 PUSH1 0x4 MSTORE PUSH1 0x24 PUSH0 REVERT JUMPDEST PUSH32 0x4E487B7100000000000000000000000000000000000000000000000000000000 PUSH0 MSTORE PUSH1 0x41 PUSH1 0x4 MSTORE PUSH1 0x24 PUSH0 REVERT JUMPDEST PUSH32 0x42617365206D757374206265203E3D2031303030000000000000000000000000 PUSH0 DUP3 ADD MSTORE POP JUMP JUMPDEST PUSH0 PUSH2 0x8BD PUSH1 0x14 DUP4 PUSH2 0x72A JUMP JUMPDEST SWAP2 POP PUSH2 0x8C8 DUP3 PUSH2 0x889 JUMP JUMPDEST PUSH1 0x20 DUP3 ADD SWAP1 POP SWAP2 SWAP1 POP JUMP JUMPDEST PUSH0 PUSH1 0x20 DUP3 ADD SWAP1 POP DUP2 DUP2 SUB PUSH0 DUP4 ADD MSTORE PUSH2 0x8EA DUP2 PUSH2 0x8B1 JUMP JUMPDEST SWAP1 POP SWAP2 SWAP1 POP JUMP JUMPDEST PUSH32 0x4D6F646966696572206D757374206265206265747765656E202D31303020616E PUSH0 DUP3 ADD MSTORE PUSH32 0x6420313030000000000000000000000000000000000000000000000000000000 PUSH1 0x20 DUP3 ADD MSTORE POP JUMP JUMPDEST PUSH0 PUSH2 0x94B PUSH1 0x25 DUP4 PUSH2 0x72A JUMP JUMPDEST SWAP2 POP PUSH2 0x956 DUP3 PUSH2 0x8F1 JUMP JUMPDEST PUSH1 0x40 DUP3 ADD SWAP1 POP SWAP2 SWAP1 POP JUMP JUMPDEST PUSH0 PUSH1 0x20 DUP3 ADD SWAP1 POP DUP2 DUP2 SUB PUSH0 DUP4 ADD MSTORE PUSH2 0x978 DUP2 PUSH2 0x93F JUMP JUMPDEST SWAP1 POP SWAP2 SWAP1 POP JUMP JUMPDEST PUSH0 PUSH2 0x989 DUP3 PUSH2 0x6B9 JUMP JUMPDEST SWAP2 POP PUSH32 0x8000000000000000000000000000000000000000000000000000000000000000 DUP3 SUB PUSH2 0x9BB JUMPI PUSH2 0x9BA PUSH2 0x7A2 JUMP JUMPDEST JUMPDEST DUP2 PUSH0 SUB SWAP1 POP SWAP2 SWAP1 POP JUMP JUMPDEST PUSH32 0x526573756C7420776F756C6420756E646572666C6F7700000000000000000000 PUSH0 DUP3 ADD MSTORE POP JUMP JUMPDEST PUSH0 PUSH2 0x9F9 PUSH1 0x16 DUP4 PUSH2 0x72A JUMP JUMPDEST SWAP2 POP PUSH2 0xA04 DUP3 PUSH2 0x9C5 JUMP JUMPDEST PUSH1 0x20 DUP3 ADD SWAP1 POP SWAP2 SWAP1 POP JUMP JUMPDEST PUSH0 PUSH1 0x20 DUP3 ADD SWAP1 POP DUP2 DUP2 SUB PUSH0 DUP4 ADD MSTORE PUSH2 0xA26 DUP2 PUSH2 0x9ED JUMP JUMPDEST SWAP1 POP SWAP2 SWAP1 POP JUMP JUMPDEST PUSH0 PUSH2 0xA37 DUP3 PUSH2 0x4F4 JUMP JUMPDEST SWAP2 POP PUSH2 0xA42 DUP4 PUSH2 0x4F4 JUMP JUMPDEST SWAP3 POP DUP3 DUP3 ADD SWAP1 POP DUP1 DUP3 GT ISZERO PUSH2 0xA5A JUMPI PUSH2 0xA59 PUSH2 0x7A2 JUMP JUMPDEST JUMPDEST SWAP3 SWAP2 POP POP JUMP INVALID LOG2 PUSH5 0x6970667358 0x22 SLT KECCAK256 0xA5 DUP12 0xA8 PUSH30 0x8A63FBAB125961E9B8DEB0F1345AE7BE9E381CEABF7BB3C2D89C28736473 PUSH16 0x6C634300081E00330000000000000000 "
				},
				"gasEstimates": {
					"creation": {
						"codeDepositCost": "542000",
						"executionCost": "573",
						"totalCost": "542573"
					},
					"external": {
						"addToArr(uint256)": "46864",
						"applyModifier(uint256,int256)": "infinite",
						"diffWithNeighbor(uint256,uint256,uint256,uint256)": "infinite",
						"getArr()": "infinite",
						"popWithReturn()": "infinite",
						"resetArr()": "infinite"
					}
				},
				"methodIdentifiers": {
					"addToArr(uint256)": "e1819ff9",
					"applyModifier(uint256,int256)": "f74e51ea",
					"diffWithNeighbor(uint256,uint256,uint256,uint256)": "29432314",
					"getArr()": "fb8cbced",
					"popWithReturn()": "1abe2ac2",
					"resetArr()": "64529db5"
				}
			},
			"storageLayout": {
				"storage": [
					{
						"astId": 4,
						"contract": "contracts/ErrorTriageExcercise.sol:ErrorTriageExercise",
						"label": "arr",
						"offset": 0,
						"slot": "0",
						"type": "t_array(t_uint256)dyn_storage"
					}
				],
				"types": {
					"t_array(t_uint256)dyn_storage": {
						"base": "t_uint256",
						"encoding": "dynamic_array",
						"label": "uint256[]",
						"numberOfBytes": "32"
					},
					"t_uint256": {
						"encoding": "inplace",
						"label": "uint256",
						"numberOfBytes": "32"
					}
				}
			},
			"userdoc": {
				"kind": "user",
				"methods": {
					"applyModifier(uint256,int256)": {
						"notice": "Changes the _base by the value of _modifier with validation"
					},
					"diffWithNeighbor(uint256,uint256,uint256,uint256)": {
						"notice": "Finds the absolute difference between each uint with its neighbor"
					},
					"popWithReturn()": {
						"notice": "Pop the last element and return it"
					}
				},
				"version": 1
			}
		}
	}
}