{
	"contracts/ControlStructures.sol": {
		"ControlStructures": {
			"abi": [
				{
					"inputs": [
						{
							"internalType": "uint256",
							"name": "time",
							"type": "uint256"
						}
					],
					"name": "AfterHours",
					"type": "error"
				},
				{
					"inputs": [
						{
							"internalType": "uint256",
							"name": "_time",
							"type": "uint256"
						}
					],
					"name": "doNotDisturb",
					"outputs": [
						{
							"internalType": "string",
							"name": "",
							"type": "string"
						}
					],
					"stateMutability": "pure",
					"type": "function"
				},
				{
					"inputs": [
						{
							"internalType": "uint256",
							"name": "_number",
							"type": "uint256"
						}
					],
					"name": "fizzBuzz",
					"outputs": [
						{
							"internalType": "string",
							"name": "",
							"type": "string"
						}
					],
					"stateMutability": "pure",
					"type": "function"
				}
			],
			"devdoc": {
				"kind": "dev",
				"methods": {},
				"version": 1
			},
			"evm": {
				"assembly": "    /* \"contracts/ControlStructures.sol\":58:1507  contract ControlStructures {... */\n  mstore(0x40, 0x80)\n  callvalue\n  dup1\n  iszero\n  tag_1\n  jumpi\n  revert(0x00, 0x00)\ntag_1:\n  pop\n  dataSize(sub_0)\n  dup1\n  dataOffset(sub_0)\n  0x00\n  codecopy\n  0x00\n  return\nstop\n\nsub_0: assembly {\n        /* \"contracts/ControlStructures.sol\":58:1507  contract ControlStructures {... */\n      mstore(0x40, 0x80)\n      callvalue\n      dup1\n      iszero\n      tag_1\n      jumpi\n      revert(0x00, 0x00)\n    tag_1:\n      pop\n      jumpi(tag_2, lt(calldatasize, 0x04))\n      shr(0xe0, calldataload(0x00))\n      dup1\n      0x440c93e2\n      eq\n      tag_3\n      jumpi\n      dup1\n      0xe655b7bb\n      eq\n      tag_4\n      jumpi\n    tag_2:\n      revert(0x00, 0x00)\n        /* \"contracts/ControlStructures.sol\":202:563  function fizzBuzz(uint256 _number) external pure returns (string memory) {... */\n    tag_3:\n      tag_5\n      0x04\n      dup1\n      calldatasize\n      sub\n      dup2\n      add\n      swap1\n      tag_6\n      swap2\n      swap1\n      tag_7\n      jump\t// in\n    tag_6:\n      tag_8\n      jump\t// in\n    tag_5:\n      mload(0x40)\n      tag_9\n      swap2\n      swap1\n      tag_10\n      jump\t// in\n    tag_9:\n      mload(0x40)\n      dup1\n      swap2\n      sub\n      swap1\n      return\n        /* \"contracts/ControlStructures.sol\":625:1505  function doNotDisturb(uint256 _time) external pure returns (string memory) {... */\n    tag_4:\n      tag_11\n      0x04\n      dup1\n      calldatasize\n      sub\n      dup2\n      add\n      swap1\n      tag_12\n      swap2\n      swap1\n      tag_7\n      jump\t// in\n    tag_12:\n      tag_13\n      jump\t// in\n    tag_11:\n      mload(0x40)\n      tag_14\n      swap2\n      swap1\n      tag_10\n      jump\t// in\n    tag_14:\n      mload(0x40)\n      dup1\n      swap2\n      sub\n      swap1\n      return\n        /* \"contracts/ControlStructures.sol\":202:563  function fizzBuzz(uint256 _number) external pure returns (string memory) {... */\n    tag_8:\n        /* \"contracts/ControlStructures.sol\":260:273  string memory */\n      0x60\n        /* \"contracts/ControlStructures.sol\":305:306  0 */\n      0x00\n        /* \"contracts/ControlStructures.sol\":299:301  15 */\n      0x0f\n        /* \"contracts/ControlStructures.sol\":289:296  _number */\n      dup4\n        /* \"contracts/ControlStructures.sol\":289:301  _number % 15 */\n      tag_16\n      swap2\n      swap1\n      tag_17\n      jump\t// in\n    tag_16:\n        /* \"contracts/ControlStructures.sol\":289:306  _number % 15 == 0 */\n      sub\n        /* \"contracts/ControlStructures.sol\":285:557  if (_number % 15 == 0) {... */\n      tag_18\n      jumpi\n        /* \"contracts/ControlStructures.sol\":322:339  return \"FizzBuzz\" */\n      mload(0x40)\n      dup1\n      0x40\n      add\n      0x40\n      mstore\n      dup1\n      0x08\n      dup2\n      mstore\n      0x20\n      add\n      0x46697a7a42757a7a000000000000000000000000000000000000000000000000\n      dup2\n      mstore\n      pop\n      swap1\n      pop\n      jump(tag_15)\n        /* \"contracts/ControlStructures.sol\":285:557  if (_number % 15 == 0) {... */\n    tag_18:\n        /* \"contracts/ControlStructures.sol\":405:406  0 */\n      0x00\n        /* \"contracts/ControlStructures.sol\":400:401  3 */\n      0x03\n        /* \"contracts/ControlStructures.sol\":390:397  _number */\n      dup4\n        /* \"contracts/ControlStructures.sol\":390:401  _number % 3 */\n      tag_20\n      swap2\n      swap1\n      tag_17\n      jump\t// in\n    tag_20:\n        /* \"contracts/ControlStructures.sol\":390:406  _number % 3 == 0 */\n      sub\n        /* \"contracts/ControlStructures.sol\":386:557  if (_number % 3 == 0) {... */\n      tag_21\n      jumpi\n        /* \"contracts/ControlStructures.sol\":422:435  return \"Fizz\" */\n      mload(0x40)\n      dup1\n      0x40\n      add\n      0x40\n      mstore\n      dup1\n      0x04\n      dup2\n      mstore\n      0x20\n      add\n      0x46697a7a00000000000000000000000000000000000000000000000000000000\n      dup2\n      mstore\n      pop\n      swap1\n      pop\n      jump(tag_15)\n        /* \"contracts/ControlStructures.sol\":386:557  if (_number % 3 == 0) {... */\n    tag_21:\n        /* \"contracts/ControlStructures.sol\":471:472  0 */\n      0x00\n        /* \"contracts/ControlStructures.sol\":466:467  5 */\n      0x05\n        /* \"contracts/ControlStructures.sol\":456:463  _number */\n      dup4\n        /* \"contracts/ControlStructures.sol\":456:467  _number % 5 */\n      tag_23\n      swap2\n      swap1\n      tag_17\n      jump\t// in\n    tag_23:\n        /* \"contracts/ControlStructures.sol\":456:472  _number % 5 == 0 */\n      sub\n        /* \"contracts/ControlStructures.sol\":452:557  if (_number % 5 == 0) {... */\n      tag_24\n      jumpi\n        /* \"contracts/ControlStructures.sol\":488:501  return \"Buzz\" */\n      mload(0x40)\n      dup1\n      0x40\n      add\n      0x40\n      mstore\n      dup1\n      0x04\n      dup2\n      mstore\n      0x20\n      add\n      0x42757a7a00000000000000000000000000000000000000000000000000000000\n      dup2\n      mstore\n      pop\n      swap1\n      pop\n      jump(tag_15)\n        /* \"contracts/ControlStructures.sol\":452:557  if (_number % 5 == 0) {... */\n    tag_24:\n        /* \"contracts/ControlStructures.sol\":532:546  return \"Splat\" */\n      mload(0x40)\n      dup1\n      0x40\n      add\n      0x40\n      mstore\n      dup1\n      0x05\n      dup2\n      mstore\n      0x20\n      add\n      0x53706c6174000000000000000000000000000000000000000000000000000000\n      dup2\n      mstore\n      pop\n      swap1\n      pop\n        /* \"contracts/ControlStructures.sol\":202:563  function fizzBuzz(uint256 _number) external pure returns (string memory) {... */\n    tag_15:\n      swap2\n      swap1\n      pop\n      jump\t// out\n        /* \"contracts/ControlStructures.sol\":625:1505  function doNotDisturb(uint256 _time) external pure returns (string memory) {... */\n    tag_13:\n        /* \"contracts/ControlStructures.sol\":685:698  string memory */\n      0x60\n        /* \"contracts/ControlStructures.sol\":776:780  2400 */\n      0x0960\n        /* \"contracts/ControlStructures.sol\":767:772  _time */\n      dup3\n        /* \"contracts/ControlStructures.sol\":767:780  _time >= 2400 */\n      lt\n        /* \"contracts/ControlStructures.sol\":763:856  if (_time >= 2400) {... */\n      tag_27\n      jumpi\n        /* \"contracts/ControlStructures.sol\":803:808  false */\n      0x00\n        /* \"contracts/ControlStructures.sol\":796:809  assert(false) */\n      tag_28\n      jumpi\n      tag_29\n      tag_30\n      jump\t// in\n    tag_29:\n    tag_28:\n        /* \"contracts/ControlStructures.sol\":763:856  if (_time >= 2400) {... */\n    tag_27:\n        /* \"contracts/ControlStructures.sol\":908:912  2200 */\n      0x0898\n        /* \"contracts/ControlStructures.sol\":899:904  _time */\n      dup3\n        /* \"contracts/ControlStructures.sol\":899:912  _time >= 2200 */\n      lt\n      iszero\n        /* \"contracts/ControlStructures.sol\":899:927  _time >= 2200 || _time < 800 */\n      dup1\n      tag_31\n      jumpi\n      pop\n        /* \"contracts/ControlStructures.sol\":924:927  800 */\n      0x0320\n        /* \"contracts/ControlStructures.sol\":916:921  _time */\n      dup3\n        /* \"contracts/ControlStructures.sol\":916:927  _time < 800 */\n      lt\n        /* \"contracts/ControlStructures.sol\":899:927  _time >= 2200 || _time < 800 */\n    tag_31:\n        /* \"contracts/ControlStructures.sol\":895:978  if (_time >= 2200 || _time < 800) {... */\n      iszero\n      tag_32\n      jumpi\n        /* \"contracts/ControlStructures.sol\":961:966  _time */\n      dup2\n        /* \"contracts/ControlStructures.sol\":950:967  AfterHours(_time) */\n      mload(0x40)\n      0xa4bf701e00000000000000000000000000000000000000000000000000000000\n      dup2\n      mstore\n      0x04\n      add\n      tag_33\n      swap2\n      swap1\n      tag_34\n      jump\t// in\n    tag_33:\n      mload(0x40)\n      dup1\n      swap2\n      sub\n      swap1\n      revert\n        /* \"contracts/ControlStructures.sol\":895:978  if (_time >= 2200 || _time < 800) {... */\n    tag_32:\n        /* \"contracts/ControlStructures.sol\":1030:1034  1200 */\n      0x04b0\n        /* \"contracts/ControlStructures.sol\":1021:1026  _time */\n      dup3\n        /* \"contracts/ControlStructures.sol\":1021:1034  _time >= 1200 */\n      lt\n      iszero\n        /* \"contracts/ControlStructures.sol\":1021:1051  _time >= 1200 && _time <= 1259 */\n      dup1\n      iszero\n      tag_35\n      jumpi\n      pop\n        /* \"contracts/ControlStructures.sol\":1047:1051  1259 */\n      0x04eb\n        /* \"contracts/ControlStructures.sol\":1038:1043  _time */\n      dup3\n        /* \"contracts/ControlStructures.sol\":1038:1051  _time <= 1259 */\n      gt\n      iszero\n        /* \"contracts/ControlStructures.sol\":1021:1051  _time >= 1200 && _time <= 1259 */\n    tag_35:\n        /* \"contracts/ControlStructures.sol\":1017:1097  if (_time >= 1200 && _time <= 1259) {... */\n      iszero\n      tag_36\n      jumpi\n        /* \"contracts/ControlStructures.sol\":1067:1086  revert(\"At lunch!\") */\n      mload(0x40)\n      0x08c379a000000000000000000000000000000000000000000000000000000000\n      dup2\n      mstore\n      0x04\n      add\n      tag_37\n      swap1\n      tag_38\n      jump\t// in\n    tag_37:\n      mload(0x40)\n      dup1\n      swap2\n      sub\n      swap1\n      revert\n        /* \"contracts/ControlStructures.sol\":1017:1097  if (_time >= 1200 && _time <= 1259) {... */\n    tag_36:\n        /* \"contracts/ControlStructures.sol\":1152:1155  800 */\n      0x0320\n        /* \"contracts/ControlStructures.sol\":1143:1148  _time */\n      dup3\n        /* \"contracts/ControlStructures.sol\":1143:1155  _time >= 800 */\n      lt\n      iszero\n        /* \"contracts/ControlStructures.sol\":1143:1172  _time >= 800 && _time <= 1159 */\n      dup1\n      iszero\n      tag_39\n      jumpi\n      pop\n        /* \"contracts/ControlStructures.sol\":1168:1172  1159 */\n      0x0487\n        /* \"contracts/ControlStructures.sol\":1159:1164  _time */\n      dup3\n        /* \"contracts/ControlStructures.sol\":1159:1172  _time <= 1159 */\n      gt\n      iszero\n        /* \"contracts/ControlStructures.sol\":1143:1172  _time >= 800 && _time <= 1159 */\n    tag_39:\n        /* \"contracts/ControlStructures.sol\":1139:1386  if (_time >= 800 && _time <= 1159) {... */\n      iszero\n      tag_40\n      jumpi\n        /* \"contracts/ControlStructures.sol\":1188:1205  return \"Morning!\" */\n      mload(0x40)\n      dup1\n      0x40\n      add\n      0x40\n      mstore\n      dup1\n      0x08\n      dup2\n      mstore\n      0x20\n      add\n      0x4d6f726e696e6721000000000000000000000000000000000000000000000000\n      dup2\n      mstore\n      pop\n      swap1\n      pop\n      jump(tag_26)\n        /* \"contracts/ControlStructures.sol\":1139:1386  if (_time >= 800 && _time <= 1159) {... */\n    tag_40:\n        /* \"contracts/ControlStructures.sol\":1235:1239  1300 */\n      0x0514\n        /* \"contracts/ControlStructures.sol\":1226:1231  _time */\n      dup3\n        /* \"contracts/ControlStructures.sol\":1226:1239  _time >= 1300 */\n      lt\n      iszero\n        /* \"contracts/ControlStructures.sol\":1226:1256  _time >= 1300 && _time <= 1759 */\n      dup1\n      iszero\n      tag_42\n      jumpi\n      pop\n        /* \"contracts/ControlStructures.sol\":1252:1256  1759 */\n      0x06df\n        /* \"contracts/ControlStructures.sol\":1243:1248  _time */\n      dup3\n        /* \"contracts/ControlStructures.sol\":1243:1256  _time <= 1759 */\n      gt\n      iszero\n        /* \"contracts/ControlStructures.sol\":1226:1256  _time >= 1300 && _time <= 1759 */\n    tag_42:\n        /* \"contracts/ControlStructures.sol\":1222:1386  if (_time >= 1300 && _time <= 1759) {... */\n      iszero\n      tag_43\n      jumpi\n        /* \"contracts/ControlStructures.sol\":1272:1291  return \"Afternoon!\" */\n      mload(0x40)\n      dup1\n      0x40\n      add\n      0x40\n      mstore\n      dup1\n      0x0a\n      dup2\n      mstore\n      0x20\n      add\n      0x41667465726e6f6f6e2100000000000000000000000000000000000000000000\n      dup2\n      mstore\n      pop\n      swap1\n      pop\n      jump(tag_26)\n        /* \"contracts/ControlStructures.sol\":1222:1386  if (_time >= 1300 && _time <= 1759) {... */\n    tag_43:\n        /* \"contracts/ControlStructures.sol\":1321:1325  1800 */\n      0x0708\n        /* \"contracts/ControlStructures.sol\":1312:1317  _time */\n      dup3\n        /* \"contracts/ControlStructures.sol\":1312:1325  _time >= 1800 */\n      lt\n      iszero\n        /* \"contracts/ControlStructures.sol\":1312:1342  _time >= 1800 && _time <= 2200 */\n      dup1\n      iszero\n      tag_45\n      jumpi\n      pop\n        /* \"contracts/ControlStructures.sol\":1338:1342  2200 */\n      0x0898\n        /* \"contracts/ControlStructures.sol\":1329:1334  _time */\n      dup3\n        /* \"contracts/ControlStructures.sol\":1329:1342  _time <= 2200 */\n      gt\n      iszero\n        /* \"contracts/ControlStructures.sol\":1312:1342  _time >= 1800 && _time <= 2200 */\n    tag_45:\n        /* \"contracts/ControlStructures.sol\":1308:1386  if (_time >= 1800 && _time <= 2200) {... */\n      iszero\n      tag_46\n      jumpi\n        /* \"contracts/ControlStructures.sol\":1358:1375  return \"Evening!\" */\n      mload(0x40)\n      dup1\n      0x40\n      add\n      0x40\n      mstore\n      dup1\n      0x08\n      dup2\n      mstore\n      0x20\n      add\n      0x4576656e696e6721000000000000000000000000000000000000000000000000\n      dup2\n      mstore\n      pop\n      swap1\n      pop\n      jump(tag_26)\n        /* \"contracts/ControlStructures.sol\":1308:1386  if (_time >= 1800 && _time <= 2200) {... */\n    tag_46:\n        /* \"contracts/ControlStructures.sol\":1476:1498  revert(\"Invalid time\") */\n      mload(0x40)\n      0x08c379a000000000000000000000000000000000000000000000000000000000\n      dup2\n      mstore\n      0x04\n      add\n      tag_47\n      swap1\n      tag_48\n      jump\t// in\n    tag_47:\n      mload(0x40)\n      dup1\n      swap2\n      sub\n      swap1\n      revert\n        /* \"contracts/ControlStructures.sol\":625:1505  function doNotDisturb(uint256 _time) external pure returns (string memory) {... */\n    tag_26:\n      swap2\n      swap1\n      pop\n      jump\t// out\n        /* \"#utility.yul\":88:205   */\n    tag_50:\n        /* \"#utility.yul\":197:198   */\n      0x00\n        /* \"#utility.yul\":194:195   */\n      0x00\n        /* \"#utility.yul\":187:199   */\n      revert\n        /* \"#utility.yul\":334:411   */\n    tag_52:\n        /* \"#utility.yul\":371:378   */\n      0x00\n        /* \"#utility.yul\":400:405   */\n      dup2\n        /* \"#utility.yul\":389:405   */\n      swap1\n      pop\n        /* \"#utility.yul\":334:411   */\n      swap2\n      swap1\n      pop\n      jump\t// out\n        /* \"#utility.yul\":417:539   */\n    tag_53:\n        /* \"#utility.yul\":490:514   */\n      tag_72\n        /* \"#utility.yul\":508:513   */\n      dup2\n        /* \"#utility.yul\":490:514   */\n      tag_52\n      jump\t// in\n    tag_72:\n        /* \"#utility.yul\":483:488   */\n      dup2\n        /* \"#utility.yul\":480:515   */\n      eq\n        /* \"#utility.yul\":470:533   */\n      tag_73\n      jumpi\n        /* \"#utility.yul\":529:530   */\n      0x00\n        /* \"#utility.yul\":526:527   */\n      0x00\n        /* \"#utility.yul\":519:531   */\n      revert\n        /* \"#utility.yul\":470:533   */\n    tag_73:\n        /* \"#utility.yul\":417:539   */\n      pop\n      jump\t// out\n        /* \"#utility.yul\":545:684   */\n    tag_54:\n        /* \"#utility.yul\":591:596   */\n      0x00\n        /* \"#utility.yul\":629:635   */\n      dup2\n        /* \"#utility.yul\":616:636   */\n      calldataload\n        /* \"#utility.yul\":607:636   */\n      swap1\n      pop\n        /* \"#utility.yul\":645:678   */\n      tag_75\n        /* \"#utility.yul\":672:677   */\n      dup2\n        /* \"#utility.yul\":645:678   */\n      tag_53\n      jump\t// in\n    tag_75:\n        /* \"#utility.yul\":545:684   */\n      swap3\n      swap2\n      pop\n      pop\n      jump\t// out\n        /* \"#utility.yul\":690:1019   */\n    tag_7:\n        /* \"#utility.yul\":749:755   */\n      0x00\n        /* \"#utility.yul\":798:800   */\n      0x20\n        /* \"#utility.yul\":786:795   */\n      dup3\n        /* \"#utility.yul\":777:784   */\n      dup5\n        /* \"#utility.yul\":773:796   */\n      sub\n        /* \"#utility.yul\":769:801   */\n      slt\n        /* \"#utility.yul\":766:885   */\n      iszero\n      tag_77\n      jumpi\n        /* \"#utility.yul\":804:883   */\n      tag_78\n      tag_50\n      jump\t// in\n    tag_78:\n        /* \"#utility.yul\":766:885   */\n    tag_77:\n        /* \"#utility.yul\":924:925   */\n      0x00\n        /* \"#utility.yul\":949:1002   */\n      tag_79\n        /* \"#utility.yul\":994:1001   */\n      dup5\n        /* \"#utility.yul\":985:991   */\n      dup3\n        /* \"#utility.yul\":974:983   */\n      dup6\n        /* \"#utility.yul\":970:992   */\n      add\n        /* \"#utility.yul\":949:1002   */\n      tag_54\n      jump\t// in\n    tag_79:\n        /* \"#utility.yul\":939:1002   */\n      swap2\n      pop\n        /* \"#utility.yul\":895:1012   */\n      pop\n        /* \"#utility.yul\":690:1019   */\n      swap3\n      swap2\n      pop\n      pop\n      jump\t// out\n        /* \"#utility.yul\":1025:1124   */\n    tag_55:\n        /* \"#utility.yul\":1077:1083   */\n      0x00\n        /* \"#utility.yul\":1111:1116   */\n      dup2\n        /* \"#utility.yul\":1105:1117   */\n      mload\n        /* \"#utility.yul\":1095:1117   */\n      swap1\n      pop\n        /* \"#utility.yul\":1025:1124   */\n      swap2\n      swap1\n      pop\n      jump\t// out\n        /* \"#utility.yul\":1130:1299   */\n    tag_56:\n        /* \"#utility.yul\":1214:1225   */\n      0x00\n        /* \"#utility.yul\":1248:1254   */\n      dup3\n        /* \"#utility.yul\":1243:1246   */\n      dup3\n        /* \"#utility.yul\":1236:1255   */\n      mstore\n        /* \"#utility.yul\":1288:1292   */\n      0x20\n        /* \"#utility.yul\":1283:1286   */\n      dup3\n        /* \"#utility.yul\":1279:1293   */\n      add\n        /* \"#utility.yul\":1264:1293   */\n      swap1\n      pop\n        /* \"#utility.yul\":1130:1299   */\n      swap3\n      swap2\n      pop\n      pop\n      jump\t// out\n        /* \"#utility.yul\":1305:1444   */\n    tag_57:\n        /* \"#utility.yul\":1394:1400   */\n      dup3\n        /* \"#utility.yul\":1389:1392   */\n      dup2\n        /* \"#utility.yul\":1384:1387   */\n      dup4\n        /* \"#utility.yul\":1378:1401   */\n      mcopy\n        /* \"#utility.yul\":1435:1436   */\n      0x00\n        /* \"#utility.yul\":1426:1432   */\n      dup4\n        /* \"#utility.yul\":1421:1424   */\n      dup4\n        /* \"#utility.yul\":1417:1433   */\n      add\n        /* \"#utility.yul\":1410:1437   */\n      mstore\n        /* \"#utility.yul\":1305:1444   */\n      pop\n      pop\n      pop\n      jump\t// out\n        /* \"#utility.yul\":1450:1552   */\n    tag_58:\n        /* \"#utility.yul\":1491:1497   */\n      0x00\n        /* \"#utility.yul\":1542:1544   */\n      0x1f\n        /* \"#utility.yul\":1538:1545   */\n      not\n        /* \"#utility.yul\":1533:1535   */\n      0x1f\n        /* \"#utility.yul\":1526:1531   */\n      dup4\n        /* \"#utility.yul\":1522:1536   */\n      add\n        /* \"#utility.yul\":1518:1546   */\n      and\n        /* \"#utility.yul\":1508:1546   */\n      swap1\n      pop\n        /* \"#utility.yul\":1450:1552   */\n      swap2\n      swap1\n      pop\n      jump\t// out\n        /* \"#utility.yul\":1558:1935   */\n    tag_59:\n        /* \"#utility.yul\":1646:1649   */\n      0x00\n        /* \"#utility.yul\":1674:1713   */\n      tag_85\n        /* \"#utility.yul\":1707:1712   */\n      dup3\n        /* \"#utility.yul\":1674:1713   */\n      tag_55\n      jump\t// in\n    tag_85:\n        /* \"#utility.yul\":1729:1800   */\n      tag_86\n        /* \"#utility.yul\":1793:1799   */\n      dup2\n        /* \"#utility.yul\":1788:1791   */\n      dup6\n        /* \"#utility.yul\":1729:1800   */\n      tag_56\n      jump\t// in\n    tag_86:\n        /* \"#utility.yul\":1722:1800   */\n      swap4\n      pop\n        /* \"#utility.yul\":1809:1874   */\n      tag_87\n        /* \"#utility.yul\":1867:1873   */\n      dup2\n        /* \"#utility.yul\":1862:1865   */\n      dup6\n        /* \"#utility.yul\":1855:1859   */\n      0x20\n        /* \"#utility.yul\":1848:1853   */\n      dup7\n        /* \"#utility.yul\":1844:1860   */\n      add\n        /* \"#utility.yul\":1809:1874   */\n      tag_57\n      jump\t// in\n    tag_87:\n        /* \"#utility.yul\":1899:1928   */\n      tag_88\n        /* \"#utility.yul\":1921:1927   */\n      dup2\n        /* \"#utility.yul\":1899:1928   */\n      tag_58\n      jump\t// in\n    tag_88:\n        /* \"#utility.yul\":1894:1897   */\n      dup5\n        /* \"#utility.yul\":1890:1929   */\n      add\n        /* \"#utility.yul\":1883:1929   */\n      swap2\n      pop\n        /* \"#utility.yul\":1650:1935   */\n      pop\n        /* \"#utility.yul\":1558:1935   */\n      swap3\n      swap2\n      pop\n      pop\n      jump\t// out\n        /* \"#utility.yul\":1941:2254   */\n    tag_10:\n        /* \"#utility.yul\":2054:2058   */\n      0x00\n        /* \"#utility.yul\":2092:2094   */\n      0x20\n        /* \"#utility.yul\":2081:2090   */\n      dup3\n        /* \"#utility.yul\":2077:2095   */\n      add\n        /* \"#utility.yul\":2069:2095   */\n      swap1\n      pop\n        /* \"#utility.yul\":2141:2150   */\n      dup2\n        /* \"#utility.yul\":2135:2139   */\n      dup2\n        /* \"#utility.yul\":2131:2151   */\n      sub\n        /* \"#utility.yul\":2127:2128   */\n      0x00\n        /* \"#utility.yul\":2116:2125   */\n      dup4\n        /* \"#utility.yul\":2112:2129   */\n      add\n        /* \"#utility.yul\":2105:2152   */\n      mstore\n        /* \"#utility.yul\":2169:2247   */\n      tag_90\n        /* \"#utility.yul\":2242:2246   */\n      dup2\n        /* \"#utility.yul\":2233:2239   */\n      dup5\n        /* \"#utility.yul\":2169:2247   */\n      tag_59\n      jump\t// in\n    tag_90:\n        /* \"#utility.yul\":2161:2247   */\n      swap1\n      pop\n        /* \"#utility.yul\":1941:2254   */\n      swap3\n      swap2\n      pop\n      pop\n      jump\t// out\n        /* \"#utility.yul\":2260:2440   */\n    tag_60:\n        /* \"#utility.yul\":2308:2385   */\n      0x4e487b7100000000000000000000000000000000000000000000000000000000\n        /* \"#utility.yul\":2305:2306   */\n      0x00\n        /* \"#utility.yul\":2298:2386   */\n      mstore\n        /* \"#utility.yul\":2405:2409   */\n      0x12\n        /* \"#utility.yul\":2402:2403   */\n      0x04\n        /* \"#utility.yul\":2395:2410   */\n      mstore\n        /* \"#utility.yul\":2429:2433   */\n      0x24\n        /* \"#utility.yul\":2426:2427   */\n      0x00\n        /* \"#utility.yul\":2419:2434   */\n      revert\n        /* \"#utility.yul\":2446:2622   */\n    tag_17:\n        /* \"#utility.yul\":2478:2479   */\n      0x00\n        /* \"#utility.yul\":2495:2515   */\n      tag_93\n        /* \"#utility.yul\":2513:2514   */\n      dup3\n        /* \"#utility.yul\":2495:2515   */\n      tag_52\n      jump\t// in\n    tag_93:\n        /* \"#utility.yul\":2490:2515   */\n      swap2\n      pop\n        /* \"#utility.yul\":2529:2549   */\n      tag_94\n        /* \"#utility.yul\":2547:2548   */\n      dup4\n        /* \"#utility.yul\":2529:2549   */\n      tag_52\n      jump\t// in\n    tag_94:\n        /* \"#utility.yul\":2524:2549   */\n      swap3\n      pop\n        /* \"#utility.yul\":2568:2569   */\n      dup3\n        /* \"#utility.yul\":2558:2593   */\n      tag_95\n      jumpi\n        /* \"#utility.yul\":2573:2591   */\n      tag_96\n      tag_60\n      jump\t// in\n    tag_96:\n        /* \"#utility.yul\":2558:2593   */\n    tag_95:\n        /* \"#utility.yul\":2614:2615   */\n      dup3\n        /* \"#utility.yul\":2611:2612   */\n      dup3\n        /* \"#utility.yul\":2607:2616   */\n      mod\n        /* \"#utility.yul\":2602:2616   */\n      swap1\n      pop\n        /* \"#utility.yul\":2446:2622   */\n      swap3\n      swap2\n      pop\n      pop\n      jump\t// out\n        /* \"#utility.yul\":2628:2808   */\n    tag_30:\n        /* \"#utility.yul\":2676:2753   */\n      0x4e487b7100000000000000000000000000000000000000000000000000000000\n        /* \"#utility.yul\":2673:2674   */\n      0x00\n        /* \"#utility.yul\":2666:2754   */\n      mstore\n        /* \"#utility.yul\":2773:2777   */\n      0x01\n        /* \"#utility.yul\":2770:2771   */\n      0x04\n        /* \"#utility.yul\":2763:2778   */\n      mstore\n        /* \"#utility.yul\":2797:2801   */\n      0x24\n        /* \"#utility.yul\":2794:2795   */\n      0x00\n        /* \"#utility.yul\":2787:2802   */\n      revert\n        /* \"#utility.yul\":2814:2932   */\n    tag_61:\n        /* \"#utility.yul\":2901:2925   */\n      tag_99\n        /* \"#utility.yul\":2919:2924   */\n      dup2\n        /* \"#utility.yul\":2901:2925   */\n      tag_52\n      jump\t// in\n    tag_99:\n        /* \"#utility.yul\":2896:2899   */\n      dup3\n        /* \"#utility.yul\":2889:2926   */\n      mstore\n        /* \"#utility.yul\":2814:2932   */\n      pop\n      pop\n      jump\t// out\n        /* \"#utility.yul\":2938:3160   */\n    tag_34:\n        /* \"#utility.yul\":3031:3035   */\n      0x00\n        /* \"#utility.yul\":3069:3071   */\n      0x20\n        /* \"#utility.yul\":3058:3067   */\n      dup3\n        /* \"#utility.yul\":3054:3072   */\n      add\n        /* \"#utility.yul\":3046:3072   */\n      swap1\n      pop\n        /* \"#utility.yul\":3082:3153   */\n      tag_101\n        /* \"#utility.yul\":3150:3151   */\n      0x00\n        /* \"#utility.yul\":3139:3148   */\n      dup4\n        /* \"#utility.yul\":3135:3152   */\n      add\n        /* \"#utility.yul\":3126:3132   */\n      dup5\n        /* \"#utility.yul\":3082:3153   */\n      tag_61\n      jump\t// in\n    tag_101:\n        /* \"#utility.yul\":2938:3160   */\n      swap3\n      swap2\n      pop\n      pop\n      jump\t// out\n        /* \"#utility.yul\":3166:3325   */\n    tag_62:\n        /* \"#utility.yul\":3306:3317   */\n      0x4174206c756e6368210000000000000000000000000000000000000000000000\n        /* \"#utility.yul\":3302:3303   */\n      0x00\n        /* \"#utility.yul\":3294:3300   */\n      dup3\n        /* \"#utility.yul\":3290:3304   */\n      add\n        /* \"#utility.yul\":3283:3318   */\n      mstore\n        /* \"#utility.yul\":3166:3325   */\n      pop\n      jump\t// out\n        /* \"#utility.yul\":3331:3696   */\n    tag_63:\n        /* \"#utility.yul\":3473:3476   */\n      0x00\n        /* \"#utility.yul\":3494:3560   */\n      tag_104\n        /* \"#utility.yul\":3558:3559   */\n      0x09\n        /* \"#utility.yul\":3553:3556   */\n      dup4\n        /* \"#utility.yul\":3494:3560   */\n      tag_56\n      jump\t// in\n    tag_104:\n        /* \"#utility.yul\":3487:3560   */\n      swap2\n      pop\n        /* \"#utility.yul\":3569:3662   */\n      tag_105\n        /* \"#utility.yul\":3658:3661   */\n      dup3\n        /* \"#utility.yul\":3569:3662   */\n      tag_62\n      jump\t// in\n    tag_105:\n        /* \"#utility.yul\":3687:3689   */\n      0x20\n        /* \"#utility.yul\":3682:3685   */\n      dup3\n        /* \"#utility.yul\":3678:3690   */\n      add\n        /* \"#utility.yul\":3671:3690   */\n      swap1\n      pop\n        /* \"#utility.yul\":3331:3696   */\n      swap2\n      swap1\n      pop\n      jump\t// out\n        /* \"#utility.yul\":3702:4121   */\n    tag_38:\n        /* \"#utility.yul\":3868:3872   */\n      0x00\n        /* \"#utility.yul\":3906:3908   */\n      0x20\n        /* \"#utility.yul\":3895:3904   */\n      dup3\n        /* \"#utility.yul\":3891:3909   */\n      add\n        /* \"#utility.yul\":3883:3909   */\n      swap1\n      pop\n        /* \"#utility.yul\":3955:3964   */\n      dup2\n        /* \"#utility.yul\":3949:3953   */\n      dup2\n        /* \"#utility.yul\":3945:3965   */\n      sub\n        /* \"#utility.yul\":3941:3942   */\n      0x00\n        /* \"#utility.yul\":3930:3939   */\n      dup4\n        /* \"#utility.yul\":3926:3943   */\n      add\n        /* \"#utility.yul\":3919:3966   */\n      mstore\n        /* \"#utility.yul\":3983:4114   */\n      tag_107\n        /* \"#utility.yul\":4109:4113   */\n      dup2\n        /* \"#utility.yul\":3983:4114   */\n      tag_63\n      jump\t// in\n    tag_107:\n        /* \"#utility.yul\":3975:4114   */\n      swap1\n      pop\n        /* \"#utility.yul\":3702:4121   */\n      swap2\n      swap1\n      pop\n      jump\t// out\n        /* \"#utility.yul\":4127:4289   */\n    tag_64:\n        /* \"#utility.yul\":4267:4281   */\n      0x496e76616c69642074696d650000000000000000000000000000000000000000\n        /* \"#utility.yul\":4263:4264   */\n      0x00\n        /* \"#utility.yul\":4255:4261   */\n      dup3\n        /* \"#utility.yul\":4251:4265   */\n      add\n        /* \"#utility.yul\":4244:4282   */\n      mstore\n        /* \"#utility.yul\":4127:4289   */\n      pop\n      jump\t// out\n        /* \"#utility.yul\":4295:4661   */\n    tag_65:\n        /* \"#utility.yul\":4437:4440   */\n      0x00\n        /* \"#utility.yul\":4458:4525   */\n      tag_110\n        /* \"#utility.yul\":4522:4524   */\n      0x0c\n        /* \"#utility.yul\":4517:4520   */\n      dup4\n        /* \"#utility.yul\":4458:4525   */\n      tag_56\n      jump\t// in\n    tag_110:\n        /* \"#utility.yul\":4451:4525   */\n      swap2\n      pop\n        /* \"#utility.yul\":4534:4627   */\n      tag_111\n        /* \"#utility.yul\":4623:4626   */\n      dup3\n        /* \"#utility.yul\":4534:4627   */\n      tag_64\n      jump\t// in\n    tag_111:\n        /* \"#utility.yul\":4652:4654   */\n      0x20\n        /* \"#utility.yul\":4647:4650   */\n      dup3\n        /* \"#utility.yul\":4643:4655   */\n      add\n        /* \"#utility.yul\":4636:4655   */\n      swap1\n      pop\n        /* \"#utility.yul\":4295:4661   */\n      swap2\n      swap1\n      pop\n      jump\t// out\n        /* \"#utility.yul\":4667:5086   */\n    tag_48:\n        /* \"#utility.yul\":4833:4837   */\n      0x00\n        /* \"#utility.yul\":4871:4873   */\n      0x20\n        /* \"#utility.yul\":4860:4869   */\n      dup3\n        /* \"#utility.yul\":4856:4874   */\n      add\n        /* \"#utility.yul\":4848:4874   */\n      swap1\n      pop\n        /* \"#utility.yul\":4920:4929   */\n      dup2\n        /* \"#utility.yul\":4914:4918   */\n      dup2\n        /* \"#utility.yul\":4910:4930   */\n      sub\n        /* \"#utility.yul\":4906:4907   */\n      0x00\n        /* \"#utility.yul\":4895:4904   */\n      dup4\n        /* \"#utility.yul\":4891:4908   */\n      add\n        /* \"#utility.yul\":4884:4931   */\n      mstore\n        /* \"#utility.yul\":4948:5079   */\n      tag_113\n        /* \"#utility.yul\":5074:5078   */\n      dup2\n        /* \"#utility.yul\":4948:5079   */\n      tag_65\n      jump\t// in\n    tag_113:\n        /* \"#utility.yul\":4940:5079   */\n      swap1\n      pop\n        /* \"#utility.yul\":4667:5086   */\n      swap2\n      swap1\n      pop\n      jump\t// out\n\n    auxdata: 0xa26469706673582212205806007d8cc0bb5aedb916f7cd3b03748854ed4f32e4a98c58934c65367b970664736f6c634300081e0033\n}\n",
				"bytecode": {
					"linkReferences": {},
					"object": "6080604052348015600e575f5ffd5b506106768061001c5f395ff3fe608060405234801561000f575f5ffd5b5060043610610034575f3560e01c8063440c93e214610038578063e655b7bb14610068575b5f5ffd5b610052600480360381019061004d9190610403565b610098565b60405161005f919061049e565b60405180910390f35b610082600480360381019061007d9190610403565b6101c8565b60405161008f919061049e565b60405180910390f35b60605f600f836100a891906104eb565b036100ea576040518060400160405280600881526020017f46697a7a42757a7a00000000000000000000000000000000000000000000000081525090506101c3565b5f6003836100f891906104eb565b0361013a576040518060400160405280600481526020017f46697a7a0000000000000000000000000000000000000000000000000000000081525090506101c3565b5f60058361014891906104eb565b0361018a576040518060400160405280600481526020017f42757a7a0000000000000000000000000000000000000000000000000000000081525090506101c3565b6040518060400160405280600581526020017f53706c617400000000000000000000000000000000000000000000000000000081525090505b919050565b606061096082106101e2575f6101e1576101e061051b565b5b5b610898821015806101f4575061032082105b1561023657816040517fa4bf701e00000000000000000000000000000000000000000000000000000000815260040161022d9190610557565b60405180910390fd5b6104b0821015801561024a57506104eb8211155b1561028a576040517f08c379a0000000000000000000000000000000000000000000000000000000008152600401610281906105ba565b60405180910390fd5b610320821015801561029e57506104878211155b156102e0576040518060400160405280600881526020017f4d6f726e696e672100000000000000000000000000000000000000000000000081525090506103c7565b61051482101580156102f457506106df8211155b15610336576040518060400160405280600a81526020017f41667465726e6f6f6e210000000000000000000000000000000000000000000081525090506103c7565b610708821015801561034a57506108988211155b1561038c576040518060400160405280600881526020017f4576656e696e672100000000000000000000000000000000000000000000000081525090506103c7565b6040517f08c379a00000000000000000000000000000000000000000000000000000000081526004016103be90610622565b60405180910390fd5b919050565b5f5ffd5b5f819050919050565b6103e2816103d0565b81146103ec575f5ffd5b50565b5f813590506103fd816103d9565b92915050565b5f60208284031215610418576104176103cc565b5b5f610425848285016103ef565b91505092915050565b5f81519050919050565b5f82825260208201905092915050565b8281835e5f83830152505050565b5f601f19601f8301169050919050565b5f6104708261042e565b61047a8185610438565b935061048a818560208601610448565b61049381610456565b840191505092915050565b5f6020820190508181035f8301526104b68184610466565b905092915050565b7f4e487b71000000000000000000000000000000000000000000000000000000005f52601260045260245ffd5b5f6104f5826103d0565b9150610500836103d0565b9250826105105761050f6104be565b5b828206905092915050565b7f4e487b71000000000000000000000000000000000000000000000000000000005f52600160045260245ffd5b610551816103d0565b82525050565b5f60208201905061056a5f830184610548565b92915050565b7f4174206c756e63682100000000000000000000000000000000000000000000005f82015250565b5f6105a4600983610438565b91506105af82610570565b602082019050919050565b5f6020820190508181035f8301526105d181610598565b9050919050565b7f496e76616c69642074696d6500000000000000000000000000000000000000005f82015250565b5f61060c600c83610438565b9150610617826105d8565b602082019050919050565b5f6020820190508181035f83015261063981610600565b905091905056fea26469706673582212205806007d8cc0bb5aedb916f7cd3b03748854ed4f32e4a98c58934c65367b970664736f6c634300081e0033",
					"opcodes": "PUSH1 0x80 PUSH1 0x40 MSTORE CALLVALUE DUP1 ISZERO PUSH1 0xE JUMPI PUSH0 PUSH0 REVERT JUMPDEST POP PUSH2 0x676 DUP1 PUSH2 0x1C PUSH0 CODECOPY PUSH0 RETURN INVALID PUSH1 0x80 PUSH1 0x40 MSTORE CALLVALUE DUP1 ISZERO PUSH2 0xF JUMPI PUSH0 PUSH0 REVERT JUMPDEST POP PUSH1 0x4 CALLDATASIZE LT PUSH2 0x34 JUMPI PUSH0 CALLDATALOAD PUSH1 0xE0 SHR DUP1 PUSH4 0x440C93E2 EQ PUSH2 0x38 JUMPI DUP1 PUSH4 0xE655B7BB EQ PUSH2 0x68 JUMPI JUMPDEST PUSH0 PUSH0 REVERT JUMPDEST PUSH2 0x52 PUSH1 0x4 DUP1 CALLDATASIZE SUB DUP2 ADD SWAP1 PUSH2 0x4D SWAP2 SWAP1 PUSH2 0x403 JUMP JUMPDEST PUSH2 0x98 JUMP JUMPDEST PUSH1 0x40 MLOAD PUSH2 0x5F SWAP2 SWAP1 PUSH2 0x49E JUMP JUMPDEST PUSH1 0x40 MLOAD DUP1 SWAP2 SUB SWAP1 RETURN JUMPDEST PUSH2 0x82 PUSH1 0x4 DUP1 CALLDATASIZE SUB DUP2 ADD SWAP1 PUSH2 0x7D SWAP2 SWAP1 PUSH2 0x403 JUMP JUMPDEST PUSH2 0x1C8 JUMP JUMPDEST PUSH1 0x40 MLOAD PUSH2 0x8F SWAP2 SWAP1 PUSH2 0x49E JUMP JUMPDEST PUSH1 0x40 MLOAD DUP1 SWAP2 SUB SWAP1 RETURN JUMPDEST PUSH1 0x60 PUSH0 PUSH1 0xF DUP4 PUSH2 0xA8 SWAP2 SWAP1 PUSH2 0x4EB JUMP JUMPDEST SUB PUSH2 0xEA JUMPI PUSH1 0x40 MLOAD DUP1 PUSH1 0x40 ADD PUSH1 0x40 MSTORE DUP1 PUSH1 0x8 DUP2 MSTORE PUSH1 0x20 ADD PUSH32 0x46697A7A42757A7A000000000000000000000000000000000000000000000000 DUP2 MSTORE POP SWAP1 POP PUSH2 0x1C3 JUMP JUMPDEST PUSH0 PUSH1 0x3 DUP4 PUSH2 0xF8 SWAP2 SWAP1 PUSH2 0x4EB JUMP JUMPDEST SUB PUSH2 0x13A JUMPI PUSH1 0x40 MLOAD DUP1 PUSH1 0x40 ADD PUSH1 0x40 MSTORE DUP1 PUSH1 0x4 DUP2 MSTORE PUSH1 0x20 ADD PUSH32 0x46697A7A00000000000000000000000000000000000000000000000000000000 DUP2 MSTORE POP SWAP1 POP PUSH2 0x1C3 JUMP JUMPDEST PUSH0 PUSH1 0x5 DUP4 PUSH2 0x148 SWAP2 SWAP1 PUSH2 0x4EB JUMP JUMPDEST SUB PUSH2 0x18A JUMPI PUSH1 0x40 MLOAD DUP1 PUSH1 0x40 ADD PUSH1 0x40 MSTORE DUP1 PUSH1 0x4 DUP2 MSTORE PUSH1 0x20 ADD PUSH32 0x42757A7A00000000000000000000000000000000000000000000000000000000 DUP2 MSTORE POP SWAP1 POP PUSH2 0x1C3 JUMP JUMPDEST PUSH1 0x40 MLOAD DUP1 PUSH1 0x40 ADD PUSH1 0x40 MSTORE DUP1 PUSH1 0x5 DUP2 MSTORE PUSH1 0x20 ADD PUSH32 0x53706C6174000000000000000000000000000000000000000000000000000000 DUP2 MSTORE POP SWAP1 POP JUMPDEST SWAP2 SWAP1 POP JUMP JUMPDEST PUSH1 0x60 PUSH2 0x960 DUP3 LT PUSH2 0x1E2 JUMPI PUSH0 PUSH2 0x1E1 JUMPI PUSH2 0x1E0 PUSH2 0x51B JUMP JUMPDEST JUMPDEST JUMPDEST PUSH2 0x898 DUP3 LT ISZERO DUP1 PUSH2 0x1F4 JUMPI POP PUSH2 0x320 DUP3 LT JUMPDEST ISZERO PUSH2 0x236 JUMPI DUP2 PUSH1 0x40 MLOAD PUSH32 0xA4BF701E00000000000000000000000000000000000000000000000000000000 DUP2 MSTORE PUSH1 0x4 ADD PUSH2 0x22D SWAP2 SWAP1 PUSH2 0x557 JUMP JUMPDEST PUSH1 0x40 MLOAD DUP1 SWAP2 SUB SWAP1 REVERT JUMPDEST PUSH2 0x4B0 DUP3 LT ISZERO DUP1 ISZERO PUSH2 0x24A JUMPI POP PUSH2 0x4EB DUP3 GT ISZERO JUMPDEST ISZERO PUSH2 0x28A JUMPI PUSH1 0x40 MLOAD PUSH32 0x8C379A000000000000000000000000000000000000000000000000000000000 DUP2 MSTORE PUSH1 0x4 ADD PUSH2 0x281 SWAP1 PUSH2 0x5BA JUMP JUMPDEST PUSH1 0x40 MLOAD DUP1 SWAP2 SUB SWAP1 REVERT JUMPDEST PUSH2 0x320 DUP3 LT ISZERO DUP1 ISZERO PUSH2 0x29E JUMPI POP PUSH2 0x487 DUP3 GT ISZERO JUMPDEST ISZERO PUSH2 0x2E0 JUMPI PUSH1 0x40 MLOAD DUP1 PUSH1 0x40 ADD PUSH1 0x40 MSTORE DUP1 PUSH1 0x8 DUP2 MSTORE PUSH1 0x20 ADD PUSH32 0x4D6F726E696E6721000000000000000000000000000000000000000000000000 DUP2 MSTORE POP SWAP1 POP PUSH2 0x3C7 JUMP JUMPDEST PUSH2 0x514 DUP3 LT ISZERO DUP1 ISZERO PUSH2 0x2F4 JUMPI POP PUSH2 0x6DF DUP3 GT ISZERO JUMPDEST ISZERO PUSH2 0x336 JUMPI PUSH1 0x40 MLOAD DUP1 PUSH1 0x40 ADD PUSH1 0x40 MSTORE DUP1 PUSH1 0xA DUP2 MSTORE PUSH1 0x20 ADD PUSH32 0x41667465726E6F6F6E2100000000000000000000000000000000000000000000 DUP2 MSTORE POP SWAP1 POP PUSH2 0x3C7 JUMP JUMPDEST PUSH2 0x708 DUP3 LT ISZERO DUP1 ISZERO PUSH2 0x34A JUMPI POP PUSH2 0x898 DUP3 GT ISZERO JUMPDEST ISZERO PUSH2 0x38C JUMPI PUSH1 0x40 MLOAD DUP1 PUSH1 0x40 ADD PUSH1 0x40 MSTORE DUP1 PUSH1 0x8 DUP2 MSTORE PUSH1 0x20 ADD PUSH32 0x4576656E696E6721000000000000000000000000000000000000000000000000 DUP2 MSTORE POP SWAP1 POP PUSH2 0x3C7 JUMP JUMPDEST PUSH1 0x40 MLOAD PUSH32 0x8C379A000000000000000000000000000000000000000000000000000000000 DUP2 MSTORE PUSH1 0x4 ADD PUSH2 0x3BE SWAP1 PUSH2 0x622 JUMP JUMPDEST PUSH1 0x40 MLOAD DUP1 SWAP2 SUB SWAP1 REVERT JUMPDEST SWAP2 SWAP1 POP JUMP JUMPDEST PUSH0 PUSH0 REVERT JUMPDEST PUSH0 DUP2 SWAP1 POP SWAP2 SWAP1 POP JUMP JUMPDEST PUSH2 0x3E2 DUP2 PUSH2 0x3D0 JUMP JUMPDEST DUP2 EQ PUSH2 0x3EC JUMPI PUSH0 PUSH0 REVERT JUMPDEST POP JUMP JUMPDEST PUSH0 DUP2 CALLDATALOAD SWAP1 POP PUSH2 0x3FD DUP2 PUSH2 0x3D9 JUMP JUMPDEST SWAP3 SWAP2 POP POP JUMP JUMPDEST PUSH0 PUSH1 0x20 DUP3 DUP5 SUB SLT ISZERO PUSH2 0x418 JUMPI PUSH2 0x417 PUSH2 0x3CC JUMP JUMPDEST JUMPDEST PUSH0 PUSH2 0x425 DUP5 DUP3 DUP6 ADD PUSH2 0x3EF JUMP JUMPDEST SWAP2 POP POP SWAP3 SWAP2 POP POP JUMP JUMPDEST PUSH0 DUP2 MLOAD SWAP1 POP SWAP2 SWAP1 POP JUMP JUMPDEST PUSH0 DUP3 DUP3 MSTORE PUSH1 0x20 DUP3 ADD SWAP1 POP SWAP3 SWAP2 POP POP JUMP JUMPDEST DUP3 DUP2 DUP4 MCOPY PUSH0 DUP4 DUP4 ADD MSTORE POP POP POP JUMP JUMPDEST PUSH0 PUSH1 0x1F NOT PUSH1 0x1F DUP4 ADD AND SWAP1 POP SWAP2 SWAP1 POP JUMP JUMPDEST PUSH0 PUSH2 0x470 DUP3 PUSH2 0x42E JUMP JUMPDEST PUSH2 0x47A DUP2 DUP6 PUSH2 0x438 JUMP JUMPDEST SWAP4 POP PUSH2 0x48A DUP2 DUP6 PUSH1 0x20 DUP7 ADD PUSH2 0x448 JUMP JUMPDEST PUSH2 0x493 DUP2 PUSH2 0x456 JUMP JUMPDEST DUP5 ADD SWAP2 POP POP SWAP3 SWAP2 POP POP JUMP JUMPDEST PUSH0 PUSH1 0x20 DUP3 ADD SWAP1 POP DUP2 DUP2 SUB PUSH0 DUP4 ADD MSTORE PUSH2 0x4B6 DUP2 DUP5 PUSH2 0x466 JUMP JUMPDEST SWAP1 POP SWAP3 SWAP2 POP POP JUMP JUMPDEST PUSH32 0x4E487B7100000000000000000000000000000000000000000000000000000000 PUSH0 MSTORE PUSH1 0x12 PUSH1 0x4 MSTORE PUSH1 0x24 PUSH0 REVERT JUMPDEST PUSH0 PUSH2 0x4F5 DUP3 PUSH2 0x3D0 JUMP JUMPDEST SWAP2 POP PUSH2 0x500 DUP4 PUSH2 0x3D0 JUMP JUMPDEST SWAP3 POP DUP3 PUSH2 0x510 JUMPI PUSH2 0x50F PUSH2 0x4BE JUMP JUMPDEST JUMPDEST DUP3 DUP3 MOD SWAP1 POP SWAP3 SWAP2 POP POP JUMP JUMPDEST PUSH32 0x4E487B7100000000000000000000000000000000000000000000000000000000 PUSH0 MSTORE PUSH1 0x1 PUSH1 0x4 MSTORE PUSH1 0x24 PUSH0 REVERT JUMPDEST PUSH2 0x551 DUP2 PUSH2 0x3D0 JUMP JUMPDEST DUP3 MSTORE POP POP JUMP JUMPDEST PUSH0 PUSH1 0x20 DUP3 ADD SWAP1 POP PUSH2 0x56A PUSH0 DUP4 ADD DUP5 PUSH2 0x548 JUMP JUMPDEST SWAP3 SWAP2 POP POP JUMP JUMPDEST PUSH32 0x4174206C756E6368210000000000000000000000000000000000000000000000 PUSH0 DUP3 ADD MSTORE POP JUMP JUMPDEST PUSH0 PUSH2 0x5A4 PUSH1 0x9 DUP4 PUSH2 0x438 JUMP JUMPDEST SWAP2 POP PUSH2 0x5AF DUP3 PUSH2 0x570 JUMP JUMPDEST PUSH1 0x20 DUP3 ADD SWAP1 POP SWAP2 SWAP1 POP JUMP JUMPDEST PUSH0 PUSH1 0x20 DUP3 ADD SWAP1 POP DUP2 DUP2 SUB PUSH0 DUP4 ADD MSTORE PUSH2 0x5D1 DUP2 PUSH2 0x598 JUMP JUMPDEST SWAP1 POP SWAP2 SWAP1 POP JUMP JUMPDEST PUSH32 0x496E76616C69642074696D650000000000000000000000000000000000000000 PUSH0 DUP3 ADD MSTORE POP JUMP JUMPDEST PUSH0 PUSH2 0x60C PUSH1 0xC DUP4 PUSH2 0x438 JUMP JUMPDEST SWAP2 POP PUSH2 0x617 DUP3 PUSH2 0x5D8 JUMP JUMPDEST PUSH1 0x20 DUP3 ADD SWAP1 POP SWAP2 SWAP1 POP JUMP JUMPDEST PUSH0 PUSH1 0x20 DUP3 ADD SWAP1 POP DUP2 DUP2 SUB PUSH0 DUP4 ADD MSTORE PUSH2 0x639 DUP2 PUSH2 0x600 JUMP JUMPDEST SWAP1 POP SWAP2 SWAP1 POP JUMP INVALID LOG2 PUSH5 0x6970667358 0x22 SLT KECCAK256 PC MOD STOP PUSH30 0x8CC0BB5AEDB916F7CD3B03748854ED4F32E4A98C58934C65367B97066473 PUSH16 0x6C634300081E00330000000000000000 "
				},
				"gasEstimates": {
					"creation": {
						"codeDepositCost": "330800",
						"executionCost": "366",
						"totalCost": "331166"
					},
					"external": {
						"doNotDisturb(uint256)": "infinite",
						"fizzBuzz(uint256)": "infinite"
					}
				},
				"methodIdentifiers": {
					"doNotDisturb(uint256)": "e655b7bb",
					"fizzBuzz(uint256)": "440c93e2"
				}
			},
			"storageLayout": {
				"storage": [],
				"types": null
			},
			"userdoc": {
				"kind": "user",
				"methods": {},
				"version": 1
			}
		}
	}
}